{
  "contracts/Implementations.sol": {
    "ChainshipNoFee": {
      "abi": [
        {
          "inputs": [
            {
              "internalType": "uint256",
              "name": "contractSeed",
              "type": "uint256"
            }
          ],
          "stateMutability": "nonpayable",
          "type": "constructor"
        },
        {
          "inputs": [
            {
              "internalType": "address",
              "name": "owner",
              "type": "address"
            }
          ],
          "name": "OwnableInvalidOwner",
          "type": "error"
        },
        {
          "inputs": [
            {
              "internalType": "address",
              "name": "account",
              "type": "address"
            }
          ],
          "name": "OwnableUnauthorizedAccount",
          "type": "error"
        },
        {
          "inputs": [],
          "name": "ReentrancyGuardReentrantCall",
          "type": "error"
        },
        {
          "anonymous": false,
          "inputs": [
            {
              "indexed": false,
              "internalType": "Chainship.RoomId",
              "name": "roomId",
              "type": "uint256"
            },
            {
              "indexed": false,
              "internalType": "address",
              "name": "player",
              "type": "address"
            },
            {
              "indexed": false,
              "internalType": "uint256",
              "name": "boardCommitment",
              "type": "uint256"
            }
          ],
          "name": "BoardSubmitted",
          "type": "event"
        },
        {
          "anonymous": false,
          "inputs": [
            {
              "indexed": false,
              "internalType": "Chainship.RoomId",
              "name": "roomId",
              "type": "uint256"
            },
            {
              "indexed": false,
              "internalType": "address",
              "name": "player1",
              "type": "address"
            },
            {
              "indexed": false,
              "internalType": "uint256",
              "name": "entryFee",
              "type": "uint256"
            },
            {
              "indexed": false,
              "internalType": "uint256",
              "name": "commission",
              "type": "uint256"
            }
          ],
          "name": "CreatedRoom",
          "type": "event"
        },
        {
          "anonymous": false,
          "inputs": [
            {
              "indexed": false,
              "internalType": "Chainship.RoomId",
              "name": "roomId",
              "type": "uint256"
            },
            {
              "indexed": false,
              "internalType": "address",
              "name": "player",
              "type": "address"
            }
          ],
          "name": "DishonestyClaimed",
          "type": "event"
        },
        {
          "anonymous": false,
          "inputs": [
            {
              "indexed": false,
              "internalType": "Chainship.RoomId",
              "name": "roomId",
              "type": "uint256"
            },
            {
              "indexed": false,
              "internalType": "address",
              "name": "startingPlayer",
              "type": "address"
            }
          ],
          "name": "GameStarted",
          "type": "event"
        },
        {
          "anonymous": false,
          "inputs": [
            {
              "indexed": false,
              "internalType": "Chainship.RoomId",
              "name": "roomId",
              "type": "uint256"
            },
            {
              "indexed": false,
              "internalType": "address",
              "name": "player",
              "type": "address"
            },
            {
              "indexed": false,
              "internalType": "bool[]",
              "name": "board",
              "type": "bool[]"
            }
          ],
          "name": "HonestyProven",
          "type": "event"
        },
        {
          "anonymous": false,
          "inputs": [
            {
              "indexed": false,
              "internalType": "Chainship.RoomId",
              "name": "roomId",
              "type": "uint256"
            },
            {
              "indexed": false,
              "internalType": "address",
              "name": "player",
              "type": "address"
            }
          ],
          "name": "IdleClaimed",
          "type": "event"
        },
        {
          "anonymous": false,
          "inputs": [
            {
              "indexed": false,
              "internalType": "Chainship.RoomId",
              "name": "roomId",
              "type": "uint256"
            },
            {
              "indexed": false,
              "internalType": "address",
              "name": "player2",
              "type": "address"
            }
          ],
          "name": "JoinedRoom",
          "type": "event"
        },
        {
          "anonymous": false,
          "inputs": [
            {
              "indexed": true,
              "internalType": "address",
              "name": "previousOwner",
              "type": "address"
            },
            {
              "indexed": true,
              "internalType": "address",
              "name": "newOwner",
              "type": "address"
            }
          ],
          "name": "OwnershipTransferred",
          "type": "event"
        },
        {
          "anonymous": false,
          "inputs": [
            {
              "indexed": false,
              "internalType": "address",
              "name": "player",
              "type": "address"
            },
            {
              "indexed": false,
              "internalType": "uint256",
              "name": "prize",
              "type": "uint256"
            }
          ],
          "name": "PrizeReceived",
          "type": "event"
        },
        {
          "anonymous": false,
          "inputs": [
            {
              "indexed": false,
              "internalType": "Chainship.RoomId",
              "name": "roomId",
              "type": "uint256"
            },
            {
              "indexed": false,
              "internalType": "address",
              "name": "player",
              "type": "address"
            },
            {
              "indexed": false,
              "internalType": "uint256",
              "name": "noShots",
              "type": "uint256"
            },
            {
              "components": [
                {
                  "internalType": "uint8",
                  "name": "x",
                  "type": "uint8"
                },
                {
                  "internalType": "uint8",
                  "name": "y",
                  "type": "uint8"
                }
              ],
              "indexed": false,
              "internalType": "struct Chainship.Position",
              "name": "position",
              "type": "tuple"
            },
            {
              "indexed": false,
              "internalType": "enum Chainship.Answer",
              "name": "answer",
              "type": "uint8"
            },
            {
              "indexed": false,
              "internalType": "uint256",
              "name": "newAnswersCommitment",
              "type": "uint256"
            }
          ],
          "name": "ShotAnswered",
          "type": "event"
        },
        {
          "anonymous": false,
          "inputs": [
            {
              "indexed": false,
              "internalType": "Chainship.RoomId",
              "name": "roomId",
              "type": "uint256"
            },
            {
              "indexed": false,
              "internalType": "address",
              "name": "player",
              "type": "address"
            },
            {
              "indexed": false,
              "internalType": "uint256",
              "name": "noShots",
              "type": "uint256"
            },
            {
              "components": [
                {
                  "internalType": "uint8",
                  "name": "x",
                  "type": "uint8"
                },
                {
                  "internalType": "uint8",
                  "name": "y",
                  "type": "uint8"
                }
              ],
              "indexed": false,
              "internalType": "struct Chainship.Position",
              "name": "position",
              "type": "tuple"
            },
            {
              "indexed": false,
              "internalType": "uint256",
              "name": "newShotsCommitment",
              "type": "uint256"
            }
          ],
          "name": "ShotTaken",
          "type": "event"
        },
        {
          "anonymous": false,
          "inputs": [
            {
              "indexed": false,
              "internalType": "Chainship.RoomId",
              "name": "roomId",
              "type": "uint256"
            },
            {
              "indexed": false,
              "internalType": "address",
              "name": "player",
              "type": "address"
            },
            {
              "indexed": false,
              "internalType": "bool[]",
              "name": "board",
              "type": "bool[]"
            }
          ],
          "name": "VictoryProven",
          "type": "event"
        },
        {
          "inputs": [],
          "name": "BOARD_SIZE",
          "outputs": [
            {
              "internalType": "uint8",
              "name": "",
              "type": "uint8"
            }
          ],
          "stateMutability": "view",
          "type": "function"
        },
        {
          "inputs": [],
          "name": "CONTRACT_SEED",
          "outputs": [
            {
              "internalType": "uint256",
              "name": "",
              "type": "uint256"
            }
          ],
          "stateMutability": "view",
          "type": "function"
        },
        {
          "inputs": [],
          "name": "DEADLINE_BLOCK_TIME",
          "outputs": [
            {
              "internalType": "uint256",
              "name": "",
              "type": "uint256"
            }
          ],
          "stateMutability": "view",
          "type": "function"
        },
        {
          "inputs": [],
          "name": "MAX_SHIP_LENGTH",
          "outputs": [
            {
              "internalType": "uint8",
              "name": "",
              "type": "uint8"
            }
          ],
          "stateMutability": "view",
          "type": "function"
        },
        {
          "inputs": [
            {
              "internalType": "uint256",
              "name": "",
              "type": "uint256"
            }
          ],
          "name": "SHIP_COUNTS",
          "outputs": [
            {
              "internalType": "uint8",
              "name": "",
              "type": "uint8"
            }
          ],
          "stateMutability": "view",
          "type": "function"
        },
        {
          "inputs": [],
          "name": "TOTAL_SHIP_PARTS",
          "outputs": [
            {
              "internalType": "uint16",
              "name": "",
              "type": "uint16"
            }
          ],
          "stateMutability": "view",
          "type": "function"
        },
        {
          "inputs": [
            {
              "internalType": "Chainship.RoomId",
              "name": "roomId",
              "type": "uint256"
            },
            {
              "components": [
                {
                  "internalType": "uint8",
                  "name": "x",
                  "type": "uint8"
                },
                {
                  "internalType": "uint8",
                  "name": "y",
                  "type": "uint8"
                }
              ],
              "internalType": "struct Chainship.Position",
              "name": "answerPosition",
              "type": "tuple"
            },
            {
              "internalType": "enum Chainship.Answer",
              "name": "answer",
              "type": "uint8"
            }
          ],
          "name": "answerAndClaimDishonest",
          "outputs": [],
          "stateMutability": "nonpayable",
          "type": "function"
        },
        {
          "inputs": [
            {
              "internalType": "Chainship.RoomId",
              "name": "roomId",
              "type": "uint256"
            },
            {
              "components": [
                {
                  "internalType": "uint8",
                  "name": "x",
                  "type": "uint8"
                },
                {
                  "internalType": "uint8",
                  "name": "y",
                  "type": "uint8"
                }
              ],
              "internalType": "struct Chainship.Position",
              "name": "answerPosition",
              "type": "tuple"
            },
            {
              "internalType": "enum Chainship.Answer",
              "name": "answer",
              "type": "uint8"
            },
            {
              "internalType": "uint256",
              "name": "boardRandomness",
              "type": "uint256"
            },
            {
              "internalType": "bool[]",
              "name": "board",
              "type": "bool[]"
            },
            {
              "components": [
                {
                  "internalType": "uint8",
                  "name": "x",
                  "type": "uint8"
                },
                {
                  "internalType": "uint8",
                  "name": "y",
                  "type": "uint8"
                }
              ],
              "internalType": "struct Chainship.Position[]",
              "name": "enemyShots",
              "type": "tuple[]"
            },
            {
              "internalType": "enum Chainship.Answer[]",
              "name": "myAnswers",
              "type": "uint8[]"
            },
            {
              "components": [
                {
                  "internalType": "uint8",
                  "name": "x",
                  "type": "uint8"
                },
                {
                  "internalType": "uint8",
                  "name": "y",
                  "type": "uint8"
                }
              ],
              "internalType": "struct Chainship.Position[]",
              "name": "myShots",
              "type": "tuple[]"
            },
            {
              "internalType": "enum Chainship.Answer[]",
              "name": "enemyAnswers",
              "type": "uint8[]"
            }
          ],
          "name": "answerAndClaimVictory",
          "outputs": [],
          "stateMutability": "nonpayable",
          "type": "function"
        },
        {
          "inputs": [
            {
              "internalType": "Chainship.RoomId",
              "name": "roomId",
              "type": "uint256"
            },
            {
              "components": [
                {
                  "internalType": "uint8",
                  "name": "x",
                  "type": "uint8"
                },
                {
                  "internalType": "uint8",
                  "name": "y",
                  "type": "uint8"
                }
              ],
              "internalType": "struct Chainship.Position",
              "name": "answerPosition",
              "type": "tuple"
            },
            {
              "internalType": "enum Chainship.Answer",
              "name": "answer",
              "type": "uint8"
            },
            {
              "components": [
                {
                  "internalType": "uint8",
                  "name": "x",
                  "type": "uint8"
                },
                {
                  "internalType": "uint8",
                  "name": "y",
                  "type": "uint8"
                }
              ],
              "internalType": "struct Chainship.Position",
              "name": "shootPosition",
              "type": "tuple"
            }
          ],
          "name": "answerAndShoot",
          "outputs": [],
          "stateMutability": "nonpayable",
          "type": "function"
        },
        {
          "inputs": [
            {
              "internalType": "Chainship.RoomId",
              "name": "roomId",
              "type": "uint256"
            },
            {
              "components": [
                {
                  "internalType": "uint8",
                  "name": "x",
                  "type": "uint8"
                },
                {
                  "internalType": "uint8",
                  "name": "y",
                  "type": "uint8"
                }
              ],
              "internalType": "struct Chainship.Position",
              "name": "position",
              "type": "tuple"
            },
            {
              "internalType": "enum Chainship.Answer",
              "name": "answer",
              "type": "uint8"
            }
          ],
          "name": "answerShot",
          "outputs": [],
          "stateMutability": "nonpayable",
          "type": "function"
        },
        {
          "inputs": [
            {
              "internalType": "uint256",
              "name": "entryFee",
              "type": "uint256"
            }
          ],
          "name": "calculateCommission",
          "outputs": [
            {
              "internalType": "uint256",
              "name": "",
              "type": "uint256"
            }
          ],
          "stateMutability": "pure",
          "type": "function"
        },
        {
          "inputs": [
            {
              "internalType": "Chainship.RoomId",
              "name": "roomId",
              "type": "uint256"
            }
          ],
          "name": "claimDishonest",
          "outputs": [],
          "stateMutability": "nonpayable",
          "type": "function"
        },
        {
          "inputs": [
            {
              "internalType": "Chainship.RoomId",
              "name": "roomId",
              "type": "uint256"
            }
          ],
          "name": "claimIdle",
          "outputs": [],
          "stateMutability": "nonpayable",
          "type": "function"
        },
        {
          "inputs": [
            {
              "internalType": "Chainship.RoomId",
              "name": "roomId",
              "type": "uint256"
            },
            {
              "internalType": "uint256",
              "name": "randomnessCommitment",
              "type": "uint256"
            }
          ],
          "name": "createRoom",
          "outputs": [],
          "stateMutability": "payable",
          "type": "function"
        },
        {
          "inputs": [
            {
              "internalType": "Chainship.RoomId",
              "name": "roomId",
              "type": "uint256"
            }
          ],
          "name": "getRoomInfo",
          "outputs": [
            {
              "internalType": "enum Chainship.RoomStatus",
              "name": "",
              "type": "uint8"
            },
            {
              "internalType": "uint256",
              "name": "",
              "type": "uint256"
            },
            {
              "internalType": "address",
              "name": "",
              "type": "address"
            }
          ],
          "stateMutability": "view",
          "type": "function"
        },
        {
          "inputs": [
            {
              "internalType": "uint256",
              "name": "roomSecret",
              "type": "uint256"
            },
            {
              "internalType": "uint256",
              "name": "randomnessCommitment",
              "type": "uint256"
            }
          ],
          "name": "joinRoom",
          "outputs": [],
          "stateMutability": "payable",
          "type": "function"
        },
        {
          "inputs": [],
          "name": "owner",
          "outputs": [
            {
              "internalType": "address",
              "name": "",
              "type": "address"
            }
          ],
          "stateMutability": "view",
          "type": "function"
        },
        {
          "inputs": [
            {
              "internalType": "Chainship.RoomId",
              "name": "roomId",
              "type": "uint256"
            },
            {
              "internalType": "uint256",
              "name": "boardRandomness",
              "type": "uint256"
            },
            {
              "internalType": "bool[]",
              "name": "board",
              "type": "bool[]"
            },
            {
              "components": [
                {
                  "internalType": "uint8",
                  "name": "x",
                  "type": "uint8"
                },
                {
                  "internalType": "uint8",
                  "name": "y",
                  "type": "uint8"
                }
              ],
              "internalType": "struct Chainship.Position[]",
              "name": "enemyShots",
              "type": "tuple[]"
            },
            {
              "internalType": "enum Chainship.Answer[]",
              "name": "myAnswers",
              "type": "uint8[]"
            }
          ],
          "name": "proveHonesty",
          "outputs": [],
          "stateMutability": "nonpayable",
          "type": "function"
        },
        {
          "inputs": [
            {
              "internalType": "Chainship.RoomId",
              "name": "roomId",
              "type": "uint256"
            },
            {
              "internalType": "uint256",
              "name": "boardRandomness",
              "type": "uint256"
            },
            {
              "internalType": "bool[]",
              "name": "board",
              "type": "bool[]"
            },
            {
              "components": [
                {
                  "internalType": "uint8",
                  "name": "x",
                  "type": "uint8"
                },
                {
                  "internalType": "uint8",
                  "name": "y",
                  "type": "uint8"
                }
              ],
              "internalType": "struct Chainship.Position[]",
              "name": "enemyShots",
              "type": "tuple[]"
            },
            {
              "internalType": "enum Chainship.Answer[]",
              "name": "myAnswers",
              "type": "uint8[]"
            },
            {
              "components": [
                {
                  "internalType": "uint8",
                  "name": "x",
                  "type": "uint8"
                },
                {
                  "internalType": "uint8",
                  "name": "y",
                  "type": "uint8"
                }
              ],
              "internalType": "struct Chainship.Position[]",
              "name": "myShots",
              "type": "tuple[]"
            },
            {
              "internalType": "enum Chainship.Answer[]",
              "name": "enemyAnswers",
              "type": "uint8[]"
            }
          ],
          "name": "proveVictory",
          "outputs": [],
          "stateMutability": "nonpayable",
          "type": "function"
        },
        {
          "inputs": [],
          "name": "renounceOwnership",
          "outputs": [],
          "stateMutability": "nonpayable",
          "type": "function"
        },
        {
          "inputs": [
            {
              "internalType": "uint256",
              "name": "roomSecret",
              "type": "uint256"
            }
          ],
          "name": "roomSecretToId",
          "outputs": [
            {
              "internalType": "Chainship.RoomId",
              "name": "",
              "type": "uint256"
            }
          ],
          "stateMutability": "view",
          "type": "function"
        },
        {
          "inputs": [
            {
              "internalType": "Chainship.RoomId",
              "name": "",
              "type": "uint256"
            }
          ],
          "name": "rooms",
          "outputs": [
            {
              "internalType": "enum Chainship.RoomStatus",
              "name": "status",
              "type": "uint8"
            },
            {
              "internalType": "uint256",
              "name": "entryFee",
              "type": "uint256"
            },
            {
              "internalType": "uint8",
              "name": "whoseTurn",
              "type": "uint8"
            },
            {
              "internalType": "uint256",
              "name": "answerDeadline",
              "type": "uint256"
            }
          ],
          "stateMutability": "view",
          "type": "function"
        },
        {
          "inputs": [
            {
              "internalType": "Chainship.RoomId",
              "name": "roomId",
              "type": "uint256"
            },
            {
              "components": [
                {
                  "internalType": "uint8",
                  "name": "x",
                  "type": "uint8"
                },
                {
                  "internalType": "uint8",
                  "name": "y",
                  "type": "uint8"
                }
              ],
              "internalType": "struct Chainship.Position",
              "name": "position",
              "type": "tuple"
            }
          ],
          "name": "shoot",
          "outputs": [],
          "stateMutability": "nonpayable",
          "type": "function"
        },
        {
          "inputs": [
            {
              "internalType": "Chainship.RoomId",
              "name": "roomId",
              "type": "uint256"
            },
            {
              "internalType": "uint256",
              "name": "boardCommitment",
              "type": "uint256"
            },
            {
              "internalType": "uint256",
              "name": "randomnessDecommitment",
              "type": "uint256"
            }
          ],
          "name": "submitBoard",
          "outputs": [],
          "stateMutability": "nonpayable",
          "type": "function"
        },
        {
          "inputs": [
            {
              "internalType": "address",
              "name": "newOwner",
              "type": "address"
            }
          ],
          "name": "transferOwnership",
          "outputs": [],
          "stateMutability": "nonpayable",
          "type": "function"
        },
        {
          "inputs": [
            {
              "internalType": "uint256",
              "name": "amount",
              "type": "uint256"
            }
          ],
          "name": "withdrawFunds",
          "outputs": [],
          "stateMutability": "nonpayable",
          "type": "function"
        }
      ],
      "evm": {
        "bytecode": {
          "linkReferences": {},
          "object": "60c06040523461016a57604051601f61382238819003918201601f19168301916001600160401b0383118484101761013e5780849260209460405283398101031261016a575130156101545760008054306001600160a01b0319821681178355916001600160a01b03909116907f8be0079c531659141344cd1fd0a4f28419497f9722a3daafe3b4186f6b6457e09080a36001805560405160a081016001600160401b0381118282101761013e57604052600081526001602082015260026040820152600160608201526001608082015260009060005b6005811061011a575050600255608052603260a0526040516136b29081610170823960805181818161117f0152611b95015260a0518181816113a101526121160152f35b9091602060019160ff8551169060ff8560031b92831b921b191617930191016100d6565b634e487b7160e01b600052604160045260246000fd5b631e4fbdf760e01b600052600060045260246000fd5b600080fdfe610140604052600436101561001357600080fd5b60003560e01c806307ecba71146115885780630a1c87a9146113c45780630b42943214611389578063155dd5ee146112ec5780631bae0ac8146112915780632ad5e4d61461127a578063625904c81461125c5780636790d2b5146111a25780636cd6eabf146111675780636e209f2c1461104a578063715018a614610fe457806375debaad14610f185780638da5cb5b14610ef15780638efe14fd14610ecf578063a616b06914610eb3578063ab196acd14610d41578063b3a16b1914610bcf578063b9bafb1014610b95578063ba84838214610b79578063c599d89b146108fc578063c841869d14610807578063ce9b4321146107e1578063d38f46631461059c578063d4d91f101461020e578063dc4a3e95146101f25763f2fde38b1461013b57600080fd5b346101ed5760203660031901126101ed576004356001600160a01b0381168091036101ed57610168612180565b80156101be576001600160a01b036000548273ffffffffffffffffffffffffffffffffffffffff19821617600055167f8be0079c531659141344cd1fd0a4f28419497f9722a3daafe3b4186f6b6457e0600080a3005b7f1e4fbdf700000000000000000000000000000000000000000000000000000000600052600060045260246000fd5b600080fd5b346101ed5760003660031901126101ed576020604051600a8152f35b346101ed5760603660031901126101ed5760443560043560243580156105325781600052600360205260406000209060ff825416600781101561051c576002036104d857608061025d83611718565b01514311610494576102773361027284611718565b612070565b93600283019461028781876118fe565b506001810190815461042a578460059255019081546040516020810190858252602081526102b66040826116e0565b519020036103c1576102f86102f26001927f40952b52f743bbd15dd7c9268b98cb4459193027cdb8d6a3d499cb50d7f173f39560609555611861565b886118fe565b500154151592604051908682523360208301526040820152a161031757005b61039e817ffadb9547847a0c2c31f4c02590545e318d33d7aae99071caecf3fa4ce3cd7dca94610399600160076001600160a01b03960154600d85015460405190602082019283526040820152604081526103736060826116e0565b5190201692600e810160ff851660ff19825416179055600360ff19825416178155612114565b6118fe565b50546040805193845291166001600160a01b03166020830152819081015b0390a1005b608460405162461bcd60e51b8152602060048201526024808201527f52616e646f6d6e65737320636f6d6d69746d656e7420646f6573206e6f74206d60448201527f61746368000000000000000000000000000000000000000000000000000000006064820152fd5b608460405162461bcd60e51b815260206004820152602560248201527f596f75206861766520616c7265616479207375626d697474656420796f75722060448201527f626f6172640000000000000000000000000000000000000000000000000000006064820152fd5b606460405162461bcd60e51b815260206004820152601360248201527f446561646c696e652068617320706173736564000000000000000000000000006044820152fd5b606460405162461bcd60e51b815260206004820152601d60248201527f526f6f6d206973206e6f7420696e207468652066756c6c2073746174650000006044820152fd5b634e487b7160e01b600052602160045260246000fd5b608460405162461bcd60e51b815260206004820152602160248201527f426f61726420636f6d6d69746d656e74206d757374206265206e6f6e2d7a657260448201527f6f000000000000000000000000000000000000000000000000000000000000006064820152fd5b346101ed5760a03660031901126101ed5760043560443567ffffffffffffffff81116101ed576105d09036906004016115df565b9160643567ffffffffffffffff81116101ed576105f1903690600401611610565b60849491943567ffffffffffffffff81116101ed576106149036906004016115df565b91846000526003602052604060002096610631336102728a611718565b9060ff895416600781101561051c57600503610777576001946001600160a01b03946106999461067d93898c8e61067360ff600e8301541660ff8b1614611816565b8860243591612323565b875460ff19166006178855610690612145565b600288016118fe565b505416940154908160011b916001600160ff1b0381168103610761576106be90612022565b91828103928184116107615786849160009314610757575b600092839283928392f11561074b577fee97096f32eed49908b904623ae7ba7af58c121e15fe6e7f31ac379fb7ca1a9860407f0b2140d601ef56c537167df622738f7062c329fd471b1f729edfa570296a3c8f966103bc9482519182526020820152a160018055604051938493339085611bf0565b6040513d6000823e3d90fd5b6108fc92506106d6565b634e487b7160e01b600052601160045260246000fd5b608460405162461bcd60e51b815260206004820152602b60248201527f526f6f6d206973206e6f7420696e2074686520646973686f6e6573747920636c60448201527f61696d65642073746174650000000000000000000000000000000000000000006064820152fd5b346101ed5760203660031901126101ed5760206107ff600435612022565b604051908152f35b346101ed576101403660031901126101ed5760043560403660231901126101ed5760643560038110156101ed5760a43567ffffffffffffffff81116101ed576108549036906004016115df565b60c49291923567ffffffffffffffff81116101ed57610877903690600401611610565b60e49291923567ffffffffffffffff81116101ed5761089a9036906004016115df565b916101043567ffffffffffffffff81116101ed576108bc903690600401611610565b959094610124359867ffffffffffffffff8a116101ed576108fa9a6108e86108f19b36906004016115df565b9b909a82611920565b60843590611c47565b005b346101ed5760203660031901126101ed5760043580600052600360205260406000209061092c3361027284611718565b61093581611861565b600f840154431115610b355760ff845416600781101561051c57600281149182610b1a575b600382149160008315610b0c575b8315610af9575b505081610ae5575b508115610add575b5015610a73576001600160a01b036109af600192600660ff198754161786556109a6612145565b600286016118fe565b505416920154908160011b916001600160ff1b0381168103610761576109d490612022565b91828103928184116107615784849160009314610a69575b600092839283928392f11561074b577fee97096f32eed49908b904623ae7ba7af58c121e15fe6e7f31ac379fb7ca1a9860407f294a1cc2e139b7d44dc4130a0e042162f4d48f289fe4e0a40ca50726a9d01ebc946103bc9482519182526020820152a1600180556040805191825233602083015290918291820190565b6108fc92506109ec565b608460405162461bcd60e51b815260206004820152602160248201527f4974206973206e6f7420656e656d792773207475726e20746f20726573706f6e60448201527f64000000000000000000000000000000000000000000000000000000000000006064820152fd5b90508461097f565b905060ff80600e8701541691161485610977565b9091925061051c5760051490868061096f565b506004811492506000610968565b91506001610b2b83600288016118fe565b500154159161095a565b606460405162461bcd60e51b815260206004820152601b60248201527f446561646c696e6520686173206e6f74207061737365642079657400000000006044820152fd5b346101ed5760003660031901126101ed57602060405160058152f35b346101ed5760203660031901126101ed5760043560058110156101ed5760ff610bbf602092611641565b90549060031b1c16604051908152f35b346101ed5760c03660031901126101ed5760043560403660231901126101ed5760643560038110156101ed5760403660831901126101ed57610c119082611920565b80600052600360205260406000209060ff825416600781101561051c576003610c3a911461166f565b610c473361027284611718565b61ffff6001600160a01b03610c75600e860193610c6c60ff86541660ff831614611816565b600287016118fe565b50610cd1600282019687549585610c8d818916611bd0565b168097871916178955610ca76084600386019889546122ab565b8755600460ff1983541617825560ff610cc281835416611861565b1660ff19825416179055612114565b54169354169054926040519283526020830152604082015260843560ff811681036101ed5760ff16606082015260a4359060ff821682036101ed577fb72b4b2c796809161dbc42d5a7e6e0c75042fe6f953c2d35187a16cef28848bf9260ff60c09316608083015260a0820152a1005b60403660031901126101ed57600435610d5934612022565b9081341115610e495780600052600360205260406000209060ff825416600781101561051c57610e05577fcf1eefef99365c71f66cf7d03c056f6d828c32f1023712660c18ee3cd8585cb492608092600160ff19825416178155346001820155600281016001600160a01b03331673ffffffffffffffffffffffffffffffffffffffff1982541617905560076024359101556040519182523360208301523460408301526060820152a1005b606460405162461bcd60e51b815260206004820152601360248201527f526f6f6d20616c726561647920657869737473000000000000000000000000006044820152fd5b608460405162461bcd60e51b815260206004820152602960248201527f456e74727920666565206d7573742062652067726561746572207468616e206360448201527f6f6d6d697373696f6e00000000000000000000000000000000000000000000006064820152fd5b346101ed5760003660031901126101ed57602060405160118152f35b346101ed576108fa610eec610ee3366115b1565b90829392611a99565b611872565b346101ed5760003660031901126101ed5760206001600160a01b0360005416604051908152f35b346101ed5760e03660031901126101ed5760443567ffffffffffffffff81116101ed57610f499036906004016115df565b60643567ffffffffffffffff81116101ed57610f69903690600401611610565b60849391933567ffffffffffffffff81116101ed57610f8c9036906004016115df565b60a49291923567ffffffffffffffff81116101ed57610faf903690600401611610565b93909260c4359767ffffffffffffffff89116101ed57610fd66108fa9936906004016115df565b989097602435600435611c47565b346101ed5760003660031901126101ed57610ffd612180565b60006001600160a01b03815473ffffffffffffffffffffffffffffffffffffffff1981168355167f8be0079c531659141344cd1fd0a4f28419497f9722a3daafe3b4186f6b6457e08280a3005b346101ed5760603660031901126101ed5760043560403660231901126101ed5780600052600360205260406000209060ff825416600781101561051c576003611093911461166f565b6110a03361027284611718565b61ffff6001600160a01b036110c5600e860193610c6c60ff86541660ff831614611816565b506110f76002820196875495856110dd818916611bd0565b168097871916178955610ca76024600386019889546122ab565b54169354169054926040519283526020830152604082015260243560ff811681036101ed5760ff1660608201526044359060ff821682036101ed577fb72b4b2c796809161dbc42d5a7e6e0c75042fe6f953c2d35187a16cef28848bf9260ff60c09316608083015260a0820152a1005b346101ed5760003660031901126101ed5760206040517f00000000000000000000000000000000000000000000000000000000000000008152f35b346101ed5760203660031901126101ed5760043560005260036020526111cb6040600020611718565b8051600781101561051c5715611218578051600781101561051c57816001600160a01b036040602060609501519201515151169061120c60405180946115a4565b60208301526040820152f35b606460405162461bcd60e51b815260206004820152601360248201527f526f6f6d20646f6573206e6f74206578697374000000000000000000000000006044820152fd5b346101ed5760203660031901126101ed5760206107ff600435611b8b565b346101ed576108fa61128b366115b1565b91611a99565b346101ed5760203660031901126101ed5760043560005260036020526080604060002060ff81541690600181015490600f60ff600e83015416910154916112db60405180956115a4565b602084015260408301526060820152f35b346101ed5760203660031901126101ed57600435611308612145565b611310612180565b804710611345576000808080936001600160a01b0382541682821561133c575bf11561074b5760018055005b506108fc611330565b606460405162461bcd60e51b815260206004820152601060248201527f4e6f7420656e6f7567682066756e6473000000000000000000000000000000006044820152fd5b346101ed5760003660031901126101ed5760206040517f00000000000000000000000000000000000000000000000000000000000000008152f35b60403660031901126101ed576113db600435611b8b565b806000526003602052604060002060ff815416600781101561051c5760010361154457600181015434036114da576001600160a01b0360028201541633146114965760088101805473ffffffffffffffffffffffffffffffffffffffff191633179055602435600d820155805460ff191660021781557f7f3a14b18fc64242e1d87bbda3d879ff601bf57224f7daeaf8bf4658bb84da29916103bc9161148090612114565b6040805191825233602083015290918291820190565b606460405162461bcd60e51b815260206004820152601d60248201527f596f752063616e6e6f74206a6f696e20796f7572206f776e20726f6f6d0000006044820152fd5b608460405162461bcd60e51b815260206004820152602d60248201527f456e74727920666565206d75737420626520657175616c20746f20746865207260448201527f6f6f6d20656e74727920666565000000000000000000000000000000000000006064820152fd5b606460405162461bcd60e51b815260206004820152602060248201527f526f6f6d206973206e6f7420696e2074686520637265617465642073746174656044820152fd5b346101ed5760203660031901126101ed576108fa600435611872565b90600782101561051c5752565b9060806003198301126101ed5760406004359260231901126101ed5760249060643560038110156101ed5790565b9181601f840112156101ed5782359167ffffffffffffffff83116101ed576020808501948460051b0101116101ed57565b9181601f840112156101ed5782359167ffffffffffffffff83116101ed576020808501948460061b0101116101ed57565b90600582101561165957601f8260051c600201921690565b634e487b7160e01b600052603260045260246000fd5b1561167657565b608460405162461bcd60e51b815260206004820152602160248201527f526f6f6d206973206e6f7420696e207468652073686f6f74696e67207374617460448201527f65000000000000000000000000000000000000000000000000000000000000006064820152fd5b90601f8019910116810190811067ffffffffffffffff82111761170257604052565b634e487b7160e01b600052604160045260246000fd5b9060405160a0810181811067ffffffffffffffff82111761170257604052809260ff815416600781101561051c578252600181015460208301526040516040810181811067ffffffffffffffff82111761170257604052600282016000825b600282106117a157505050608091600f91604085015260ff600e8201541660608501520154910152565b60405160c0810181811067ffffffffffffffff821117611702576001926006926020926040526001600160a01b038754168152848701548382015261ffff60028801541660408201526003870154606082015260048701546080820152600587015460a0820152815201930191019091611777565b1561181d57565b606460405162461bcd60e51b815260206004820152601360248201527f4974206973206e6f7420796f7572207475726e000000000000000000000000006044820152fd5b60ff166001039060ff821161076157565b806000526003602052604060002060ff81541691600783101561051c576114806118f9926118c360037f674b1399cdd04131b1014fb0ad914c308eb69bac11c79cf09e05ce410863ce2e961461166f565b6118d03361027283611718565b60ff610cc2600e8401926118ea8385541684831614611816565b60058319865416178555611861565b0390a1565b906002811015611659576006020190600090565b359060ff821682036101ed57565b9081600052600360205260406000209160ff835416600781101561051c57600403611a2f576119523361027285611718565b9261ffff6001600160a01b0361197f6002840161197961197289836118fe565b5098611861565b906118fe565b50956119b260048201946119a0886024600289549c019b888d54169061221b565b8655805460ff19166003178155612114565b54169454169054936040519283526020830152604082015260243560ff811681036101ed5760ff16606082015260443560ff811681036101ed5760ff166080820152600382101561051c577ffd7d6dcab3c23e806913769df4816e3d1fb4edb3917bf3f256cd1365cbeddc079260e09260a083015260c0820152a1565b608460405162461bcd60e51b815260206004820152602260248201527f526f6f6d206973206e6f7420696e2074686520616e73776572696e672073746160448201527f74650000000000000000000000000000000000000000000000000000000000006064820152fd5b91909180600052600360205260406000209260ff845416600781101561051c57600403611a2f5761ffff93846001600160a01b03611ada3361027285611718565b611b14611af860028601611979611af185836118fe565b5094611861565b50946119a08988600486019860028a5491019d8e54169061221b565b541695541690549460405193845260208401526040830152602060ff611b4c82606086019483611b4382611912565b16865201611912565b16910152600382101561051c577ffd7d6dcab3c23e806913769df4816e3d1fb4edb3917bf3f256cd1365cbeddc079260e09260a083015260c0820152a1565b60405160208101917f00000000000000000000000000000000000000000000000000000000000000008352604082015260408152611bca6060826116e0565b51902090565b61ffff1661ffff81146107615760010190565b359081151582036101ed57565b9081526001600160a01b0391909116602082015260606040820181905281018390526080019160005b818110611c265750505090565b909192602080600192611c3887611be3565b15158152019401929101611c19565b94969091959b9792939a9b856000526003602052604060002097611c6e336102728b611718565b9c60ff8a541694600786101561051c57898f918992611c926003611c989a1461166f565b8d612323565b6000998a98611ca76064613089565b988a5b818110611f4057505050505060009860005b875161ffff821690811015611cfe57611cd59089613130565b51611ce9575b611ce490611bd0565b611cbc565b99611cf6611ce491611bd0565b9a9050611cdb565b505093979296919550939761ffff6011911603611ed65760028701926003611d2684866118fe565b50015403611e92576004611d42611d3c84611861565b856118fe565b50015403611e2857611d6c6001600160a01b0391600193600660ff198a5416178955610399612145565b505416940154908160011b916001600160ff1b038116810361076157611d9190612022565b91828103928184116107615786849160009314611e1e575b600092839283928392f11561074b577fee97096f32eed49908b904623ae7ba7af58c121e15fe6e7f31ac379fb7ca1a9860407f53fc172dda2ed0176623bbca3c936bb2d85537947a5e23dd077b579ae1bf155c966118f99482519182526020820152a160018055604051938493339085611bf0565b6108fc9250611da9565b608460405162461bcd60e51b815260206004820152602160248201527f416e737765727320646f6e2774206d6174636820656e656d7920616e7377657260448201527f73000000000000000000000000000000000000000000000000000000000000006064820152fd5b606460405162461bcd60e51b815260206004820152601a60248201527f53686f747320646f6e2774206d61746368206d792073686f74730000000000006044820152fd5b608460405162461bcd60e51b815260206004820152603760248201527f4e756d626572206f662073686970206869747320646f6573206e6f74206d617460448201527f6368206e756d626572206f6620736869702070617274730000000000000000006064820152fd5b6001819e9c9e019b8c821161076157611f65908d611f5f84868a6130bb565b916122ab565b9d60009c611f748385896130bb565b90611f808488886130cb565b3592600384101561201e5790611f9793929161221b565b9b611fd8611fb960ff611fb3611fae86888c6130bb565b6121c2565b166130db565b60ff611fd16020611fcb87898d6130bb565b016121c2565b169061311a565b90611fe48387876130cb565b3590600382101561201b5750600192918d91612003575b505001611caa565b839161ffff612013921690613130565b528b38611ffb565b80fd5b8f80fd5b1561202c57600090565b606460405162461bcd60e51b815260206004820152602060248201527f456e74727920666565206d7573742062652067726561746572207468616e20306044820152fd5b604001805151516001600160a01b0392831692168203612091575050600090565b5160200151516001600160a01b0316036120aa57600190565b608460405162461bcd60e51b815260206004820152602160248201527f596f7520617265206e6f74206120706c6179657220696e207468697320726f6f60448201527f6d000000000000000000000000000000000000000000000000000000000000006064820152fd5b7f000000000000000000000000000000000000000000000000000000000000000043019081431161076157600f0155565b600260015414612156576002600155565b7f3ee5aeb50000000000000000000000000000000000000000000000000000000060005260046000fd5b6001600160a01b0360005416330361219457565b7f118cdaa7000000000000000000000000000000000000000000000000000000006000523360045260246000fd5b3560ff811681036101ed5790565b156121d757565b606460405162461bcd60e51b815260206004820152601060248201527f496e76616c696420706f736974696f6e000000000000000000000000000000006044820152fd5b929091600a60ff61222b836121c2565b16108061228e575b61223c906121d0565b60ff61225560208261224d856121c2565b1693016121c2565b1690600383101561051c57604051936020850195865260408501526060840152608083015260a082015260a08152611bca60c0826116e0565b5061223c600a60ff6122a2602085016121c2565b16109050612233565b91600a60ff6122b9836121c2565b161080612306575b6122ca906121d0565b60ff6122db60208261224d856121c2565b1690604051926020840194855260408401526060830152608082015260808152611bca60a0826116e0565b506122ca600a60ff61231a602085016121c2565b161090506122c1565b9195989493909297969760805260c05261234860ff600e8301541660ff841614611816565b606460a05260c05160631901613016576040519661236760c0896116e0565b6005885260a03660208a013761237e60c051613089565b986000610100525b600a60ff61010051161015612ab057969492909593916000610120525b600a60ff61012051161015612a96576123d060ff61012051166123cb60ff61010051166130db565b61311a565b60e05261ffff60e051166123e4818c613130565b5115801590612a7d575b612a70576123fe6001918c613130565b52600a60ff61240f61012051613151565b16109687612a54575b600a60ff61242861010051613151565b16109788612a38575b888180612a31575b6129eb571590816129e2575b506129d9575b600197156127825760ff61010051166126e3575b600998975b8b60c05161ffff61248260ff6124798661305c565b1660e05161311a565b1610806126c6575b15612555579060016124b16124ee9361ffff6124aa60ff6124798761305c565b1690613130565b526101205160ff16801590612532575b6124ca90613212565b6101205160ff908116908c1681811491036124f3575b6124e9906133e5565b613363565b612464565b506124e961252a61252561ffff61251961250e60e0516130f2565b60ff611fd18861305c565b1660c0516080516130cb565b613144565b1590506124e0565b506124ca61254d61252561ffff61251961250e60e05161318c565b1590506124c1565b5060ff91939597999892949698600a836125728461010051613163565b161061261a575b505b16600581116125d4576000190160ff81116107615760ff6125b56125ae826125a7818f96168096613130565b5116613363565b928c613130565b911690525b60ff600161012051011661012052969492909593916123a3565b60405162461bcd60e51b815260206004820152601760248201527f53686970206c656e67746820697320746f6f206c6f6e67000000000000000000604482015260a05190fd5b61012051831680159061269c575b6126319061325d565b61265061264a61252561ffff612519876124798861305c565b15613318565b6101205183169083168181149103612672575b61266c90613430565b38612579565b5061266c61269461252561ffff61251961268f876124798861305c565b6130f2565b159050612663565b506126316126be61252561ffff6125196126b9886124798961305c565b61318c565b159050612628565b506126de61252561ffff61251960ff6124798761305c565b61248a565b60ff610120511615801561275f575b6126fb906131a1565b61271861271261252561ffff61251960e051613177565b156132cd565b6101205160ff166009148015612737575b61273290613374565b61245f565b5061273261275761252561ffff61251961275260e0516130f2565b613177565b159050612729565b506126fb61277a61252561ffff6125196126b960e051613177565b1590506126f2565b60ff610120511661293f575b600998975b8b60c05161ffff6127a960ff851660e05161311a565b161080612921575b1561284f579060016127d261280a9361ffff6124aa60ff861660e05161311a565b526101005160ff1680159061282f575b6127eb906132cd565b6101005160ff908116908c16818114910361280f575b6124e990613318565b612793565b506124e961282761252561ffff61251960e051613106565b159050612801565b506127eb61284761252561ffff61251960e051613177565b1590506127e2565b5060ff91939597999892949698600a8361286c8461012051613163565b1610612879575b5061257b565b610100516128cf919084168015906128fb575b61289590613374565b8383166128b66128b061252561ffff6125198560e05161311a565b156133e5565b61010051851691851682811492036128d5575b50613430565b38612873565b6128f4915061ffff6125196128ef6125259360e05161311a565b613106565b15386128c9565b5061289561291961252561ffff61251961275289891660e05161311a565b15905061288c565b5061293a61252561ffff61251960ff861660e05161311a565b6127b1565b60ff61010051161580156129b6575b612957906131a1565b61297461296e61252561ffff61251960e05161318c565b15613212565b6101005160ff166009148015612993575b61298e9061325d565b61278e565b5061298e6129ae61252561ffff6125196126b960e051613106565b159050612985565b506129576129d161252561ffff6125196126b960e051613177565b15905061294e565b6001975061244b565b90501538612445565b60405162461bcd60e51b815260206004820152602060248201527f496e76616c6964207368697020706c6163656d656e7420284c2d736861706529604482015260a05190fd5b5080612439565b9750612a4e61252561ffff61251960e051613106565b97612431565b9650612a6a61252561ffff61251960e0516130f2565b96612418565b50919395909294966125ba565b50612a906125258260c0516080516130cb565b156123ee565b9193959092949660ff600161010051011661010052612386565b9091929394959796985060005b60ff81166005811015612b4157612ad660ff918a613130565b511660ff612ae383611641565b90549060031b1c1603612afb5760010160ff16612abd565b60405162461bcd60e51b815260206004820152601260248201527f496e76616c6964207368697020636f756e740000000000000000000000000000604482015260a05190fd5b5050929550929596909396604051602081019182526040810160805160005b60c0518110612ff757505090612b82816002949303601f1981018352826116e0565b5190209401936001612b9487876118fe565b50015403612fb1576000926000968790838503612f4657612bb660c051613089565b90895b868110612c8557505050505050506003612bdb612bd585611861565b846118fe565b50015403612c3f57600491612bef916118fe565b50015403612bf957565b60405162461bcd60e51b815260206004820152601e60248201527f416e737765727320646f6e2774206d61746368206d7920616e73776572730000604482015260a05190fd5b60405162461bcd60e51b815260206004820152601d60248201527f53686f747320646f6e2774206d6174636820656e656d792073686f7473000000604482015260a05190fd5b600181019a978b821161076157612ca2908c611f5f848b876130bb565b9760009b612cb1838a866130bb565b90612cbd848a8a6130cb565b35926003841015612f425790612cd493929161221b565b9a612ce08289856130bb565b612ce9906121c2565b60ff16612cf5906130db565b612d00838a866130bb565b602001612d0c906121c2565b60ff16612d189161311a565b61ffff811660c0518160805191612d2e926130cb565b612d3790613144565b612dcd575050612d488288886130cb565b3590600382101561201b5750612d62576001905b01612bb9565b608460405162461bcd60e51b815260206004820152602d60248201527f4d69737365642073686f742063616e6e6f7420626520616e737765726564206160448201527f7320686974206f722073756e6b0000000000000000000000000000000000000060a051820152fd5b612dd78187613130565b5115612f24575b906001612dee612dfb9388613130565b528560c0516080516134a1565b15612e9257612e0b8288886130cb565b3590600382101561201b575060011901612e2757600190612d5c565b608460405162461bcd60e51b815260206004820152602a60248201527f536869702063616e6e6f742062652073756e6b20696620697420686173206e6f60448201527f74206265656e206869740000000000000000000000000000000000000000000060a051820152fd5b612e9d8288886130cb565b3590600382101561201b575060001901612eb957600190612d5c565b608460405162461bcd60e51b815260206004820152603060248201527f53686970206d7573742062652073756e6b20696620616c6c206974732070617260448201527f74732068617665206265656e206869740000000000000000000000000000000060a051820152fd5b95906001612dee612f37612dfb94611bd0565b989293505050612dde565b8e80fd5b608460405162461bcd60e51b815260206004820152602b60248201527f53686f747320616e6420616e7377657273206d7573742068617665207468652060448201527f73616d65206c656e67746800000000000000000000000000000000000000000060a051820152fd5b60405162461bcd60e51b815260206004820152601f60248201527f426f61726420636f6d6d69746d656e7420646f6573206e6f74206d6174636800604482015260a05190fd5b909160208060019261300886611be3565b151581520193019101612b60565b60405162461bcd60e51b815260206004820152601260248201527f496e76616c696420626f6172642073697a650000000000000000000000000000604482015260a05190fd5b60ff600a9116029060ff821691820361076157565b67ffffffffffffffff81116117025760051b60200190565b9061309382613071565b6130a060405191826116e0565b82815280926130b1601f1991613071565b0190602036910137565b91908110156116595760061b0190565b91908110156116595760051b0190565b61ffff600a9116029061ffff821691820361076157565b61ffff60019116019061ffff821161076157565b61ffff600a9116019061ffff821161076157565b9061ffff8091169116019061ffff821161076157565b80518210156116595760209160051b010190565b3580151581036101ed5790565b60ff60019116019060ff821161076157565b9060ff8091169116019060ff821161076157565b61ffff6009199116019061ffff821161076157565b61ffff6000199116019061ffff821161076157565b156131a857565b608460405162461bcd60e51b815260206004820152602160248201527f496e76616c6964207368697020706c6163656d656e742028746f702d6c65667460448201527f29000000000000000000000000000000000000000000000000000000000000006064820152fd5b1561321957565b606460405162461bcd60e51b815260206004820152601d60248201527f496e76616c6964207368697020706c6163656d656e7420286c656674290000006044820152fd5b1561326457565b608460405162461bcd60e51b8152602060048201526024808201527f496e76616c6964207368697020706c6163656d656e742028626f74746f6d2d6c60448201527f65667429000000000000000000000000000000000000000000000000000000006064820152fd5b156132d457565b606460405162461bcd60e51b815260206004820152601c60248201527f496e76616c6964207368697020706c6163656d656e742028746f7029000000006044820152fd5b1561331f57565b606460405162461bcd60e51b815260206004820152601f60248201527f496e76616c6964207368697020706c6163656d656e742028626f74746f6d29006044820152fd5b60ff1660ff81146107615760010190565b1561337b57565b608460405162461bcd60e51b815260206004820152602260248201527f496e76616c6964207368697020706c6163656d656e742028746f702d7269676860448201527f74290000000000000000000000000000000000000000000000000000000000006064820152fd5b156133ec57565b606460405162461bcd60e51b815260206004820152601e60248201527f496e76616c6964207368697020706c6163656d656e74202872696768742900006044820152fd5b1561343757565b608460405162461bcd60e51b815260206004820152602560248201527f496e76616c6964207368697020706c6163656d656e742028626f74746f6d2d7260448201527f69676874290000000000000000000000000000000000000000000000000000006064820152fd5b91906134ac846130f2565b61ffff81811690600a820616151580613668575b156134ed576134cf9084613130565b51156134e3576134de90611bd0565b6134ac565b5050505050600090565b5050929161ffff831693846135da575b60649361350981613106565b61ffff8116868110806135c6575b15613546576135269086613130565b511561353a5761353590613106565b613509565b50505050505050600090565b50509194600a919450101561355f575b50505050600190565b61356890613177565b61ffff811661357b6125258286886130cb565b156135bc5761358a8184613130565b51156134e357600a116135ae576125256135a661357b92613177565b915050613568565b505050505b38808080613556565b50505050506135b3565b506135d56125258286886130cb565b613517565b939291906135e78361318c565b600995905b61ffff81811690600a82061688141580613654575b15613647576136108186613130565b511561363a571561362e5761ffff16801561076157600019016135ec565b509091929394506134fd565b5050505050505050600090565b50509091929394506134fd565b506136636125258285876130cb565b613601565b506136776125258285886130cb565b6134c056fea2646970667358221220fc6f6e1108d7225245d362c302ed0114198a3341d886c431899b164d87b55c7e64736f6c634300081c0033",
          "opcodes": "PUSH1 0xC0 PUSH1 0x40 MSTORE CALLVALUE PUSH2 0x16A JUMPI PUSH1 0x40 MLOAD PUSH1 0x1F PUSH2 0x3822 CODESIZE DUP2 SWAP1 SUB SWAP2 DUP3 ADD PUSH1 0x1F NOT AND DUP4 ADD SWAP2 PUSH1 0x1 PUSH1 0x1 PUSH1 0x40 SHL SUB DUP4 GT DUP5 DUP5 LT OR PUSH2 0x13E JUMPI DUP1 DUP5 SWAP3 PUSH1 0x20 SWAP5 PUSH1 0x40 MSTORE DUP4 CODECOPY DUP2 ADD SUB SLT PUSH2 0x16A JUMPI MLOAD ADDRESS ISZERO PUSH2 0x154 JUMPI PUSH1 0x0 DUP1 SLOAD ADDRESS PUSH1 0x1 PUSH1 0x1 PUSH1 0xA0 SHL SUB NOT DUP3 AND DUP2 OR DUP4 SSTORE SWAP2 PUSH1 0x1 PUSH1 0x1 PUSH1 0xA0 SHL SUB SWAP1 SWAP2 AND SWAP1 PUSH32 0x8BE0079C531659141344CD1FD0A4F28419497F9722A3DAAFE3B4186F6B6457E0 SWAP1 DUP1 LOG3 PUSH1 0x1 DUP1 SSTORE PUSH1 0x40 MLOAD PUSH1 0xA0 DUP2 ADD PUSH1 0x1 PUSH1 0x1 PUSH1 0x40 SHL SUB DUP2 GT DUP3 DUP3 LT OR PUSH2 0x13E JUMPI PUSH1 0x40 MSTORE PUSH1 0x0 DUP2 MSTORE PUSH1 0x1 PUSH1 0x20 DUP3 ADD MSTORE PUSH1 0x2 PUSH1 0x40 DUP3 ADD MSTORE PUSH1 0x1 PUSH1 0x60 DUP3 ADD MSTORE PUSH1 0x1 PUSH1 0x80 DUP3 ADD MSTORE PUSH1 0x0 SWAP1 PUSH1 0x0 JUMPDEST PUSH1 0x5 DUP2 LT PUSH2 0x11A JUMPI POP POP PUSH1 0x2 SSTORE PUSH1 0x80 MSTORE PUSH1 0x32 PUSH1 0xA0 MSTORE PUSH1 0x40 MLOAD PUSH2 0x36B2 SWAP1 DUP2 PUSH2 0x170 DUP3 CODECOPY PUSH1 0x80 MLOAD DUP2 DUP2 DUP2 PUSH2 0x117F ADD MSTORE PUSH2 0x1B95 ADD MSTORE PUSH1 0xA0 MLOAD DUP2 DUP2 DUP2 PUSH2 0x13A1 ADD MSTORE PUSH2 0x2116 ADD MSTORE RETURN JUMPDEST SWAP1 SWAP2 PUSH1 0x20 PUSH1 0x1 SWAP2 PUSH1 0xFF DUP6 MLOAD AND SWAP1 PUSH1 0xFF DUP6 PUSH1 0x3 SHL SWAP3 DUP4 SHL SWAP3 SHL NOT AND OR SWAP4 ADD SWAP2 ADD PUSH2 0xD6 JUMP JUMPDEST PUSH4 0x4E487B71 PUSH1 0xE0 SHL PUSH1 0x0 MSTORE PUSH1 0x41 PUSH1 0x4 MSTORE PUSH1 0x24 PUSH1 0x0 REVERT JUMPDEST PUSH4 0x1E4FBDF7 PUSH1 0xE0 SHL PUSH1 0x0 MSTORE PUSH1 0x0 PUSH1 0x4 MSTORE PUSH1 0x24 PUSH1 0x0 REVERT JUMPDEST PUSH1 0x0 DUP1 REVERT INVALID PUSH2 0x140 PUSH1 0x40 MSTORE PUSH1 0x4 CALLDATASIZE LT ISZERO PUSH2 0x13 JUMPI PUSH1 0x0 DUP1 REVERT JUMPDEST PUSH1 0x0 CALLDATALOAD PUSH1 0xE0 SHR DUP1 PUSH4 0x7ECBA71 EQ PUSH2 0x1588 JUMPI DUP1 PUSH4 0xA1C87A9 EQ PUSH2 0x13C4 JUMPI DUP1 PUSH4 0xB429432 EQ PUSH2 0x1389 JUMPI DUP1 PUSH4 0x155DD5EE EQ PUSH2 0x12EC JUMPI DUP1 PUSH4 0x1BAE0AC8 EQ PUSH2 0x1291 JUMPI DUP1 PUSH4 0x2AD5E4D6 EQ PUSH2 0x127A JUMPI DUP1 PUSH4 0x625904C8 EQ PUSH2 0x125C JUMPI DUP1 PUSH4 0x6790D2B5 EQ PUSH2 0x11A2 JUMPI DUP1 PUSH4 0x6CD6EABF EQ PUSH2 0x1167 JUMPI DUP1 PUSH4 0x6E209F2C EQ PUSH2 0x104A JUMPI DUP1 PUSH4 0x715018A6 EQ PUSH2 0xFE4 JUMPI DUP1 PUSH4 0x75DEBAAD EQ PUSH2 0xF18 JUMPI DUP1 PUSH4 0x8DA5CB5B EQ PUSH2 0xEF1 JUMPI DUP1 PUSH4 0x8EFE14FD EQ PUSH2 0xECF JUMPI DUP1 PUSH4 0xA616B069 EQ PUSH2 0xEB3 JUMPI DUP1 PUSH4 0xAB196ACD EQ PUSH2 0xD41 JUMPI DUP1 PUSH4 0xB3A16B19 EQ PUSH2 0xBCF JUMPI DUP1 PUSH4 0xB9BAFB10 EQ PUSH2 0xB95 JUMPI DUP1 PUSH4 0xBA848382 EQ PUSH2 0xB79 JUMPI DUP1 PUSH4 0xC599D89B EQ PUSH2 0x8FC JUMPI DUP1 PUSH4 0xC841869D EQ PUSH2 0x807 JUMPI DUP1 PUSH4 0xCE9B4321 EQ PUSH2 0x7E1 JUMPI DUP1 PUSH4 0xD38F4663 EQ PUSH2 0x59C JUMPI DUP1 PUSH4 0xD4D91F10 EQ PUSH2 0x20E JUMPI DUP1 PUSH4 0xDC4A3E95 EQ PUSH2 0x1F2 JUMPI PUSH4 0xF2FDE38B EQ PUSH2 0x13B JUMPI PUSH1 0x0 DUP1 REVERT JUMPDEST CALLVALUE PUSH2 0x1ED JUMPI PUSH1 0x20 CALLDATASIZE PUSH1 0x3 NOT ADD SLT PUSH2 0x1ED JUMPI PUSH1 0x4 CALLDATALOAD PUSH1 0x1 PUSH1 0x1 PUSH1 0xA0 SHL SUB DUP2 AND DUP1 SWAP2 SUB PUSH2 0x1ED JUMPI PUSH2 0x168 PUSH2 0x2180 JUMP JUMPDEST DUP1 ISZERO PUSH2 0x1BE JUMPI PUSH1 0x1 PUSH1 0x1 PUSH1 0xA0 SHL SUB PUSH1 0x0 SLOAD DUP3 PUSH20 0xFFFFFFFFFFFFFFFFFFFFFFFFFFFFFFFFFFFFFFFF NOT DUP3 AND OR PUSH1 0x0 SSTORE AND PUSH32 0x8BE0079C531659141344CD1FD0A4F28419497F9722A3DAAFE3B4186F6B6457E0 PUSH1 0x0 DUP1 LOG3 STOP JUMPDEST PUSH32 0x1E4FBDF700000000000000000000000000000000000000000000000000000000 PUSH1 0x0 MSTORE PUSH1 0x0 PUSH1 0x4 MSTORE PUSH1 0x24 PUSH1 0x0 REVERT JUMPDEST PUSH1 0x0 DUP1 REVERT JUMPDEST CALLVALUE PUSH2 0x1ED JUMPI PUSH1 0x0 CALLDATASIZE PUSH1 0x3 NOT ADD SLT PUSH2 0x1ED JUMPI PUSH1 0x20 PUSH1 0x40 MLOAD PUSH1 0xA DUP2 MSTORE RETURN JUMPDEST CALLVALUE PUSH2 0x1ED JUMPI PUSH1 0x60 CALLDATASIZE PUSH1 0x3 NOT ADD SLT PUSH2 0x1ED JUMPI PUSH1 0x44 CALLDATALOAD PUSH1 0x4 CALLDATALOAD PUSH1 0x24 CALLDATALOAD DUP1 ISZERO PUSH2 0x532 JUMPI DUP2 PUSH1 0x0 MSTORE PUSH1 0x3 PUSH1 0x20 MSTORE PUSH1 0x40 PUSH1 0x0 KECCAK256 SWAP1 PUSH1 0xFF DUP3 SLOAD AND PUSH1 0x7 DUP2 LT ISZERO PUSH2 0x51C JUMPI PUSH1 0x2 SUB PUSH2 0x4D8 JUMPI PUSH1 0x80 PUSH2 0x25D DUP4 PUSH2 0x1718 JUMP JUMPDEST ADD MLOAD NUMBER GT PUSH2 0x494 JUMPI PUSH2 0x277 CALLER PUSH2 0x272 DUP5 PUSH2 0x1718 JUMP JUMPDEST PUSH2 0x2070 JUMP JUMPDEST SWAP4 PUSH1 0x2 DUP4 ADD SWAP5 PUSH2 0x287 DUP2 DUP8 PUSH2 0x18FE JUMP JUMPDEST POP PUSH1 0x1 DUP2 ADD SWAP1 DUP2 SLOAD PUSH2 0x42A JUMPI DUP5 PUSH1 0x5 SWAP3 SSTORE ADD SWAP1 DUP2 SLOAD PUSH1 0x40 MLOAD PUSH1 0x20 DUP2 ADD SWAP1 DUP6 DUP3 MSTORE PUSH1 0x20 DUP2 MSTORE PUSH2 0x2B6 PUSH1 0x40 DUP3 PUSH2 0x16E0 JUMP JUMPDEST MLOAD SWAP1 KECCAK256 SUB PUSH2 0x3C1 JUMPI PUSH2 0x2F8 PUSH2 0x2F2 PUSH1 0x1 SWAP3 PUSH32 0x40952B52F743BBD15DD7C9268B98CB4459193027CDB8D6A3D499CB50D7F173F3 SWAP6 PUSH1 0x60 SWAP6 SSTORE PUSH2 0x1861 JUMP JUMPDEST DUP9 PUSH2 0x18FE JUMP JUMPDEST POP ADD SLOAD ISZERO ISZERO SWAP3 PUSH1 0x40 MLOAD SWAP1 DUP7 DUP3 MSTORE CALLER PUSH1 0x20 DUP4 ADD MSTORE PUSH1 0x40 DUP3 ADD MSTORE LOG1 PUSH2 0x317 JUMPI STOP JUMPDEST PUSH2 0x39E DUP2 PUSH32 0xFADB9547847A0C2C31F4C02590545E318D33D7AAE99071CAECF3FA4CE3CD7DCA SWAP5 PUSH2 0x399 PUSH1 0x1 PUSH1 0x7 PUSH1 0x1 PUSH1 0x1 PUSH1 0xA0 SHL SUB SWAP7 ADD SLOAD PUSH1 0xD DUP6 ADD SLOAD PUSH1 0x40 MLOAD SWAP1 PUSH1 0x20 DUP3 ADD SWAP3 DUP4 MSTORE PUSH1 0x40 DUP3 ADD MSTORE PUSH1 0x40 DUP2 MSTORE PUSH2 0x373 PUSH1 0x60 DUP3 PUSH2 0x16E0 JUMP JUMPDEST MLOAD SWAP1 KECCAK256 AND SWAP3 PUSH1 0xE DUP2 ADD PUSH1 0xFF DUP6 AND PUSH1 0xFF NOT DUP3 SLOAD AND OR SWAP1 SSTORE PUSH1 0x3 PUSH1 0xFF NOT DUP3 SLOAD AND OR DUP2 SSTORE PUSH2 0x2114 JUMP JUMPDEST PUSH2 0x18FE JUMP JUMPDEST POP SLOAD PUSH1 0x40 DUP1 MLOAD SWAP4 DUP5 MSTORE SWAP2 AND PUSH1 0x1 PUSH1 0x1 PUSH1 0xA0 SHL SUB AND PUSH1 0x20 DUP4 ADD MSTORE DUP2 SWAP1 DUP2 ADD JUMPDEST SUB SWAP1 LOG1 STOP JUMPDEST PUSH1 0x84 PUSH1 0x40 MLOAD PUSH3 0x461BCD PUSH1 0xE5 SHL DUP2 MSTORE PUSH1 0x20 PUSH1 0x4 DUP3 ADD MSTORE PUSH1 0x24 DUP1 DUP3 ADD MSTORE PUSH32 0x52616E646F6D6E65737320636F6D6D69746D656E7420646F6573206E6F74206D PUSH1 0x44 DUP3 ADD MSTORE PUSH32 0x6174636800000000000000000000000000000000000000000000000000000000 PUSH1 0x64 DUP3 ADD MSTORE REVERT JUMPDEST PUSH1 0x84 PUSH1 0x40 MLOAD PUSH3 0x461BCD PUSH1 0xE5 SHL DUP2 MSTORE PUSH1 0x20 PUSH1 0x4 DUP3 ADD MSTORE PUSH1 0x25 PUSH1 0x24 DUP3 ADD MSTORE PUSH32 0x596F75206861766520616C7265616479207375626D697474656420796F757220 PUSH1 0x44 DUP3 ADD MSTORE PUSH32 0x626F617264000000000000000000000000000000000000000000000000000000 PUSH1 0x64 DUP3 ADD MSTORE REVERT JUMPDEST PUSH1 0x64 PUSH1 0x40 MLOAD PUSH3 0x461BCD PUSH1 0xE5 SHL DUP2 MSTORE PUSH1 0x20 PUSH1 0x4 DUP3 ADD MSTORE PUSH1 0x13 PUSH1 0x24 DUP3 ADD MSTORE PUSH32 0x446561646C696E65206861732070617373656400000000000000000000000000 PUSH1 0x44 DUP3 ADD MSTORE REVERT JUMPDEST PUSH1 0x64 PUSH1 0x40 MLOAD PUSH3 0x461BCD PUSH1 0xE5 SHL DUP2 MSTORE PUSH1 0x20 PUSH1 0x4 DUP3 ADD MSTORE PUSH1 0x1D PUSH1 0x24 DUP3 ADD MSTORE PUSH32 0x526F6F6D206973206E6F7420696E207468652066756C6C207374617465000000 PUSH1 0x44 DUP3 ADD MSTORE REVERT JUMPDEST PUSH4 0x4E487B71 PUSH1 0xE0 SHL PUSH1 0x0 MSTORE PUSH1 0x21 PUSH1 0x4 MSTORE PUSH1 0x24 PUSH1 0x0 REVERT JUMPDEST PUSH1 0x84 PUSH1 0x40 MLOAD PUSH3 0x461BCD PUSH1 0xE5 SHL DUP2 MSTORE PUSH1 0x20 PUSH1 0x4 DUP3 ADD MSTORE PUSH1 0x21 PUSH1 0x24 DUP3 ADD MSTORE PUSH32 0x426F61726420636F6D6D69746D656E74206D757374206265206E6F6E2D7A6572 PUSH1 0x44 DUP3 ADD MSTORE PUSH32 0x6F00000000000000000000000000000000000000000000000000000000000000 PUSH1 0x64 DUP3 ADD MSTORE REVERT JUMPDEST CALLVALUE PUSH2 0x1ED JUMPI PUSH1 0xA0 CALLDATASIZE PUSH1 0x3 NOT ADD SLT PUSH2 0x1ED JUMPI PUSH1 0x4 CALLDATALOAD PUSH1 0x44 CALLDATALOAD PUSH8 0xFFFFFFFFFFFFFFFF DUP2 GT PUSH2 0x1ED JUMPI PUSH2 0x5D0 SWAP1 CALLDATASIZE SWAP1 PUSH1 0x4 ADD PUSH2 0x15DF JUMP JUMPDEST SWAP2 PUSH1 0x64 CALLDATALOAD PUSH8 0xFFFFFFFFFFFFFFFF DUP2 GT PUSH2 0x1ED JUMPI PUSH2 0x5F1 SWAP1 CALLDATASIZE SWAP1 PUSH1 0x4 ADD PUSH2 0x1610 JUMP JUMPDEST PUSH1 0x84 SWAP5 SWAP2 SWAP5 CALLDATALOAD PUSH8 0xFFFFFFFFFFFFFFFF DUP2 GT PUSH2 0x1ED JUMPI PUSH2 0x614 SWAP1 CALLDATASIZE SWAP1 PUSH1 0x4 ADD PUSH2 0x15DF JUMP JUMPDEST SWAP2 DUP5 PUSH1 0x0 MSTORE PUSH1 0x3 PUSH1 0x20 MSTORE PUSH1 0x40 PUSH1 0x0 KECCAK256 SWAP7 PUSH2 0x631 CALLER PUSH2 0x272 DUP11 PUSH2 0x1718 JUMP JUMPDEST SWAP1 PUSH1 0xFF DUP10 SLOAD AND PUSH1 0x7 DUP2 LT ISZERO PUSH2 0x51C JUMPI PUSH1 0x5 SUB PUSH2 0x777 JUMPI PUSH1 0x1 SWAP5 PUSH1 0x1 PUSH1 0x1 PUSH1 0xA0 SHL SUB SWAP5 PUSH2 0x699 SWAP5 PUSH2 0x67D SWAP4 DUP10 DUP13 DUP15 PUSH2 0x673 PUSH1 0xFF PUSH1 0xE DUP4 ADD SLOAD AND PUSH1 0xFF DUP12 AND EQ PUSH2 0x1816 JUMP JUMPDEST DUP9 PUSH1 0x24 CALLDATALOAD SWAP2 PUSH2 0x2323 JUMP JUMPDEST DUP8 SLOAD PUSH1 0xFF NOT AND PUSH1 0x6 OR DUP9 SSTORE PUSH2 0x690 PUSH2 0x2145 JUMP JUMPDEST PUSH1 0x2 DUP9 ADD PUSH2 0x18FE JUMP JUMPDEST POP SLOAD AND SWAP5 ADD SLOAD SWAP1 DUP2 PUSH1 0x1 SHL SWAP2 PUSH1 0x1 PUSH1 0x1 PUSH1 0xFF SHL SUB DUP2 AND DUP2 SUB PUSH2 0x761 JUMPI PUSH2 0x6BE SWAP1 PUSH2 0x2022 JUMP JUMPDEST SWAP2 DUP3 DUP2 SUB SWAP3 DUP2 DUP5 GT PUSH2 0x761 JUMPI DUP7 DUP5 SWAP2 PUSH1 0x0 SWAP4 EQ PUSH2 0x757 JUMPI JUMPDEST PUSH1 0x0 SWAP3 DUP4 SWAP3 DUP4 SWAP3 DUP4 SWAP3 CALL ISZERO PUSH2 0x74B JUMPI PUSH32 0xEE97096F32EED49908B904623AE7BA7AF58C121E15FE6E7F31AC379FB7CA1A98 PUSH1 0x40 PUSH32 0xB2140D601EF56C537167DF622738F7062C329FD471B1F729EDFA570296A3C8F SWAP7 PUSH2 0x3BC SWAP5 DUP3 MLOAD SWAP2 DUP3 MSTORE PUSH1 0x20 DUP3 ADD MSTORE LOG1 PUSH1 0x1 DUP1 SSTORE PUSH1 0x40 MLOAD SWAP4 DUP5 SWAP4 CALLER SWAP1 DUP6 PUSH2 0x1BF0 JUMP JUMPDEST PUSH1 0x40 MLOAD RETURNDATASIZE PUSH1 0x0 DUP3 RETURNDATACOPY RETURNDATASIZE SWAP1 REVERT JUMPDEST PUSH2 0x8FC SWAP3 POP PUSH2 0x6D6 JUMP JUMPDEST PUSH4 0x4E487B71 PUSH1 0xE0 SHL PUSH1 0x0 MSTORE PUSH1 0x11 PUSH1 0x4 MSTORE PUSH1 0x24 PUSH1 0x0 REVERT JUMPDEST PUSH1 0x84 PUSH1 0x40 MLOAD PUSH3 0x461BCD PUSH1 0xE5 SHL DUP2 MSTORE PUSH1 0x20 PUSH1 0x4 DUP3 ADD MSTORE PUSH1 0x2B PUSH1 0x24 DUP3 ADD MSTORE PUSH32 0x526F6F6D206973206E6F7420696E2074686520646973686F6E6573747920636C PUSH1 0x44 DUP3 ADD MSTORE PUSH32 0x61696D6564207374617465000000000000000000000000000000000000000000 PUSH1 0x64 DUP3 ADD MSTORE REVERT JUMPDEST CALLVALUE PUSH2 0x1ED JUMPI PUSH1 0x20 CALLDATASIZE PUSH1 0x3 NOT ADD SLT PUSH2 0x1ED JUMPI PUSH1 0x20 PUSH2 0x7FF PUSH1 0x4 CALLDATALOAD PUSH2 0x2022 JUMP JUMPDEST PUSH1 0x40 MLOAD SWAP1 DUP2 MSTORE RETURN JUMPDEST CALLVALUE PUSH2 0x1ED JUMPI PUSH2 0x140 CALLDATASIZE PUSH1 0x3 NOT ADD SLT PUSH2 0x1ED JUMPI PUSH1 0x4 CALLDATALOAD PUSH1 0x40 CALLDATASIZE PUSH1 0x23 NOT ADD SLT PUSH2 0x1ED JUMPI PUSH1 0x64 CALLDATALOAD PUSH1 0x3 DUP2 LT ISZERO PUSH2 0x1ED JUMPI PUSH1 0xA4 CALLDATALOAD PUSH8 0xFFFFFFFFFFFFFFFF DUP2 GT PUSH2 0x1ED JUMPI PUSH2 0x854 SWAP1 CALLDATASIZE SWAP1 PUSH1 0x4 ADD PUSH2 0x15DF JUMP JUMPDEST PUSH1 0xC4 SWAP3 SWAP2 SWAP3 CALLDATALOAD PUSH8 0xFFFFFFFFFFFFFFFF DUP2 GT PUSH2 0x1ED JUMPI PUSH2 0x877 SWAP1 CALLDATASIZE SWAP1 PUSH1 0x4 ADD PUSH2 0x1610 JUMP JUMPDEST PUSH1 0xE4 SWAP3 SWAP2 SWAP3 CALLDATALOAD PUSH8 0xFFFFFFFFFFFFFFFF DUP2 GT PUSH2 0x1ED JUMPI PUSH2 0x89A SWAP1 CALLDATASIZE SWAP1 PUSH1 0x4 ADD PUSH2 0x15DF JUMP JUMPDEST SWAP2 PUSH2 0x104 CALLDATALOAD PUSH8 0xFFFFFFFFFFFFFFFF DUP2 GT PUSH2 0x1ED JUMPI PUSH2 0x8BC SWAP1 CALLDATASIZE SWAP1 PUSH1 0x4 ADD PUSH2 0x1610 JUMP JUMPDEST SWAP6 SWAP1 SWAP5 PUSH2 0x124 CALLDATALOAD SWAP9 PUSH8 0xFFFFFFFFFFFFFFFF DUP11 GT PUSH2 0x1ED JUMPI PUSH2 0x8FA SWAP11 PUSH2 0x8E8 PUSH2 0x8F1 SWAP12 CALLDATASIZE SWAP1 PUSH1 0x4 ADD PUSH2 0x15DF JUMP JUMPDEST SWAP12 SWAP1 SWAP11 DUP3 PUSH2 0x1920 JUMP JUMPDEST PUSH1 0x84 CALLDATALOAD SWAP1 PUSH2 0x1C47 JUMP JUMPDEST STOP JUMPDEST CALLVALUE PUSH2 0x1ED JUMPI PUSH1 0x20 CALLDATASIZE PUSH1 0x3 NOT ADD SLT PUSH2 0x1ED JUMPI PUSH1 0x4 CALLDATALOAD DUP1 PUSH1 0x0 MSTORE PUSH1 0x3 PUSH1 0x20 MSTORE PUSH1 0x40 PUSH1 0x0 KECCAK256 SWAP1 PUSH2 0x92C CALLER PUSH2 0x272 DUP5 PUSH2 0x1718 JUMP JUMPDEST PUSH2 0x935 DUP2 PUSH2 0x1861 JUMP JUMPDEST PUSH1 0xF DUP5 ADD SLOAD NUMBER GT ISZERO PUSH2 0xB35 JUMPI PUSH1 0xFF DUP5 SLOAD AND PUSH1 0x7 DUP2 LT ISZERO PUSH2 0x51C JUMPI PUSH1 0x2 DUP2 EQ SWAP2 DUP3 PUSH2 0xB1A JUMPI JUMPDEST PUSH1 0x3 DUP3 EQ SWAP2 PUSH1 0x0 DUP4 ISZERO PUSH2 0xB0C JUMPI JUMPDEST DUP4 ISZERO PUSH2 0xAF9 JUMPI JUMPDEST POP POP DUP2 PUSH2 0xAE5 JUMPI JUMPDEST POP DUP2 ISZERO PUSH2 0xADD JUMPI JUMPDEST POP ISZERO PUSH2 0xA73 JUMPI PUSH1 0x1 PUSH1 0x1 PUSH1 0xA0 SHL SUB PUSH2 0x9AF PUSH1 0x1 SWAP3 PUSH1 0x6 PUSH1 0xFF NOT DUP8 SLOAD AND OR DUP7 SSTORE PUSH2 0x9A6 PUSH2 0x2145 JUMP JUMPDEST PUSH1 0x2 DUP7 ADD PUSH2 0x18FE JUMP JUMPDEST POP SLOAD AND SWAP3 ADD SLOAD SWAP1 DUP2 PUSH1 0x1 SHL SWAP2 PUSH1 0x1 PUSH1 0x1 PUSH1 0xFF SHL SUB DUP2 AND DUP2 SUB PUSH2 0x761 JUMPI PUSH2 0x9D4 SWAP1 PUSH2 0x2022 JUMP JUMPDEST SWAP2 DUP3 DUP2 SUB SWAP3 DUP2 DUP5 GT PUSH2 0x761 JUMPI DUP5 DUP5 SWAP2 PUSH1 0x0 SWAP4 EQ PUSH2 0xA69 JUMPI JUMPDEST PUSH1 0x0 SWAP3 DUP4 SWAP3 DUP4 SWAP3 DUP4 SWAP3 CALL ISZERO PUSH2 0x74B JUMPI PUSH32 0xEE97096F32EED49908B904623AE7BA7AF58C121E15FE6E7F31AC379FB7CA1A98 PUSH1 0x40 PUSH32 0x294A1CC2E139B7D44DC4130A0E042162F4D48F289FE4E0A40CA50726A9D01EBC SWAP5 PUSH2 0x3BC SWAP5 DUP3 MLOAD SWAP2 DUP3 MSTORE PUSH1 0x20 DUP3 ADD MSTORE LOG1 PUSH1 0x1 DUP1 SSTORE PUSH1 0x40 DUP1 MLOAD SWAP2 DUP3 MSTORE CALLER PUSH1 0x20 DUP4 ADD MSTORE SWAP1 SWAP2 DUP3 SWAP2 DUP3 ADD SWAP1 JUMP JUMPDEST PUSH2 0x8FC SWAP3 POP PUSH2 0x9EC JUMP JUMPDEST PUSH1 0x84 PUSH1 0x40 MLOAD PUSH3 0x461BCD PUSH1 0xE5 SHL DUP2 MSTORE PUSH1 0x20 PUSH1 0x4 DUP3 ADD MSTORE PUSH1 0x21 PUSH1 0x24 DUP3 ADD MSTORE PUSH32 0x4974206973206E6F7420656E656D792773207475726E20746F20726573706F6E PUSH1 0x44 DUP3 ADD MSTORE PUSH32 0x6400000000000000000000000000000000000000000000000000000000000000 PUSH1 0x64 DUP3 ADD MSTORE REVERT JUMPDEST SWAP1 POP DUP5 PUSH2 0x97F JUMP JUMPDEST SWAP1 POP PUSH1 0xFF DUP1 PUSH1 0xE DUP8 ADD SLOAD AND SWAP2 AND EQ DUP6 PUSH2 0x977 JUMP JUMPDEST SWAP1 SWAP2 SWAP3 POP PUSH2 0x51C JUMPI PUSH1 0x5 EQ SWAP1 DUP7 DUP1 PUSH2 0x96F JUMP JUMPDEST POP PUSH1 0x4 DUP2 EQ SWAP3 POP PUSH1 0x0 PUSH2 0x968 JUMP JUMPDEST SWAP2 POP PUSH1 0x1 PUSH2 0xB2B DUP4 PUSH1 0x2 DUP9 ADD PUSH2 0x18FE JUMP JUMPDEST POP ADD SLOAD ISZERO SWAP2 PUSH2 0x95A JUMP JUMPDEST PUSH1 0x64 PUSH1 0x40 MLOAD PUSH3 0x461BCD PUSH1 0xE5 SHL DUP2 MSTORE PUSH1 0x20 PUSH1 0x4 DUP3 ADD MSTORE PUSH1 0x1B PUSH1 0x24 DUP3 ADD MSTORE PUSH32 0x446561646C696E6520686173206E6F7420706173736564207965740000000000 PUSH1 0x44 DUP3 ADD MSTORE REVERT JUMPDEST CALLVALUE PUSH2 0x1ED JUMPI PUSH1 0x0 CALLDATASIZE PUSH1 0x3 NOT ADD SLT PUSH2 0x1ED JUMPI PUSH1 0x20 PUSH1 0x40 MLOAD PUSH1 0x5 DUP2 MSTORE RETURN JUMPDEST CALLVALUE PUSH2 0x1ED JUMPI PUSH1 0x20 CALLDATASIZE PUSH1 0x3 NOT ADD SLT PUSH2 0x1ED JUMPI PUSH1 0x4 CALLDATALOAD PUSH1 0x5 DUP2 LT ISZERO PUSH2 0x1ED JUMPI PUSH1 0xFF PUSH2 0xBBF PUSH1 0x20 SWAP3 PUSH2 0x1641 JUMP JUMPDEST SWAP1 SLOAD SWAP1 PUSH1 0x3 SHL SHR AND PUSH1 0x40 MLOAD SWAP1 DUP2 MSTORE RETURN JUMPDEST CALLVALUE PUSH2 0x1ED JUMPI PUSH1 0xC0 CALLDATASIZE PUSH1 0x3 NOT ADD SLT PUSH2 0x1ED JUMPI PUSH1 0x4 CALLDATALOAD PUSH1 0x40 CALLDATASIZE PUSH1 0x23 NOT ADD SLT PUSH2 0x1ED JUMPI PUSH1 0x64 CALLDATALOAD PUSH1 0x3 DUP2 LT ISZERO PUSH2 0x1ED JUMPI PUSH1 0x40 CALLDATASIZE PUSH1 0x83 NOT ADD SLT PUSH2 0x1ED JUMPI PUSH2 0xC11 SWAP1 DUP3 PUSH2 0x1920 JUMP JUMPDEST DUP1 PUSH1 0x0 MSTORE PUSH1 0x3 PUSH1 0x20 MSTORE PUSH1 0x40 PUSH1 0x0 KECCAK256 SWAP1 PUSH1 0xFF DUP3 SLOAD AND PUSH1 0x7 DUP2 LT ISZERO PUSH2 0x51C JUMPI PUSH1 0x3 PUSH2 0xC3A SWAP2 EQ PUSH2 0x166F JUMP JUMPDEST PUSH2 0xC47 CALLER PUSH2 0x272 DUP5 PUSH2 0x1718 JUMP JUMPDEST PUSH2 0xFFFF PUSH1 0x1 PUSH1 0x1 PUSH1 0xA0 SHL SUB PUSH2 0xC75 PUSH1 0xE DUP7 ADD SWAP4 PUSH2 0xC6C PUSH1 0xFF DUP7 SLOAD AND PUSH1 0xFF DUP4 AND EQ PUSH2 0x1816 JUMP JUMPDEST PUSH1 0x2 DUP8 ADD PUSH2 0x18FE JUMP JUMPDEST POP PUSH2 0xCD1 PUSH1 0x2 DUP3 ADD SWAP7 DUP8 SLOAD SWAP6 DUP6 PUSH2 0xC8D DUP2 DUP10 AND PUSH2 0x1BD0 JUMP JUMPDEST AND DUP1 SWAP8 DUP8 NOT AND OR DUP10 SSTORE PUSH2 0xCA7 PUSH1 0x84 PUSH1 0x3 DUP7 ADD SWAP9 DUP10 SLOAD PUSH2 0x22AB JUMP JUMPDEST DUP8 SSTORE PUSH1 0x4 PUSH1 0xFF NOT DUP4 SLOAD AND OR DUP3 SSTORE PUSH1 0xFF PUSH2 0xCC2 DUP2 DUP4 SLOAD AND PUSH2 0x1861 JUMP JUMPDEST AND PUSH1 0xFF NOT DUP3 SLOAD AND OR SWAP1 SSTORE PUSH2 0x2114 JUMP JUMPDEST SLOAD AND SWAP4 SLOAD AND SWAP1 SLOAD SWAP3 PUSH1 0x40 MLOAD SWAP3 DUP4 MSTORE PUSH1 0x20 DUP4 ADD MSTORE PUSH1 0x40 DUP3 ADD MSTORE PUSH1 0x84 CALLDATALOAD PUSH1 0xFF DUP2 AND DUP2 SUB PUSH2 0x1ED JUMPI PUSH1 0xFF AND PUSH1 0x60 DUP3 ADD MSTORE PUSH1 0xA4 CALLDATALOAD SWAP1 PUSH1 0xFF DUP3 AND DUP3 SUB PUSH2 0x1ED JUMPI PUSH32 0xB72B4B2C796809161DBC42D5A7E6E0C75042FE6F953C2D35187A16CEF28848BF SWAP3 PUSH1 0xFF PUSH1 0xC0 SWAP4 AND PUSH1 0x80 DUP4 ADD MSTORE PUSH1 0xA0 DUP3 ADD MSTORE LOG1 STOP JUMPDEST PUSH1 0x40 CALLDATASIZE PUSH1 0x3 NOT ADD SLT PUSH2 0x1ED JUMPI PUSH1 0x4 CALLDATALOAD PUSH2 0xD59 CALLVALUE PUSH2 0x2022 JUMP JUMPDEST SWAP1 DUP2 CALLVALUE GT ISZERO PUSH2 0xE49 JUMPI DUP1 PUSH1 0x0 MSTORE PUSH1 0x3 PUSH1 0x20 MSTORE PUSH1 0x40 PUSH1 0x0 KECCAK256 SWAP1 PUSH1 0xFF DUP3 SLOAD AND PUSH1 0x7 DUP2 LT ISZERO PUSH2 0x51C JUMPI PUSH2 0xE05 JUMPI PUSH32 0xCF1EEFEF99365C71F66CF7D03C056F6D828C32F1023712660C18EE3CD8585CB4 SWAP3 PUSH1 0x80 SWAP3 PUSH1 0x1 PUSH1 0xFF NOT DUP3 SLOAD AND OR DUP2 SSTORE CALLVALUE PUSH1 0x1 DUP3 ADD SSTORE PUSH1 0x2 DUP2 ADD PUSH1 0x1 PUSH1 0x1 PUSH1 0xA0 SHL SUB CALLER AND PUSH20 0xFFFFFFFFFFFFFFFFFFFFFFFFFFFFFFFFFFFFFFFF NOT DUP3 SLOAD AND OR SWAP1 SSTORE PUSH1 0x7 PUSH1 0x24 CALLDATALOAD SWAP2 ADD SSTORE PUSH1 0x40 MLOAD SWAP2 DUP3 MSTORE CALLER PUSH1 0x20 DUP4 ADD MSTORE CALLVALUE PUSH1 0x40 DUP4 ADD MSTORE PUSH1 0x60 DUP3 ADD MSTORE LOG1 STOP JUMPDEST PUSH1 0x64 PUSH1 0x40 MLOAD PUSH3 0x461BCD PUSH1 0xE5 SHL DUP2 MSTORE PUSH1 0x20 PUSH1 0x4 DUP3 ADD MSTORE PUSH1 0x13 PUSH1 0x24 DUP3 ADD MSTORE PUSH32 0x526F6F6D20616C72656164792065786973747300000000000000000000000000 PUSH1 0x44 DUP3 ADD MSTORE REVERT JUMPDEST PUSH1 0x84 PUSH1 0x40 MLOAD PUSH3 0x461BCD PUSH1 0xE5 SHL DUP2 MSTORE PUSH1 0x20 PUSH1 0x4 DUP3 ADD MSTORE PUSH1 0x29 PUSH1 0x24 DUP3 ADD MSTORE PUSH32 0x456E74727920666565206D7573742062652067726561746572207468616E2063 PUSH1 0x44 DUP3 ADD MSTORE PUSH32 0x6F6D6D697373696F6E0000000000000000000000000000000000000000000000 PUSH1 0x64 DUP3 ADD MSTORE REVERT JUMPDEST CALLVALUE PUSH2 0x1ED JUMPI PUSH1 0x0 CALLDATASIZE PUSH1 0x3 NOT ADD SLT PUSH2 0x1ED JUMPI PUSH1 0x20 PUSH1 0x40 MLOAD PUSH1 0x11 DUP2 MSTORE RETURN JUMPDEST CALLVALUE PUSH2 0x1ED JUMPI PUSH2 0x8FA PUSH2 0xEEC PUSH2 0xEE3 CALLDATASIZE PUSH2 0x15B1 JUMP JUMPDEST SWAP1 DUP3 SWAP4 SWAP3 PUSH2 0x1A99 JUMP JUMPDEST PUSH2 0x1872 JUMP JUMPDEST CALLVALUE PUSH2 0x1ED JUMPI PUSH1 0x0 CALLDATASIZE PUSH1 0x3 NOT ADD SLT PUSH2 0x1ED JUMPI PUSH1 0x20 PUSH1 0x1 PUSH1 0x1 PUSH1 0xA0 SHL SUB PUSH1 0x0 SLOAD AND PUSH1 0x40 MLOAD SWAP1 DUP2 MSTORE RETURN JUMPDEST CALLVALUE PUSH2 0x1ED JUMPI PUSH1 0xE0 CALLDATASIZE PUSH1 0x3 NOT ADD SLT PUSH2 0x1ED JUMPI PUSH1 0x44 CALLDATALOAD PUSH8 0xFFFFFFFFFFFFFFFF DUP2 GT PUSH2 0x1ED JUMPI PUSH2 0xF49 SWAP1 CALLDATASIZE SWAP1 PUSH1 0x4 ADD PUSH2 0x15DF JUMP JUMPDEST PUSH1 0x64 CALLDATALOAD PUSH8 0xFFFFFFFFFFFFFFFF DUP2 GT PUSH2 0x1ED JUMPI PUSH2 0xF69 SWAP1 CALLDATASIZE SWAP1 PUSH1 0x4 ADD PUSH2 0x1610 JUMP JUMPDEST PUSH1 0x84 SWAP4 SWAP2 SWAP4 CALLDATALOAD PUSH8 0xFFFFFFFFFFFFFFFF DUP2 GT PUSH2 0x1ED JUMPI PUSH2 0xF8C SWAP1 CALLDATASIZE SWAP1 PUSH1 0x4 ADD PUSH2 0x15DF JUMP JUMPDEST PUSH1 0xA4 SWAP3 SWAP2 SWAP3 CALLDATALOAD PUSH8 0xFFFFFFFFFFFFFFFF DUP2 GT PUSH2 0x1ED JUMPI PUSH2 0xFAF SWAP1 CALLDATASIZE SWAP1 PUSH1 0x4 ADD PUSH2 0x1610 JUMP JUMPDEST SWAP4 SWAP1 SWAP3 PUSH1 0xC4 CALLDATALOAD SWAP8 PUSH8 0xFFFFFFFFFFFFFFFF DUP10 GT PUSH2 0x1ED JUMPI PUSH2 0xFD6 PUSH2 0x8FA SWAP10 CALLDATASIZE SWAP1 PUSH1 0x4 ADD PUSH2 0x15DF JUMP JUMPDEST SWAP9 SWAP1 SWAP8 PUSH1 0x24 CALLDATALOAD PUSH1 0x4 CALLDATALOAD PUSH2 0x1C47 JUMP JUMPDEST CALLVALUE PUSH2 0x1ED JUMPI PUSH1 0x0 CALLDATASIZE PUSH1 0x3 NOT ADD SLT PUSH2 0x1ED JUMPI PUSH2 0xFFD PUSH2 0x2180 JUMP JUMPDEST PUSH1 0x0 PUSH1 0x1 PUSH1 0x1 PUSH1 0xA0 SHL SUB DUP2 SLOAD PUSH20 0xFFFFFFFFFFFFFFFFFFFFFFFFFFFFFFFFFFFFFFFF NOT DUP2 AND DUP4 SSTORE AND PUSH32 0x8BE0079C531659141344CD1FD0A4F28419497F9722A3DAAFE3B4186F6B6457E0 DUP3 DUP1 LOG3 STOP JUMPDEST CALLVALUE PUSH2 0x1ED JUMPI PUSH1 0x60 CALLDATASIZE PUSH1 0x3 NOT ADD SLT PUSH2 0x1ED JUMPI PUSH1 0x4 CALLDATALOAD PUSH1 0x40 CALLDATASIZE PUSH1 0x23 NOT ADD SLT PUSH2 0x1ED JUMPI DUP1 PUSH1 0x0 MSTORE PUSH1 0x3 PUSH1 0x20 MSTORE PUSH1 0x40 PUSH1 0x0 KECCAK256 SWAP1 PUSH1 0xFF DUP3 SLOAD AND PUSH1 0x7 DUP2 LT ISZERO PUSH2 0x51C JUMPI PUSH1 0x3 PUSH2 0x1093 SWAP2 EQ PUSH2 0x166F JUMP JUMPDEST PUSH2 0x10A0 CALLER PUSH2 0x272 DUP5 PUSH2 0x1718 JUMP JUMPDEST PUSH2 0xFFFF PUSH1 0x1 PUSH1 0x1 PUSH1 0xA0 SHL SUB PUSH2 0x10C5 PUSH1 0xE DUP7 ADD SWAP4 PUSH2 0xC6C PUSH1 0xFF DUP7 SLOAD AND PUSH1 0xFF DUP4 AND EQ PUSH2 0x1816 JUMP JUMPDEST POP PUSH2 0x10F7 PUSH1 0x2 DUP3 ADD SWAP7 DUP8 SLOAD SWAP6 DUP6 PUSH2 0x10DD DUP2 DUP10 AND PUSH2 0x1BD0 JUMP JUMPDEST AND DUP1 SWAP8 DUP8 NOT AND OR DUP10 SSTORE PUSH2 0xCA7 PUSH1 0x24 PUSH1 0x3 DUP7 ADD SWAP9 DUP10 SLOAD PUSH2 0x22AB JUMP JUMPDEST SLOAD AND SWAP4 SLOAD AND SWAP1 SLOAD SWAP3 PUSH1 0x40 MLOAD SWAP3 DUP4 MSTORE PUSH1 0x20 DUP4 ADD MSTORE PUSH1 0x40 DUP3 ADD MSTORE PUSH1 0x24 CALLDATALOAD PUSH1 0xFF DUP2 AND DUP2 SUB PUSH2 0x1ED JUMPI PUSH1 0xFF AND PUSH1 0x60 DUP3 ADD MSTORE PUSH1 0x44 CALLDATALOAD SWAP1 PUSH1 0xFF DUP3 AND DUP3 SUB PUSH2 0x1ED JUMPI PUSH32 0xB72B4B2C796809161DBC42D5A7E6E0C75042FE6F953C2D35187A16CEF28848BF SWAP3 PUSH1 0xFF PUSH1 0xC0 SWAP4 AND PUSH1 0x80 DUP4 ADD MSTORE PUSH1 0xA0 DUP3 ADD MSTORE LOG1 STOP JUMPDEST CALLVALUE PUSH2 0x1ED JUMPI PUSH1 0x0 CALLDATASIZE PUSH1 0x3 NOT ADD SLT PUSH2 0x1ED JUMPI PUSH1 0x20 PUSH1 0x40 MLOAD PUSH32 0x0 DUP2 MSTORE RETURN JUMPDEST CALLVALUE PUSH2 0x1ED JUMPI PUSH1 0x20 CALLDATASIZE PUSH1 0x3 NOT ADD SLT PUSH2 0x1ED JUMPI PUSH1 0x4 CALLDATALOAD PUSH1 0x0 MSTORE PUSH1 0x3 PUSH1 0x20 MSTORE PUSH2 0x11CB PUSH1 0x40 PUSH1 0x0 KECCAK256 PUSH2 0x1718 JUMP JUMPDEST DUP1 MLOAD PUSH1 0x7 DUP2 LT ISZERO PUSH2 0x51C JUMPI ISZERO PUSH2 0x1218 JUMPI DUP1 MLOAD PUSH1 0x7 DUP2 LT ISZERO PUSH2 0x51C JUMPI DUP2 PUSH1 0x1 PUSH1 0x1 PUSH1 0xA0 SHL SUB PUSH1 0x40 PUSH1 0x20 PUSH1 0x60 SWAP6 ADD MLOAD SWAP3 ADD MLOAD MLOAD MLOAD AND SWAP1 PUSH2 0x120C PUSH1 0x40 MLOAD DUP1 SWAP5 PUSH2 0x15A4 JUMP JUMPDEST PUSH1 0x20 DUP4 ADD MSTORE PUSH1 0x40 DUP3 ADD MSTORE RETURN JUMPDEST PUSH1 0x64 PUSH1 0x40 MLOAD PUSH3 0x461BCD PUSH1 0xE5 SHL DUP2 MSTORE PUSH1 0x20 PUSH1 0x4 DUP3 ADD MSTORE PUSH1 0x13 PUSH1 0x24 DUP3 ADD MSTORE PUSH32 0x526F6F6D20646F6573206E6F7420657869737400000000000000000000000000 PUSH1 0x44 DUP3 ADD MSTORE REVERT JUMPDEST CALLVALUE PUSH2 0x1ED JUMPI PUSH1 0x20 CALLDATASIZE PUSH1 0x3 NOT ADD SLT PUSH2 0x1ED JUMPI PUSH1 0x20 PUSH2 0x7FF PUSH1 0x4 CALLDATALOAD PUSH2 0x1B8B JUMP JUMPDEST CALLVALUE PUSH2 0x1ED JUMPI PUSH2 0x8FA PUSH2 0x128B CALLDATASIZE PUSH2 0x15B1 JUMP JUMPDEST SWAP2 PUSH2 0x1A99 JUMP JUMPDEST CALLVALUE PUSH2 0x1ED JUMPI PUSH1 0x20 CALLDATASIZE PUSH1 0x3 NOT ADD SLT PUSH2 0x1ED JUMPI PUSH1 0x4 CALLDATALOAD PUSH1 0x0 MSTORE PUSH1 0x3 PUSH1 0x20 MSTORE PUSH1 0x80 PUSH1 0x40 PUSH1 0x0 KECCAK256 PUSH1 0xFF DUP2 SLOAD AND SWAP1 PUSH1 0x1 DUP2 ADD SLOAD SWAP1 PUSH1 0xF PUSH1 0xFF PUSH1 0xE DUP4 ADD SLOAD AND SWAP2 ADD SLOAD SWAP2 PUSH2 0x12DB PUSH1 0x40 MLOAD DUP1 SWAP6 PUSH2 0x15A4 JUMP JUMPDEST PUSH1 0x20 DUP5 ADD MSTORE PUSH1 0x40 DUP4 ADD MSTORE PUSH1 0x60 DUP3 ADD MSTORE RETURN JUMPDEST CALLVALUE PUSH2 0x1ED JUMPI PUSH1 0x20 CALLDATASIZE PUSH1 0x3 NOT ADD SLT PUSH2 0x1ED JUMPI PUSH1 0x4 CALLDATALOAD PUSH2 0x1308 PUSH2 0x2145 JUMP JUMPDEST PUSH2 0x1310 PUSH2 0x2180 JUMP JUMPDEST DUP1 SELFBALANCE LT PUSH2 0x1345 JUMPI PUSH1 0x0 DUP1 DUP1 DUP1 SWAP4 PUSH1 0x1 PUSH1 0x1 PUSH1 0xA0 SHL SUB DUP3 SLOAD AND DUP3 DUP3 ISZERO PUSH2 0x133C JUMPI JUMPDEST CALL ISZERO PUSH2 0x74B JUMPI PUSH1 0x1 DUP1 SSTORE STOP JUMPDEST POP PUSH2 0x8FC PUSH2 0x1330 JUMP JUMPDEST PUSH1 0x64 PUSH1 0x40 MLOAD PUSH3 0x461BCD PUSH1 0xE5 SHL DUP2 MSTORE PUSH1 0x20 PUSH1 0x4 DUP3 ADD MSTORE PUSH1 0x10 PUSH1 0x24 DUP3 ADD MSTORE PUSH32 0x4E6F7420656E6F7567682066756E647300000000000000000000000000000000 PUSH1 0x44 DUP3 ADD MSTORE REVERT JUMPDEST CALLVALUE PUSH2 0x1ED JUMPI PUSH1 0x0 CALLDATASIZE PUSH1 0x3 NOT ADD SLT PUSH2 0x1ED JUMPI PUSH1 0x20 PUSH1 0x40 MLOAD PUSH32 0x0 DUP2 MSTORE RETURN JUMPDEST PUSH1 0x40 CALLDATASIZE PUSH1 0x3 NOT ADD SLT PUSH2 0x1ED JUMPI PUSH2 0x13DB PUSH1 0x4 CALLDATALOAD PUSH2 0x1B8B JUMP JUMPDEST DUP1 PUSH1 0x0 MSTORE PUSH1 0x3 PUSH1 0x20 MSTORE PUSH1 0x40 PUSH1 0x0 KECCAK256 PUSH1 0xFF DUP2 SLOAD AND PUSH1 0x7 DUP2 LT ISZERO PUSH2 0x51C JUMPI PUSH1 0x1 SUB PUSH2 0x1544 JUMPI PUSH1 0x1 DUP2 ADD SLOAD CALLVALUE SUB PUSH2 0x14DA JUMPI PUSH1 0x1 PUSH1 0x1 PUSH1 0xA0 SHL SUB PUSH1 0x2 DUP3 ADD SLOAD AND CALLER EQ PUSH2 0x1496 JUMPI PUSH1 0x8 DUP2 ADD DUP1 SLOAD PUSH20 0xFFFFFFFFFFFFFFFFFFFFFFFFFFFFFFFFFFFFFFFF NOT AND CALLER OR SWAP1 SSTORE PUSH1 0x24 CALLDATALOAD PUSH1 0xD DUP3 ADD SSTORE DUP1 SLOAD PUSH1 0xFF NOT AND PUSH1 0x2 OR DUP2 SSTORE PUSH32 0x7F3A14B18FC64242E1D87BBDA3D879FF601BF57224F7DAEAF8BF4658BB84DA29 SWAP2 PUSH2 0x3BC SWAP2 PUSH2 0x1480 SWAP1 PUSH2 0x2114 JUMP JUMPDEST PUSH1 0x40 DUP1 MLOAD SWAP2 DUP3 MSTORE CALLER PUSH1 0x20 DUP4 ADD MSTORE SWAP1 SWAP2 DUP3 SWAP2 DUP3 ADD SWAP1 JUMP JUMPDEST PUSH1 0x64 PUSH1 0x40 MLOAD PUSH3 0x461BCD PUSH1 0xE5 SHL DUP2 MSTORE PUSH1 0x20 PUSH1 0x4 DUP3 ADD MSTORE PUSH1 0x1D PUSH1 0x24 DUP3 ADD MSTORE PUSH32 0x596F752063616E6E6F74206A6F696E20796F7572206F776E20726F6F6D000000 PUSH1 0x44 DUP3 ADD MSTORE REVERT JUMPDEST PUSH1 0x84 PUSH1 0x40 MLOAD PUSH3 0x461BCD PUSH1 0xE5 SHL DUP2 MSTORE PUSH1 0x20 PUSH1 0x4 DUP3 ADD MSTORE PUSH1 0x2D PUSH1 0x24 DUP3 ADD MSTORE PUSH32 0x456E74727920666565206D75737420626520657175616C20746F207468652072 PUSH1 0x44 DUP3 ADD MSTORE PUSH32 0x6F6F6D20656E7472792066656500000000000000000000000000000000000000 PUSH1 0x64 DUP3 ADD MSTORE REVERT JUMPDEST PUSH1 0x64 PUSH1 0x40 MLOAD PUSH3 0x461BCD PUSH1 0xE5 SHL DUP2 MSTORE PUSH1 0x20 PUSH1 0x4 DUP3 ADD MSTORE PUSH1 0x20 PUSH1 0x24 DUP3 ADD MSTORE PUSH32 0x526F6F6D206973206E6F7420696E207468652063726561746564207374617465 PUSH1 0x44 DUP3 ADD MSTORE REVERT JUMPDEST CALLVALUE PUSH2 0x1ED JUMPI PUSH1 0x20 CALLDATASIZE PUSH1 0x3 NOT ADD SLT PUSH2 0x1ED JUMPI PUSH2 0x8FA PUSH1 0x4 CALLDATALOAD PUSH2 0x1872 JUMP JUMPDEST SWAP1 PUSH1 0x7 DUP3 LT ISZERO PUSH2 0x51C JUMPI MSTORE JUMP JUMPDEST SWAP1 PUSH1 0x80 PUSH1 0x3 NOT DUP4 ADD SLT PUSH2 0x1ED JUMPI PUSH1 0x40 PUSH1 0x4 CALLDATALOAD SWAP3 PUSH1 0x23 NOT ADD SLT PUSH2 0x1ED JUMPI PUSH1 0x24 SWAP1 PUSH1 0x64 CALLDATALOAD PUSH1 0x3 DUP2 LT ISZERO PUSH2 0x1ED JUMPI SWAP1 JUMP JUMPDEST SWAP2 DUP2 PUSH1 0x1F DUP5 ADD SLT ISZERO PUSH2 0x1ED JUMPI DUP3 CALLDATALOAD SWAP2 PUSH8 0xFFFFFFFFFFFFFFFF DUP4 GT PUSH2 0x1ED JUMPI PUSH1 0x20 DUP1 DUP6 ADD SWAP5 DUP5 PUSH1 0x5 SHL ADD ADD GT PUSH2 0x1ED JUMPI JUMP JUMPDEST SWAP2 DUP2 PUSH1 0x1F DUP5 ADD SLT ISZERO PUSH2 0x1ED JUMPI DUP3 CALLDATALOAD SWAP2 PUSH8 0xFFFFFFFFFFFFFFFF DUP4 GT PUSH2 0x1ED JUMPI PUSH1 0x20 DUP1 DUP6 ADD SWAP5 DUP5 PUSH1 0x6 SHL ADD ADD GT PUSH2 0x1ED JUMPI JUMP JUMPDEST SWAP1 PUSH1 0x5 DUP3 LT ISZERO PUSH2 0x1659 JUMPI PUSH1 0x1F DUP3 PUSH1 0x5 SHR PUSH1 0x2 ADD SWAP3 AND SWAP1 JUMP JUMPDEST PUSH4 0x4E487B71 PUSH1 0xE0 SHL PUSH1 0x0 MSTORE PUSH1 0x32 PUSH1 0x4 MSTORE PUSH1 0x24 PUSH1 0x0 REVERT JUMPDEST ISZERO PUSH2 0x1676 JUMPI JUMP JUMPDEST PUSH1 0x84 PUSH1 0x40 MLOAD PUSH3 0x461BCD PUSH1 0xE5 SHL DUP2 MSTORE PUSH1 0x20 PUSH1 0x4 DUP3 ADD MSTORE PUSH1 0x21 PUSH1 0x24 DUP3 ADD MSTORE PUSH32 0x526F6F6D206973206E6F7420696E207468652073686F6F74696E672073746174 PUSH1 0x44 DUP3 ADD MSTORE PUSH32 0x6500000000000000000000000000000000000000000000000000000000000000 PUSH1 0x64 DUP3 ADD MSTORE REVERT JUMPDEST SWAP1 PUSH1 0x1F DUP1 NOT SWAP2 ADD AND DUP2 ADD SWAP1 DUP2 LT PUSH8 0xFFFFFFFFFFFFFFFF DUP3 GT OR PUSH2 0x1702 JUMPI PUSH1 0x40 MSTORE JUMP JUMPDEST PUSH4 0x4E487B71 PUSH1 0xE0 SHL PUSH1 0x0 MSTORE PUSH1 0x41 PUSH1 0x4 MSTORE PUSH1 0x24 PUSH1 0x0 REVERT JUMPDEST SWAP1 PUSH1 0x40 MLOAD PUSH1 0xA0 DUP2 ADD DUP2 DUP2 LT PUSH8 0xFFFFFFFFFFFFFFFF DUP3 GT OR PUSH2 0x1702 JUMPI PUSH1 0x40 MSTORE DUP1 SWAP3 PUSH1 0xFF DUP2 SLOAD AND PUSH1 0x7 DUP2 LT ISZERO PUSH2 0x51C JUMPI DUP3 MSTORE PUSH1 0x1 DUP2 ADD SLOAD PUSH1 0x20 DUP4 ADD MSTORE PUSH1 0x40 MLOAD PUSH1 0x40 DUP2 ADD DUP2 DUP2 LT PUSH8 0xFFFFFFFFFFFFFFFF DUP3 GT OR PUSH2 0x1702 JUMPI PUSH1 0x40 MSTORE PUSH1 0x2 DUP3 ADD PUSH1 0x0 DUP3 JUMPDEST PUSH1 0x2 DUP3 LT PUSH2 0x17A1 JUMPI POP POP POP PUSH1 0x80 SWAP2 PUSH1 0xF SWAP2 PUSH1 0x40 DUP6 ADD MSTORE PUSH1 0xFF PUSH1 0xE DUP3 ADD SLOAD AND PUSH1 0x60 DUP6 ADD MSTORE ADD SLOAD SWAP2 ADD MSTORE JUMP JUMPDEST PUSH1 0x40 MLOAD PUSH1 0xC0 DUP2 ADD DUP2 DUP2 LT PUSH8 0xFFFFFFFFFFFFFFFF DUP3 GT OR PUSH2 0x1702 JUMPI PUSH1 0x1 SWAP3 PUSH1 0x6 SWAP3 PUSH1 0x20 SWAP3 PUSH1 0x40 MSTORE PUSH1 0x1 PUSH1 0x1 PUSH1 0xA0 SHL SUB DUP8 SLOAD AND DUP2 MSTORE DUP5 DUP8 ADD SLOAD DUP4 DUP3 ADD MSTORE PUSH2 0xFFFF PUSH1 0x2 DUP9 ADD SLOAD AND PUSH1 0x40 DUP3 ADD MSTORE PUSH1 0x3 DUP8 ADD SLOAD PUSH1 0x60 DUP3 ADD MSTORE PUSH1 0x4 DUP8 ADD SLOAD PUSH1 0x80 DUP3 ADD MSTORE PUSH1 0x5 DUP8 ADD SLOAD PUSH1 0xA0 DUP3 ADD MSTORE DUP2 MSTORE ADD SWAP4 ADD SWAP2 ADD SWAP1 SWAP2 PUSH2 0x1777 JUMP JUMPDEST ISZERO PUSH2 0x181D JUMPI JUMP JUMPDEST PUSH1 0x64 PUSH1 0x40 MLOAD PUSH3 0x461BCD PUSH1 0xE5 SHL DUP2 MSTORE PUSH1 0x20 PUSH1 0x4 DUP3 ADD MSTORE PUSH1 0x13 PUSH1 0x24 DUP3 ADD MSTORE PUSH32 0x4974206973206E6F7420796F7572207475726E00000000000000000000000000 PUSH1 0x44 DUP3 ADD MSTORE REVERT JUMPDEST PUSH1 0xFF AND PUSH1 0x1 SUB SWAP1 PUSH1 0xFF DUP3 GT PUSH2 0x761 JUMPI JUMP JUMPDEST DUP1 PUSH1 0x0 MSTORE PUSH1 0x3 PUSH1 0x20 MSTORE PUSH1 0x40 PUSH1 0x0 KECCAK256 PUSH1 0xFF DUP2 SLOAD AND SWAP2 PUSH1 0x7 DUP4 LT ISZERO PUSH2 0x51C JUMPI PUSH2 0x1480 PUSH2 0x18F9 SWAP3 PUSH2 0x18C3 PUSH1 0x3 PUSH32 0x674B1399CDD04131B1014FB0AD914C308EB69BAC11C79CF09E05CE410863CE2E SWAP7 EQ PUSH2 0x166F JUMP JUMPDEST PUSH2 0x18D0 CALLER PUSH2 0x272 DUP4 PUSH2 0x1718 JUMP JUMPDEST PUSH1 0xFF PUSH2 0xCC2 PUSH1 0xE DUP5 ADD SWAP3 PUSH2 0x18EA DUP4 DUP6 SLOAD AND DUP5 DUP4 AND EQ PUSH2 0x1816 JUMP JUMPDEST PUSH1 0x5 DUP4 NOT DUP7 SLOAD AND OR DUP6 SSTORE PUSH2 0x1861 JUMP JUMPDEST SUB SWAP1 LOG1 JUMP JUMPDEST SWAP1 PUSH1 0x2 DUP2 LT ISZERO PUSH2 0x1659 JUMPI PUSH1 0x6 MUL ADD SWAP1 PUSH1 0x0 SWAP1 JUMP JUMPDEST CALLDATALOAD SWAP1 PUSH1 0xFF DUP3 AND DUP3 SUB PUSH2 0x1ED JUMPI JUMP JUMPDEST SWAP1 DUP2 PUSH1 0x0 MSTORE PUSH1 0x3 PUSH1 0x20 MSTORE PUSH1 0x40 PUSH1 0x0 KECCAK256 SWAP2 PUSH1 0xFF DUP4 SLOAD AND PUSH1 0x7 DUP2 LT ISZERO PUSH2 0x51C JUMPI PUSH1 0x4 SUB PUSH2 0x1A2F JUMPI PUSH2 0x1952 CALLER PUSH2 0x272 DUP6 PUSH2 0x1718 JUMP JUMPDEST SWAP3 PUSH2 0xFFFF PUSH1 0x1 PUSH1 0x1 PUSH1 0xA0 SHL SUB PUSH2 0x197F PUSH1 0x2 DUP5 ADD PUSH2 0x1979 PUSH2 0x1972 DUP10 DUP4 PUSH2 0x18FE JUMP JUMPDEST POP SWAP9 PUSH2 0x1861 JUMP JUMPDEST SWAP1 PUSH2 0x18FE JUMP JUMPDEST POP SWAP6 PUSH2 0x19B2 PUSH1 0x4 DUP3 ADD SWAP5 PUSH2 0x19A0 DUP9 PUSH1 0x24 PUSH1 0x2 DUP10 SLOAD SWAP13 ADD SWAP12 DUP9 DUP14 SLOAD AND SWAP1 PUSH2 0x221B JUMP JUMPDEST DUP7 SSTORE DUP1 SLOAD PUSH1 0xFF NOT AND PUSH1 0x3 OR DUP2 SSTORE PUSH2 0x2114 JUMP JUMPDEST SLOAD AND SWAP5 SLOAD AND SWAP1 SLOAD SWAP4 PUSH1 0x40 MLOAD SWAP3 DUP4 MSTORE PUSH1 0x20 DUP4 ADD MSTORE PUSH1 0x40 DUP3 ADD MSTORE PUSH1 0x24 CALLDATALOAD PUSH1 0xFF DUP2 AND DUP2 SUB PUSH2 0x1ED JUMPI PUSH1 0xFF AND PUSH1 0x60 DUP3 ADD MSTORE PUSH1 0x44 CALLDATALOAD PUSH1 0xFF DUP2 AND DUP2 SUB PUSH2 0x1ED JUMPI PUSH1 0xFF AND PUSH1 0x80 DUP3 ADD MSTORE PUSH1 0x3 DUP3 LT ISZERO PUSH2 0x51C JUMPI PUSH32 0xFD7D6DCAB3C23E806913769DF4816E3D1FB4EDB3917BF3F256CD1365CBEDDC07 SWAP3 PUSH1 0xE0 SWAP3 PUSH1 0xA0 DUP4 ADD MSTORE PUSH1 0xC0 DUP3 ADD MSTORE LOG1 JUMP JUMPDEST PUSH1 0x84 PUSH1 0x40 MLOAD PUSH3 0x461BCD PUSH1 0xE5 SHL DUP2 MSTORE PUSH1 0x20 PUSH1 0x4 DUP3 ADD MSTORE PUSH1 0x22 PUSH1 0x24 DUP3 ADD MSTORE PUSH32 0x526F6F6D206973206E6F7420696E2074686520616E73776572696E6720737461 PUSH1 0x44 DUP3 ADD MSTORE PUSH32 0x7465000000000000000000000000000000000000000000000000000000000000 PUSH1 0x64 DUP3 ADD MSTORE REVERT JUMPDEST SWAP2 SWAP1 SWAP2 DUP1 PUSH1 0x0 MSTORE PUSH1 0x3 PUSH1 0x20 MSTORE PUSH1 0x40 PUSH1 0x0 KECCAK256 SWAP3 PUSH1 0xFF DUP5 SLOAD AND PUSH1 0x7 DUP2 LT ISZERO PUSH2 0x51C JUMPI PUSH1 0x4 SUB PUSH2 0x1A2F JUMPI PUSH2 0xFFFF SWAP4 DUP5 PUSH1 0x1 PUSH1 0x1 PUSH1 0xA0 SHL SUB PUSH2 0x1ADA CALLER PUSH2 0x272 DUP6 PUSH2 0x1718 JUMP JUMPDEST PUSH2 0x1B14 PUSH2 0x1AF8 PUSH1 0x2 DUP7 ADD PUSH2 0x1979 PUSH2 0x1AF1 DUP6 DUP4 PUSH2 0x18FE JUMP JUMPDEST POP SWAP5 PUSH2 0x1861 JUMP JUMPDEST POP SWAP5 PUSH2 0x19A0 DUP10 DUP9 PUSH1 0x4 DUP7 ADD SWAP9 PUSH1 0x2 DUP11 SLOAD SWAP2 ADD SWAP14 DUP15 SLOAD AND SWAP1 PUSH2 0x221B JUMP JUMPDEST SLOAD AND SWAP6 SLOAD AND SWAP1 SLOAD SWAP5 PUSH1 0x40 MLOAD SWAP4 DUP5 MSTORE PUSH1 0x20 DUP5 ADD MSTORE PUSH1 0x40 DUP4 ADD MSTORE PUSH1 0x20 PUSH1 0xFF PUSH2 0x1B4C DUP3 PUSH1 0x60 DUP7 ADD SWAP5 DUP4 PUSH2 0x1B43 DUP3 PUSH2 0x1912 JUMP JUMPDEST AND DUP7 MSTORE ADD PUSH2 0x1912 JUMP JUMPDEST AND SWAP2 ADD MSTORE PUSH1 0x3 DUP3 LT ISZERO PUSH2 0x51C JUMPI PUSH32 0xFD7D6DCAB3C23E806913769DF4816E3D1FB4EDB3917BF3F256CD1365CBEDDC07 SWAP3 PUSH1 0xE0 SWAP3 PUSH1 0xA0 DUP4 ADD MSTORE PUSH1 0xC0 DUP3 ADD MSTORE LOG1 JUMP JUMPDEST PUSH1 0x40 MLOAD PUSH1 0x20 DUP2 ADD SWAP2 PUSH32 0x0 DUP4 MSTORE PUSH1 0x40 DUP3 ADD MSTORE PUSH1 0x40 DUP2 MSTORE PUSH2 0x1BCA PUSH1 0x60 DUP3 PUSH2 0x16E0 JUMP JUMPDEST MLOAD SWAP1 KECCAK256 SWAP1 JUMP JUMPDEST PUSH2 0xFFFF AND PUSH2 0xFFFF DUP2 EQ PUSH2 0x761 JUMPI PUSH1 0x1 ADD SWAP1 JUMP JUMPDEST CALLDATALOAD SWAP1 DUP2 ISZERO ISZERO DUP3 SUB PUSH2 0x1ED JUMPI JUMP JUMPDEST SWAP1 DUP2 MSTORE PUSH1 0x1 PUSH1 0x1 PUSH1 0xA0 SHL SUB SWAP2 SWAP1 SWAP2 AND PUSH1 0x20 DUP3 ADD MSTORE PUSH1 0x60 PUSH1 0x40 DUP3 ADD DUP2 SWAP1 MSTORE DUP2 ADD DUP4 SWAP1 MSTORE PUSH1 0x80 ADD SWAP2 PUSH1 0x0 JUMPDEST DUP2 DUP2 LT PUSH2 0x1C26 JUMPI POP POP POP SWAP1 JUMP JUMPDEST SWAP1 SWAP2 SWAP3 PUSH1 0x20 DUP1 PUSH1 0x1 SWAP3 PUSH2 0x1C38 DUP8 PUSH2 0x1BE3 JUMP JUMPDEST ISZERO ISZERO DUP2 MSTORE ADD SWAP5 ADD SWAP3 SWAP2 ADD PUSH2 0x1C19 JUMP JUMPDEST SWAP5 SWAP7 SWAP1 SWAP2 SWAP6 SWAP12 SWAP8 SWAP3 SWAP4 SWAP11 SWAP12 DUP6 PUSH1 0x0 MSTORE PUSH1 0x3 PUSH1 0x20 MSTORE PUSH1 0x40 PUSH1 0x0 KECCAK256 SWAP8 PUSH2 0x1C6E CALLER PUSH2 0x272 DUP12 PUSH2 0x1718 JUMP JUMPDEST SWAP13 PUSH1 0xFF DUP11 SLOAD AND SWAP5 PUSH1 0x7 DUP7 LT ISZERO PUSH2 0x51C JUMPI DUP10 DUP16 SWAP2 DUP10 SWAP3 PUSH2 0x1C92 PUSH1 0x3 PUSH2 0x1C98 SWAP11 EQ PUSH2 0x166F JUMP JUMPDEST DUP14 PUSH2 0x2323 JUMP JUMPDEST PUSH1 0x0 SWAP10 DUP11 SWAP9 PUSH2 0x1CA7 PUSH1 0x64 PUSH2 0x3089 JUMP JUMPDEST SWAP9 DUP11 JUMPDEST DUP2 DUP2 LT PUSH2 0x1F40 JUMPI POP POP POP POP POP PUSH1 0x0 SWAP9 PUSH1 0x0 JUMPDEST DUP8 MLOAD PUSH2 0xFFFF DUP3 AND SWAP1 DUP2 LT ISZERO PUSH2 0x1CFE JUMPI PUSH2 0x1CD5 SWAP1 DUP10 PUSH2 0x3130 JUMP JUMPDEST MLOAD PUSH2 0x1CE9 JUMPI JUMPDEST PUSH2 0x1CE4 SWAP1 PUSH2 0x1BD0 JUMP JUMPDEST PUSH2 0x1CBC JUMP JUMPDEST SWAP10 PUSH2 0x1CF6 PUSH2 0x1CE4 SWAP2 PUSH2 0x1BD0 JUMP JUMPDEST SWAP11 SWAP1 POP PUSH2 0x1CDB JUMP JUMPDEST POP POP SWAP4 SWAP8 SWAP3 SWAP7 SWAP2 SWAP6 POP SWAP4 SWAP8 PUSH2 0xFFFF PUSH1 0x11 SWAP2 AND SUB PUSH2 0x1ED6 JUMPI PUSH1 0x2 DUP8 ADD SWAP3 PUSH1 0x3 PUSH2 0x1D26 DUP5 DUP7 PUSH2 0x18FE JUMP JUMPDEST POP ADD SLOAD SUB PUSH2 0x1E92 JUMPI PUSH1 0x4 PUSH2 0x1D42 PUSH2 0x1D3C DUP5 PUSH2 0x1861 JUMP JUMPDEST DUP6 PUSH2 0x18FE JUMP JUMPDEST POP ADD SLOAD SUB PUSH2 0x1E28 JUMPI PUSH2 0x1D6C PUSH1 0x1 PUSH1 0x1 PUSH1 0xA0 SHL SUB SWAP2 PUSH1 0x1 SWAP4 PUSH1 0x6 PUSH1 0xFF NOT DUP11 SLOAD AND OR DUP10 SSTORE PUSH2 0x399 PUSH2 0x2145 JUMP JUMPDEST POP SLOAD AND SWAP5 ADD SLOAD SWAP1 DUP2 PUSH1 0x1 SHL SWAP2 PUSH1 0x1 PUSH1 0x1 PUSH1 0xFF SHL SUB DUP2 AND DUP2 SUB PUSH2 0x761 JUMPI PUSH2 0x1D91 SWAP1 PUSH2 0x2022 JUMP JUMPDEST SWAP2 DUP3 DUP2 SUB SWAP3 DUP2 DUP5 GT PUSH2 0x761 JUMPI DUP7 DUP5 SWAP2 PUSH1 0x0 SWAP4 EQ PUSH2 0x1E1E JUMPI JUMPDEST PUSH1 0x0 SWAP3 DUP4 SWAP3 DUP4 SWAP3 DUP4 SWAP3 CALL ISZERO PUSH2 0x74B JUMPI PUSH32 0xEE97096F32EED49908B904623AE7BA7AF58C121E15FE6E7F31AC379FB7CA1A98 PUSH1 0x40 PUSH32 0x53FC172DDA2ED0176623BBCA3C936BB2D85537947A5E23DD077B579AE1BF155C SWAP7 PUSH2 0x18F9 SWAP5 DUP3 MLOAD SWAP2 DUP3 MSTORE PUSH1 0x20 DUP3 ADD MSTORE LOG1 PUSH1 0x1 DUP1 SSTORE PUSH1 0x40 MLOAD SWAP4 DUP5 SWAP4 CALLER SWAP1 DUP6 PUSH2 0x1BF0 JUMP JUMPDEST PUSH2 0x8FC SWAP3 POP PUSH2 0x1DA9 JUMP JUMPDEST PUSH1 0x84 PUSH1 0x40 MLOAD PUSH3 0x461BCD PUSH1 0xE5 SHL DUP2 MSTORE PUSH1 0x20 PUSH1 0x4 DUP3 ADD MSTORE PUSH1 0x21 PUSH1 0x24 DUP3 ADD MSTORE PUSH32 0x416E737765727320646F6E2774206D6174636820656E656D7920616E73776572 PUSH1 0x44 DUP3 ADD MSTORE PUSH32 0x7300000000000000000000000000000000000000000000000000000000000000 PUSH1 0x64 DUP3 ADD MSTORE REVERT JUMPDEST PUSH1 0x64 PUSH1 0x40 MLOAD PUSH3 0x461BCD PUSH1 0xE5 SHL DUP2 MSTORE PUSH1 0x20 PUSH1 0x4 DUP3 ADD MSTORE PUSH1 0x1A PUSH1 0x24 DUP3 ADD MSTORE PUSH32 0x53686F747320646F6E2774206D61746368206D792073686F7473000000000000 PUSH1 0x44 DUP3 ADD MSTORE REVERT JUMPDEST PUSH1 0x84 PUSH1 0x40 MLOAD PUSH3 0x461BCD PUSH1 0xE5 SHL DUP2 MSTORE PUSH1 0x20 PUSH1 0x4 DUP3 ADD MSTORE PUSH1 0x37 PUSH1 0x24 DUP3 ADD MSTORE PUSH32 0x4E756D626572206F662073686970206869747320646F6573206E6F74206D6174 PUSH1 0x44 DUP3 ADD MSTORE PUSH32 0x6368206E756D626572206F662073686970207061727473000000000000000000 PUSH1 0x64 DUP3 ADD MSTORE REVERT JUMPDEST PUSH1 0x1 DUP2 SWAP15 SWAP13 SWAP15 ADD SWAP12 DUP13 DUP3 GT PUSH2 0x761 JUMPI PUSH2 0x1F65 SWAP1 DUP14 PUSH2 0x1F5F DUP5 DUP7 DUP11 PUSH2 0x30BB JUMP JUMPDEST SWAP2 PUSH2 0x22AB JUMP JUMPDEST SWAP14 PUSH1 0x0 SWAP13 PUSH2 0x1F74 DUP4 DUP6 DUP10 PUSH2 0x30BB JUMP JUMPDEST SWAP1 PUSH2 0x1F80 DUP5 DUP9 DUP9 PUSH2 0x30CB JUMP JUMPDEST CALLDATALOAD SWAP3 PUSH1 0x3 DUP5 LT ISZERO PUSH2 0x201E JUMPI SWAP1 PUSH2 0x1F97 SWAP4 SWAP3 SWAP2 PUSH2 0x221B JUMP JUMPDEST SWAP12 PUSH2 0x1FD8 PUSH2 0x1FB9 PUSH1 0xFF PUSH2 0x1FB3 PUSH2 0x1FAE DUP7 DUP9 DUP13 PUSH2 0x30BB JUMP JUMPDEST PUSH2 0x21C2 JUMP JUMPDEST AND PUSH2 0x30DB JUMP JUMPDEST PUSH1 0xFF PUSH2 0x1FD1 PUSH1 0x20 PUSH2 0x1FCB DUP8 DUP10 DUP14 PUSH2 0x30BB JUMP JUMPDEST ADD PUSH2 0x21C2 JUMP JUMPDEST AND SWAP1 PUSH2 0x311A JUMP JUMPDEST SWAP1 PUSH2 0x1FE4 DUP4 DUP8 DUP8 PUSH2 0x30CB JUMP JUMPDEST CALLDATALOAD SWAP1 PUSH1 0x3 DUP3 LT ISZERO PUSH2 0x201B JUMPI POP PUSH1 0x1 SWAP3 SWAP2 DUP14 SWAP2 PUSH2 0x2003 JUMPI JUMPDEST POP POP ADD PUSH2 0x1CAA JUMP JUMPDEST DUP4 SWAP2 PUSH2 0xFFFF PUSH2 0x2013 SWAP3 AND SWAP1 PUSH2 0x3130 JUMP JUMPDEST MSTORE DUP12 CODESIZE PUSH2 0x1FFB JUMP JUMPDEST DUP1 REVERT JUMPDEST DUP16 DUP1 REVERT JUMPDEST ISZERO PUSH2 0x202C JUMPI PUSH1 0x0 SWAP1 JUMP JUMPDEST PUSH1 0x64 PUSH1 0x40 MLOAD PUSH3 0x461BCD PUSH1 0xE5 SHL DUP2 MSTORE PUSH1 0x20 PUSH1 0x4 DUP3 ADD MSTORE PUSH1 0x20 PUSH1 0x24 DUP3 ADD MSTORE PUSH32 0x456E74727920666565206D7573742062652067726561746572207468616E2030 PUSH1 0x44 DUP3 ADD MSTORE REVERT JUMPDEST PUSH1 0x40 ADD DUP1 MLOAD MLOAD MLOAD PUSH1 0x1 PUSH1 0x1 PUSH1 0xA0 SHL SUB SWAP3 DUP4 AND SWAP3 AND DUP3 SUB PUSH2 0x2091 JUMPI POP POP PUSH1 0x0 SWAP1 JUMP JUMPDEST MLOAD PUSH1 0x20 ADD MLOAD MLOAD PUSH1 0x1 PUSH1 0x1 PUSH1 0xA0 SHL SUB AND SUB PUSH2 0x20AA JUMPI PUSH1 0x1 SWAP1 JUMP JUMPDEST PUSH1 0x84 PUSH1 0x40 MLOAD PUSH3 0x461BCD PUSH1 0xE5 SHL DUP2 MSTORE PUSH1 0x20 PUSH1 0x4 DUP3 ADD MSTORE PUSH1 0x21 PUSH1 0x24 DUP3 ADD MSTORE PUSH32 0x596F7520617265206E6F74206120706C6179657220696E207468697320726F6F PUSH1 0x44 DUP3 ADD MSTORE PUSH32 0x6D00000000000000000000000000000000000000000000000000000000000000 PUSH1 0x64 DUP3 ADD MSTORE REVERT JUMPDEST PUSH32 0x0 NUMBER ADD SWAP1 DUP2 NUMBER GT PUSH2 0x761 JUMPI PUSH1 0xF ADD SSTORE JUMP JUMPDEST PUSH1 0x2 PUSH1 0x1 SLOAD EQ PUSH2 0x2156 JUMPI PUSH1 0x2 PUSH1 0x1 SSTORE JUMP JUMPDEST PUSH32 0x3EE5AEB500000000000000000000000000000000000000000000000000000000 PUSH1 0x0 MSTORE PUSH1 0x4 PUSH1 0x0 REVERT JUMPDEST PUSH1 0x1 PUSH1 0x1 PUSH1 0xA0 SHL SUB PUSH1 0x0 SLOAD AND CALLER SUB PUSH2 0x2194 JUMPI JUMP JUMPDEST PUSH32 0x118CDAA700000000000000000000000000000000000000000000000000000000 PUSH1 0x0 MSTORE CALLER PUSH1 0x4 MSTORE PUSH1 0x24 PUSH1 0x0 REVERT JUMPDEST CALLDATALOAD PUSH1 0xFF DUP2 AND DUP2 SUB PUSH2 0x1ED JUMPI SWAP1 JUMP JUMPDEST ISZERO PUSH2 0x21D7 JUMPI JUMP JUMPDEST PUSH1 0x64 PUSH1 0x40 MLOAD PUSH3 0x461BCD PUSH1 0xE5 SHL DUP2 MSTORE PUSH1 0x20 PUSH1 0x4 DUP3 ADD MSTORE PUSH1 0x10 PUSH1 0x24 DUP3 ADD MSTORE PUSH32 0x496E76616C696420706F736974696F6E00000000000000000000000000000000 PUSH1 0x44 DUP3 ADD MSTORE REVERT JUMPDEST SWAP3 SWAP1 SWAP2 PUSH1 0xA PUSH1 0xFF PUSH2 0x222B DUP4 PUSH2 0x21C2 JUMP JUMPDEST AND LT DUP1 PUSH2 0x228E JUMPI JUMPDEST PUSH2 0x223C SWAP1 PUSH2 0x21D0 JUMP JUMPDEST PUSH1 0xFF PUSH2 0x2255 PUSH1 0x20 DUP3 PUSH2 0x224D DUP6 PUSH2 0x21C2 JUMP JUMPDEST AND SWAP4 ADD PUSH2 0x21C2 JUMP JUMPDEST AND SWAP1 PUSH1 0x3 DUP4 LT ISZERO PUSH2 0x51C JUMPI PUSH1 0x40 MLOAD SWAP4 PUSH1 0x20 DUP6 ADD SWAP6 DUP7 MSTORE PUSH1 0x40 DUP6 ADD MSTORE PUSH1 0x60 DUP5 ADD MSTORE PUSH1 0x80 DUP4 ADD MSTORE PUSH1 0xA0 DUP3 ADD MSTORE PUSH1 0xA0 DUP2 MSTORE PUSH2 0x1BCA PUSH1 0xC0 DUP3 PUSH2 0x16E0 JUMP JUMPDEST POP PUSH2 0x223C PUSH1 0xA PUSH1 0xFF PUSH2 0x22A2 PUSH1 0x20 DUP6 ADD PUSH2 0x21C2 JUMP JUMPDEST AND LT SWAP1 POP PUSH2 0x2233 JUMP JUMPDEST SWAP2 PUSH1 0xA PUSH1 0xFF PUSH2 0x22B9 DUP4 PUSH2 0x21C2 JUMP JUMPDEST AND LT DUP1 PUSH2 0x2306 JUMPI JUMPDEST PUSH2 0x22CA SWAP1 PUSH2 0x21D0 JUMP JUMPDEST PUSH1 0xFF PUSH2 0x22DB PUSH1 0x20 DUP3 PUSH2 0x224D DUP6 PUSH2 0x21C2 JUMP JUMPDEST AND SWAP1 PUSH1 0x40 MLOAD SWAP3 PUSH1 0x20 DUP5 ADD SWAP5 DUP6 MSTORE PUSH1 0x40 DUP5 ADD MSTORE PUSH1 0x60 DUP4 ADD MSTORE PUSH1 0x80 DUP3 ADD MSTORE PUSH1 0x80 DUP2 MSTORE PUSH2 0x1BCA PUSH1 0xA0 DUP3 PUSH2 0x16E0 JUMP JUMPDEST POP PUSH2 0x22CA PUSH1 0xA PUSH1 0xFF PUSH2 0x231A PUSH1 0x20 DUP6 ADD PUSH2 0x21C2 JUMP JUMPDEST AND LT SWAP1 POP PUSH2 0x22C1 JUMP JUMPDEST SWAP2 SWAP6 SWAP9 SWAP5 SWAP4 SWAP1 SWAP3 SWAP8 SWAP7 SWAP8 PUSH1 0x80 MSTORE PUSH1 0xC0 MSTORE PUSH2 0x2348 PUSH1 0xFF PUSH1 0xE DUP4 ADD SLOAD AND PUSH1 0xFF DUP5 AND EQ PUSH2 0x1816 JUMP JUMPDEST PUSH1 0x64 PUSH1 0xA0 MSTORE PUSH1 0xC0 MLOAD PUSH1 0x63 NOT ADD PUSH2 0x3016 JUMPI PUSH1 0x40 MLOAD SWAP7 PUSH2 0x2367 PUSH1 0xC0 DUP10 PUSH2 0x16E0 JUMP JUMPDEST PUSH1 0x5 DUP9 MSTORE PUSH1 0xA0 CALLDATASIZE PUSH1 0x20 DUP11 ADD CALLDATACOPY PUSH2 0x237E PUSH1 0xC0 MLOAD PUSH2 0x3089 JUMP JUMPDEST SWAP9 PUSH1 0x0 PUSH2 0x100 MSTORE JUMPDEST PUSH1 0xA PUSH1 0xFF PUSH2 0x100 MLOAD AND LT ISZERO PUSH2 0x2AB0 JUMPI SWAP7 SWAP5 SWAP3 SWAP1 SWAP6 SWAP4 SWAP2 PUSH1 0x0 PUSH2 0x120 MSTORE JUMPDEST PUSH1 0xA PUSH1 0xFF PUSH2 0x120 MLOAD AND LT ISZERO PUSH2 0x2A96 JUMPI PUSH2 0x23D0 PUSH1 0xFF PUSH2 0x120 MLOAD AND PUSH2 0x23CB PUSH1 0xFF PUSH2 0x100 MLOAD AND PUSH2 0x30DB JUMP JUMPDEST PUSH2 0x311A JUMP JUMPDEST PUSH1 0xE0 MSTORE PUSH2 0xFFFF PUSH1 0xE0 MLOAD AND PUSH2 0x23E4 DUP2 DUP13 PUSH2 0x3130 JUMP JUMPDEST MLOAD ISZERO DUP1 ISZERO SWAP1 PUSH2 0x2A7D JUMPI JUMPDEST PUSH2 0x2A70 JUMPI PUSH2 0x23FE PUSH1 0x1 SWAP2 DUP13 PUSH2 0x3130 JUMP JUMPDEST MSTORE PUSH1 0xA PUSH1 0xFF PUSH2 0x240F PUSH2 0x120 MLOAD PUSH2 0x3151 JUMP JUMPDEST AND LT SWAP7 DUP8 PUSH2 0x2A54 JUMPI JUMPDEST PUSH1 0xA PUSH1 0xFF PUSH2 0x2428 PUSH2 0x100 MLOAD PUSH2 0x3151 JUMP JUMPDEST AND LT SWAP8 DUP9 PUSH2 0x2A38 JUMPI JUMPDEST DUP9 DUP2 DUP1 PUSH2 0x2A31 JUMPI JUMPDEST PUSH2 0x29EB JUMPI ISZERO SWAP1 DUP2 PUSH2 0x29E2 JUMPI JUMPDEST POP PUSH2 0x29D9 JUMPI JUMPDEST PUSH1 0x1 SWAP8 ISZERO PUSH2 0x2782 JUMPI PUSH1 0xFF PUSH2 0x100 MLOAD AND PUSH2 0x26E3 JUMPI JUMPDEST PUSH1 0x9 SWAP9 SWAP8 JUMPDEST DUP12 PUSH1 0xC0 MLOAD PUSH2 0xFFFF PUSH2 0x2482 PUSH1 0xFF PUSH2 0x2479 DUP7 PUSH2 0x305C JUMP JUMPDEST AND PUSH1 0xE0 MLOAD PUSH2 0x311A JUMP JUMPDEST AND LT DUP1 PUSH2 0x26C6 JUMPI JUMPDEST ISZERO PUSH2 0x2555 JUMPI SWAP1 PUSH1 0x1 PUSH2 0x24B1 PUSH2 0x24EE SWAP4 PUSH2 0xFFFF PUSH2 0x24AA PUSH1 0xFF PUSH2 0x2479 DUP8 PUSH2 0x305C JUMP JUMPDEST AND SWAP1 PUSH2 0x3130 JUMP JUMPDEST MSTORE PUSH2 0x120 MLOAD PUSH1 0xFF AND DUP1 ISZERO SWAP1 PUSH2 0x2532 JUMPI JUMPDEST PUSH2 0x24CA SWAP1 PUSH2 0x3212 JUMP JUMPDEST PUSH2 0x120 MLOAD PUSH1 0xFF SWAP1 DUP2 AND SWAP1 DUP13 AND DUP2 DUP2 EQ SWAP2 SUB PUSH2 0x24F3 JUMPI JUMPDEST PUSH2 0x24E9 SWAP1 PUSH2 0x33E5 JUMP JUMPDEST PUSH2 0x3363 JUMP JUMPDEST PUSH2 0x2464 JUMP JUMPDEST POP PUSH2 0x24E9 PUSH2 0x252A PUSH2 0x2525 PUSH2 0xFFFF PUSH2 0x2519 PUSH2 0x250E PUSH1 0xE0 MLOAD PUSH2 0x30F2 JUMP JUMPDEST PUSH1 0xFF PUSH2 0x1FD1 DUP9 PUSH2 0x305C JUMP JUMPDEST AND PUSH1 0xC0 MLOAD PUSH1 0x80 MLOAD PUSH2 0x30CB JUMP JUMPDEST PUSH2 0x3144 JUMP JUMPDEST ISZERO SWAP1 POP PUSH2 0x24E0 JUMP JUMPDEST POP PUSH2 0x24CA PUSH2 0x254D PUSH2 0x2525 PUSH2 0xFFFF PUSH2 0x2519 PUSH2 0x250E PUSH1 0xE0 MLOAD PUSH2 0x318C JUMP JUMPDEST ISZERO SWAP1 POP PUSH2 0x24C1 JUMP JUMPDEST POP PUSH1 0xFF SWAP2 SWAP4 SWAP6 SWAP8 SWAP10 SWAP9 SWAP3 SWAP5 SWAP7 SWAP9 PUSH1 0xA DUP4 PUSH2 0x2572 DUP5 PUSH2 0x100 MLOAD PUSH2 0x3163 JUMP JUMPDEST AND LT PUSH2 0x261A JUMPI JUMPDEST POP JUMPDEST AND PUSH1 0x5 DUP2 GT PUSH2 0x25D4 JUMPI PUSH1 0x0 NOT ADD PUSH1 0xFF DUP2 GT PUSH2 0x761 JUMPI PUSH1 0xFF PUSH2 0x25B5 PUSH2 0x25AE DUP3 PUSH2 0x25A7 DUP2 DUP16 SWAP7 AND DUP1 SWAP7 PUSH2 0x3130 JUMP JUMPDEST MLOAD AND PUSH2 0x3363 JUMP JUMPDEST SWAP3 DUP13 PUSH2 0x3130 JUMP JUMPDEST SWAP2 AND SWAP1 MSTORE JUMPDEST PUSH1 0xFF PUSH1 0x1 PUSH2 0x120 MLOAD ADD AND PUSH2 0x120 MSTORE SWAP7 SWAP5 SWAP3 SWAP1 SWAP6 SWAP4 SWAP2 PUSH2 0x23A3 JUMP JUMPDEST PUSH1 0x40 MLOAD PUSH3 0x461BCD PUSH1 0xE5 SHL DUP2 MSTORE PUSH1 0x20 PUSH1 0x4 DUP3 ADD MSTORE PUSH1 0x17 PUSH1 0x24 DUP3 ADD MSTORE PUSH32 0x53686970206C656E67746820697320746F6F206C6F6E67000000000000000000 PUSH1 0x44 DUP3 ADD MSTORE PUSH1 0xA0 MLOAD SWAP1 REVERT JUMPDEST PUSH2 0x120 MLOAD DUP4 AND DUP1 ISZERO SWAP1 PUSH2 0x269C JUMPI JUMPDEST PUSH2 0x2631 SWAP1 PUSH2 0x325D JUMP JUMPDEST PUSH2 0x2650 PUSH2 0x264A PUSH2 0x2525 PUSH2 0xFFFF PUSH2 0x2519 DUP8 PUSH2 0x2479 DUP9 PUSH2 0x305C JUMP JUMPDEST ISZERO PUSH2 0x3318 JUMP JUMPDEST PUSH2 0x120 MLOAD DUP4 AND SWAP1 DUP4 AND DUP2 DUP2 EQ SWAP2 SUB PUSH2 0x2672 JUMPI JUMPDEST PUSH2 0x266C SWAP1 PUSH2 0x3430 JUMP JUMPDEST CODESIZE PUSH2 0x2579 JUMP JUMPDEST POP PUSH2 0x266C PUSH2 0x2694 PUSH2 0x2525 PUSH2 0xFFFF PUSH2 0x2519 PUSH2 0x268F DUP8 PUSH2 0x2479 DUP9 PUSH2 0x305C JUMP JUMPDEST PUSH2 0x30F2 JUMP JUMPDEST ISZERO SWAP1 POP PUSH2 0x2663 JUMP JUMPDEST POP PUSH2 0x2631 PUSH2 0x26BE PUSH2 0x2525 PUSH2 0xFFFF PUSH2 0x2519 PUSH2 0x26B9 DUP9 PUSH2 0x2479 DUP10 PUSH2 0x305C JUMP JUMPDEST PUSH2 0x318C JUMP JUMPDEST ISZERO SWAP1 POP PUSH2 0x2628 JUMP JUMPDEST POP PUSH2 0x26DE PUSH2 0x2525 PUSH2 0xFFFF PUSH2 0x2519 PUSH1 0xFF PUSH2 0x2479 DUP8 PUSH2 0x305C JUMP JUMPDEST PUSH2 0x248A JUMP JUMPDEST PUSH1 0xFF PUSH2 0x120 MLOAD AND ISZERO DUP1 ISZERO PUSH2 0x275F JUMPI JUMPDEST PUSH2 0x26FB SWAP1 PUSH2 0x31A1 JUMP JUMPDEST PUSH2 0x2718 PUSH2 0x2712 PUSH2 0x2525 PUSH2 0xFFFF PUSH2 0x2519 PUSH1 0xE0 MLOAD PUSH2 0x3177 JUMP JUMPDEST ISZERO PUSH2 0x32CD JUMP JUMPDEST PUSH2 0x120 MLOAD PUSH1 0xFF AND PUSH1 0x9 EQ DUP1 ISZERO PUSH2 0x2737 JUMPI JUMPDEST PUSH2 0x2732 SWAP1 PUSH2 0x3374 JUMP JUMPDEST PUSH2 0x245F JUMP JUMPDEST POP PUSH2 0x2732 PUSH2 0x2757 PUSH2 0x2525 PUSH2 0xFFFF PUSH2 0x2519 PUSH2 0x2752 PUSH1 0xE0 MLOAD PUSH2 0x30F2 JUMP JUMPDEST PUSH2 0x3177 JUMP JUMPDEST ISZERO SWAP1 POP PUSH2 0x2729 JUMP JUMPDEST POP PUSH2 0x26FB PUSH2 0x277A PUSH2 0x2525 PUSH2 0xFFFF PUSH2 0x2519 PUSH2 0x26B9 PUSH1 0xE0 MLOAD PUSH2 0x3177 JUMP JUMPDEST ISZERO SWAP1 POP PUSH2 0x26F2 JUMP JUMPDEST PUSH1 0xFF PUSH2 0x120 MLOAD AND PUSH2 0x293F JUMPI JUMPDEST PUSH1 0x9 SWAP9 SWAP8 JUMPDEST DUP12 PUSH1 0xC0 MLOAD PUSH2 0xFFFF PUSH2 0x27A9 PUSH1 0xFF DUP6 AND PUSH1 0xE0 MLOAD PUSH2 0x311A JUMP JUMPDEST AND LT DUP1 PUSH2 0x2921 JUMPI JUMPDEST ISZERO PUSH2 0x284F JUMPI SWAP1 PUSH1 0x1 PUSH2 0x27D2 PUSH2 0x280A SWAP4 PUSH2 0xFFFF PUSH2 0x24AA PUSH1 0xFF DUP7 AND PUSH1 0xE0 MLOAD PUSH2 0x311A JUMP JUMPDEST MSTORE PUSH2 0x100 MLOAD PUSH1 0xFF AND DUP1 ISZERO SWAP1 PUSH2 0x282F JUMPI JUMPDEST PUSH2 0x27EB SWAP1 PUSH2 0x32CD JUMP JUMPDEST PUSH2 0x100 MLOAD PUSH1 0xFF SWAP1 DUP2 AND SWAP1 DUP13 AND DUP2 DUP2 EQ SWAP2 SUB PUSH2 0x280F JUMPI JUMPDEST PUSH2 0x24E9 SWAP1 PUSH2 0x3318 JUMP JUMPDEST PUSH2 0x2793 JUMP JUMPDEST POP PUSH2 0x24E9 PUSH2 0x2827 PUSH2 0x2525 PUSH2 0xFFFF PUSH2 0x2519 PUSH1 0xE0 MLOAD PUSH2 0x3106 JUMP JUMPDEST ISZERO SWAP1 POP PUSH2 0x2801 JUMP JUMPDEST POP PUSH2 0x27EB PUSH2 0x2847 PUSH2 0x2525 PUSH2 0xFFFF PUSH2 0x2519 PUSH1 0xE0 MLOAD PUSH2 0x3177 JUMP JUMPDEST ISZERO SWAP1 POP PUSH2 0x27E2 JUMP JUMPDEST POP PUSH1 0xFF SWAP2 SWAP4 SWAP6 SWAP8 SWAP10 SWAP9 SWAP3 SWAP5 SWAP7 SWAP9 PUSH1 0xA DUP4 PUSH2 0x286C DUP5 PUSH2 0x120 MLOAD PUSH2 0x3163 JUMP JUMPDEST AND LT PUSH2 0x2879 JUMPI JUMPDEST POP PUSH2 0x257B JUMP JUMPDEST PUSH2 0x100 MLOAD PUSH2 0x28CF SWAP2 SWAP1 DUP5 AND DUP1 ISZERO SWAP1 PUSH2 0x28FB JUMPI JUMPDEST PUSH2 0x2895 SWAP1 PUSH2 0x3374 JUMP JUMPDEST DUP4 DUP4 AND PUSH2 0x28B6 PUSH2 0x28B0 PUSH2 0x2525 PUSH2 0xFFFF PUSH2 0x2519 DUP6 PUSH1 0xE0 MLOAD PUSH2 0x311A JUMP JUMPDEST ISZERO PUSH2 0x33E5 JUMP JUMPDEST PUSH2 0x100 MLOAD DUP6 AND SWAP2 DUP6 AND DUP3 DUP2 EQ SWAP3 SUB PUSH2 0x28D5 JUMPI JUMPDEST POP PUSH2 0x3430 JUMP JUMPDEST CODESIZE PUSH2 0x2873 JUMP JUMPDEST PUSH2 0x28F4 SWAP2 POP PUSH2 0xFFFF PUSH2 0x2519 PUSH2 0x28EF PUSH2 0x2525 SWAP4 PUSH1 0xE0 MLOAD PUSH2 0x311A JUMP JUMPDEST PUSH2 0x3106 JUMP JUMPDEST ISZERO CODESIZE PUSH2 0x28C9 JUMP JUMPDEST POP PUSH2 0x2895 PUSH2 0x2919 PUSH2 0x2525 PUSH2 0xFFFF PUSH2 0x2519 PUSH2 0x2752 DUP10 DUP10 AND PUSH1 0xE0 MLOAD PUSH2 0x311A JUMP JUMPDEST ISZERO SWAP1 POP PUSH2 0x288C JUMP JUMPDEST POP PUSH2 0x293A PUSH2 0x2525 PUSH2 0xFFFF PUSH2 0x2519 PUSH1 0xFF DUP7 AND PUSH1 0xE0 MLOAD PUSH2 0x311A JUMP JUMPDEST PUSH2 0x27B1 JUMP JUMPDEST PUSH1 0xFF PUSH2 0x100 MLOAD AND ISZERO DUP1 ISZERO PUSH2 0x29B6 JUMPI JUMPDEST PUSH2 0x2957 SWAP1 PUSH2 0x31A1 JUMP JUMPDEST PUSH2 0x2974 PUSH2 0x296E PUSH2 0x2525 PUSH2 0xFFFF PUSH2 0x2519 PUSH1 0xE0 MLOAD PUSH2 0x318C JUMP JUMPDEST ISZERO PUSH2 0x3212 JUMP JUMPDEST PUSH2 0x100 MLOAD PUSH1 0xFF AND PUSH1 0x9 EQ DUP1 ISZERO PUSH2 0x2993 JUMPI JUMPDEST PUSH2 0x298E SWAP1 PUSH2 0x325D JUMP JUMPDEST PUSH2 0x278E JUMP JUMPDEST POP PUSH2 0x298E PUSH2 0x29AE PUSH2 0x2525 PUSH2 0xFFFF PUSH2 0x2519 PUSH2 0x26B9 PUSH1 0xE0 MLOAD PUSH2 0x3106 JUMP JUMPDEST ISZERO SWAP1 POP PUSH2 0x2985 JUMP JUMPDEST POP PUSH2 0x2957 PUSH2 0x29D1 PUSH2 0x2525 PUSH2 0xFFFF PUSH2 0x2519 PUSH2 0x26B9 PUSH1 0xE0 MLOAD PUSH2 0x3177 JUMP JUMPDEST ISZERO SWAP1 POP PUSH2 0x294E JUMP JUMPDEST PUSH1 0x1 SWAP8 POP PUSH2 0x244B JUMP JUMPDEST SWAP1 POP ISZERO CODESIZE PUSH2 0x2445 JUMP JUMPDEST PUSH1 0x40 MLOAD PUSH3 0x461BCD PUSH1 0xE5 SHL DUP2 MSTORE PUSH1 0x20 PUSH1 0x4 DUP3 ADD MSTORE PUSH1 0x20 PUSH1 0x24 DUP3 ADD MSTORE PUSH32 0x496E76616C6964207368697020706C6163656D656E7420284C2D736861706529 PUSH1 0x44 DUP3 ADD MSTORE PUSH1 0xA0 MLOAD SWAP1 REVERT JUMPDEST POP DUP1 PUSH2 0x2439 JUMP JUMPDEST SWAP8 POP PUSH2 0x2A4E PUSH2 0x2525 PUSH2 0xFFFF PUSH2 0x2519 PUSH1 0xE0 MLOAD PUSH2 0x3106 JUMP JUMPDEST SWAP8 PUSH2 0x2431 JUMP JUMPDEST SWAP7 POP PUSH2 0x2A6A PUSH2 0x2525 PUSH2 0xFFFF PUSH2 0x2519 PUSH1 0xE0 MLOAD PUSH2 0x30F2 JUMP JUMPDEST SWAP7 PUSH2 0x2418 JUMP JUMPDEST POP SWAP2 SWAP4 SWAP6 SWAP1 SWAP3 SWAP5 SWAP7 PUSH2 0x25BA JUMP JUMPDEST POP PUSH2 0x2A90 PUSH2 0x2525 DUP3 PUSH1 0xC0 MLOAD PUSH1 0x80 MLOAD PUSH2 0x30CB JUMP JUMPDEST ISZERO PUSH2 0x23EE JUMP JUMPDEST SWAP2 SWAP4 SWAP6 SWAP1 SWAP3 SWAP5 SWAP7 PUSH1 0xFF PUSH1 0x1 PUSH2 0x100 MLOAD ADD AND PUSH2 0x100 MSTORE PUSH2 0x2386 JUMP JUMPDEST SWAP1 SWAP2 SWAP3 SWAP4 SWAP5 SWAP6 SWAP8 SWAP7 SWAP9 POP PUSH1 0x0 JUMPDEST PUSH1 0xFF DUP2 AND PUSH1 0x5 DUP2 LT ISZERO PUSH2 0x2B41 JUMPI PUSH2 0x2AD6 PUSH1 0xFF SWAP2 DUP11 PUSH2 0x3130 JUMP JUMPDEST MLOAD AND PUSH1 0xFF PUSH2 0x2AE3 DUP4 PUSH2 0x1641 JUMP JUMPDEST SWAP1 SLOAD SWAP1 PUSH1 0x3 SHL SHR AND SUB PUSH2 0x2AFB JUMPI PUSH1 0x1 ADD PUSH1 0xFF AND PUSH2 0x2ABD JUMP JUMPDEST PUSH1 0x40 MLOAD PUSH3 0x461BCD PUSH1 0xE5 SHL DUP2 MSTORE PUSH1 0x20 PUSH1 0x4 DUP3 ADD MSTORE PUSH1 0x12 PUSH1 0x24 DUP3 ADD MSTORE PUSH32 0x496E76616C6964207368697020636F756E740000000000000000000000000000 PUSH1 0x44 DUP3 ADD MSTORE PUSH1 0xA0 MLOAD SWAP1 REVERT JUMPDEST POP POP SWAP3 SWAP6 POP SWAP3 SWAP6 SWAP7 SWAP1 SWAP4 SWAP7 PUSH1 0x40 MLOAD PUSH1 0x20 DUP2 ADD SWAP2 DUP3 MSTORE PUSH1 0x40 DUP2 ADD PUSH1 0x80 MLOAD PUSH1 0x0 JUMPDEST PUSH1 0xC0 MLOAD DUP2 LT PUSH2 0x2FF7 JUMPI POP POP SWAP1 PUSH2 0x2B82 DUP2 PUSH1 0x2 SWAP5 SWAP4 SUB PUSH1 0x1F NOT DUP2 ADD DUP4 MSTORE DUP3 PUSH2 0x16E0 JUMP JUMPDEST MLOAD SWAP1 KECCAK256 SWAP5 ADD SWAP4 PUSH1 0x1 PUSH2 0x2B94 DUP8 DUP8 PUSH2 0x18FE JUMP JUMPDEST POP ADD SLOAD SUB PUSH2 0x2FB1 JUMPI PUSH1 0x0 SWAP3 PUSH1 0x0 SWAP7 DUP8 SWAP1 DUP4 DUP6 SUB PUSH2 0x2F46 JUMPI PUSH2 0x2BB6 PUSH1 0xC0 MLOAD PUSH2 0x3089 JUMP JUMPDEST SWAP1 DUP10 JUMPDEST DUP7 DUP2 LT PUSH2 0x2C85 JUMPI POP POP POP POP POP POP POP PUSH1 0x3 PUSH2 0x2BDB PUSH2 0x2BD5 DUP6 PUSH2 0x1861 JUMP JUMPDEST DUP5 PUSH2 0x18FE JUMP JUMPDEST POP ADD SLOAD SUB PUSH2 0x2C3F JUMPI PUSH1 0x4 SWAP2 PUSH2 0x2BEF SWAP2 PUSH2 0x18FE JUMP JUMPDEST POP ADD SLOAD SUB PUSH2 0x2BF9 JUMPI JUMP JUMPDEST PUSH1 0x40 MLOAD PUSH3 0x461BCD PUSH1 0xE5 SHL DUP2 MSTORE PUSH1 0x20 PUSH1 0x4 DUP3 ADD MSTORE PUSH1 0x1E PUSH1 0x24 DUP3 ADD MSTORE PUSH32 0x416E737765727320646F6E2774206D61746368206D7920616E73776572730000 PUSH1 0x44 DUP3 ADD MSTORE PUSH1 0xA0 MLOAD SWAP1 REVERT JUMPDEST PUSH1 0x40 MLOAD PUSH3 0x461BCD PUSH1 0xE5 SHL DUP2 MSTORE PUSH1 0x20 PUSH1 0x4 DUP3 ADD MSTORE PUSH1 0x1D PUSH1 0x24 DUP3 ADD MSTORE PUSH32 0x53686F747320646F6E2774206D6174636820656E656D792073686F7473000000 PUSH1 0x44 DUP3 ADD MSTORE PUSH1 0xA0 MLOAD SWAP1 REVERT JUMPDEST PUSH1 0x1 DUP2 ADD SWAP11 SWAP8 DUP12 DUP3 GT PUSH2 0x761 JUMPI PUSH2 0x2CA2 SWAP1 DUP13 PUSH2 0x1F5F DUP5 DUP12 DUP8 PUSH2 0x30BB JUMP JUMPDEST SWAP8 PUSH1 0x0 SWAP12 PUSH2 0x2CB1 DUP4 DUP11 DUP7 PUSH2 0x30BB JUMP JUMPDEST SWAP1 PUSH2 0x2CBD DUP5 DUP11 DUP11 PUSH2 0x30CB JUMP JUMPDEST CALLDATALOAD SWAP3 PUSH1 0x3 DUP5 LT ISZERO PUSH2 0x2F42 JUMPI SWAP1 PUSH2 0x2CD4 SWAP4 SWAP3 SWAP2 PUSH2 0x221B JUMP JUMPDEST SWAP11 PUSH2 0x2CE0 DUP3 DUP10 DUP6 PUSH2 0x30BB JUMP JUMPDEST PUSH2 0x2CE9 SWAP1 PUSH2 0x21C2 JUMP JUMPDEST PUSH1 0xFF AND PUSH2 0x2CF5 SWAP1 PUSH2 0x30DB JUMP JUMPDEST PUSH2 0x2D00 DUP4 DUP11 DUP7 PUSH2 0x30BB JUMP JUMPDEST PUSH1 0x20 ADD PUSH2 0x2D0C SWAP1 PUSH2 0x21C2 JUMP JUMPDEST PUSH1 0xFF AND PUSH2 0x2D18 SWAP2 PUSH2 0x311A JUMP JUMPDEST PUSH2 0xFFFF DUP2 AND PUSH1 0xC0 MLOAD DUP2 PUSH1 0x80 MLOAD SWAP2 PUSH2 0x2D2E SWAP3 PUSH2 0x30CB JUMP JUMPDEST PUSH2 0x2D37 SWAP1 PUSH2 0x3144 JUMP JUMPDEST PUSH2 0x2DCD JUMPI POP POP PUSH2 0x2D48 DUP3 DUP9 DUP9 PUSH2 0x30CB JUMP JUMPDEST CALLDATALOAD SWAP1 PUSH1 0x3 DUP3 LT ISZERO PUSH2 0x201B JUMPI POP PUSH2 0x2D62 JUMPI PUSH1 0x1 SWAP1 JUMPDEST ADD PUSH2 0x2BB9 JUMP JUMPDEST PUSH1 0x84 PUSH1 0x40 MLOAD PUSH3 0x461BCD PUSH1 0xE5 SHL DUP2 MSTORE PUSH1 0x20 PUSH1 0x4 DUP3 ADD MSTORE PUSH1 0x2D PUSH1 0x24 DUP3 ADD MSTORE PUSH32 0x4D69737365642073686F742063616E6E6F7420626520616E7377657265642061 PUSH1 0x44 DUP3 ADD MSTORE PUSH32 0x7320686974206F722073756E6B00000000000000000000000000000000000000 PUSH1 0xA0 MLOAD DUP3 ADD MSTORE REVERT JUMPDEST PUSH2 0x2DD7 DUP2 DUP8 PUSH2 0x3130 JUMP JUMPDEST MLOAD ISZERO PUSH2 0x2F24 JUMPI JUMPDEST SWAP1 PUSH1 0x1 PUSH2 0x2DEE PUSH2 0x2DFB SWAP4 DUP9 PUSH2 0x3130 JUMP JUMPDEST MSTORE DUP6 PUSH1 0xC0 MLOAD PUSH1 0x80 MLOAD PUSH2 0x34A1 JUMP JUMPDEST ISZERO PUSH2 0x2E92 JUMPI PUSH2 0x2E0B DUP3 DUP9 DUP9 PUSH2 0x30CB JUMP JUMPDEST CALLDATALOAD SWAP1 PUSH1 0x3 DUP3 LT ISZERO PUSH2 0x201B JUMPI POP PUSH1 0x1 NOT ADD PUSH2 0x2E27 JUMPI PUSH1 0x1 SWAP1 PUSH2 0x2D5C JUMP JUMPDEST PUSH1 0x84 PUSH1 0x40 MLOAD PUSH3 0x461BCD PUSH1 0xE5 SHL DUP2 MSTORE PUSH1 0x20 PUSH1 0x4 DUP3 ADD MSTORE PUSH1 0x2A PUSH1 0x24 DUP3 ADD MSTORE PUSH32 0x536869702063616E6E6F742062652073756E6B20696620697420686173206E6F PUSH1 0x44 DUP3 ADD MSTORE PUSH32 0x74206265656E2068697400000000000000000000000000000000000000000000 PUSH1 0xA0 MLOAD DUP3 ADD MSTORE REVERT JUMPDEST PUSH2 0x2E9D DUP3 DUP9 DUP9 PUSH2 0x30CB JUMP JUMPDEST CALLDATALOAD SWAP1 PUSH1 0x3 DUP3 LT ISZERO PUSH2 0x201B JUMPI POP PUSH1 0x0 NOT ADD PUSH2 0x2EB9 JUMPI PUSH1 0x1 SWAP1 PUSH2 0x2D5C JUMP JUMPDEST PUSH1 0x84 PUSH1 0x40 MLOAD PUSH3 0x461BCD PUSH1 0xE5 SHL DUP2 MSTORE PUSH1 0x20 PUSH1 0x4 DUP3 ADD MSTORE PUSH1 0x30 PUSH1 0x24 DUP3 ADD MSTORE PUSH32 0x53686970206D7573742062652073756E6B20696620616C6C2069747320706172 PUSH1 0x44 DUP3 ADD MSTORE PUSH32 0x74732068617665206265656E2068697400000000000000000000000000000000 PUSH1 0xA0 MLOAD DUP3 ADD MSTORE REVERT JUMPDEST SWAP6 SWAP1 PUSH1 0x1 PUSH2 0x2DEE PUSH2 0x2F37 PUSH2 0x2DFB SWAP5 PUSH2 0x1BD0 JUMP JUMPDEST SWAP9 SWAP3 SWAP4 POP POP POP PUSH2 0x2DDE JUMP JUMPDEST DUP15 DUP1 REVERT JUMPDEST PUSH1 0x84 PUSH1 0x40 MLOAD PUSH3 0x461BCD PUSH1 0xE5 SHL DUP2 MSTORE PUSH1 0x20 PUSH1 0x4 DUP3 ADD MSTORE PUSH1 0x2B PUSH1 0x24 DUP3 ADD MSTORE PUSH32 0x53686F747320616E6420616E7377657273206D75737420686176652074686520 PUSH1 0x44 DUP3 ADD MSTORE PUSH32 0x73616D65206C656E677468000000000000000000000000000000000000000000 PUSH1 0xA0 MLOAD DUP3 ADD MSTORE REVERT JUMPDEST PUSH1 0x40 MLOAD PUSH3 0x461BCD PUSH1 0xE5 SHL DUP2 MSTORE PUSH1 0x20 PUSH1 0x4 DUP3 ADD MSTORE PUSH1 0x1F PUSH1 0x24 DUP3 ADD MSTORE PUSH32 0x426F61726420636F6D6D69746D656E7420646F6573206E6F74206D6174636800 PUSH1 0x44 DUP3 ADD MSTORE PUSH1 0xA0 MLOAD SWAP1 REVERT JUMPDEST SWAP1 SWAP2 PUSH1 0x20 DUP1 PUSH1 0x1 SWAP3 PUSH2 0x3008 DUP7 PUSH2 0x1BE3 JUMP JUMPDEST ISZERO ISZERO DUP2 MSTORE ADD SWAP4 ADD SWAP2 ADD PUSH2 0x2B60 JUMP JUMPDEST PUSH1 0x40 MLOAD PUSH3 0x461BCD PUSH1 0xE5 SHL DUP2 MSTORE PUSH1 0x20 PUSH1 0x4 DUP3 ADD MSTORE PUSH1 0x12 PUSH1 0x24 DUP3 ADD MSTORE PUSH32 0x496E76616C696420626F6172642073697A650000000000000000000000000000 PUSH1 0x44 DUP3 ADD MSTORE PUSH1 0xA0 MLOAD SWAP1 REVERT JUMPDEST PUSH1 0xFF PUSH1 0xA SWAP2 AND MUL SWAP1 PUSH1 0xFF DUP3 AND SWAP2 DUP3 SUB PUSH2 0x761 JUMPI JUMP JUMPDEST PUSH8 0xFFFFFFFFFFFFFFFF DUP2 GT PUSH2 0x1702 JUMPI PUSH1 0x5 SHL PUSH1 0x20 ADD SWAP1 JUMP JUMPDEST SWAP1 PUSH2 0x3093 DUP3 PUSH2 0x3071 JUMP JUMPDEST PUSH2 0x30A0 PUSH1 0x40 MLOAD SWAP2 DUP3 PUSH2 0x16E0 JUMP JUMPDEST DUP3 DUP2 MSTORE DUP1 SWAP3 PUSH2 0x30B1 PUSH1 0x1F NOT SWAP2 PUSH2 0x3071 JUMP JUMPDEST ADD SWAP1 PUSH1 0x20 CALLDATASIZE SWAP2 ADD CALLDATACOPY JUMP JUMPDEST SWAP2 SWAP1 DUP2 LT ISZERO PUSH2 0x1659 JUMPI PUSH1 0x6 SHL ADD SWAP1 JUMP JUMPDEST SWAP2 SWAP1 DUP2 LT ISZERO PUSH2 0x1659 JUMPI PUSH1 0x5 SHL ADD SWAP1 JUMP JUMPDEST PUSH2 0xFFFF PUSH1 0xA SWAP2 AND MUL SWAP1 PUSH2 0xFFFF DUP3 AND SWAP2 DUP3 SUB PUSH2 0x761 JUMPI JUMP JUMPDEST PUSH2 0xFFFF PUSH1 0x1 SWAP2 AND ADD SWAP1 PUSH2 0xFFFF DUP3 GT PUSH2 0x761 JUMPI JUMP JUMPDEST PUSH2 0xFFFF PUSH1 0xA SWAP2 AND ADD SWAP1 PUSH2 0xFFFF DUP3 GT PUSH2 0x761 JUMPI JUMP JUMPDEST SWAP1 PUSH2 0xFFFF DUP1 SWAP2 AND SWAP2 AND ADD SWAP1 PUSH2 0xFFFF DUP3 GT PUSH2 0x761 JUMPI JUMP JUMPDEST DUP1 MLOAD DUP3 LT ISZERO PUSH2 0x1659 JUMPI PUSH1 0x20 SWAP2 PUSH1 0x5 SHL ADD ADD SWAP1 JUMP JUMPDEST CALLDATALOAD DUP1 ISZERO ISZERO DUP2 SUB PUSH2 0x1ED JUMPI SWAP1 JUMP JUMPDEST PUSH1 0xFF PUSH1 0x1 SWAP2 AND ADD SWAP1 PUSH1 0xFF DUP3 GT PUSH2 0x761 JUMPI JUMP JUMPDEST SWAP1 PUSH1 0xFF DUP1 SWAP2 AND SWAP2 AND ADD SWAP1 PUSH1 0xFF DUP3 GT PUSH2 0x761 JUMPI JUMP JUMPDEST PUSH2 0xFFFF PUSH1 0x9 NOT SWAP2 AND ADD SWAP1 PUSH2 0xFFFF DUP3 GT PUSH2 0x761 JUMPI JUMP JUMPDEST PUSH2 0xFFFF PUSH1 0x0 NOT SWAP2 AND ADD SWAP1 PUSH2 0xFFFF DUP3 GT PUSH2 0x761 JUMPI JUMP JUMPDEST ISZERO PUSH2 0x31A8 JUMPI JUMP JUMPDEST PUSH1 0x84 PUSH1 0x40 MLOAD PUSH3 0x461BCD PUSH1 0xE5 SHL DUP2 MSTORE PUSH1 0x20 PUSH1 0x4 DUP3 ADD MSTORE PUSH1 0x21 PUSH1 0x24 DUP3 ADD MSTORE PUSH32 0x496E76616C6964207368697020706C6163656D656E742028746F702D6C656674 PUSH1 0x44 DUP3 ADD MSTORE PUSH32 0x2900000000000000000000000000000000000000000000000000000000000000 PUSH1 0x64 DUP3 ADD MSTORE REVERT JUMPDEST ISZERO PUSH2 0x3219 JUMPI JUMP JUMPDEST PUSH1 0x64 PUSH1 0x40 MLOAD PUSH3 0x461BCD PUSH1 0xE5 SHL DUP2 MSTORE PUSH1 0x20 PUSH1 0x4 DUP3 ADD MSTORE PUSH1 0x1D PUSH1 0x24 DUP3 ADD MSTORE PUSH32 0x496E76616C6964207368697020706C6163656D656E7420286C65667429000000 PUSH1 0x44 DUP3 ADD MSTORE REVERT JUMPDEST ISZERO PUSH2 0x3264 JUMPI JUMP JUMPDEST PUSH1 0x84 PUSH1 0x40 MLOAD PUSH3 0x461BCD PUSH1 0xE5 SHL DUP2 MSTORE PUSH1 0x20 PUSH1 0x4 DUP3 ADD MSTORE PUSH1 0x24 DUP1 DUP3 ADD MSTORE PUSH32 0x496E76616C6964207368697020706C6163656D656E742028626F74746F6D2D6C PUSH1 0x44 DUP3 ADD MSTORE PUSH32 0x6566742900000000000000000000000000000000000000000000000000000000 PUSH1 0x64 DUP3 ADD MSTORE REVERT JUMPDEST ISZERO PUSH2 0x32D4 JUMPI JUMP JUMPDEST PUSH1 0x64 PUSH1 0x40 MLOAD PUSH3 0x461BCD PUSH1 0xE5 SHL DUP2 MSTORE PUSH1 0x20 PUSH1 0x4 DUP3 ADD MSTORE PUSH1 0x1C PUSH1 0x24 DUP3 ADD MSTORE PUSH32 0x496E76616C6964207368697020706C6163656D656E742028746F702900000000 PUSH1 0x44 DUP3 ADD MSTORE REVERT JUMPDEST ISZERO PUSH2 0x331F JUMPI JUMP JUMPDEST PUSH1 0x64 PUSH1 0x40 MLOAD PUSH3 0x461BCD PUSH1 0xE5 SHL DUP2 MSTORE PUSH1 0x20 PUSH1 0x4 DUP3 ADD MSTORE PUSH1 0x1F PUSH1 0x24 DUP3 ADD MSTORE PUSH32 0x496E76616C6964207368697020706C6163656D656E742028626F74746F6D2900 PUSH1 0x44 DUP3 ADD MSTORE REVERT JUMPDEST PUSH1 0xFF AND PUSH1 0xFF DUP2 EQ PUSH2 0x761 JUMPI PUSH1 0x1 ADD SWAP1 JUMP JUMPDEST ISZERO PUSH2 0x337B JUMPI JUMP JUMPDEST PUSH1 0x84 PUSH1 0x40 MLOAD PUSH3 0x461BCD PUSH1 0xE5 SHL DUP2 MSTORE PUSH1 0x20 PUSH1 0x4 DUP3 ADD MSTORE PUSH1 0x22 PUSH1 0x24 DUP3 ADD MSTORE PUSH32 0x496E76616C6964207368697020706C6163656D656E742028746F702D72696768 PUSH1 0x44 DUP3 ADD MSTORE PUSH32 0x7429000000000000000000000000000000000000000000000000000000000000 PUSH1 0x64 DUP3 ADD MSTORE REVERT JUMPDEST ISZERO PUSH2 0x33EC JUMPI JUMP JUMPDEST PUSH1 0x64 PUSH1 0x40 MLOAD PUSH3 0x461BCD PUSH1 0xE5 SHL DUP2 MSTORE PUSH1 0x20 PUSH1 0x4 DUP3 ADD MSTORE PUSH1 0x1E PUSH1 0x24 DUP3 ADD MSTORE PUSH32 0x496E76616C6964207368697020706C6163656D656E7420287269676874290000 PUSH1 0x44 DUP3 ADD MSTORE REVERT JUMPDEST ISZERO PUSH2 0x3437 JUMPI JUMP JUMPDEST PUSH1 0x84 PUSH1 0x40 MLOAD PUSH3 0x461BCD PUSH1 0xE5 SHL DUP2 MSTORE PUSH1 0x20 PUSH1 0x4 DUP3 ADD MSTORE PUSH1 0x25 PUSH1 0x24 DUP3 ADD MSTORE PUSH32 0x496E76616C6964207368697020706C6163656D656E742028626F74746F6D2D72 PUSH1 0x44 DUP3 ADD MSTORE PUSH32 0x6967687429000000000000000000000000000000000000000000000000000000 PUSH1 0x64 DUP3 ADD MSTORE REVERT JUMPDEST SWAP2 SWAP1 PUSH2 0x34AC DUP5 PUSH2 0x30F2 JUMP JUMPDEST PUSH2 0xFFFF DUP2 DUP2 AND SWAP1 PUSH1 0xA DUP3 MOD AND ISZERO ISZERO DUP1 PUSH2 0x3668 JUMPI JUMPDEST ISZERO PUSH2 0x34ED JUMPI PUSH2 0x34CF SWAP1 DUP5 PUSH2 0x3130 JUMP JUMPDEST MLOAD ISZERO PUSH2 0x34E3 JUMPI PUSH2 0x34DE SWAP1 PUSH2 0x1BD0 JUMP JUMPDEST PUSH2 0x34AC JUMP JUMPDEST POP POP POP POP POP PUSH1 0x0 SWAP1 JUMP JUMPDEST POP POP SWAP3 SWAP2 PUSH2 0xFFFF DUP4 AND SWAP4 DUP5 PUSH2 0x35DA JUMPI JUMPDEST PUSH1 0x64 SWAP4 PUSH2 0x3509 DUP2 PUSH2 0x3106 JUMP JUMPDEST PUSH2 0xFFFF DUP2 AND DUP7 DUP2 LT DUP1 PUSH2 0x35C6 JUMPI JUMPDEST ISZERO PUSH2 0x3546 JUMPI PUSH2 0x3526 SWAP1 DUP7 PUSH2 0x3130 JUMP JUMPDEST MLOAD ISZERO PUSH2 0x353A JUMPI PUSH2 0x3535 SWAP1 PUSH2 0x3106 JUMP JUMPDEST PUSH2 0x3509 JUMP JUMPDEST POP POP POP POP POP POP POP PUSH1 0x0 SWAP1 JUMP JUMPDEST POP POP SWAP2 SWAP5 PUSH1 0xA SWAP2 SWAP5 POP LT ISZERO PUSH2 0x355F JUMPI JUMPDEST POP POP POP POP PUSH1 0x1 SWAP1 JUMP JUMPDEST PUSH2 0x3568 SWAP1 PUSH2 0x3177 JUMP JUMPDEST PUSH2 0xFFFF DUP2 AND PUSH2 0x357B PUSH2 0x2525 DUP3 DUP7 DUP9 PUSH2 0x30CB JUMP JUMPDEST ISZERO PUSH2 0x35BC JUMPI PUSH2 0x358A DUP2 DUP5 PUSH2 0x3130 JUMP JUMPDEST MLOAD ISZERO PUSH2 0x34E3 JUMPI PUSH1 0xA GT PUSH2 0x35AE JUMPI PUSH2 0x2525 PUSH2 0x35A6 PUSH2 0x357B SWAP3 PUSH2 0x3177 JUMP JUMPDEST SWAP2 POP POP PUSH2 0x3568 JUMP JUMPDEST POP POP POP POP JUMPDEST CODESIZE DUP1 DUP1 DUP1 PUSH2 0x3556 JUMP JUMPDEST POP POP POP POP POP PUSH2 0x35B3 JUMP JUMPDEST POP PUSH2 0x35D5 PUSH2 0x2525 DUP3 DUP7 DUP9 PUSH2 0x30CB JUMP JUMPDEST PUSH2 0x3517 JUMP JUMPDEST SWAP4 SWAP3 SWAP2 SWAP1 PUSH2 0x35E7 DUP4 PUSH2 0x318C JUMP JUMPDEST PUSH1 0x9 SWAP6 SWAP1 JUMPDEST PUSH2 0xFFFF DUP2 DUP2 AND SWAP1 PUSH1 0xA DUP3 MOD AND DUP9 EQ ISZERO DUP1 PUSH2 0x3654 JUMPI JUMPDEST ISZERO PUSH2 0x3647 JUMPI PUSH2 0x3610 DUP2 DUP7 PUSH2 0x3130 JUMP JUMPDEST MLOAD ISZERO PUSH2 0x363A JUMPI ISZERO PUSH2 0x362E JUMPI PUSH2 0xFFFF AND DUP1 ISZERO PUSH2 0x761 JUMPI PUSH1 0x0 NOT ADD PUSH2 0x35EC JUMP JUMPDEST POP SWAP1 SWAP2 SWAP3 SWAP4 SWAP5 POP PUSH2 0x34FD JUMP JUMPDEST POP POP POP POP POP POP POP POP PUSH1 0x0 SWAP1 JUMP JUMPDEST POP POP SWAP1 SWAP2 SWAP3 SWAP4 SWAP5 POP PUSH2 0x34FD JUMP JUMPDEST POP PUSH2 0x3663 PUSH2 0x2525 DUP3 DUP6 DUP8 PUSH2 0x30CB JUMP JUMPDEST PUSH2 0x3601 JUMP JUMPDEST POP PUSH2 0x3677 PUSH2 0x2525 DUP3 DUP6 DUP9 PUSH2 0x30CB JUMP JUMPDEST PUSH2 0x34C0 JUMP INVALID LOG2 PUSH5 0x6970667358 0x22 SLT KECCAK256 0xFC PUSH16 0x6E1108D7225245D362C302ED0114198A CALLER COINBASE 0xD8 DUP7 0xC4 BALANCE DUP10 SWAP12 AND 0x4D DUP8 0xB5 TLOAD PUSH31 0x64736F6C634300081C00330000000000000000000000000000000000000000 "
        },
        "methodIdentifiers": {
          "BOARD_SIZE()": "dc4a3e95",
          "CONTRACT_SEED()": "6cd6eabf",
          "DEADLINE_BLOCK_TIME()": "0b429432",
          "MAX_SHIP_LENGTH()": "ba848382",
          "SHIP_COUNTS(uint256)": "b9bafb10",
          "TOTAL_SHIP_PARTS()": "a616b069",
          "answerAndClaimDishonest(uint256,(uint8,uint8),uint8)": "8efe14fd",
          "answerAndClaimVictory(uint256,(uint8,uint8),uint8,uint256,bool[],(uint8,uint8)[],uint8[],(uint8,uint8)[],uint8[])": "c841869d",
          "answerAndShoot(uint256,(uint8,uint8),uint8,(uint8,uint8))": "b3a16b19",
          "answerShot(uint256,(uint8,uint8),uint8)": "2ad5e4d6",
          "calculateCommission(uint256)": "ce9b4321",
          "claimDishonest(uint256)": "07ecba71",
          "claimIdle(uint256)": "c599d89b",
          "createRoom(uint256,uint256)": "ab196acd",
          "getRoomInfo(uint256)": "6790d2b5",
          "joinRoom(uint256,uint256)": "0a1c87a9",
          "owner()": "8da5cb5b",
          "proveHonesty(uint256,uint256,bool[],(uint8,uint8)[],uint8[])": "d38f4663",
          "proveVictory(uint256,uint256,bool[],(uint8,uint8)[],uint8[],(uint8,uint8)[],uint8[])": "75debaad",
          "renounceOwnership()": "715018a6",
          "roomSecretToId(uint256)": "625904c8",
          "rooms(uint256)": "1bae0ac8",
          "shoot(uint256,(uint8,uint8))": "6e209f2c",
          "submitBoard(uint256,uint256,uint256)": "d4d91f10",
          "transferOwnership(address)": "f2fde38b",
          "withdrawFunds(uint256)": "155dd5ee"
        }
      }
    }
  }
}