{
  "contracts/test/TestInternals.sol": {
    "TestInternals": {
      "abi": [
        {
          "inputs": [],
          "stateMutability": "nonpayable",
          "type": "constructor"
        },
        {
          "inputs": [
            {
              "internalType": "address",
              "name": "owner",
              "type": "address"
            }
          ],
          "name": "OwnableInvalidOwner",
          "type": "error"
        },
        {
          "inputs": [
            {
              "internalType": "address",
              "name": "account",
              "type": "address"
            }
          ],
          "name": "OwnableUnauthorizedAccount",
          "type": "error"
        },
        {
          "inputs": [],
          "name": "ReentrancyGuardReentrantCall",
          "type": "error"
        },
        {
          "anonymous": false,
          "inputs": [
            {
              "indexed": false,
              "internalType": "Chainship.RoomId",
              "name": "roomId",
              "type": "uint256"
            },
            {
              "indexed": false,
              "internalType": "address",
              "name": "player",
              "type": "address"
            },
            {
              "indexed": false,
              "internalType": "uint256",
              "name": "boardCommitment",
              "type": "uint256"
            }
          ],
          "name": "BoardSubmitted",
          "type": "event"
        },
        {
          "anonymous": false,
          "inputs": [
            {
              "indexed": false,
              "internalType": "Chainship.RoomId",
              "name": "roomId",
              "type": "uint256"
            },
            {
              "indexed": false,
              "internalType": "address",
              "name": "player1",
              "type": "address"
            },
            {
              "indexed": false,
              "internalType": "uint256",
              "name": "entryFee",
              "type": "uint256"
            },
            {
              "indexed": false,
              "internalType": "uint256",
              "name": "commission",
              "type": "uint256"
            }
          ],
          "name": "CreatedRoom",
          "type": "event"
        },
        {
          "anonymous": false,
          "inputs": [
            {
              "indexed": false,
              "internalType": "Chainship.RoomId",
              "name": "roomId",
              "type": "uint256"
            },
            {
              "indexed": false,
              "internalType": "address",
              "name": "player",
              "type": "address"
            }
          ],
          "name": "DishonestyClaimed",
          "type": "event"
        },
        {
          "anonymous": false,
          "inputs": [
            {
              "indexed": false,
              "internalType": "Chainship.RoomId",
              "name": "roomId",
              "type": "uint256"
            },
            {
              "indexed": false,
              "internalType": "address",
              "name": "startingPlayer",
              "type": "address"
            }
          ],
          "name": "GameStarted",
          "type": "event"
        },
        {
          "anonymous": false,
          "inputs": [
            {
              "indexed": false,
              "internalType": "Chainship.RoomId",
              "name": "roomId",
              "type": "uint256"
            },
            {
              "indexed": false,
              "internalType": "address",
              "name": "player",
              "type": "address"
            },
            {
              "indexed": false,
              "internalType": "bool[]",
              "name": "board",
              "type": "bool[]"
            }
          ],
          "name": "HonestyProven",
          "type": "event"
        },
        {
          "anonymous": false,
          "inputs": [
            {
              "indexed": false,
              "internalType": "Chainship.RoomId",
              "name": "roomId",
              "type": "uint256"
            },
            {
              "indexed": false,
              "internalType": "address",
              "name": "player",
              "type": "address"
            }
          ],
          "name": "IdleClaimed",
          "type": "event"
        },
        {
          "anonymous": false,
          "inputs": [
            {
              "indexed": false,
              "internalType": "Chainship.RoomId",
              "name": "roomId",
              "type": "uint256"
            },
            {
              "indexed": false,
              "internalType": "address",
              "name": "player2",
              "type": "address"
            }
          ],
          "name": "JoinedRoom",
          "type": "event"
        },
        {
          "anonymous": false,
          "inputs": [
            {
              "indexed": true,
              "internalType": "address",
              "name": "previousOwner",
              "type": "address"
            },
            {
              "indexed": true,
              "internalType": "address",
              "name": "newOwner",
              "type": "address"
            }
          ],
          "name": "OwnershipTransferred",
          "type": "event"
        },
        {
          "anonymous": false,
          "inputs": [
            {
              "indexed": false,
              "internalType": "address",
              "name": "player",
              "type": "address"
            },
            {
              "indexed": false,
              "internalType": "uint256",
              "name": "prize",
              "type": "uint256"
            }
          ],
          "name": "PrizeReceived",
          "type": "event"
        },
        {
          "anonymous": false,
          "inputs": [
            {
              "indexed": false,
              "internalType": "Chainship.RoomId",
              "name": "roomId",
              "type": "uint256"
            },
            {
              "indexed": false,
              "internalType": "address",
              "name": "player",
              "type": "address"
            },
            {
              "indexed": false,
              "internalType": "uint256",
              "name": "noShots",
              "type": "uint256"
            },
            {
              "components": [
                {
                  "internalType": "uint8",
                  "name": "x",
                  "type": "uint8"
                },
                {
                  "internalType": "uint8",
                  "name": "y",
                  "type": "uint8"
                }
              ],
              "indexed": false,
              "internalType": "struct Chainship.Position",
              "name": "position",
              "type": "tuple"
            },
            {
              "indexed": false,
              "internalType": "enum Chainship.Answer",
              "name": "answer",
              "type": "uint8"
            },
            {
              "indexed": false,
              "internalType": "uint256",
              "name": "newAnswersCommitment",
              "type": "uint256"
            }
          ],
          "name": "ShotAnswered",
          "type": "event"
        },
        {
          "anonymous": false,
          "inputs": [
            {
              "indexed": false,
              "internalType": "Chainship.RoomId",
              "name": "roomId",
              "type": "uint256"
            },
            {
              "indexed": false,
              "internalType": "address",
              "name": "player",
              "type": "address"
            },
            {
              "indexed": false,
              "internalType": "uint256",
              "name": "noShots",
              "type": "uint256"
            },
            {
              "components": [
                {
                  "internalType": "uint8",
                  "name": "x",
                  "type": "uint8"
                },
                {
                  "internalType": "uint8",
                  "name": "y",
                  "type": "uint8"
                }
              ],
              "indexed": false,
              "internalType": "struct Chainship.Position",
              "name": "position",
              "type": "tuple"
            },
            {
              "indexed": false,
              "internalType": "uint256",
              "name": "newShotsCommitment",
              "type": "uint256"
            }
          ],
          "name": "ShotTaken",
          "type": "event"
        },
        {
          "anonymous": false,
          "inputs": [
            {
              "indexed": false,
              "internalType": "Chainship.RoomId",
              "name": "roomId",
              "type": "uint256"
            },
            {
              "indexed": false,
              "internalType": "address",
              "name": "player",
              "type": "address"
            },
            {
              "indexed": false,
              "internalType": "bool[]",
              "name": "board",
              "type": "bool[]"
            }
          ],
          "name": "VictoryProven",
          "type": "event"
        },
        {
          "inputs": [],
          "name": "BOARD_SIZE",
          "outputs": [
            {
              "internalType": "uint8",
              "name": "",
              "type": "uint8"
            }
          ],
          "stateMutability": "view",
          "type": "function"
        },
        {
          "inputs": [],
          "name": "CONTRACT_SEED",
          "outputs": [
            {
              "internalType": "uint256",
              "name": "",
              "type": "uint256"
            }
          ],
          "stateMutability": "view",
          "type": "function"
        },
        {
          "inputs": [],
          "name": "DEADLINE_BLOCK_TIME",
          "outputs": [
            {
              "internalType": "uint256",
              "name": "",
              "type": "uint256"
            }
          ],
          "stateMutability": "view",
          "type": "function"
        },
        {
          "inputs": [],
          "name": "MAX_SHIP_LENGTH",
          "outputs": [
            {
              "internalType": "uint8",
              "name": "",
              "type": "uint8"
            }
          ],
          "stateMutability": "view",
          "type": "function"
        },
        {
          "inputs": [
            {
              "internalType": "uint256",
              "name": "",
              "type": "uint256"
            }
          ],
          "name": "SHIP_COUNTS",
          "outputs": [
            {
              "internalType": "uint8",
              "name": "",
              "type": "uint8"
            }
          ],
          "stateMutability": "view",
          "type": "function"
        },
        {
          "inputs": [],
          "name": "TOTAL_SHIP_PARTS",
          "outputs": [
            {
              "internalType": "uint16",
              "name": "",
              "type": "uint16"
            }
          ],
          "stateMutability": "view",
          "type": "function"
        },
        {
          "inputs": [
            {
              "internalType": "Chainship.RoomId",
              "name": "roomId",
              "type": "uint256"
            },
            {
              "components": [
                {
                  "internalType": "uint8",
                  "name": "x",
                  "type": "uint8"
                },
                {
                  "internalType": "uint8",
                  "name": "y",
                  "type": "uint8"
                }
              ],
              "internalType": "struct Chainship.Position",
              "name": "position",
              "type": "tuple"
            },
            {
              "internalType": "enum Chainship.Answer",
              "name": "answer",
              "type": "uint8"
            }
          ],
          "name": "answerShot",
          "outputs": [],
          "stateMutability": "nonpayable",
          "type": "function"
        },
        {
          "inputs": [
            {
              "internalType": "uint256",
              "name": "entryFee",
              "type": "uint256"
            }
          ],
          "name": "calculateCommission",
          "outputs": [
            {
              "internalType": "uint256",
              "name": "",
              "type": "uint256"
            }
          ],
          "stateMutability": "pure",
          "type": "function"
        },
        {
          "inputs": [
            {
              "internalType": "Chainship.RoomId",
              "name": "roomId",
              "type": "uint256"
            }
          ],
          "name": "claimDishonest",
          "outputs": [],
          "stateMutability": "nonpayable",
          "type": "function"
        },
        {
          "inputs": [
            {
              "internalType": "Chainship.RoomId",
              "name": "roomId",
              "type": "uint256"
            }
          ],
          "name": "claimIdle",
          "outputs": [],
          "stateMutability": "nonpayable",
          "type": "function"
        },
        {
          "inputs": [
            {
              "internalType": "Chainship.RoomId",
              "name": "roomId",
              "type": "uint256"
            },
            {
              "internalType": "uint256",
              "name": "randomnessCommitment",
              "type": "uint256"
            }
          ],
          "name": "createRoom",
          "outputs": [],
          "stateMutability": "payable",
          "type": "function"
        },
        {
          "inputs": [
            {
              "internalType": "Chainship.RoomId",
              "name": "roomId",
              "type": "uint256"
            }
          ],
          "name": "getRoomInfo",
          "outputs": [
            {
              "internalType": "enum Chainship.RoomStatus",
              "name": "",
              "type": "uint8"
            },
            {
              "internalType": "uint256",
              "name": "",
              "type": "uint256"
            },
            {
              "internalType": "address",
              "name": "",
              "type": "address"
            }
          ],
          "stateMutability": "view",
          "type": "function"
        },
        {
          "inputs": [
            {
              "internalType": "bool[]",
              "name": "board",
              "type": "bool[]"
            },
            {
              "internalType": "bool[]",
              "name": "hits",
              "type": "bool[]"
            },
            {
              "internalType": "uint16",
              "name": "position",
              "type": "uint16"
            }
          ],
          "name": "isSinkHit",
          "outputs": [
            {
              "internalType": "bool",
              "name": "",
              "type": "bool"
            }
          ],
          "stateMutability": "pure",
          "type": "function"
        },
        {
          "inputs": [
            {
              "internalType": "uint256",
              "name": "roomSecret",
              "type": "uint256"
            },
            {
              "internalType": "uint256",
              "name": "randomnessCommitment",
              "type": "uint256"
            }
          ],
          "name": "joinRoom",
          "outputs": [],
          "stateMutability": "payable",
          "type": "function"
        },
        {
          "inputs": [],
          "name": "owner",
          "outputs": [
            {
              "internalType": "address",
              "name": "",
              "type": "address"
            }
          ],
          "stateMutability": "view",
          "type": "function"
        },
        {
          "inputs": [
            {
              "internalType": "Chainship.RoomId",
              "name": "roomId",
              "type": "uint256"
            },
            {
              "internalType": "uint256",
              "name": "boardRandomness",
              "type": "uint256"
            },
            {
              "internalType": "bool[]",
              "name": "board",
              "type": "bool[]"
            },
            {
              "components": [
                {
                  "internalType": "uint8",
                  "name": "x",
                  "type": "uint8"
                },
                {
                  "internalType": "uint8",
                  "name": "y",
                  "type": "uint8"
                }
              ],
              "internalType": "struct Chainship.Position[]",
              "name": "enemyShots",
              "type": "tuple[]"
            },
            {
              "internalType": "enum Chainship.Answer[]",
              "name": "myAnswers",
              "type": "uint8[]"
            }
          ],
          "name": "proveHonesty",
          "outputs": [],
          "stateMutability": "nonpayable",
          "type": "function"
        },
        {
          "inputs": [
            {
              "internalType": "Chainship.RoomId",
              "name": "roomId",
              "type": "uint256"
            },
            {
              "internalType": "uint256",
              "name": "boardRandomness",
              "type": "uint256"
            },
            {
              "internalType": "bool[]",
              "name": "board",
              "type": "bool[]"
            },
            {
              "components": [
                {
                  "internalType": "uint8",
                  "name": "x",
                  "type": "uint8"
                },
                {
                  "internalType": "uint8",
                  "name": "y",
                  "type": "uint8"
                }
              ],
              "internalType": "struct Chainship.Position[]",
              "name": "enemyShots",
              "type": "tuple[]"
            },
            {
              "internalType": "enum Chainship.Answer[]",
              "name": "myAnswers",
              "type": "uint8[]"
            },
            {
              "components": [
                {
                  "internalType": "uint8",
                  "name": "x",
                  "type": "uint8"
                },
                {
                  "internalType": "uint8",
                  "name": "y",
                  "type": "uint8"
                }
              ],
              "internalType": "struct Chainship.Position[]",
              "name": "myShots",
              "type": "tuple[]"
            },
            {
              "internalType": "enum Chainship.Answer[]",
              "name": "enemyAnswers",
              "type": "uint8[]"
            }
          ],
          "name": "proveVictory",
          "outputs": [],
          "stateMutability": "nonpayable",
          "type": "function"
        },
        {
          "inputs": [],
          "name": "renounceOwnership",
          "outputs": [],
          "stateMutability": "nonpayable",
          "type": "function"
        },
        {
          "inputs": [
            {
              "internalType": "uint256",
              "name": "roomSecret",
              "type": "uint256"
            }
          ],
          "name": "roomSecretToId",
          "outputs": [
            {
              "internalType": "Chainship.RoomId",
              "name": "",
              "type": "uint256"
            }
          ],
          "stateMutability": "view",
          "type": "function"
        },
        {
          "inputs": [
            {
              "internalType": "Chainship.RoomId",
              "name": "",
              "type": "uint256"
            }
          ],
          "name": "rooms",
          "outputs": [
            {
              "internalType": "enum Chainship.RoomStatus",
              "name": "status",
              "type": "uint8"
            },
            {
              "internalType": "uint256",
              "name": "entryFee",
              "type": "uint256"
            },
            {
              "internalType": "uint8",
              "name": "whoseTurn",
              "type": "uint8"
            },
            {
              "internalType": "uint256",
              "name": "answerDeadline",
              "type": "uint256"
            }
          ],
          "stateMutability": "view",
          "type": "function"
        },
        {
          "inputs": [
            {
              "internalType": "Chainship.RoomId",
              "name": "roomId",
              "type": "uint256"
            },
            {
              "components": [
                {
                  "internalType": "uint8",
                  "name": "x",
                  "type": "uint8"
                },
                {
                  "internalType": "uint8",
                  "name": "y",
                  "type": "uint8"
                }
              ],
              "internalType": "struct Chainship.Position",
              "name": "position",
              "type": "tuple"
            }
          ],
          "name": "shoot",
          "outputs": [],
          "stateMutability": "nonpayable",
          "type": "function"
        },
        {
          "inputs": [
            {
              "internalType": "Chainship.RoomId",
              "name": "roomId",
              "type": "uint256"
            },
            {
              "internalType": "uint256",
              "name": "boardCommitment",
              "type": "uint256"
            },
            {
              "internalType": "uint256",
              "name": "randomnessDecommitment",
              "type": "uint256"
            }
          ],
          "name": "submitBoard",
          "outputs": [],
          "stateMutability": "nonpayable",
          "type": "function"
        },
        {
          "inputs": [
            {
              "internalType": "address",
              "name": "newOwner",
              "type": "address"
            }
          ],
          "name": "transferOwnership",
          "outputs": [],
          "stateMutability": "nonpayable",
          "type": "function"
        },
        {
          "inputs": [
            {
              "internalType": "bool[]",
              "name": "board",
              "type": "bool[]"
            },
            {
              "components": [
                {
                  "internalType": "uint8",
                  "name": "x",
                  "type": "uint8"
                },
                {
                  "internalType": "uint8",
                  "name": "y",
                  "type": "uint8"
                }
              ],
              "internalType": "struct Chainship.Position[]",
              "name": "shots",
              "type": "tuple[]"
            },
            {
              "internalType": "enum Chainship.Answer[]",
              "name": "answers",
              "type": "uint8[]"
            }
          ],
          "name": "verifyAnswerCorrectness",
          "outputs": [],
          "stateMutability": "pure",
          "type": "function"
        },
        {
          "inputs": [
            {
              "internalType": "uint256",
              "name": "boardRandomness",
              "type": "uint256"
            },
            {
              "internalType": "bool[]",
              "name": "board",
              "type": "bool[]"
            }
          ],
          "name": "verifyBoard",
          "outputs": [
            {
              "internalType": "uint256",
              "name": "",
              "type": "uint256"
            }
          ],
          "stateMutability": "view",
          "type": "function"
        },
        {
          "inputs": [
            {
              "internalType": "uint256",
              "name": "amount",
              "type": "uint256"
            }
          ],
          "name": "withdrawFunds",
          "outputs": [],
          "stateMutability": "nonpayable",
          "type": "function"
        }
      ],
      "evm": {
        "bytecode": {
          "linkReferences": {},
          "object": "60c0346101295730156101135760008054306001600160a01b0319821681178355916001600160a01b03909116907f8be0079c531659141344cd1fd0a4f28419497f9722a3daafe3b4186f6b6457e09080a36001805560a081016001600160401b038111828210176100fd57604052600081526001602082015260026040820152600160608201526001608082015260009060005b600581106100d957826002556000608052600a60a0526040516134f9908161012f82396080518181816114180152611e79015260a0518181816118b00152612c270152f35b9091602060019160ff8551169060ff8560031b92831b921b19161793019101610094565b634e487b7160e01b600052604160045260246000fd5b631e4fbdf760e01b600052600060045260246000fd5b600080fdfe60c0604052600436101561001257600080fd5b60003560e01c80618da014611b3257806307ecba7114611a975780630a1c87a9146118d35780630b42943214611898578063155dd5ee146117fb5780631bae0ac8146117a05780632ad5e4d61461159357806332a608b614611513578063625904c8146114f55780636790d2b51461143b5780636cd6eabf146114005780636e209f2c14611249578063715018a6146111e357806375debaad14610d5c5780638da5cb5b14610d35578063a616b06914610d19578063ab196acd14610ba7578063b9bafb1014610b6d578063ba84838214610b51578063c599d89b146108d4578063ce9b4321146108ae578063d38f466314610669578063d4d91f10146102db578063dc4a3e95146102bf578063de830743146101ef5763f2fde38b1461013857600080fd5b346101ea5760203660031901126101ea576004356001600160a01b0381168091036101ea57610165612c91565b80156101bb576001600160a01b036000548273ffffffffffffffffffffffffffffffffffffffff19821617600055167f8be0079c531659141344cd1fd0a4f28419497f9722a3daafe3b4186f6b6457e0600080a3005b7f1e4fbdf700000000000000000000000000000000000000000000000000000000600052600060045260246000fd5b600080fd5b346101ea5760603660031901126101ea5760043567ffffffffffffffff81116101ea57610220903690600401611b71565b9060243567ffffffffffffffff81116101ea57366023820112156101ea5780600401359061024d82611c46565b9161025b6040519384611c0e565b8083526024602084019160051b830101913683116101ea57602401905b8282106102a7575050506044359061ffff821682036101ea5760209361029d936132e8565b6040519015158152f35b602080916102b484611c5e565b815201910190610278565b346101ea5760003660031901126101ea576020604051600a8152f35b346101ea5760603660031901126101ea5760443560043560243580156105ff5781600052600360205260406000209060ff82541660078110156105e9576002036105a557608061032a83611cdc565b01514311610561576103443361033f84611cdc565b612b81565b9360028301946103548187611e36565b50600181019081546104f757846005925501908154604051602081019085825260208152610383604082611c0e565b5190200361048e576103c56103bf6001927f40952b52f743bbd15dd7c9268b98cb4459193027cdb8d6a3d499cb50d7f173f39560609555611e25565b88611e36565b500154151592604051908682523360208301526040820152a16103e457005b61046b817ffadb9547847a0c2c31f4c02590545e318d33d7aae99071caecf3fa4ce3cd7dca94610466600160076001600160a01b03960154600d8501546040519060208201928352604082015260408152610440606082611c0e565b5190201692600e810160ff851660ff19825416179055600360ff19825416178155612c25565b611e36565b50546040805193845291166001600160a01b03166020830152819081015b0390a1005b608460405162461bcd60e51b8152602060048201526024808201527f52616e646f6d6e65737320636f6d6d69746d656e7420646f6573206e6f74206d60448201527f61746368000000000000000000000000000000000000000000000000000000006064820152fd5b608460405162461bcd60e51b815260206004820152602560248201527f596f75206861766520616c7265616479207375626d697474656420796f75722060448201527f626f6172640000000000000000000000000000000000000000000000000000006064820152fd5b606460405162461bcd60e51b815260206004820152601360248201527f446561646c696e652068617320706173736564000000000000000000000000006044820152fd5b606460405162461bcd60e51b815260206004820152601d60248201527f526f6f6d206973206e6f7420696e207468652066756c6c2073746174650000006044820152fd5b634e487b7160e01b600052602160045260246000fd5b608460405162461bcd60e51b815260206004820152602160248201527f426f61726420636f6d6d69746d656e74206d757374206265206e6f6e2d7a657260448201527f6f000000000000000000000000000000000000000000000000000000000000006064820152fd5b346101ea5760a03660031901126101ea5760043560443567ffffffffffffffff81116101ea5761069d903690600401611b71565b9160643567ffffffffffffffff81116101ea576106be903690600401611baf565b60849491943567ffffffffffffffff81116101ea576106e1903690600401611b71565b918460005260036020526040600020966106fe3361033f8a611cdc565b9060ff89541660078110156105e957600503610844576001946001600160a01b03946107669461074a93898c8e61074060ff600e8301541660ff8b1614611dda565b886024359161319a565b875460ff1916600617885561075d612c56565b60028801611e36565b505416940154908160011b916001600160ff1b038116810361082e5761078b90611f1e565b918281039281841161082e5786849160009314610824575b600092839283928392f115610818577fee97096f32eed49908b904623ae7ba7af58c121e15fe6e7f31ac379fb7ca1a9860407f0b2140d601ef56c537167df622738f7062c329fd471b1f729edfa570296a3c8f966104899482519182526020820152a160018055604051938493339085611ec7565b6040513d6000823e3d90fd5b6108fc92506107a3565b634e487b7160e01b600052601160045260246000fd5b608460405162461bcd60e51b815260206004820152602b60248201527f526f6f6d206973206e6f7420696e2074686520646973686f6e6573747920636c60448201527f61696d65642073746174650000000000000000000000000000000000000000006064820152fd5b346101ea5760203660031901126101ea5760206108cc600435611f1e565b604051908152f35b346101ea5760203660031901126101ea576004358060005260036020526040600020906109043361033f84611cdc565b61090d81611e25565b600f840154431115610b0d5760ff84541660078110156105e957600281149182610af2575b600382149160008315610ae4575b8315610ad1575b505081610abd575b508115610ab5575b5015610a4b576001600160a01b03610987600192600660ff1987541617865561097e612c56565b60028601611e36565b505416920154908160011b916001600160ff1b038116810361082e576109ac90611f1e565b918281039281841161082e5784849160009314610a41575b600092839283928392f115610818577fee97096f32eed49908b904623ae7ba7af58c121e15fe6e7f31ac379fb7ca1a9860407f294a1cc2e139b7d44dc4130a0e042162f4d48f289fe4e0a40ca50726a9d01ebc946104899482519182526020820152a1600180556040805191825233602083015290918291820190565b6108fc92506109c4565b608460405162461bcd60e51b815260206004820152602160248201527f4974206973206e6f7420656e656d792773207475726e20746f20726573706f6e60448201527f64000000000000000000000000000000000000000000000000000000000000006064820152fd5b905084610957565b905060ff80600e870154169116148561094f565b909192506105e957600514908680610947565b506004811492506000610940565b91506001610b038360028801611e36565b5001541591610932565b606460405162461bcd60e51b815260206004820152601b60248201527f446561646c696e6520686173206e6f74207061737365642079657400000000006044820152fd5b346101ea5760003660031901126101ea57602060405160058152f35b346101ea5760203660031901126101ea5760043560058110156101ea5760ff610b97602092611be0565b90549060031b1c16604051908152f35b60403660031901126101ea57600435610bbf34611f1e565b9081341115610caf5780600052600360205260406000209060ff82541660078110156105e957610c6b577fcf1eefef99365c71f66cf7d03c056f6d828c32f1023712660c18ee3cd8585cb492608092600160ff19825416178155346001820155600281016001600160a01b03331673ffffffffffffffffffffffffffffffffffffffff1982541617905560076024359101556040519182523360208301523460408301526060820152a1005b606460405162461bcd60e51b815260206004820152601360248201527f526f6f6d20616c726561647920657869737473000000000000000000000000006044820152fd5b608460405162461bcd60e51b815260206004820152602960248201527f456e74727920666565206d7573742062652067726561746572207468616e206360448201527f6f6d6d697373696f6e00000000000000000000000000000000000000000000006064820152fd5b346101ea5760003660031901126101ea57602060405160118152f35b346101ea5760003660031901126101ea5760206001600160a01b0360005416604051908152f35b346101ea5760e03660031901126101ea5760043560443567ffffffffffffffff81116101ea57610d90903690600401611b71565b9160643567ffffffffffffffff81116101ea57610db1903690600401611baf565b92909160843567ffffffffffffffff81116101ea57610dd4903690600401611b71565b9260a43567ffffffffffffffff81116101ea57610df5903690600401611baf565b939060c43567ffffffffffffffff81116101ea57610e17903690600401611b71565b979096836000526003602052604060002095610e363361033f89611cdc565b9a60ff8854169360078510156105e9578d888e610e586003610e629914611c6b565b602435908c61319a565b6000968796610e716064611f81565b96885b81811061110557505050505060009560005b855161ffff821690811015610ec857610e9f9087612008565b51610eb3575b610eae90611eb4565b610e86565b96610ec0610eae91611eb4565b979050610ea5565b505088908887601161ffff8b160361109b5760028701926003610eeb8486611e36565b50015403611057576004610f07610f0184611e25565b85611e36565b50015403610fed57610f316001600160a01b0391600193600660ff198a5416178955610466612c56565b505416940154908160011b916001600160ff1b038116810361082e57610f5690611f1e565b918281039281841161082e5786849160009314610fe3575b600092839283928392f115610818577fee97096f32eed49908b904623ae7ba7af58c121e15fe6e7f31ac379fb7ca1a9860407f53fc172dda2ed0176623bbca3c936bb2d85537947a5e23dd077b579ae1bf155c966104899482519182526020820152a160018055604051938493339085611ec7565b6108fc9250610f6e565b608460405162461bcd60e51b815260206004820152602160248201527f416e737765727320646f6e2774206d6174636820656e656d7920616e7377657260448201527f73000000000000000000000000000000000000000000000000000000000000006064820152fd5b606460405162461bcd60e51b815260206004820152601a60248201527f53686f747320646f6e2774206d61746368206d792073686f74730000000000006044820152fd5b608460405162461bcd60e51b815260206004820152603760248201527f4e756d626572206f662073686970206869747320646f6573206e6f74206d617460448201527f6368206e756d626572206f6620736869702070617274730000000000000000006064820152fd5b6001819b9a9b01998a821161082e5761112a908b61112484868a612dbc565b91613122565b9a60009a611139838589612dbc565b9061114584888861201c565b359260038410156111df579061115c939291612d2c565b9961119d61117e60ff61117861117386888c612dbc565b612cd3565b16611fb3565b60ff611196602061119087898d612dbc565b01612cd3565b1690611ff2565b906111a983878761201c565b359060038210156111dc575060019291906111c6575b5001610e74565b6111d561ffff8492168c612008565b528e6111bf565b80fd5b8d80fd5b346101ea5760003660031901126101ea576111fc612c91565b60006001600160a01b03815473ffffffffffffffffffffffffffffffffffffffff1981168355167f8be0079c531659141344cd1fd0a4f28419497f9722a3daafe3b4186f6b6457e08280a3005b346101ea5760603660031901126101ea5760043560403660231901126101ea57806000526003602052604060002060ff81541660078110156105e95760036112919114611c6b565b61129e3361033f83611cdc565b6112c1600e8301916112b860ff84541660ff831614611dda565b60028401611e36565b50600281019283549261ffff6112d8818616611eb4565b16809461ffff19161785556003830193845490600060243560ff8116908181036113fc57600a8210806113df575b61130f90612ce1565b5060443560ff8116928382036111dc5750946001600160a01b039460c09a98946113b3947fb72b4b2c796809161dbc42d5a7e6e0c75042fe6f953c2d35187a16cef28848bf9d9b999461ffff995060405192602084019485526040840152606083015260808201526080815261138660a082611c0e565b5190208755600460ff1983541617825560ff6113a481835416611e25565b1660ff19825416179055612c25565b5416925416905491604051938452602084015260408301526113d760608301611e4a565b60a0820152a1005b5060443560ff8116908181036113f85750600a11611306565b8480fd5b8280fd5b346101ea5760003660031901126101ea5760206040517f00000000000000000000000000000000000000000000000000000000000000008152f35b346101ea5760203660031901126101ea5760043560005260036020526114646040600020611cdc565b805160078110156105e957156114b157805160078110156105e957816001600160a01b03604060206060950151920151515116906114a56040518094611ba2565b60208301526040820152f35b606460405162461bcd60e51b815260206004820152601360248201527f526f6f6d20646f6573206e6f74206578697374000000000000000000000000006044820152fd5b346101ea5760203660031901126101ea5760206108cc600435611e6f565b346101ea5760603660031901126101ea5760043567ffffffffffffffff81116101ea57611544903690600401611b71565b60243567ffffffffffffffff81116101ea57611564903690600401611baf565b604435939167ffffffffffffffff85116101ea57611589611591953690600401611b71565b949093612dcc565b005b346101ea5760803660031901126101ea5760043560403660231901126101ea576064359060038210156101ea57806000526003602052604060002060ff81541660078110156105e957600403611736576115f03361033f83611cdc565b926116126002830161160c6116058783611e36565b5096611e25565b90611e36565b509360048101906002825496019361ffff8554169660009760243560ff81169081810361173257600a821080611715575b61164c90612ce1565b506044359060ff821691828103611711579360e09a99989796936116e09361ffff97937ffd7d6dcab3c23e806913769df4816e3d1fb4edb3917bf3f256cd1365cbeddc079e6001600160a01b0398505060405192602084019485526040840152606083015260808201528860a082015260a081526116cb60c082611c0e565b5190208655805460ff19166003178155612c25565b54169354169054926040519485526020850152604084015261170460608401611e4a565b60a083015260c0820152a1005b8b80fd5b5060443560ff81169081810361172e5750600a11611643565b8c80fd5b8a80fd5b608460405162461bcd60e51b815260206004820152602260248201527f526f6f6d206973206e6f7420696e2074686520616e73776572696e672073746160448201527f74650000000000000000000000000000000000000000000000000000000000006064820152fd5b346101ea5760203660031901126101ea5760043560005260036020526080604060002060ff81541690600181015490600f60ff600e83015416910154916117ea6040518095611ba2565b602084015260408301526060820152f35b346101ea5760203660031901126101ea57600435611817612c56565b61181f612c91565b804710611854576000808080936001600160a01b0382541682821561184b575bf1156108185760018055005b506108fc61183f565b606460405162461bcd60e51b815260206004820152601060248201527f4e6f7420656e6f7567682066756e6473000000000000000000000000000000006044820152fd5b346101ea5760003660031901126101ea5760206040517f00000000000000000000000000000000000000000000000000000000000000008152f35b60403660031901126101ea576118ea600435611e6f565b806000526003602052604060002060ff81541660078110156105e957600103611a5357600181015434036119e9576001600160a01b0360028201541633146119a55760088101805473ffffffffffffffffffffffffffffffffffffffff191633179055602435600d820155805460ff191660021781557f7f3a14b18fc64242e1d87bbda3d879ff601bf57224f7daeaf8bf4658bb84da29916104899161198f90612c25565b6040805191825233602083015290918291820190565b606460405162461bcd60e51b815260206004820152601d60248201527f596f752063616e6e6f74206a6f696e20796f7572206f776e20726f6f6d0000006044820152fd5b608460405162461bcd60e51b815260206004820152602d60248201527f456e74727920666565206d75737420626520657175616c20746f20746865207260448201527f6f6f6d20656e74727920666565000000000000000000000000000000000000006064820152fd5b606460405162461bcd60e51b815260206004820152602060248201527f526f6f6d206973206e6f7420696e2074686520637265617465642073746174656044820152fd5b346101ea5760203660031901126101ea57600435806000526003602052604060002060ff8154169160078310156105e95761198f61048992611afc60037f674b1399cdd04131b1014fb0ad914c308eb69bac11c79cf09e05ce410863ce2e9614611c6b565b611b093361033f83611cdc565b60ff6113a4600e840192611b238385541684831614611dda565b60058319865416178555611e25565b346101ea5760403660031901126101ea5760243567ffffffffffffffff81116101ea576108cc611b686020923690600401611b71565b90600435612389565b9181601f840112156101ea5782359167ffffffffffffffff83116101ea576020808501948460051b0101116101ea57565b9060078210156105e95752565b9181601f840112156101ea5782359167ffffffffffffffff83116101ea576020808501948460061b0101116101ea57565b906005821015611bf857601f8260051c600201921690565b634e487b7160e01b600052603260045260246000fd5b90601f8019910116810190811067ffffffffffffffff821117611c3057604052565b634e487b7160e01b600052604160045260246000fd5b67ffffffffffffffff8111611c305760051b60200190565b359081151582036101ea57565b15611c7257565b608460405162461bcd60e51b815260206004820152602160248201527f526f6f6d206973206e6f7420696e207468652073686f6f74696e67207374617460448201527f65000000000000000000000000000000000000000000000000000000000000006064820152fd5b9060405160a0810181811067ffffffffffffffff821117611c3057604052809260ff81541660078110156105e9578252600181015460208301526040516040810181811067ffffffffffffffff821117611c3057604052600282016000825b60028210611d6557505050608091600f91604085015260ff600e8201541660608501520154910152565b60405160c0810181811067ffffffffffffffff821117611c30576001926006926020926040526001600160a01b038754168152848701548382015261ffff60028801541660408201526003870154606082015260048701546080820152600587015460a0820152815201930191019091611d3b565b15611de157565b606460405162461bcd60e51b815260206004820152601360248201527f4974206973206e6f7420796f7572207475726e000000000000000000000000006044820152fd5b60ff166001039060ff821161082e57565b906002811015611bf8576006020190600090565b60243560ff81168091036101ea5781526044359060ff82168092036101ea5760200152565b60405160208101917f00000000000000000000000000000000000000000000000000000000000000008352604082015260408152611eae606082611c0e565b51902090565b61ffff1661ffff811461082e5760010190565b9081526001600160a01b0391909116602082015260606040820181905281018390526080019160005b818110611efd5750505090565b909192602080600192611f0f87611c5e565b15158152019401929101611ef0565b15611f2857600090565b606460405162461bcd60e51b815260206004820152602060248201527f456e74727920666565206d7573742062652067726561746572207468616e20306044820152fd5b60ff600a9116029060ff821691820361082e57565b90611f8b82611c46565b611f986040519182611c0e565b8281528092611fa9601f1991611c46565b0190602036910137565b61ffff600a9116029061ffff821691820361082e57565b61ffff60019116019061ffff821161082e57565b61ffff600a9116019061ffff821161082e57565b9061ffff8091169116019061ffff821161082e57565b8051821015611bf85760209160051b010190565b9190811015611bf85760051b0190565b3580151581036101ea5790565b60ff60019116019060ff821161082e57565b9060ff8091169116019060ff821161082e57565b61ffff6009199116019061ffff821161082e57565b61ffff6000199116019061ffff821161082e57565b1561209057565b608460405162461bcd60e51b815260206004820152602160248201527f496e76616c6964207368697020706c6163656d656e742028746f702d6c65667460448201527f29000000000000000000000000000000000000000000000000000000000000006064820152fd5b1561210157565b606460405162461bcd60e51b815260206004820152601d60248201527f496e76616c6964207368697020706c6163656d656e7420286c656674290000006044820152fd5b1561214c57565b608460405162461bcd60e51b8152602060048201526024808201527f496e76616c6964207368697020706c6163656d656e742028626f74746f6d2d6c60448201527f65667429000000000000000000000000000000000000000000000000000000006064820152fd5b156121bc57565b606460405162461bcd60e51b815260206004820152601c60248201527f496e76616c6964207368697020706c6163656d656e742028746f7029000000006044820152fd5b1561220757565b606460405162461bcd60e51b815260206004820152601f60248201527f496e76616c6964207368697020706c6163656d656e742028626f74746f6d29006044820152fd5b60ff1660ff811461082e5760010190565b1561226357565b608460405162461bcd60e51b815260206004820152602260248201527f496e76616c6964207368697020706c6163656d656e742028746f702d7269676860448201527f74290000000000000000000000000000000000000000000000000000000000006064820152fd5b156122d457565b606460405162461bcd60e51b815260206004820152601e60248201527f496e76616c6964207368697020706c6163656d656e74202872696768742900006044820152fd5b1561231f57565b608460405162461bcd60e51b815260206004820152602560248201527f496e76616c6964207368697020706c6163656d656e742028626f74746f6d2d7260448201527f69676874290000000000000000000000000000000000000000000000000000006064820152fd5b60a091909152608082905260649160631901612b3e579190604051916123b060c084611c0e565b6005835260a03660208501376123c7608051611f81565b6000935b600a60ff86161015612a595760009392935b60ff811693600a851015612a4657612400856123fb60ff8a16611fb3565b611ff2565b9761ffff89166124108187612008565b5115801590612a2d575b612a1d5761242a60019187612008565b52600a60ff61243885612039565b16109081612a03575b600a60ff61244e8b612039565b161091826129e9575b8281806129e2575b61299f57159081612996575b5061298d575b6001911561275f578960ff8a166126da575b506009871497961596915b8a60805161ffff6124aa60ff6124a386611f6c565b1684611ff2565b161090816126ba575b5015612562578060016124db61ffff6124d48f60ff61119661250598611f6c565b168a612008565b526124ee898d8b15612544575b506120fa565b6125008a8d8c1561250a575b506122cd565b61224b565b61248e565b61253d915061ffff61252c61252161253893611fca565b60ff61119688611f6c565b1660805160a05161201c565b61202c565b158d6124fa565b61255b915061ffff61252c61252161253893612074565b158d6124e8565b919690999760ff9398600a85612578868e61204b565b1610612612575b5050505b16600581116125cf576000190160ff811161082e5760ff918260019216836125c06125b9826125b2858a612008565b511661224b565b9287612008565b911690525b01169392936123dd565b8560405162461bcd60e51b815260206004820152601760248201527f53686970206c656e67746820697320746f6f206c6f6e670000000000000000006044820152fd5b612659928015612689575b61262690612145565b61264c61264661253861ffff61252c8961263f8a611f6c565b1686611ff2565b15612200565b8115612661575b50612318565b38808061257f565b612682915061ffff61252c61267d612538938861119689611f6c565b611fca565b1538612653565b506126266126b261253861ffff61252c6126ad8a6126a68b611f6c565b1687611ff2565b612074565b15905061261d565b6126d4915061ffff61252c6125389260ff61119687611f6c565b8b6124b3565b61270161253861ffff61252c612707948c158015612740575b6126fc90612089565b61205f565b156121b5565b61271c600988148b8115612722575b5061225c565b89612483565b612739915061ffff61252c6126fc61253893611fca565b158b612716565b506126fc6127576125388561252c6126ad8661205f565b1590506126f3565b9091989697956128ff575b600997915b60805161ffff61278260ff84168b611ff2565b1610806128e3575b15612821578060016127af61ffff6127a860ff6127e096168d611ff2565b1689612008565b5260ff8816801590612803575b6127c5906121b5565b60ff888116908b1681811491036127e5575b61250090612200565b61276f565b506125006127fb61253861ffff61252c8d611fde565b1590506127d7565b506127c561281961253861ffff61252c8d61205f565b1590506127bc565b90989660ff929698600a84612836858861204b565b1610612844575b5050612583565b612893918a85168015906128bf575b61285c9061225c565b8484169061287c61287661253861ffff61252c8686611ff2565b156122cd565b8b8616928616838114930361289a575b5050612318565b388061283d565b6128b7925061252c6128b26125389361ffff93611ff2565b611fde565b15388061288c565b5061285c6128db61253861ffff61252c6126fc8a8a1687611ff2565b159050612853565b506128fa61253861ffff61252c60ff85168c611ff2565b61278a565b60ff861615801561296c575b61291490612089565b61292f61292961253861ffff61252c8b612074565b156120fa565b60ff8616600914801561294b575b61294690612145565b61276a565b5061294661296461253861ffff61252c6126ad8c611fde565b15905061293d565b5061291461298561253861ffff61252c6126ad8c61205f565b15905061290b565b60019150612471565b9050153861246b565b8460405162461bcd60e51b815260206004820152602060248201527f496e76616c6964207368697020706c6163656d656e7420284c2d7368617065296044820152fd5b508061245f565b91506129fd61253861ffff61252c8d611fde565b91612457565b9050612a1761253861ffff61252c8c611fca565b90612441565b509750949350600160ff916125c5565b50612a406125388260805160a05161201c565b1561241a565b600190960160ff16959493506123cb9050565b91949293505060005b60ff81166005811015612ae357612a7b60ff9184612008565b511660ff612a8883611be0565b90549060031b1c1603612aa05760010160ff16612a62565b8360405162461bcd60e51b815260206004820152601260248201527f496e76616c6964207368697020636f756e7400000000000000000000000000006044820152fd5b505050905060405160208101918252604081018160a0519160005b6080518110612b1b5750611eae925003601f198101835282611c0e565b9150602080600192612b2c86611c5e565b15158152019301910191839192612afe565b5060405162461bcd60e51b815260206004820152601260248201527f496e76616c696420626f6172642073697a6500000000000000000000000000006044820152fd5b604001805151516001600160a01b0392831692168203612ba2575050600090565b5160200151516001600160a01b031603612bbb57600190565b608460405162461bcd60e51b815260206004820152602160248201527f596f7520617265206e6f74206120706c6179657220696e207468697320726f6f60448201527f6d000000000000000000000000000000000000000000000000000000000000006064820152fd5b7f000000000000000000000000000000000000000000000000000000000000000043019081431161082e57600f0155565b600260015414612c67576002600155565b7f3ee5aeb50000000000000000000000000000000000000000000000000000000060005260046000fd5b6001600160a01b03600054163303612ca557565b7f118cdaa7000000000000000000000000000000000000000000000000000000006000523360045260246000fd5b3560ff811681036101ea5790565b15612ce857565b606460405162461bcd60e51b815260206004820152601060248201527f496e76616c696420706f736974696f6e000000000000000000000000000000006044820152fd5b929091600a60ff612d3c83612cd3565b161080612d9f575b612d4d90612ce1565b60ff612d66602082612d5e85612cd3565b169301612cd3565b169060038310156105e957604051936020850195865260408501526060840152608083015260a082015260a08152611eae60c082611c0e565b50612d4d600a60ff612db360208501612cd3565b16109050612d44565b9190811015611bf85760061b0190565b93959291959490946000966000966000968486036130b857612ded82611f81565b9260005b878110612e02575050505050505050565b6001819c9b9c019a8b821161082e57612e21908c611124848c87612dbc565b9b60009b612e30838b86612dbc565b90612e3c848b8b61201c565b359260038410156130b45790612e53939291612d2c565b9a612e5f828a85612dbc565b612e6890612cd3565b60ff16612e7490611fb3565b612e7f838b86612dbc565b602001612e8b90612cd3565b60ff16612e9791611ff2565b61ffff8116612ea781888861201c565b612eb09061202c565b612f45575050612ec182898961201c565b359060038210156111dc5750612edb576001905b01612df1565b608460405162461bcd60e51b815260206004820152602d60248201527f4d69737365642073686f742063616e6e6f7420626520616e737765726564206160448201527f7320686974206f722073756e6b000000000000000000000000000000000000006064820152fd5b612f4f8189612008565b5115613096575b906001612f66612f6f938a612008565b528787876132e8565b1561300557612f7f82898961201c565b359060038210156111dc575060011901612f9b57600190612ed5565b608460405162461bcd60e51b815260206004820152602a60248201527f536869702063616e6e6f742062652073756e6b20696620697420686173206e6f60448201527f74206265656e20686974000000000000000000000000000000000000000000006064820152fd5b61301082898961201c565b359060038210156111dc57506000190161302c57600190612ed5565b608460405162461bcd60e51b815260206004820152603060248201527f53686970206d7573742062652073756e6b20696620616c6c206974732070617260448201527f74732068617665206265656e20686974000000000000000000000000000000006064820152fd5b9b906001612f666130a9612f6f94611eb4565b9e9293505050612f56565b8e80fd5b608460405162461bcd60e51b815260206004820152602b60248201527f53686f747320616e6420616e7377657273206d7573742068617665207468652060448201527f73616d65206c656e6774680000000000000000000000000000000000000000006064820152fd5b91600a60ff61313083612cd3565b16108061317d575b61314190612ce1565b60ff613152602082612d5e85612cd3565b1690604051926020840194855260408401526060830152608082015260808152611eae60a082611c0e565b50613141600a60ff61319160208501612cd3565b16109050613138565b9794916131c785856002936131c28660ff8f989e9b98600e9b9e9b8291015416911614611dda565b612389565b98019760016131d6898b611e36565b500154036132a4576131e795612dcc565b50929060036131fe6131f885611e25565b84611e36565b500154036132605760049161321291611e36565b5001540361321c57565b606460405162461bcd60e51b815260206004820152601e60248201527f416e737765727320646f6e2774206d61746368206d7920616e737765727300006044820152fd5b606460405162461bcd60e51b815260206004820152601d60248201527f53686f747320646f6e2774206d6174636820656e656d792073686f74730000006044820152fd5b606460405162461bcd60e51b815260206004820152601f60248201527f426f61726420636f6d6d69746d656e7420646f6573206e6f74206d61746368006044820152fd5b91906132f384611fca565b61ffff81811690600a8206161515806134af575b15613334576133169084612008565b511561332a5761332590611eb4565b6132f3565b5050505050600090565b5050929161ffff83169384613421575b60649361335081611fde565b61ffff81168681108061340d575b1561338d5761336d9086612008565b51156133815761337c90611fde565b613350565b50505050505050600090565b50509194600a91945010156133a6575b50505050600190565b6133af9061205f565b61ffff81166133c261253882868861201c565b15613403576133d18184612008565b511561332a57600a116133f5576125386133ed6133c29261205f565b9150506133af565b505050505b3880808061339d565b50505050506133fa565b5061341c61253882868861201c565b61335e565b9392919061342e83612074565b600995905b61ffff81811690600a8206168814158061349b575b1561348e576134578186612008565b511561348157156134755761ffff16801561082e5760001901613433565b50909192939450613344565b5050505050505050600090565b5050909192939450613344565b506134aa61253882858761201c565b613448565b506134be61253882858861201c565b61330756fea2646970667358221220f91fd921e0b4f531f5cec747bbce358b075abb0c31c3ea388c99966c6da8162064736f6c634300081c0033",
          "opcodes": "PUSH1 0xC0 CALLVALUE PUSH2 0x129 JUMPI ADDRESS ISZERO PUSH2 0x113 JUMPI PUSH1 0x0 DUP1 SLOAD ADDRESS PUSH1 0x1 PUSH1 0x1 PUSH1 0xA0 SHL SUB NOT DUP3 AND DUP2 OR DUP4 SSTORE SWAP2 PUSH1 0x1 PUSH1 0x1 PUSH1 0xA0 SHL SUB SWAP1 SWAP2 AND SWAP1 PUSH32 0x8BE0079C531659141344CD1FD0A4F28419497F9722A3DAAFE3B4186F6B6457E0 SWAP1 DUP1 LOG3 PUSH1 0x1 DUP1 SSTORE PUSH1 0xA0 DUP2 ADD PUSH1 0x1 PUSH1 0x1 PUSH1 0x40 SHL SUB DUP2 GT DUP3 DUP3 LT OR PUSH2 0xFD JUMPI PUSH1 0x40 MSTORE PUSH1 0x0 DUP2 MSTORE PUSH1 0x1 PUSH1 0x20 DUP3 ADD MSTORE PUSH1 0x2 PUSH1 0x40 DUP3 ADD MSTORE PUSH1 0x1 PUSH1 0x60 DUP3 ADD MSTORE PUSH1 0x1 PUSH1 0x80 DUP3 ADD MSTORE PUSH1 0x0 SWAP1 PUSH1 0x0 JUMPDEST PUSH1 0x5 DUP2 LT PUSH2 0xD9 JUMPI DUP3 PUSH1 0x2 SSTORE PUSH1 0x0 PUSH1 0x80 MSTORE PUSH1 0xA PUSH1 0xA0 MSTORE PUSH1 0x40 MLOAD PUSH2 0x34F9 SWAP1 DUP2 PUSH2 0x12F DUP3 CODECOPY PUSH1 0x80 MLOAD DUP2 DUP2 DUP2 PUSH2 0x1418 ADD MSTORE PUSH2 0x1E79 ADD MSTORE PUSH1 0xA0 MLOAD DUP2 DUP2 DUP2 PUSH2 0x18B0 ADD MSTORE PUSH2 0x2C27 ADD MSTORE RETURN JUMPDEST SWAP1 SWAP2 PUSH1 0x20 PUSH1 0x1 SWAP2 PUSH1 0xFF DUP6 MLOAD AND SWAP1 PUSH1 0xFF DUP6 PUSH1 0x3 SHL SWAP3 DUP4 SHL SWAP3 SHL NOT AND OR SWAP4 ADD SWAP2 ADD PUSH2 0x94 JUMP JUMPDEST PUSH4 0x4E487B71 PUSH1 0xE0 SHL PUSH1 0x0 MSTORE PUSH1 0x41 PUSH1 0x4 MSTORE PUSH1 0x24 PUSH1 0x0 REVERT JUMPDEST PUSH4 0x1E4FBDF7 PUSH1 0xE0 SHL PUSH1 0x0 MSTORE PUSH1 0x0 PUSH1 0x4 MSTORE PUSH1 0x24 PUSH1 0x0 REVERT JUMPDEST PUSH1 0x0 DUP1 REVERT INVALID PUSH1 0xC0 PUSH1 0x40 MSTORE PUSH1 0x4 CALLDATASIZE LT ISZERO PUSH2 0x12 JUMPI PUSH1 0x0 DUP1 REVERT JUMPDEST PUSH1 0x0 CALLDATALOAD PUSH1 0xE0 SHR DUP1 PUSH2 0x8DA0 EQ PUSH2 0x1B32 JUMPI DUP1 PUSH4 0x7ECBA71 EQ PUSH2 0x1A97 JUMPI DUP1 PUSH4 0xA1C87A9 EQ PUSH2 0x18D3 JUMPI DUP1 PUSH4 0xB429432 EQ PUSH2 0x1898 JUMPI DUP1 PUSH4 0x155DD5EE EQ PUSH2 0x17FB JUMPI DUP1 PUSH4 0x1BAE0AC8 EQ PUSH2 0x17A0 JUMPI DUP1 PUSH4 0x2AD5E4D6 EQ PUSH2 0x1593 JUMPI DUP1 PUSH4 0x32A608B6 EQ PUSH2 0x1513 JUMPI DUP1 PUSH4 0x625904C8 EQ PUSH2 0x14F5 JUMPI DUP1 PUSH4 0x6790D2B5 EQ PUSH2 0x143B JUMPI DUP1 PUSH4 0x6CD6EABF EQ PUSH2 0x1400 JUMPI DUP1 PUSH4 0x6E209F2C EQ PUSH2 0x1249 JUMPI DUP1 PUSH4 0x715018A6 EQ PUSH2 0x11E3 JUMPI DUP1 PUSH4 0x75DEBAAD EQ PUSH2 0xD5C JUMPI DUP1 PUSH4 0x8DA5CB5B EQ PUSH2 0xD35 JUMPI DUP1 PUSH4 0xA616B069 EQ PUSH2 0xD19 JUMPI DUP1 PUSH4 0xAB196ACD EQ PUSH2 0xBA7 JUMPI DUP1 PUSH4 0xB9BAFB10 EQ PUSH2 0xB6D JUMPI DUP1 PUSH4 0xBA848382 EQ PUSH2 0xB51 JUMPI DUP1 PUSH4 0xC599D89B EQ PUSH2 0x8D4 JUMPI DUP1 PUSH4 0xCE9B4321 EQ PUSH2 0x8AE JUMPI DUP1 PUSH4 0xD38F4663 EQ PUSH2 0x669 JUMPI DUP1 PUSH4 0xD4D91F10 EQ PUSH2 0x2DB JUMPI DUP1 PUSH4 0xDC4A3E95 EQ PUSH2 0x2BF JUMPI DUP1 PUSH4 0xDE830743 EQ PUSH2 0x1EF JUMPI PUSH4 0xF2FDE38B EQ PUSH2 0x138 JUMPI PUSH1 0x0 DUP1 REVERT JUMPDEST CALLVALUE PUSH2 0x1EA JUMPI PUSH1 0x20 CALLDATASIZE PUSH1 0x3 NOT ADD SLT PUSH2 0x1EA JUMPI PUSH1 0x4 CALLDATALOAD PUSH1 0x1 PUSH1 0x1 PUSH1 0xA0 SHL SUB DUP2 AND DUP1 SWAP2 SUB PUSH2 0x1EA JUMPI PUSH2 0x165 PUSH2 0x2C91 JUMP JUMPDEST DUP1 ISZERO PUSH2 0x1BB JUMPI PUSH1 0x1 PUSH1 0x1 PUSH1 0xA0 SHL SUB PUSH1 0x0 SLOAD DUP3 PUSH20 0xFFFFFFFFFFFFFFFFFFFFFFFFFFFFFFFFFFFFFFFF NOT DUP3 AND OR PUSH1 0x0 SSTORE AND PUSH32 0x8BE0079C531659141344CD1FD0A4F28419497F9722A3DAAFE3B4186F6B6457E0 PUSH1 0x0 DUP1 LOG3 STOP JUMPDEST PUSH32 0x1E4FBDF700000000000000000000000000000000000000000000000000000000 PUSH1 0x0 MSTORE PUSH1 0x0 PUSH1 0x4 MSTORE PUSH1 0x24 PUSH1 0x0 REVERT JUMPDEST PUSH1 0x0 DUP1 REVERT JUMPDEST CALLVALUE PUSH2 0x1EA JUMPI PUSH1 0x60 CALLDATASIZE PUSH1 0x3 NOT ADD SLT PUSH2 0x1EA JUMPI PUSH1 0x4 CALLDATALOAD PUSH8 0xFFFFFFFFFFFFFFFF DUP2 GT PUSH2 0x1EA JUMPI PUSH2 0x220 SWAP1 CALLDATASIZE SWAP1 PUSH1 0x4 ADD PUSH2 0x1B71 JUMP JUMPDEST SWAP1 PUSH1 0x24 CALLDATALOAD PUSH8 0xFFFFFFFFFFFFFFFF DUP2 GT PUSH2 0x1EA JUMPI CALLDATASIZE PUSH1 0x23 DUP3 ADD SLT ISZERO PUSH2 0x1EA JUMPI DUP1 PUSH1 0x4 ADD CALLDATALOAD SWAP1 PUSH2 0x24D DUP3 PUSH2 0x1C46 JUMP JUMPDEST SWAP2 PUSH2 0x25B PUSH1 0x40 MLOAD SWAP4 DUP5 PUSH2 0x1C0E JUMP JUMPDEST DUP1 DUP4 MSTORE PUSH1 0x24 PUSH1 0x20 DUP5 ADD SWAP2 PUSH1 0x5 SHL DUP4 ADD ADD SWAP2 CALLDATASIZE DUP4 GT PUSH2 0x1EA JUMPI PUSH1 0x24 ADD SWAP1 JUMPDEST DUP3 DUP3 LT PUSH2 0x2A7 JUMPI POP POP POP PUSH1 0x44 CALLDATALOAD SWAP1 PUSH2 0xFFFF DUP3 AND DUP3 SUB PUSH2 0x1EA JUMPI PUSH1 0x20 SWAP4 PUSH2 0x29D SWAP4 PUSH2 0x32E8 JUMP JUMPDEST PUSH1 0x40 MLOAD SWAP1 ISZERO ISZERO DUP2 MSTORE RETURN JUMPDEST PUSH1 0x20 DUP1 SWAP2 PUSH2 0x2B4 DUP5 PUSH2 0x1C5E JUMP JUMPDEST DUP2 MSTORE ADD SWAP2 ADD SWAP1 PUSH2 0x278 JUMP JUMPDEST CALLVALUE PUSH2 0x1EA JUMPI PUSH1 0x0 CALLDATASIZE PUSH1 0x3 NOT ADD SLT PUSH2 0x1EA JUMPI PUSH1 0x20 PUSH1 0x40 MLOAD PUSH1 0xA DUP2 MSTORE RETURN JUMPDEST CALLVALUE PUSH2 0x1EA JUMPI PUSH1 0x60 CALLDATASIZE PUSH1 0x3 NOT ADD SLT PUSH2 0x1EA JUMPI PUSH1 0x44 CALLDATALOAD PUSH1 0x4 CALLDATALOAD PUSH1 0x24 CALLDATALOAD DUP1 ISZERO PUSH2 0x5FF JUMPI DUP2 PUSH1 0x0 MSTORE PUSH1 0x3 PUSH1 0x20 MSTORE PUSH1 0x40 PUSH1 0x0 KECCAK256 SWAP1 PUSH1 0xFF DUP3 SLOAD AND PUSH1 0x7 DUP2 LT ISZERO PUSH2 0x5E9 JUMPI PUSH1 0x2 SUB PUSH2 0x5A5 JUMPI PUSH1 0x80 PUSH2 0x32A DUP4 PUSH2 0x1CDC JUMP JUMPDEST ADD MLOAD NUMBER GT PUSH2 0x561 JUMPI PUSH2 0x344 CALLER PUSH2 0x33F DUP5 PUSH2 0x1CDC JUMP JUMPDEST PUSH2 0x2B81 JUMP JUMPDEST SWAP4 PUSH1 0x2 DUP4 ADD SWAP5 PUSH2 0x354 DUP2 DUP8 PUSH2 0x1E36 JUMP JUMPDEST POP PUSH1 0x1 DUP2 ADD SWAP1 DUP2 SLOAD PUSH2 0x4F7 JUMPI DUP5 PUSH1 0x5 SWAP3 SSTORE ADD SWAP1 DUP2 SLOAD PUSH1 0x40 MLOAD PUSH1 0x20 DUP2 ADD SWAP1 DUP6 DUP3 MSTORE PUSH1 0x20 DUP2 MSTORE PUSH2 0x383 PUSH1 0x40 DUP3 PUSH2 0x1C0E JUMP JUMPDEST MLOAD SWAP1 KECCAK256 SUB PUSH2 0x48E JUMPI PUSH2 0x3C5 PUSH2 0x3BF PUSH1 0x1 SWAP3 PUSH32 0x40952B52F743BBD15DD7C9268B98CB4459193027CDB8D6A3D499CB50D7F173F3 SWAP6 PUSH1 0x60 SWAP6 SSTORE PUSH2 0x1E25 JUMP JUMPDEST DUP9 PUSH2 0x1E36 JUMP JUMPDEST POP ADD SLOAD ISZERO ISZERO SWAP3 PUSH1 0x40 MLOAD SWAP1 DUP7 DUP3 MSTORE CALLER PUSH1 0x20 DUP4 ADD MSTORE PUSH1 0x40 DUP3 ADD MSTORE LOG1 PUSH2 0x3E4 JUMPI STOP JUMPDEST PUSH2 0x46B DUP2 PUSH32 0xFADB9547847A0C2C31F4C02590545E318D33D7AAE99071CAECF3FA4CE3CD7DCA SWAP5 PUSH2 0x466 PUSH1 0x1 PUSH1 0x7 PUSH1 0x1 PUSH1 0x1 PUSH1 0xA0 SHL SUB SWAP7 ADD SLOAD PUSH1 0xD DUP6 ADD SLOAD PUSH1 0x40 MLOAD SWAP1 PUSH1 0x20 DUP3 ADD SWAP3 DUP4 MSTORE PUSH1 0x40 DUP3 ADD MSTORE PUSH1 0x40 DUP2 MSTORE PUSH2 0x440 PUSH1 0x60 DUP3 PUSH2 0x1C0E JUMP JUMPDEST MLOAD SWAP1 KECCAK256 AND SWAP3 PUSH1 0xE DUP2 ADD PUSH1 0xFF DUP6 AND PUSH1 0xFF NOT DUP3 SLOAD AND OR SWAP1 SSTORE PUSH1 0x3 PUSH1 0xFF NOT DUP3 SLOAD AND OR DUP2 SSTORE PUSH2 0x2C25 JUMP JUMPDEST PUSH2 0x1E36 JUMP JUMPDEST POP SLOAD PUSH1 0x40 DUP1 MLOAD SWAP4 DUP5 MSTORE SWAP2 AND PUSH1 0x1 PUSH1 0x1 PUSH1 0xA0 SHL SUB AND PUSH1 0x20 DUP4 ADD MSTORE DUP2 SWAP1 DUP2 ADD JUMPDEST SUB SWAP1 LOG1 STOP JUMPDEST PUSH1 0x84 PUSH1 0x40 MLOAD PUSH3 0x461BCD PUSH1 0xE5 SHL DUP2 MSTORE PUSH1 0x20 PUSH1 0x4 DUP3 ADD MSTORE PUSH1 0x24 DUP1 DUP3 ADD MSTORE PUSH32 0x52616E646F6D6E65737320636F6D6D69746D656E7420646F6573206E6F74206D PUSH1 0x44 DUP3 ADD MSTORE PUSH32 0x6174636800000000000000000000000000000000000000000000000000000000 PUSH1 0x64 DUP3 ADD MSTORE REVERT JUMPDEST PUSH1 0x84 PUSH1 0x40 MLOAD PUSH3 0x461BCD PUSH1 0xE5 SHL DUP2 MSTORE PUSH1 0x20 PUSH1 0x4 DUP3 ADD MSTORE PUSH1 0x25 PUSH1 0x24 DUP3 ADD MSTORE PUSH32 0x596F75206861766520616C7265616479207375626D697474656420796F757220 PUSH1 0x44 DUP3 ADD MSTORE PUSH32 0x626F617264000000000000000000000000000000000000000000000000000000 PUSH1 0x64 DUP3 ADD MSTORE REVERT JUMPDEST PUSH1 0x64 PUSH1 0x40 MLOAD PUSH3 0x461BCD PUSH1 0xE5 SHL DUP2 MSTORE PUSH1 0x20 PUSH1 0x4 DUP3 ADD MSTORE PUSH1 0x13 PUSH1 0x24 DUP3 ADD MSTORE PUSH32 0x446561646C696E65206861732070617373656400000000000000000000000000 PUSH1 0x44 DUP3 ADD MSTORE REVERT JUMPDEST PUSH1 0x64 PUSH1 0x40 MLOAD PUSH3 0x461BCD PUSH1 0xE5 SHL DUP2 MSTORE PUSH1 0x20 PUSH1 0x4 DUP3 ADD MSTORE PUSH1 0x1D PUSH1 0x24 DUP3 ADD MSTORE PUSH32 0x526F6F6D206973206E6F7420696E207468652066756C6C207374617465000000 PUSH1 0x44 DUP3 ADD MSTORE REVERT JUMPDEST PUSH4 0x4E487B71 PUSH1 0xE0 SHL PUSH1 0x0 MSTORE PUSH1 0x21 PUSH1 0x4 MSTORE PUSH1 0x24 PUSH1 0x0 REVERT JUMPDEST PUSH1 0x84 PUSH1 0x40 MLOAD PUSH3 0x461BCD PUSH1 0xE5 SHL DUP2 MSTORE PUSH1 0x20 PUSH1 0x4 DUP3 ADD MSTORE PUSH1 0x21 PUSH1 0x24 DUP3 ADD MSTORE PUSH32 0x426F61726420636F6D6D69746D656E74206D757374206265206E6F6E2D7A6572 PUSH1 0x44 DUP3 ADD MSTORE PUSH32 0x6F00000000000000000000000000000000000000000000000000000000000000 PUSH1 0x64 DUP3 ADD MSTORE REVERT JUMPDEST CALLVALUE PUSH2 0x1EA JUMPI PUSH1 0xA0 CALLDATASIZE PUSH1 0x3 NOT ADD SLT PUSH2 0x1EA JUMPI PUSH1 0x4 CALLDATALOAD PUSH1 0x44 CALLDATALOAD PUSH8 0xFFFFFFFFFFFFFFFF DUP2 GT PUSH2 0x1EA JUMPI PUSH2 0x69D SWAP1 CALLDATASIZE SWAP1 PUSH1 0x4 ADD PUSH2 0x1B71 JUMP JUMPDEST SWAP2 PUSH1 0x64 CALLDATALOAD PUSH8 0xFFFFFFFFFFFFFFFF DUP2 GT PUSH2 0x1EA JUMPI PUSH2 0x6BE SWAP1 CALLDATASIZE SWAP1 PUSH1 0x4 ADD PUSH2 0x1BAF JUMP JUMPDEST PUSH1 0x84 SWAP5 SWAP2 SWAP5 CALLDATALOAD PUSH8 0xFFFFFFFFFFFFFFFF DUP2 GT PUSH2 0x1EA JUMPI PUSH2 0x6E1 SWAP1 CALLDATASIZE SWAP1 PUSH1 0x4 ADD PUSH2 0x1B71 JUMP JUMPDEST SWAP2 DUP5 PUSH1 0x0 MSTORE PUSH1 0x3 PUSH1 0x20 MSTORE PUSH1 0x40 PUSH1 0x0 KECCAK256 SWAP7 PUSH2 0x6FE CALLER PUSH2 0x33F DUP11 PUSH2 0x1CDC JUMP JUMPDEST SWAP1 PUSH1 0xFF DUP10 SLOAD AND PUSH1 0x7 DUP2 LT ISZERO PUSH2 0x5E9 JUMPI PUSH1 0x5 SUB PUSH2 0x844 JUMPI PUSH1 0x1 SWAP5 PUSH1 0x1 PUSH1 0x1 PUSH1 0xA0 SHL SUB SWAP5 PUSH2 0x766 SWAP5 PUSH2 0x74A SWAP4 DUP10 DUP13 DUP15 PUSH2 0x740 PUSH1 0xFF PUSH1 0xE DUP4 ADD SLOAD AND PUSH1 0xFF DUP12 AND EQ PUSH2 0x1DDA JUMP JUMPDEST DUP9 PUSH1 0x24 CALLDATALOAD SWAP2 PUSH2 0x319A JUMP JUMPDEST DUP8 SLOAD PUSH1 0xFF NOT AND PUSH1 0x6 OR DUP9 SSTORE PUSH2 0x75D PUSH2 0x2C56 JUMP JUMPDEST PUSH1 0x2 DUP9 ADD PUSH2 0x1E36 JUMP JUMPDEST POP SLOAD AND SWAP5 ADD SLOAD SWAP1 DUP2 PUSH1 0x1 SHL SWAP2 PUSH1 0x1 PUSH1 0x1 PUSH1 0xFF SHL SUB DUP2 AND DUP2 SUB PUSH2 0x82E JUMPI PUSH2 0x78B SWAP1 PUSH2 0x1F1E JUMP JUMPDEST SWAP2 DUP3 DUP2 SUB SWAP3 DUP2 DUP5 GT PUSH2 0x82E JUMPI DUP7 DUP5 SWAP2 PUSH1 0x0 SWAP4 EQ PUSH2 0x824 JUMPI JUMPDEST PUSH1 0x0 SWAP3 DUP4 SWAP3 DUP4 SWAP3 DUP4 SWAP3 CALL ISZERO PUSH2 0x818 JUMPI PUSH32 0xEE97096F32EED49908B904623AE7BA7AF58C121E15FE6E7F31AC379FB7CA1A98 PUSH1 0x40 PUSH32 0xB2140D601EF56C537167DF622738F7062C329FD471B1F729EDFA570296A3C8F SWAP7 PUSH2 0x489 SWAP5 DUP3 MLOAD SWAP2 DUP3 MSTORE PUSH1 0x20 DUP3 ADD MSTORE LOG1 PUSH1 0x1 DUP1 SSTORE PUSH1 0x40 MLOAD SWAP4 DUP5 SWAP4 CALLER SWAP1 DUP6 PUSH2 0x1EC7 JUMP JUMPDEST PUSH1 0x40 MLOAD RETURNDATASIZE PUSH1 0x0 DUP3 RETURNDATACOPY RETURNDATASIZE SWAP1 REVERT JUMPDEST PUSH2 0x8FC SWAP3 POP PUSH2 0x7A3 JUMP JUMPDEST PUSH4 0x4E487B71 PUSH1 0xE0 SHL PUSH1 0x0 MSTORE PUSH1 0x11 PUSH1 0x4 MSTORE PUSH1 0x24 PUSH1 0x0 REVERT JUMPDEST PUSH1 0x84 PUSH1 0x40 MLOAD PUSH3 0x461BCD PUSH1 0xE5 SHL DUP2 MSTORE PUSH1 0x20 PUSH1 0x4 DUP3 ADD MSTORE PUSH1 0x2B PUSH1 0x24 DUP3 ADD MSTORE PUSH32 0x526F6F6D206973206E6F7420696E2074686520646973686F6E6573747920636C PUSH1 0x44 DUP3 ADD MSTORE PUSH32 0x61696D6564207374617465000000000000000000000000000000000000000000 PUSH1 0x64 DUP3 ADD MSTORE REVERT JUMPDEST CALLVALUE PUSH2 0x1EA JUMPI PUSH1 0x20 CALLDATASIZE PUSH1 0x3 NOT ADD SLT PUSH2 0x1EA JUMPI PUSH1 0x20 PUSH2 0x8CC PUSH1 0x4 CALLDATALOAD PUSH2 0x1F1E JUMP JUMPDEST PUSH1 0x40 MLOAD SWAP1 DUP2 MSTORE RETURN JUMPDEST CALLVALUE PUSH2 0x1EA JUMPI PUSH1 0x20 CALLDATASIZE PUSH1 0x3 NOT ADD SLT PUSH2 0x1EA JUMPI PUSH1 0x4 CALLDATALOAD DUP1 PUSH1 0x0 MSTORE PUSH1 0x3 PUSH1 0x20 MSTORE PUSH1 0x40 PUSH1 0x0 KECCAK256 SWAP1 PUSH2 0x904 CALLER PUSH2 0x33F DUP5 PUSH2 0x1CDC JUMP JUMPDEST PUSH2 0x90D DUP2 PUSH2 0x1E25 JUMP JUMPDEST PUSH1 0xF DUP5 ADD SLOAD NUMBER GT ISZERO PUSH2 0xB0D JUMPI PUSH1 0xFF DUP5 SLOAD AND PUSH1 0x7 DUP2 LT ISZERO PUSH2 0x5E9 JUMPI PUSH1 0x2 DUP2 EQ SWAP2 DUP3 PUSH2 0xAF2 JUMPI JUMPDEST PUSH1 0x3 DUP3 EQ SWAP2 PUSH1 0x0 DUP4 ISZERO PUSH2 0xAE4 JUMPI JUMPDEST DUP4 ISZERO PUSH2 0xAD1 JUMPI JUMPDEST POP POP DUP2 PUSH2 0xABD JUMPI JUMPDEST POP DUP2 ISZERO PUSH2 0xAB5 JUMPI JUMPDEST POP ISZERO PUSH2 0xA4B JUMPI PUSH1 0x1 PUSH1 0x1 PUSH1 0xA0 SHL SUB PUSH2 0x987 PUSH1 0x1 SWAP3 PUSH1 0x6 PUSH1 0xFF NOT DUP8 SLOAD AND OR DUP7 SSTORE PUSH2 0x97E PUSH2 0x2C56 JUMP JUMPDEST PUSH1 0x2 DUP7 ADD PUSH2 0x1E36 JUMP JUMPDEST POP SLOAD AND SWAP3 ADD SLOAD SWAP1 DUP2 PUSH1 0x1 SHL SWAP2 PUSH1 0x1 PUSH1 0x1 PUSH1 0xFF SHL SUB DUP2 AND DUP2 SUB PUSH2 0x82E JUMPI PUSH2 0x9AC SWAP1 PUSH2 0x1F1E JUMP JUMPDEST SWAP2 DUP3 DUP2 SUB SWAP3 DUP2 DUP5 GT PUSH2 0x82E JUMPI DUP5 DUP5 SWAP2 PUSH1 0x0 SWAP4 EQ PUSH2 0xA41 JUMPI JUMPDEST PUSH1 0x0 SWAP3 DUP4 SWAP3 DUP4 SWAP3 DUP4 SWAP3 CALL ISZERO PUSH2 0x818 JUMPI PUSH32 0xEE97096F32EED49908B904623AE7BA7AF58C121E15FE6E7F31AC379FB7CA1A98 PUSH1 0x40 PUSH32 0x294A1CC2E139B7D44DC4130A0E042162F4D48F289FE4E0A40CA50726A9D01EBC SWAP5 PUSH2 0x489 SWAP5 DUP3 MLOAD SWAP2 DUP3 MSTORE PUSH1 0x20 DUP3 ADD MSTORE LOG1 PUSH1 0x1 DUP1 SSTORE PUSH1 0x40 DUP1 MLOAD SWAP2 DUP3 MSTORE CALLER PUSH1 0x20 DUP4 ADD MSTORE SWAP1 SWAP2 DUP3 SWAP2 DUP3 ADD SWAP1 JUMP JUMPDEST PUSH2 0x8FC SWAP3 POP PUSH2 0x9C4 JUMP JUMPDEST PUSH1 0x84 PUSH1 0x40 MLOAD PUSH3 0x461BCD PUSH1 0xE5 SHL DUP2 MSTORE PUSH1 0x20 PUSH1 0x4 DUP3 ADD MSTORE PUSH1 0x21 PUSH1 0x24 DUP3 ADD MSTORE PUSH32 0x4974206973206E6F7420656E656D792773207475726E20746F20726573706F6E PUSH1 0x44 DUP3 ADD MSTORE PUSH32 0x6400000000000000000000000000000000000000000000000000000000000000 PUSH1 0x64 DUP3 ADD MSTORE REVERT JUMPDEST SWAP1 POP DUP5 PUSH2 0x957 JUMP JUMPDEST SWAP1 POP PUSH1 0xFF DUP1 PUSH1 0xE DUP8 ADD SLOAD AND SWAP2 AND EQ DUP6 PUSH2 0x94F JUMP JUMPDEST SWAP1 SWAP2 SWAP3 POP PUSH2 0x5E9 JUMPI PUSH1 0x5 EQ SWAP1 DUP7 DUP1 PUSH2 0x947 JUMP JUMPDEST POP PUSH1 0x4 DUP2 EQ SWAP3 POP PUSH1 0x0 PUSH2 0x940 JUMP JUMPDEST SWAP2 POP PUSH1 0x1 PUSH2 0xB03 DUP4 PUSH1 0x2 DUP9 ADD PUSH2 0x1E36 JUMP JUMPDEST POP ADD SLOAD ISZERO SWAP2 PUSH2 0x932 JUMP JUMPDEST PUSH1 0x64 PUSH1 0x40 MLOAD PUSH3 0x461BCD PUSH1 0xE5 SHL DUP2 MSTORE PUSH1 0x20 PUSH1 0x4 DUP3 ADD MSTORE PUSH1 0x1B PUSH1 0x24 DUP3 ADD MSTORE PUSH32 0x446561646C696E6520686173206E6F7420706173736564207965740000000000 PUSH1 0x44 DUP3 ADD MSTORE REVERT JUMPDEST CALLVALUE PUSH2 0x1EA JUMPI PUSH1 0x0 CALLDATASIZE PUSH1 0x3 NOT ADD SLT PUSH2 0x1EA JUMPI PUSH1 0x20 PUSH1 0x40 MLOAD PUSH1 0x5 DUP2 MSTORE RETURN JUMPDEST CALLVALUE PUSH2 0x1EA JUMPI PUSH1 0x20 CALLDATASIZE PUSH1 0x3 NOT ADD SLT PUSH2 0x1EA JUMPI PUSH1 0x4 CALLDATALOAD PUSH1 0x5 DUP2 LT ISZERO PUSH2 0x1EA JUMPI PUSH1 0xFF PUSH2 0xB97 PUSH1 0x20 SWAP3 PUSH2 0x1BE0 JUMP JUMPDEST SWAP1 SLOAD SWAP1 PUSH1 0x3 SHL SHR AND PUSH1 0x40 MLOAD SWAP1 DUP2 MSTORE RETURN JUMPDEST PUSH1 0x40 CALLDATASIZE PUSH1 0x3 NOT ADD SLT PUSH2 0x1EA JUMPI PUSH1 0x4 CALLDATALOAD PUSH2 0xBBF CALLVALUE PUSH2 0x1F1E JUMP JUMPDEST SWAP1 DUP2 CALLVALUE GT ISZERO PUSH2 0xCAF JUMPI DUP1 PUSH1 0x0 MSTORE PUSH1 0x3 PUSH1 0x20 MSTORE PUSH1 0x40 PUSH1 0x0 KECCAK256 SWAP1 PUSH1 0xFF DUP3 SLOAD AND PUSH1 0x7 DUP2 LT ISZERO PUSH2 0x5E9 JUMPI PUSH2 0xC6B JUMPI PUSH32 0xCF1EEFEF99365C71F66CF7D03C056F6D828C32F1023712660C18EE3CD8585CB4 SWAP3 PUSH1 0x80 SWAP3 PUSH1 0x1 PUSH1 0xFF NOT DUP3 SLOAD AND OR DUP2 SSTORE CALLVALUE PUSH1 0x1 DUP3 ADD SSTORE PUSH1 0x2 DUP2 ADD PUSH1 0x1 PUSH1 0x1 PUSH1 0xA0 SHL SUB CALLER AND PUSH20 0xFFFFFFFFFFFFFFFFFFFFFFFFFFFFFFFFFFFFFFFF NOT DUP3 SLOAD AND OR SWAP1 SSTORE PUSH1 0x7 PUSH1 0x24 CALLDATALOAD SWAP2 ADD SSTORE PUSH1 0x40 MLOAD SWAP2 DUP3 MSTORE CALLER PUSH1 0x20 DUP4 ADD MSTORE CALLVALUE PUSH1 0x40 DUP4 ADD MSTORE PUSH1 0x60 DUP3 ADD MSTORE LOG1 STOP JUMPDEST PUSH1 0x64 PUSH1 0x40 MLOAD PUSH3 0x461BCD PUSH1 0xE5 SHL DUP2 MSTORE PUSH1 0x20 PUSH1 0x4 DUP3 ADD MSTORE PUSH1 0x13 PUSH1 0x24 DUP3 ADD MSTORE PUSH32 0x526F6F6D20616C72656164792065786973747300000000000000000000000000 PUSH1 0x44 DUP3 ADD MSTORE REVERT JUMPDEST PUSH1 0x84 PUSH1 0x40 MLOAD PUSH3 0x461BCD PUSH1 0xE5 SHL DUP2 MSTORE PUSH1 0x20 PUSH1 0x4 DUP3 ADD MSTORE PUSH1 0x29 PUSH1 0x24 DUP3 ADD MSTORE PUSH32 0x456E74727920666565206D7573742062652067726561746572207468616E2063 PUSH1 0x44 DUP3 ADD MSTORE PUSH32 0x6F6D6D697373696F6E0000000000000000000000000000000000000000000000 PUSH1 0x64 DUP3 ADD MSTORE REVERT JUMPDEST CALLVALUE PUSH2 0x1EA JUMPI PUSH1 0x0 CALLDATASIZE PUSH1 0x3 NOT ADD SLT PUSH2 0x1EA JUMPI PUSH1 0x20 PUSH1 0x40 MLOAD PUSH1 0x11 DUP2 MSTORE RETURN JUMPDEST CALLVALUE PUSH2 0x1EA JUMPI PUSH1 0x0 CALLDATASIZE PUSH1 0x3 NOT ADD SLT PUSH2 0x1EA JUMPI PUSH1 0x20 PUSH1 0x1 PUSH1 0x1 PUSH1 0xA0 SHL SUB PUSH1 0x0 SLOAD AND PUSH1 0x40 MLOAD SWAP1 DUP2 MSTORE RETURN JUMPDEST CALLVALUE PUSH2 0x1EA JUMPI PUSH1 0xE0 CALLDATASIZE PUSH1 0x3 NOT ADD SLT PUSH2 0x1EA JUMPI PUSH1 0x4 CALLDATALOAD PUSH1 0x44 CALLDATALOAD PUSH8 0xFFFFFFFFFFFFFFFF DUP2 GT PUSH2 0x1EA JUMPI PUSH2 0xD90 SWAP1 CALLDATASIZE SWAP1 PUSH1 0x4 ADD PUSH2 0x1B71 JUMP JUMPDEST SWAP2 PUSH1 0x64 CALLDATALOAD PUSH8 0xFFFFFFFFFFFFFFFF DUP2 GT PUSH2 0x1EA JUMPI PUSH2 0xDB1 SWAP1 CALLDATASIZE SWAP1 PUSH1 0x4 ADD PUSH2 0x1BAF JUMP JUMPDEST SWAP3 SWAP1 SWAP2 PUSH1 0x84 CALLDATALOAD PUSH8 0xFFFFFFFFFFFFFFFF DUP2 GT PUSH2 0x1EA JUMPI PUSH2 0xDD4 SWAP1 CALLDATASIZE SWAP1 PUSH1 0x4 ADD PUSH2 0x1B71 JUMP JUMPDEST SWAP3 PUSH1 0xA4 CALLDATALOAD PUSH8 0xFFFFFFFFFFFFFFFF DUP2 GT PUSH2 0x1EA JUMPI PUSH2 0xDF5 SWAP1 CALLDATASIZE SWAP1 PUSH1 0x4 ADD PUSH2 0x1BAF JUMP JUMPDEST SWAP4 SWAP1 PUSH1 0xC4 CALLDATALOAD PUSH8 0xFFFFFFFFFFFFFFFF DUP2 GT PUSH2 0x1EA JUMPI PUSH2 0xE17 SWAP1 CALLDATASIZE SWAP1 PUSH1 0x4 ADD PUSH2 0x1B71 JUMP JUMPDEST SWAP8 SWAP1 SWAP7 DUP4 PUSH1 0x0 MSTORE PUSH1 0x3 PUSH1 0x20 MSTORE PUSH1 0x40 PUSH1 0x0 KECCAK256 SWAP6 PUSH2 0xE36 CALLER PUSH2 0x33F DUP10 PUSH2 0x1CDC JUMP JUMPDEST SWAP11 PUSH1 0xFF DUP9 SLOAD AND SWAP4 PUSH1 0x7 DUP6 LT ISZERO PUSH2 0x5E9 JUMPI DUP14 DUP9 DUP15 PUSH2 0xE58 PUSH1 0x3 PUSH2 0xE62 SWAP10 EQ PUSH2 0x1C6B JUMP JUMPDEST PUSH1 0x24 CALLDATALOAD SWAP1 DUP13 PUSH2 0x319A JUMP JUMPDEST PUSH1 0x0 SWAP7 DUP8 SWAP7 PUSH2 0xE71 PUSH1 0x64 PUSH2 0x1F81 JUMP JUMPDEST SWAP7 DUP9 JUMPDEST DUP2 DUP2 LT PUSH2 0x1105 JUMPI POP POP POP POP POP PUSH1 0x0 SWAP6 PUSH1 0x0 JUMPDEST DUP6 MLOAD PUSH2 0xFFFF DUP3 AND SWAP1 DUP2 LT ISZERO PUSH2 0xEC8 JUMPI PUSH2 0xE9F SWAP1 DUP8 PUSH2 0x2008 JUMP JUMPDEST MLOAD PUSH2 0xEB3 JUMPI JUMPDEST PUSH2 0xEAE SWAP1 PUSH2 0x1EB4 JUMP JUMPDEST PUSH2 0xE86 JUMP JUMPDEST SWAP7 PUSH2 0xEC0 PUSH2 0xEAE SWAP2 PUSH2 0x1EB4 JUMP JUMPDEST SWAP8 SWAP1 POP PUSH2 0xEA5 JUMP JUMPDEST POP POP DUP9 SWAP1 DUP9 DUP8 PUSH1 0x11 PUSH2 0xFFFF DUP12 AND SUB PUSH2 0x109B JUMPI PUSH1 0x2 DUP8 ADD SWAP3 PUSH1 0x3 PUSH2 0xEEB DUP5 DUP7 PUSH2 0x1E36 JUMP JUMPDEST POP ADD SLOAD SUB PUSH2 0x1057 JUMPI PUSH1 0x4 PUSH2 0xF07 PUSH2 0xF01 DUP5 PUSH2 0x1E25 JUMP JUMPDEST DUP6 PUSH2 0x1E36 JUMP JUMPDEST POP ADD SLOAD SUB PUSH2 0xFED JUMPI PUSH2 0xF31 PUSH1 0x1 PUSH1 0x1 PUSH1 0xA0 SHL SUB SWAP2 PUSH1 0x1 SWAP4 PUSH1 0x6 PUSH1 0xFF NOT DUP11 SLOAD AND OR DUP10 SSTORE PUSH2 0x466 PUSH2 0x2C56 JUMP JUMPDEST POP SLOAD AND SWAP5 ADD SLOAD SWAP1 DUP2 PUSH1 0x1 SHL SWAP2 PUSH1 0x1 PUSH1 0x1 PUSH1 0xFF SHL SUB DUP2 AND DUP2 SUB PUSH2 0x82E JUMPI PUSH2 0xF56 SWAP1 PUSH2 0x1F1E JUMP JUMPDEST SWAP2 DUP3 DUP2 SUB SWAP3 DUP2 DUP5 GT PUSH2 0x82E JUMPI DUP7 DUP5 SWAP2 PUSH1 0x0 SWAP4 EQ PUSH2 0xFE3 JUMPI JUMPDEST PUSH1 0x0 SWAP3 DUP4 SWAP3 DUP4 SWAP3 DUP4 SWAP3 CALL ISZERO PUSH2 0x818 JUMPI PUSH32 0xEE97096F32EED49908B904623AE7BA7AF58C121E15FE6E7F31AC379FB7CA1A98 PUSH1 0x40 PUSH32 0x53FC172DDA2ED0176623BBCA3C936BB2D85537947A5E23DD077B579AE1BF155C SWAP7 PUSH2 0x489 SWAP5 DUP3 MLOAD SWAP2 DUP3 MSTORE PUSH1 0x20 DUP3 ADD MSTORE LOG1 PUSH1 0x1 DUP1 SSTORE PUSH1 0x40 MLOAD SWAP4 DUP5 SWAP4 CALLER SWAP1 DUP6 PUSH2 0x1EC7 JUMP JUMPDEST PUSH2 0x8FC SWAP3 POP PUSH2 0xF6E JUMP JUMPDEST PUSH1 0x84 PUSH1 0x40 MLOAD PUSH3 0x461BCD PUSH1 0xE5 SHL DUP2 MSTORE PUSH1 0x20 PUSH1 0x4 DUP3 ADD MSTORE PUSH1 0x21 PUSH1 0x24 DUP3 ADD MSTORE PUSH32 0x416E737765727320646F6E2774206D6174636820656E656D7920616E73776572 PUSH1 0x44 DUP3 ADD MSTORE PUSH32 0x7300000000000000000000000000000000000000000000000000000000000000 PUSH1 0x64 DUP3 ADD MSTORE REVERT JUMPDEST PUSH1 0x64 PUSH1 0x40 MLOAD PUSH3 0x461BCD PUSH1 0xE5 SHL DUP2 MSTORE PUSH1 0x20 PUSH1 0x4 DUP3 ADD MSTORE PUSH1 0x1A PUSH1 0x24 DUP3 ADD MSTORE PUSH32 0x53686F747320646F6E2774206D61746368206D792073686F7473000000000000 PUSH1 0x44 DUP3 ADD MSTORE REVERT JUMPDEST PUSH1 0x84 PUSH1 0x40 MLOAD PUSH3 0x461BCD PUSH1 0xE5 SHL DUP2 MSTORE PUSH1 0x20 PUSH1 0x4 DUP3 ADD MSTORE PUSH1 0x37 PUSH1 0x24 DUP3 ADD MSTORE PUSH32 0x4E756D626572206F662073686970206869747320646F6573206E6F74206D6174 PUSH1 0x44 DUP3 ADD MSTORE PUSH32 0x6368206E756D626572206F662073686970207061727473000000000000000000 PUSH1 0x64 DUP3 ADD MSTORE REVERT JUMPDEST PUSH1 0x1 DUP2 SWAP12 SWAP11 SWAP12 ADD SWAP10 DUP11 DUP3 GT PUSH2 0x82E JUMPI PUSH2 0x112A SWAP1 DUP12 PUSH2 0x1124 DUP5 DUP7 DUP11 PUSH2 0x2DBC JUMP JUMPDEST SWAP2 PUSH2 0x3122 JUMP JUMPDEST SWAP11 PUSH1 0x0 SWAP11 PUSH2 0x1139 DUP4 DUP6 DUP10 PUSH2 0x2DBC JUMP JUMPDEST SWAP1 PUSH2 0x1145 DUP5 DUP9 DUP9 PUSH2 0x201C JUMP JUMPDEST CALLDATALOAD SWAP3 PUSH1 0x3 DUP5 LT ISZERO PUSH2 0x11DF JUMPI SWAP1 PUSH2 0x115C SWAP4 SWAP3 SWAP2 PUSH2 0x2D2C JUMP JUMPDEST SWAP10 PUSH2 0x119D PUSH2 0x117E PUSH1 0xFF PUSH2 0x1178 PUSH2 0x1173 DUP7 DUP9 DUP13 PUSH2 0x2DBC JUMP JUMPDEST PUSH2 0x2CD3 JUMP JUMPDEST AND PUSH2 0x1FB3 JUMP JUMPDEST PUSH1 0xFF PUSH2 0x1196 PUSH1 0x20 PUSH2 0x1190 DUP8 DUP10 DUP14 PUSH2 0x2DBC JUMP JUMPDEST ADD PUSH2 0x2CD3 JUMP JUMPDEST AND SWAP1 PUSH2 0x1FF2 JUMP JUMPDEST SWAP1 PUSH2 0x11A9 DUP4 DUP8 DUP8 PUSH2 0x201C JUMP JUMPDEST CALLDATALOAD SWAP1 PUSH1 0x3 DUP3 LT ISZERO PUSH2 0x11DC JUMPI POP PUSH1 0x1 SWAP3 SWAP2 SWAP1 PUSH2 0x11C6 JUMPI JUMPDEST POP ADD PUSH2 0xE74 JUMP JUMPDEST PUSH2 0x11D5 PUSH2 0xFFFF DUP5 SWAP3 AND DUP13 PUSH2 0x2008 JUMP JUMPDEST MSTORE DUP15 PUSH2 0x11BF JUMP JUMPDEST DUP1 REVERT JUMPDEST DUP14 DUP1 REVERT JUMPDEST CALLVALUE PUSH2 0x1EA JUMPI PUSH1 0x0 CALLDATASIZE PUSH1 0x3 NOT ADD SLT PUSH2 0x1EA JUMPI PUSH2 0x11FC PUSH2 0x2C91 JUMP JUMPDEST PUSH1 0x0 PUSH1 0x1 PUSH1 0x1 PUSH1 0xA0 SHL SUB DUP2 SLOAD PUSH20 0xFFFFFFFFFFFFFFFFFFFFFFFFFFFFFFFFFFFFFFFF NOT DUP2 AND DUP4 SSTORE AND PUSH32 0x8BE0079C531659141344CD1FD0A4F28419497F9722A3DAAFE3B4186F6B6457E0 DUP3 DUP1 LOG3 STOP JUMPDEST CALLVALUE PUSH2 0x1EA JUMPI PUSH1 0x60 CALLDATASIZE PUSH1 0x3 NOT ADD SLT PUSH2 0x1EA JUMPI PUSH1 0x4 CALLDATALOAD PUSH1 0x40 CALLDATASIZE PUSH1 0x23 NOT ADD SLT PUSH2 0x1EA JUMPI DUP1 PUSH1 0x0 MSTORE PUSH1 0x3 PUSH1 0x20 MSTORE PUSH1 0x40 PUSH1 0x0 KECCAK256 PUSH1 0xFF DUP2 SLOAD AND PUSH1 0x7 DUP2 LT ISZERO PUSH2 0x5E9 JUMPI PUSH1 0x3 PUSH2 0x1291 SWAP2 EQ PUSH2 0x1C6B JUMP JUMPDEST PUSH2 0x129E CALLER PUSH2 0x33F DUP4 PUSH2 0x1CDC JUMP JUMPDEST PUSH2 0x12C1 PUSH1 0xE DUP4 ADD SWAP2 PUSH2 0x12B8 PUSH1 0xFF DUP5 SLOAD AND PUSH1 0xFF DUP4 AND EQ PUSH2 0x1DDA JUMP JUMPDEST PUSH1 0x2 DUP5 ADD PUSH2 0x1E36 JUMP JUMPDEST POP PUSH1 0x2 DUP2 ADD SWAP3 DUP4 SLOAD SWAP3 PUSH2 0xFFFF PUSH2 0x12D8 DUP2 DUP7 AND PUSH2 0x1EB4 JUMP JUMPDEST AND DUP1 SWAP5 PUSH2 0xFFFF NOT AND OR DUP6 SSTORE PUSH1 0x3 DUP4 ADD SWAP4 DUP5 SLOAD SWAP1 PUSH1 0x0 PUSH1 0x24 CALLDATALOAD PUSH1 0xFF DUP2 AND SWAP1 DUP2 DUP2 SUB PUSH2 0x13FC JUMPI PUSH1 0xA DUP3 LT DUP1 PUSH2 0x13DF JUMPI JUMPDEST PUSH2 0x130F SWAP1 PUSH2 0x2CE1 JUMP JUMPDEST POP PUSH1 0x44 CALLDATALOAD PUSH1 0xFF DUP2 AND SWAP3 DUP4 DUP3 SUB PUSH2 0x11DC JUMPI POP SWAP5 PUSH1 0x1 PUSH1 0x1 PUSH1 0xA0 SHL SUB SWAP5 PUSH1 0xC0 SWAP11 SWAP9 SWAP5 PUSH2 0x13B3 SWAP5 PUSH32 0xB72B4B2C796809161DBC42D5A7E6E0C75042FE6F953C2D35187A16CEF28848BF SWAP14 SWAP12 SWAP10 SWAP5 PUSH2 0xFFFF SWAP10 POP PUSH1 0x40 MLOAD SWAP3 PUSH1 0x20 DUP5 ADD SWAP5 DUP6 MSTORE PUSH1 0x40 DUP5 ADD MSTORE PUSH1 0x60 DUP4 ADD MSTORE PUSH1 0x80 DUP3 ADD MSTORE PUSH1 0x80 DUP2 MSTORE PUSH2 0x1386 PUSH1 0xA0 DUP3 PUSH2 0x1C0E JUMP JUMPDEST MLOAD SWAP1 KECCAK256 DUP8 SSTORE PUSH1 0x4 PUSH1 0xFF NOT DUP4 SLOAD AND OR DUP3 SSTORE PUSH1 0xFF PUSH2 0x13A4 DUP2 DUP4 SLOAD AND PUSH2 0x1E25 JUMP JUMPDEST AND PUSH1 0xFF NOT DUP3 SLOAD AND OR SWAP1 SSTORE PUSH2 0x2C25 JUMP JUMPDEST SLOAD AND SWAP3 SLOAD AND SWAP1 SLOAD SWAP2 PUSH1 0x40 MLOAD SWAP4 DUP5 MSTORE PUSH1 0x20 DUP5 ADD MSTORE PUSH1 0x40 DUP4 ADD MSTORE PUSH2 0x13D7 PUSH1 0x60 DUP4 ADD PUSH2 0x1E4A JUMP JUMPDEST PUSH1 0xA0 DUP3 ADD MSTORE LOG1 STOP JUMPDEST POP PUSH1 0x44 CALLDATALOAD PUSH1 0xFF DUP2 AND SWAP1 DUP2 DUP2 SUB PUSH2 0x13F8 JUMPI POP PUSH1 0xA GT PUSH2 0x1306 JUMP JUMPDEST DUP5 DUP1 REVERT JUMPDEST DUP3 DUP1 REVERT JUMPDEST CALLVALUE PUSH2 0x1EA JUMPI PUSH1 0x0 CALLDATASIZE PUSH1 0x3 NOT ADD SLT PUSH2 0x1EA JUMPI PUSH1 0x20 PUSH1 0x40 MLOAD PUSH32 0x0 DUP2 MSTORE RETURN JUMPDEST CALLVALUE PUSH2 0x1EA JUMPI PUSH1 0x20 CALLDATASIZE PUSH1 0x3 NOT ADD SLT PUSH2 0x1EA JUMPI PUSH1 0x4 CALLDATALOAD PUSH1 0x0 MSTORE PUSH1 0x3 PUSH1 0x20 MSTORE PUSH2 0x1464 PUSH1 0x40 PUSH1 0x0 KECCAK256 PUSH2 0x1CDC JUMP JUMPDEST DUP1 MLOAD PUSH1 0x7 DUP2 LT ISZERO PUSH2 0x5E9 JUMPI ISZERO PUSH2 0x14B1 JUMPI DUP1 MLOAD PUSH1 0x7 DUP2 LT ISZERO PUSH2 0x5E9 JUMPI DUP2 PUSH1 0x1 PUSH1 0x1 PUSH1 0xA0 SHL SUB PUSH1 0x40 PUSH1 0x20 PUSH1 0x60 SWAP6 ADD MLOAD SWAP3 ADD MLOAD MLOAD MLOAD AND SWAP1 PUSH2 0x14A5 PUSH1 0x40 MLOAD DUP1 SWAP5 PUSH2 0x1BA2 JUMP JUMPDEST PUSH1 0x20 DUP4 ADD MSTORE PUSH1 0x40 DUP3 ADD MSTORE RETURN JUMPDEST PUSH1 0x64 PUSH1 0x40 MLOAD PUSH3 0x461BCD PUSH1 0xE5 SHL DUP2 MSTORE PUSH1 0x20 PUSH1 0x4 DUP3 ADD MSTORE PUSH1 0x13 PUSH1 0x24 DUP3 ADD MSTORE PUSH32 0x526F6F6D20646F6573206E6F7420657869737400000000000000000000000000 PUSH1 0x44 DUP3 ADD MSTORE REVERT JUMPDEST CALLVALUE PUSH2 0x1EA JUMPI PUSH1 0x20 CALLDATASIZE PUSH1 0x3 NOT ADD SLT PUSH2 0x1EA JUMPI PUSH1 0x20 PUSH2 0x8CC PUSH1 0x4 CALLDATALOAD PUSH2 0x1E6F JUMP JUMPDEST CALLVALUE PUSH2 0x1EA JUMPI PUSH1 0x60 CALLDATASIZE PUSH1 0x3 NOT ADD SLT PUSH2 0x1EA JUMPI PUSH1 0x4 CALLDATALOAD PUSH8 0xFFFFFFFFFFFFFFFF DUP2 GT PUSH2 0x1EA JUMPI PUSH2 0x1544 SWAP1 CALLDATASIZE SWAP1 PUSH1 0x4 ADD PUSH2 0x1B71 JUMP JUMPDEST PUSH1 0x24 CALLDATALOAD PUSH8 0xFFFFFFFFFFFFFFFF DUP2 GT PUSH2 0x1EA JUMPI PUSH2 0x1564 SWAP1 CALLDATASIZE SWAP1 PUSH1 0x4 ADD PUSH2 0x1BAF JUMP JUMPDEST PUSH1 0x44 CALLDATALOAD SWAP4 SWAP2 PUSH8 0xFFFFFFFFFFFFFFFF DUP6 GT PUSH2 0x1EA JUMPI PUSH2 0x1589 PUSH2 0x1591 SWAP6 CALLDATASIZE SWAP1 PUSH1 0x4 ADD PUSH2 0x1B71 JUMP JUMPDEST SWAP5 SWAP1 SWAP4 PUSH2 0x2DCC JUMP JUMPDEST STOP JUMPDEST CALLVALUE PUSH2 0x1EA JUMPI PUSH1 0x80 CALLDATASIZE PUSH1 0x3 NOT ADD SLT PUSH2 0x1EA JUMPI PUSH1 0x4 CALLDATALOAD PUSH1 0x40 CALLDATASIZE PUSH1 0x23 NOT ADD SLT PUSH2 0x1EA JUMPI PUSH1 0x64 CALLDATALOAD SWAP1 PUSH1 0x3 DUP3 LT ISZERO PUSH2 0x1EA JUMPI DUP1 PUSH1 0x0 MSTORE PUSH1 0x3 PUSH1 0x20 MSTORE PUSH1 0x40 PUSH1 0x0 KECCAK256 PUSH1 0xFF DUP2 SLOAD AND PUSH1 0x7 DUP2 LT ISZERO PUSH2 0x5E9 JUMPI PUSH1 0x4 SUB PUSH2 0x1736 JUMPI PUSH2 0x15F0 CALLER PUSH2 0x33F DUP4 PUSH2 0x1CDC JUMP JUMPDEST SWAP3 PUSH2 0x1612 PUSH1 0x2 DUP4 ADD PUSH2 0x160C PUSH2 0x1605 DUP8 DUP4 PUSH2 0x1E36 JUMP JUMPDEST POP SWAP7 PUSH2 0x1E25 JUMP JUMPDEST SWAP1 PUSH2 0x1E36 JUMP JUMPDEST POP SWAP4 PUSH1 0x4 DUP2 ADD SWAP1 PUSH1 0x2 DUP3 SLOAD SWAP7 ADD SWAP4 PUSH2 0xFFFF DUP6 SLOAD AND SWAP7 PUSH1 0x0 SWAP8 PUSH1 0x24 CALLDATALOAD PUSH1 0xFF DUP2 AND SWAP1 DUP2 DUP2 SUB PUSH2 0x1732 JUMPI PUSH1 0xA DUP3 LT DUP1 PUSH2 0x1715 JUMPI JUMPDEST PUSH2 0x164C SWAP1 PUSH2 0x2CE1 JUMP JUMPDEST POP PUSH1 0x44 CALLDATALOAD SWAP1 PUSH1 0xFF DUP3 AND SWAP2 DUP3 DUP2 SUB PUSH2 0x1711 JUMPI SWAP4 PUSH1 0xE0 SWAP11 SWAP10 SWAP9 SWAP8 SWAP7 SWAP4 PUSH2 0x16E0 SWAP4 PUSH2 0xFFFF SWAP8 SWAP4 PUSH32 0xFD7D6DCAB3C23E806913769DF4816E3D1FB4EDB3917BF3F256CD1365CBEDDC07 SWAP15 PUSH1 0x1 PUSH1 0x1 PUSH1 0xA0 SHL SUB SWAP9 POP POP PUSH1 0x40 MLOAD SWAP3 PUSH1 0x20 DUP5 ADD SWAP5 DUP6 MSTORE PUSH1 0x40 DUP5 ADD MSTORE PUSH1 0x60 DUP4 ADD MSTORE PUSH1 0x80 DUP3 ADD MSTORE DUP9 PUSH1 0xA0 DUP3 ADD MSTORE PUSH1 0xA0 DUP2 MSTORE PUSH2 0x16CB PUSH1 0xC0 DUP3 PUSH2 0x1C0E JUMP JUMPDEST MLOAD SWAP1 KECCAK256 DUP7 SSTORE DUP1 SLOAD PUSH1 0xFF NOT AND PUSH1 0x3 OR DUP2 SSTORE PUSH2 0x2C25 JUMP JUMPDEST SLOAD AND SWAP4 SLOAD AND SWAP1 SLOAD SWAP3 PUSH1 0x40 MLOAD SWAP5 DUP6 MSTORE PUSH1 0x20 DUP6 ADD MSTORE PUSH1 0x40 DUP5 ADD MSTORE PUSH2 0x1704 PUSH1 0x60 DUP5 ADD PUSH2 0x1E4A JUMP JUMPDEST PUSH1 0xA0 DUP4 ADD MSTORE PUSH1 0xC0 DUP3 ADD MSTORE LOG1 STOP JUMPDEST DUP12 DUP1 REVERT JUMPDEST POP PUSH1 0x44 CALLDATALOAD PUSH1 0xFF DUP2 AND SWAP1 DUP2 DUP2 SUB PUSH2 0x172E JUMPI POP PUSH1 0xA GT PUSH2 0x1643 JUMP JUMPDEST DUP13 DUP1 REVERT JUMPDEST DUP11 DUP1 REVERT JUMPDEST PUSH1 0x84 PUSH1 0x40 MLOAD PUSH3 0x461BCD PUSH1 0xE5 SHL DUP2 MSTORE PUSH1 0x20 PUSH1 0x4 DUP3 ADD MSTORE PUSH1 0x22 PUSH1 0x24 DUP3 ADD MSTORE PUSH32 0x526F6F6D206973206E6F7420696E2074686520616E73776572696E6720737461 PUSH1 0x44 DUP3 ADD MSTORE PUSH32 0x7465000000000000000000000000000000000000000000000000000000000000 PUSH1 0x64 DUP3 ADD MSTORE REVERT JUMPDEST CALLVALUE PUSH2 0x1EA JUMPI PUSH1 0x20 CALLDATASIZE PUSH1 0x3 NOT ADD SLT PUSH2 0x1EA JUMPI PUSH1 0x4 CALLDATALOAD PUSH1 0x0 MSTORE PUSH1 0x3 PUSH1 0x20 MSTORE PUSH1 0x80 PUSH1 0x40 PUSH1 0x0 KECCAK256 PUSH1 0xFF DUP2 SLOAD AND SWAP1 PUSH1 0x1 DUP2 ADD SLOAD SWAP1 PUSH1 0xF PUSH1 0xFF PUSH1 0xE DUP4 ADD SLOAD AND SWAP2 ADD SLOAD SWAP2 PUSH2 0x17EA PUSH1 0x40 MLOAD DUP1 SWAP6 PUSH2 0x1BA2 JUMP JUMPDEST PUSH1 0x20 DUP5 ADD MSTORE PUSH1 0x40 DUP4 ADD MSTORE PUSH1 0x60 DUP3 ADD MSTORE RETURN JUMPDEST CALLVALUE PUSH2 0x1EA JUMPI PUSH1 0x20 CALLDATASIZE PUSH1 0x3 NOT ADD SLT PUSH2 0x1EA JUMPI PUSH1 0x4 CALLDATALOAD PUSH2 0x1817 PUSH2 0x2C56 JUMP JUMPDEST PUSH2 0x181F PUSH2 0x2C91 JUMP JUMPDEST DUP1 SELFBALANCE LT PUSH2 0x1854 JUMPI PUSH1 0x0 DUP1 DUP1 DUP1 SWAP4 PUSH1 0x1 PUSH1 0x1 PUSH1 0xA0 SHL SUB DUP3 SLOAD AND DUP3 DUP3 ISZERO PUSH2 0x184B JUMPI JUMPDEST CALL ISZERO PUSH2 0x818 JUMPI PUSH1 0x1 DUP1 SSTORE STOP JUMPDEST POP PUSH2 0x8FC PUSH2 0x183F JUMP JUMPDEST PUSH1 0x64 PUSH1 0x40 MLOAD PUSH3 0x461BCD PUSH1 0xE5 SHL DUP2 MSTORE PUSH1 0x20 PUSH1 0x4 DUP3 ADD MSTORE PUSH1 0x10 PUSH1 0x24 DUP3 ADD MSTORE PUSH32 0x4E6F7420656E6F7567682066756E647300000000000000000000000000000000 PUSH1 0x44 DUP3 ADD MSTORE REVERT JUMPDEST CALLVALUE PUSH2 0x1EA JUMPI PUSH1 0x0 CALLDATASIZE PUSH1 0x3 NOT ADD SLT PUSH2 0x1EA JUMPI PUSH1 0x20 PUSH1 0x40 MLOAD PUSH32 0x0 DUP2 MSTORE RETURN JUMPDEST PUSH1 0x40 CALLDATASIZE PUSH1 0x3 NOT ADD SLT PUSH2 0x1EA JUMPI PUSH2 0x18EA PUSH1 0x4 CALLDATALOAD PUSH2 0x1E6F JUMP JUMPDEST DUP1 PUSH1 0x0 MSTORE PUSH1 0x3 PUSH1 0x20 MSTORE PUSH1 0x40 PUSH1 0x0 KECCAK256 PUSH1 0xFF DUP2 SLOAD AND PUSH1 0x7 DUP2 LT ISZERO PUSH2 0x5E9 JUMPI PUSH1 0x1 SUB PUSH2 0x1A53 JUMPI PUSH1 0x1 DUP2 ADD SLOAD CALLVALUE SUB PUSH2 0x19E9 JUMPI PUSH1 0x1 PUSH1 0x1 PUSH1 0xA0 SHL SUB PUSH1 0x2 DUP3 ADD SLOAD AND CALLER EQ PUSH2 0x19A5 JUMPI PUSH1 0x8 DUP2 ADD DUP1 SLOAD PUSH20 0xFFFFFFFFFFFFFFFFFFFFFFFFFFFFFFFFFFFFFFFF NOT AND CALLER OR SWAP1 SSTORE PUSH1 0x24 CALLDATALOAD PUSH1 0xD DUP3 ADD SSTORE DUP1 SLOAD PUSH1 0xFF NOT AND PUSH1 0x2 OR DUP2 SSTORE PUSH32 0x7F3A14B18FC64242E1D87BBDA3D879FF601BF57224F7DAEAF8BF4658BB84DA29 SWAP2 PUSH2 0x489 SWAP2 PUSH2 0x198F SWAP1 PUSH2 0x2C25 JUMP JUMPDEST PUSH1 0x40 DUP1 MLOAD SWAP2 DUP3 MSTORE CALLER PUSH1 0x20 DUP4 ADD MSTORE SWAP1 SWAP2 DUP3 SWAP2 DUP3 ADD SWAP1 JUMP JUMPDEST PUSH1 0x64 PUSH1 0x40 MLOAD PUSH3 0x461BCD PUSH1 0xE5 SHL DUP2 MSTORE PUSH1 0x20 PUSH1 0x4 DUP3 ADD MSTORE PUSH1 0x1D PUSH1 0x24 DUP3 ADD MSTORE PUSH32 0x596F752063616E6E6F74206A6F696E20796F7572206F776E20726F6F6D000000 PUSH1 0x44 DUP3 ADD MSTORE REVERT JUMPDEST PUSH1 0x84 PUSH1 0x40 MLOAD PUSH3 0x461BCD PUSH1 0xE5 SHL DUP2 MSTORE PUSH1 0x20 PUSH1 0x4 DUP3 ADD MSTORE PUSH1 0x2D PUSH1 0x24 DUP3 ADD MSTORE PUSH32 0x456E74727920666565206D75737420626520657175616C20746F207468652072 PUSH1 0x44 DUP3 ADD MSTORE PUSH32 0x6F6F6D20656E7472792066656500000000000000000000000000000000000000 PUSH1 0x64 DUP3 ADD MSTORE REVERT JUMPDEST PUSH1 0x64 PUSH1 0x40 MLOAD PUSH3 0x461BCD PUSH1 0xE5 SHL DUP2 MSTORE PUSH1 0x20 PUSH1 0x4 DUP3 ADD MSTORE PUSH1 0x20 PUSH1 0x24 DUP3 ADD MSTORE PUSH32 0x526F6F6D206973206E6F7420696E207468652063726561746564207374617465 PUSH1 0x44 DUP3 ADD MSTORE REVERT JUMPDEST CALLVALUE PUSH2 0x1EA JUMPI PUSH1 0x20 CALLDATASIZE PUSH1 0x3 NOT ADD SLT PUSH2 0x1EA JUMPI PUSH1 0x4 CALLDATALOAD DUP1 PUSH1 0x0 MSTORE PUSH1 0x3 PUSH1 0x20 MSTORE PUSH1 0x40 PUSH1 0x0 KECCAK256 PUSH1 0xFF DUP2 SLOAD AND SWAP2 PUSH1 0x7 DUP4 LT ISZERO PUSH2 0x5E9 JUMPI PUSH2 0x198F PUSH2 0x489 SWAP3 PUSH2 0x1AFC PUSH1 0x3 PUSH32 0x674B1399CDD04131B1014FB0AD914C308EB69BAC11C79CF09E05CE410863CE2E SWAP7 EQ PUSH2 0x1C6B JUMP JUMPDEST PUSH2 0x1B09 CALLER PUSH2 0x33F DUP4 PUSH2 0x1CDC JUMP JUMPDEST PUSH1 0xFF PUSH2 0x13A4 PUSH1 0xE DUP5 ADD SWAP3 PUSH2 0x1B23 DUP4 DUP6 SLOAD AND DUP5 DUP4 AND EQ PUSH2 0x1DDA JUMP JUMPDEST PUSH1 0x5 DUP4 NOT DUP7 SLOAD AND OR DUP6 SSTORE PUSH2 0x1E25 JUMP JUMPDEST CALLVALUE PUSH2 0x1EA JUMPI PUSH1 0x40 CALLDATASIZE PUSH1 0x3 NOT ADD SLT PUSH2 0x1EA JUMPI PUSH1 0x24 CALLDATALOAD PUSH8 0xFFFFFFFFFFFFFFFF DUP2 GT PUSH2 0x1EA JUMPI PUSH2 0x8CC PUSH2 0x1B68 PUSH1 0x20 SWAP3 CALLDATASIZE SWAP1 PUSH1 0x4 ADD PUSH2 0x1B71 JUMP JUMPDEST SWAP1 PUSH1 0x4 CALLDATALOAD PUSH2 0x2389 JUMP JUMPDEST SWAP2 DUP2 PUSH1 0x1F DUP5 ADD SLT ISZERO PUSH2 0x1EA JUMPI DUP3 CALLDATALOAD SWAP2 PUSH8 0xFFFFFFFFFFFFFFFF DUP4 GT PUSH2 0x1EA JUMPI PUSH1 0x20 DUP1 DUP6 ADD SWAP5 DUP5 PUSH1 0x5 SHL ADD ADD GT PUSH2 0x1EA JUMPI JUMP JUMPDEST SWAP1 PUSH1 0x7 DUP3 LT ISZERO PUSH2 0x5E9 JUMPI MSTORE JUMP JUMPDEST SWAP2 DUP2 PUSH1 0x1F DUP5 ADD SLT ISZERO PUSH2 0x1EA JUMPI DUP3 CALLDATALOAD SWAP2 PUSH8 0xFFFFFFFFFFFFFFFF DUP4 GT PUSH2 0x1EA JUMPI PUSH1 0x20 DUP1 DUP6 ADD SWAP5 DUP5 PUSH1 0x6 SHL ADD ADD GT PUSH2 0x1EA JUMPI JUMP JUMPDEST SWAP1 PUSH1 0x5 DUP3 LT ISZERO PUSH2 0x1BF8 JUMPI PUSH1 0x1F DUP3 PUSH1 0x5 SHR PUSH1 0x2 ADD SWAP3 AND SWAP1 JUMP JUMPDEST PUSH4 0x4E487B71 PUSH1 0xE0 SHL PUSH1 0x0 MSTORE PUSH1 0x32 PUSH1 0x4 MSTORE PUSH1 0x24 PUSH1 0x0 REVERT JUMPDEST SWAP1 PUSH1 0x1F DUP1 NOT SWAP2 ADD AND DUP2 ADD SWAP1 DUP2 LT PUSH8 0xFFFFFFFFFFFFFFFF DUP3 GT OR PUSH2 0x1C30 JUMPI PUSH1 0x40 MSTORE JUMP JUMPDEST PUSH4 0x4E487B71 PUSH1 0xE0 SHL PUSH1 0x0 MSTORE PUSH1 0x41 PUSH1 0x4 MSTORE PUSH1 0x24 PUSH1 0x0 REVERT JUMPDEST PUSH8 0xFFFFFFFFFFFFFFFF DUP2 GT PUSH2 0x1C30 JUMPI PUSH1 0x5 SHL PUSH1 0x20 ADD SWAP1 JUMP JUMPDEST CALLDATALOAD SWAP1 DUP2 ISZERO ISZERO DUP3 SUB PUSH2 0x1EA JUMPI JUMP JUMPDEST ISZERO PUSH2 0x1C72 JUMPI JUMP JUMPDEST PUSH1 0x84 PUSH1 0x40 MLOAD PUSH3 0x461BCD PUSH1 0xE5 SHL DUP2 MSTORE PUSH1 0x20 PUSH1 0x4 DUP3 ADD MSTORE PUSH1 0x21 PUSH1 0x24 DUP3 ADD MSTORE PUSH32 0x526F6F6D206973206E6F7420696E207468652073686F6F74696E672073746174 PUSH1 0x44 DUP3 ADD MSTORE PUSH32 0x6500000000000000000000000000000000000000000000000000000000000000 PUSH1 0x64 DUP3 ADD MSTORE REVERT JUMPDEST SWAP1 PUSH1 0x40 MLOAD PUSH1 0xA0 DUP2 ADD DUP2 DUP2 LT PUSH8 0xFFFFFFFFFFFFFFFF DUP3 GT OR PUSH2 0x1C30 JUMPI PUSH1 0x40 MSTORE DUP1 SWAP3 PUSH1 0xFF DUP2 SLOAD AND PUSH1 0x7 DUP2 LT ISZERO PUSH2 0x5E9 JUMPI DUP3 MSTORE PUSH1 0x1 DUP2 ADD SLOAD PUSH1 0x20 DUP4 ADD MSTORE PUSH1 0x40 MLOAD PUSH1 0x40 DUP2 ADD DUP2 DUP2 LT PUSH8 0xFFFFFFFFFFFFFFFF DUP3 GT OR PUSH2 0x1C30 JUMPI PUSH1 0x40 MSTORE PUSH1 0x2 DUP3 ADD PUSH1 0x0 DUP3 JUMPDEST PUSH1 0x2 DUP3 LT PUSH2 0x1D65 JUMPI POP POP POP PUSH1 0x80 SWAP2 PUSH1 0xF SWAP2 PUSH1 0x40 DUP6 ADD MSTORE PUSH1 0xFF PUSH1 0xE DUP3 ADD SLOAD AND PUSH1 0x60 DUP6 ADD MSTORE ADD SLOAD SWAP2 ADD MSTORE JUMP JUMPDEST PUSH1 0x40 MLOAD PUSH1 0xC0 DUP2 ADD DUP2 DUP2 LT PUSH8 0xFFFFFFFFFFFFFFFF DUP3 GT OR PUSH2 0x1C30 JUMPI PUSH1 0x1 SWAP3 PUSH1 0x6 SWAP3 PUSH1 0x20 SWAP3 PUSH1 0x40 MSTORE PUSH1 0x1 PUSH1 0x1 PUSH1 0xA0 SHL SUB DUP8 SLOAD AND DUP2 MSTORE DUP5 DUP8 ADD SLOAD DUP4 DUP3 ADD MSTORE PUSH2 0xFFFF PUSH1 0x2 DUP9 ADD SLOAD AND PUSH1 0x40 DUP3 ADD MSTORE PUSH1 0x3 DUP8 ADD SLOAD PUSH1 0x60 DUP3 ADD MSTORE PUSH1 0x4 DUP8 ADD SLOAD PUSH1 0x80 DUP3 ADD MSTORE PUSH1 0x5 DUP8 ADD SLOAD PUSH1 0xA0 DUP3 ADD MSTORE DUP2 MSTORE ADD SWAP4 ADD SWAP2 ADD SWAP1 SWAP2 PUSH2 0x1D3B JUMP JUMPDEST ISZERO PUSH2 0x1DE1 JUMPI JUMP JUMPDEST PUSH1 0x64 PUSH1 0x40 MLOAD PUSH3 0x461BCD PUSH1 0xE5 SHL DUP2 MSTORE PUSH1 0x20 PUSH1 0x4 DUP3 ADD MSTORE PUSH1 0x13 PUSH1 0x24 DUP3 ADD MSTORE PUSH32 0x4974206973206E6F7420796F7572207475726E00000000000000000000000000 PUSH1 0x44 DUP3 ADD MSTORE REVERT JUMPDEST PUSH1 0xFF AND PUSH1 0x1 SUB SWAP1 PUSH1 0xFF DUP3 GT PUSH2 0x82E JUMPI JUMP JUMPDEST SWAP1 PUSH1 0x2 DUP2 LT ISZERO PUSH2 0x1BF8 JUMPI PUSH1 0x6 MUL ADD SWAP1 PUSH1 0x0 SWAP1 JUMP JUMPDEST PUSH1 0x24 CALLDATALOAD PUSH1 0xFF DUP2 AND DUP1 SWAP2 SUB PUSH2 0x1EA JUMPI DUP2 MSTORE PUSH1 0x44 CALLDATALOAD SWAP1 PUSH1 0xFF DUP3 AND DUP1 SWAP3 SUB PUSH2 0x1EA JUMPI PUSH1 0x20 ADD MSTORE JUMP JUMPDEST PUSH1 0x40 MLOAD PUSH1 0x20 DUP2 ADD SWAP2 PUSH32 0x0 DUP4 MSTORE PUSH1 0x40 DUP3 ADD MSTORE PUSH1 0x40 DUP2 MSTORE PUSH2 0x1EAE PUSH1 0x60 DUP3 PUSH2 0x1C0E JUMP JUMPDEST MLOAD SWAP1 KECCAK256 SWAP1 JUMP JUMPDEST PUSH2 0xFFFF AND PUSH2 0xFFFF DUP2 EQ PUSH2 0x82E JUMPI PUSH1 0x1 ADD SWAP1 JUMP JUMPDEST SWAP1 DUP2 MSTORE PUSH1 0x1 PUSH1 0x1 PUSH1 0xA0 SHL SUB SWAP2 SWAP1 SWAP2 AND PUSH1 0x20 DUP3 ADD MSTORE PUSH1 0x60 PUSH1 0x40 DUP3 ADD DUP2 SWAP1 MSTORE DUP2 ADD DUP4 SWAP1 MSTORE PUSH1 0x80 ADD SWAP2 PUSH1 0x0 JUMPDEST DUP2 DUP2 LT PUSH2 0x1EFD JUMPI POP POP POP SWAP1 JUMP JUMPDEST SWAP1 SWAP2 SWAP3 PUSH1 0x20 DUP1 PUSH1 0x1 SWAP3 PUSH2 0x1F0F DUP8 PUSH2 0x1C5E JUMP JUMPDEST ISZERO ISZERO DUP2 MSTORE ADD SWAP5 ADD SWAP3 SWAP2 ADD PUSH2 0x1EF0 JUMP JUMPDEST ISZERO PUSH2 0x1F28 JUMPI PUSH1 0x0 SWAP1 JUMP JUMPDEST PUSH1 0x64 PUSH1 0x40 MLOAD PUSH3 0x461BCD PUSH1 0xE5 SHL DUP2 MSTORE PUSH1 0x20 PUSH1 0x4 DUP3 ADD MSTORE PUSH1 0x20 PUSH1 0x24 DUP3 ADD MSTORE PUSH32 0x456E74727920666565206D7573742062652067726561746572207468616E2030 PUSH1 0x44 DUP3 ADD MSTORE REVERT JUMPDEST PUSH1 0xFF PUSH1 0xA SWAP2 AND MUL SWAP1 PUSH1 0xFF DUP3 AND SWAP2 DUP3 SUB PUSH2 0x82E JUMPI JUMP JUMPDEST SWAP1 PUSH2 0x1F8B DUP3 PUSH2 0x1C46 JUMP JUMPDEST PUSH2 0x1F98 PUSH1 0x40 MLOAD SWAP2 DUP3 PUSH2 0x1C0E JUMP JUMPDEST DUP3 DUP2 MSTORE DUP1 SWAP3 PUSH2 0x1FA9 PUSH1 0x1F NOT SWAP2 PUSH2 0x1C46 JUMP JUMPDEST ADD SWAP1 PUSH1 0x20 CALLDATASIZE SWAP2 ADD CALLDATACOPY JUMP JUMPDEST PUSH2 0xFFFF PUSH1 0xA SWAP2 AND MUL SWAP1 PUSH2 0xFFFF DUP3 AND SWAP2 DUP3 SUB PUSH2 0x82E JUMPI JUMP JUMPDEST PUSH2 0xFFFF PUSH1 0x1 SWAP2 AND ADD SWAP1 PUSH2 0xFFFF DUP3 GT PUSH2 0x82E JUMPI JUMP JUMPDEST PUSH2 0xFFFF PUSH1 0xA SWAP2 AND ADD SWAP1 PUSH2 0xFFFF DUP3 GT PUSH2 0x82E JUMPI JUMP JUMPDEST SWAP1 PUSH2 0xFFFF DUP1 SWAP2 AND SWAP2 AND ADD SWAP1 PUSH2 0xFFFF DUP3 GT PUSH2 0x82E JUMPI JUMP JUMPDEST DUP1 MLOAD DUP3 LT ISZERO PUSH2 0x1BF8 JUMPI PUSH1 0x20 SWAP2 PUSH1 0x5 SHL ADD ADD SWAP1 JUMP JUMPDEST SWAP2 SWAP1 DUP2 LT ISZERO PUSH2 0x1BF8 JUMPI PUSH1 0x5 SHL ADD SWAP1 JUMP JUMPDEST CALLDATALOAD DUP1 ISZERO ISZERO DUP2 SUB PUSH2 0x1EA JUMPI SWAP1 JUMP JUMPDEST PUSH1 0xFF PUSH1 0x1 SWAP2 AND ADD SWAP1 PUSH1 0xFF DUP3 GT PUSH2 0x82E JUMPI JUMP JUMPDEST SWAP1 PUSH1 0xFF DUP1 SWAP2 AND SWAP2 AND ADD SWAP1 PUSH1 0xFF DUP3 GT PUSH2 0x82E JUMPI JUMP JUMPDEST PUSH2 0xFFFF PUSH1 0x9 NOT SWAP2 AND ADD SWAP1 PUSH2 0xFFFF DUP3 GT PUSH2 0x82E JUMPI JUMP JUMPDEST PUSH2 0xFFFF PUSH1 0x0 NOT SWAP2 AND ADD SWAP1 PUSH2 0xFFFF DUP3 GT PUSH2 0x82E JUMPI JUMP JUMPDEST ISZERO PUSH2 0x2090 JUMPI JUMP JUMPDEST PUSH1 0x84 PUSH1 0x40 MLOAD PUSH3 0x461BCD PUSH1 0xE5 SHL DUP2 MSTORE PUSH1 0x20 PUSH1 0x4 DUP3 ADD MSTORE PUSH1 0x21 PUSH1 0x24 DUP3 ADD MSTORE PUSH32 0x496E76616C6964207368697020706C6163656D656E742028746F702D6C656674 PUSH1 0x44 DUP3 ADD MSTORE PUSH32 0x2900000000000000000000000000000000000000000000000000000000000000 PUSH1 0x64 DUP3 ADD MSTORE REVERT JUMPDEST ISZERO PUSH2 0x2101 JUMPI JUMP JUMPDEST PUSH1 0x64 PUSH1 0x40 MLOAD PUSH3 0x461BCD PUSH1 0xE5 SHL DUP2 MSTORE PUSH1 0x20 PUSH1 0x4 DUP3 ADD MSTORE PUSH1 0x1D PUSH1 0x24 DUP3 ADD MSTORE PUSH32 0x496E76616C6964207368697020706C6163656D656E7420286C65667429000000 PUSH1 0x44 DUP3 ADD MSTORE REVERT JUMPDEST ISZERO PUSH2 0x214C JUMPI JUMP JUMPDEST PUSH1 0x84 PUSH1 0x40 MLOAD PUSH3 0x461BCD PUSH1 0xE5 SHL DUP2 MSTORE PUSH1 0x20 PUSH1 0x4 DUP3 ADD MSTORE PUSH1 0x24 DUP1 DUP3 ADD MSTORE PUSH32 0x496E76616C6964207368697020706C6163656D656E742028626F74746F6D2D6C PUSH1 0x44 DUP3 ADD MSTORE PUSH32 0x6566742900000000000000000000000000000000000000000000000000000000 PUSH1 0x64 DUP3 ADD MSTORE REVERT JUMPDEST ISZERO PUSH2 0x21BC JUMPI JUMP JUMPDEST PUSH1 0x64 PUSH1 0x40 MLOAD PUSH3 0x461BCD PUSH1 0xE5 SHL DUP2 MSTORE PUSH1 0x20 PUSH1 0x4 DUP3 ADD MSTORE PUSH1 0x1C PUSH1 0x24 DUP3 ADD MSTORE PUSH32 0x496E76616C6964207368697020706C6163656D656E742028746F702900000000 PUSH1 0x44 DUP3 ADD MSTORE REVERT JUMPDEST ISZERO PUSH2 0x2207 JUMPI JUMP JUMPDEST PUSH1 0x64 PUSH1 0x40 MLOAD PUSH3 0x461BCD PUSH1 0xE5 SHL DUP2 MSTORE PUSH1 0x20 PUSH1 0x4 DUP3 ADD MSTORE PUSH1 0x1F PUSH1 0x24 DUP3 ADD MSTORE PUSH32 0x496E76616C6964207368697020706C6163656D656E742028626F74746F6D2900 PUSH1 0x44 DUP3 ADD MSTORE REVERT JUMPDEST PUSH1 0xFF AND PUSH1 0xFF DUP2 EQ PUSH2 0x82E JUMPI PUSH1 0x1 ADD SWAP1 JUMP JUMPDEST ISZERO PUSH2 0x2263 JUMPI JUMP JUMPDEST PUSH1 0x84 PUSH1 0x40 MLOAD PUSH3 0x461BCD PUSH1 0xE5 SHL DUP2 MSTORE PUSH1 0x20 PUSH1 0x4 DUP3 ADD MSTORE PUSH1 0x22 PUSH1 0x24 DUP3 ADD MSTORE PUSH32 0x496E76616C6964207368697020706C6163656D656E742028746F702D72696768 PUSH1 0x44 DUP3 ADD MSTORE PUSH32 0x7429000000000000000000000000000000000000000000000000000000000000 PUSH1 0x64 DUP3 ADD MSTORE REVERT JUMPDEST ISZERO PUSH2 0x22D4 JUMPI JUMP JUMPDEST PUSH1 0x64 PUSH1 0x40 MLOAD PUSH3 0x461BCD PUSH1 0xE5 SHL DUP2 MSTORE PUSH1 0x20 PUSH1 0x4 DUP3 ADD MSTORE PUSH1 0x1E PUSH1 0x24 DUP3 ADD MSTORE PUSH32 0x496E76616C6964207368697020706C6163656D656E7420287269676874290000 PUSH1 0x44 DUP3 ADD MSTORE REVERT JUMPDEST ISZERO PUSH2 0x231F JUMPI JUMP JUMPDEST PUSH1 0x84 PUSH1 0x40 MLOAD PUSH3 0x461BCD PUSH1 0xE5 SHL DUP2 MSTORE PUSH1 0x20 PUSH1 0x4 DUP3 ADD MSTORE PUSH1 0x25 PUSH1 0x24 DUP3 ADD MSTORE PUSH32 0x496E76616C6964207368697020706C6163656D656E742028626F74746F6D2D72 PUSH1 0x44 DUP3 ADD MSTORE PUSH32 0x6967687429000000000000000000000000000000000000000000000000000000 PUSH1 0x64 DUP3 ADD MSTORE REVERT JUMPDEST PUSH1 0xA0 SWAP2 SWAP1 SWAP2 MSTORE PUSH1 0x80 DUP3 SWAP1 MSTORE PUSH1 0x64 SWAP2 PUSH1 0x63 NOT ADD PUSH2 0x2B3E JUMPI SWAP2 SWAP1 PUSH1 0x40 MLOAD SWAP2 PUSH2 0x23B0 PUSH1 0xC0 DUP5 PUSH2 0x1C0E JUMP JUMPDEST PUSH1 0x5 DUP4 MSTORE PUSH1 0xA0 CALLDATASIZE PUSH1 0x20 DUP6 ADD CALLDATACOPY PUSH2 0x23C7 PUSH1 0x80 MLOAD PUSH2 0x1F81 JUMP JUMPDEST PUSH1 0x0 SWAP4 JUMPDEST PUSH1 0xA PUSH1 0xFF DUP7 AND LT ISZERO PUSH2 0x2A59 JUMPI PUSH1 0x0 SWAP4 SWAP3 SWAP4 JUMPDEST PUSH1 0xFF DUP2 AND SWAP4 PUSH1 0xA DUP6 LT ISZERO PUSH2 0x2A46 JUMPI PUSH2 0x2400 DUP6 PUSH2 0x23FB PUSH1 0xFF DUP11 AND PUSH2 0x1FB3 JUMP JUMPDEST PUSH2 0x1FF2 JUMP JUMPDEST SWAP8 PUSH2 0xFFFF DUP10 AND PUSH2 0x2410 DUP2 DUP8 PUSH2 0x2008 JUMP JUMPDEST MLOAD ISZERO DUP1 ISZERO SWAP1 PUSH2 0x2A2D JUMPI JUMPDEST PUSH2 0x2A1D JUMPI PUSH2 0x242A PUSH1 0x1 SWAP2 DUP8 PUSH2 0x2008 JUMP JUMPDEST MSTORE PUSH1 0xA PUSH1 0xFF PUSH2 0x2438 DUP6 PUSH2 0x2039 JUMP JUMPDEST AND LT SWAP1 DUP2 PUSH2 0x2A03 JUMPI JUMPDEST PUSH1 0xA PUSH1 0xFF PUSH2 0x244E DUP12 PUSH2 0x2039 JUMP JUMPDEST AND LT SWAP2 DUP3 PUSH2 0x29E9 JUMPI JUMPDEST DUP3 DUP2 DUP1 PUSH2 0x29E2 JUMPI JUMPDEST PUSH2 0x299F JUMPI ISZERO SWAP1 DUP2 PUSH2 0x2996 JUMPI JUMPDEST POP PUSH2 0x298D JUMPI JUMPDEST PUSH1 0x1 SWAP2 ISZERO PUSH2 0x275F JUMPI DUP10 PUSH1 0xFF DUP11 AND PUSH2 0x26DA JUMPI JUMPDEST POP PUSH1 0x9 DUP8 EQ SWAP8 SWAP7 ISZERO SWAP7 SWAP2 JUMPDEST DUP11 PUSH1 0x80 MLOAD PUSH2 0xFFFF PUSH2 0x24AA PUSH1 0xFF PUSH2 0x24A3 DUP7 PUSH2 0x1F6C JUMP JUMPDEST AND DUP5 PUSH2 0x1FF2 JUMP JUMPDEST AND LT SWAP1 DUP2 PUSH2 0x26BA JUMPI JUMPDEST POP ISZERO PUSH2 0x2562 JUMPI DUP1 PUSH1 0x1 PUSH2 0x24DB PUSH2 0xFFFF PUSH2 0x24D4 DUP16 PUSH1 0xFF PUSH2 0x1196 PUSH2 0x2505 SWAP9 PUSH2 0x1F6C JUMP JUMPDEST AND DUP11 PUSH2 0x2008 JUMP JUMPDEST MSTORE PUSH2 0x24EE DUP10 DUP14 DUP12 ISZERO PUSH2 0x2544 JUMPI JUMPDEST POP PUSH2 0x20FA JUMP JUMPDEST PUSH2 0x2500 DUP11 DUP14 DUP13 ISZERO PUSH2 0x250A JUMPI JUMPDEST POP PUSH2 0x22CD JUMP JUMPDEST PUSH2 0x224B JUMP JUMPDEST PUSH2 0x248E JUMP JUMPDEST PUSH2 0x253D SWAP2 POP PUSH2 0xFFFF PUSH2 0x252C PUSH2 0x2521 PUSH2 0x2538 SWAP4 PUSH2 0x1FCA JUMP JUMPDEST PUSH1 0xFF PUSH2 0x1196 DUP9 PUSH2 0x1F6C JUMP JUMPDEST AND PUSH1 0x80 MLOAD PUSH1 0xA0 MLOAD PUSH2 0x201C JUMP JUMPDEST PUSH2 0x202C JUMP JUMPDEST ISZERO DUP14 PUSH2 0x24FA JUMP JUMPDEST PUSH2 0x255B SWAP2 POP PUSH2 0xFFFF PUSH2 0x252C PUSH2 0x2521 PUSH2 0x2538 SWAP4 PUSH2 0x2074 JUMP JUMPDEST ISZERO DUP14 PUSH2 0x24E8 JUMP JUMPDEST SWAP2 SWAP7 SWAP1 SWAP10 SWAP8 PUSH1 0xFF SWAP4 SWAP9 PUSH1 0xA DUP6 PUSH2 0x2578 DUP7 DUP15 PUSH2 0x204B JUMP JUMPDEST AND LT PUSH2 0x2612 JUMPI JUMPDEST POP POP POP JUMPDEST AND PUSH1 0x5 DUP2 GT PUSH2 0x25CF JUMPI PUSH1 0x0 NOT ADD PUSH1 0xFF DUP2 GT PUSH2 0x82E JUMPI PUSH1 0xFF SWAP2 DUP3 PUSH1 0x1 SWAP3 AND DUP4 PUSH2 0x25C0 PUSH2 0x25B9 DUP3 PUSH2 0x25B2 DUP6 DUP11 PUSH2 0x2008 JUMP JUMPDEST MLOAD AND PUSH2 0x224B JUMP JUMPDEST SWAP3 DUP8 PUSH2 0x2008 JUMP JUMPDEST SWAP2 AND SWAP1 MSTORE JUMPDEST ADD AND SWAP4 SWAP3 SWAP4 PUSH2 0x23DD JUMP JUMPDEST DUP6 PUSH1 0x40 MLOAD PUSH3 0x461BCD PUSH1 0xE5 SHL DUP2 MSTORE PUSH1 0x20 PUSH1 0x4 DUP3 ADD MSTORE PUSH1 0x17 PUSH1 0x24 DUP3 ADD MSTORE PUSH32 0x53686970206C656E67746820697320746F6F206C6F6E67000000000000000000 PUSH1 0x44 DUP3 ADD MSTORE REVERT JUMPDEST PUSH2 0x2659 SWAP3 DUP1 ISZERO PUSH2 0x2689 JUMPI JUMPDEST PUSH2 0x2626 SWAP1 PUSH2 0x2145 JUMP JUMPDEST PUSH2 0x264C PUSH2 0x2646 PUSH2 0x2538 PUSH2 0xFFFF PUSH2 0x252C DUP10 PUSH2 0x263F DUP11 PUSH2 0x1F6C JUMP JUMPDEST AND DUP7 PUSH2 0x1FF2 JUMP JUMPDEST ISZERO PUSH2 0x2200 JUMP JUMPDEST DUP2 ISZERO PUSH2 0x2661 JUMPI JUMPDEST POP PUSH2 0x2318 JUMP JUMPDEST CODESIZE DUP1 DUP1 PUSH2 0x257F JUMP JUMPDEST PUSH2 0x2682 SWAP2 POP PUSH2 0xFFFF PUSH2 0x252C PUSH2 0x267D PUSH2 0x2538 SWAP4 DUP9 PUSH2 0x1196 DUP10 PUSH2 0x1F6C JUMP JUMPDEST PUSH2 0x1FCA JUMP JUMPDEST ISZERO CODESIZE PUSH2 0x2653 JUMP JUMPDEST POP PUSH2 0x2626 PUSH2 0x26B2 PUSH2 0x2538 PUSH2 0xFFFF PUSH2 0x252C PUSH2 0x26AD DUP11 PUSH2 0x26A6 DUP12 PUSH2 0x1F6C JUMP JUMPDEST AND DUP8 PUSH2 0x1FF2 JUMP JUMPDEST PUSH2 0x2074 JUMP JUMPDEST ISZERO SWAP1 POP PUSH2 0x261D JUMP JUMPDEST PUSH2 0x26D4 SWAP2 POP PUSH2 0xFFFF PUSH2 0x252C PUSH2 0x2538 SWAP3 PUSH1 0xFF PUSH2 0x1196 DUP8 PUSH2 0x1F6C JUMP JUMPDEST DUP12 PUSH2 0x24B3 JUMP JUMPDEST PUSH2 0x2701 PUSH2 0x2538 PUSH2 0xFFFF PUSH2 0x252C PUSH2 0x2707 SWAP5 DUP13 ISZERO DUP1 ISZERO PUSH2 0x2740 JUMPI JUMPDEST PUSH2 0x26FC SWAP1 PUSH2 0x2089 JUMP JUMPDEST PUSH2 0x205F JUMP JUMPDEST ISZERO PUSH2 0x21B5 JUMP JUMPDEST PUSH2 0x271C PUSH1 0x9 DUP9 EQ DUP12 DUP2 ISZERO PUSH2 0x2722 JUMPI JUMPDEST POP PUSH2 0x225C JUMP JUMPDEST DUP10 PUSH2 0x2483 JUMP JUMPDEST PUSH2 0x2739 SWAP2 POP PUSH2 0xFFFF PUSH2 0x252C PUSH2 0x26FC PUSH2 0x2538 SWAP4 PUSH2 0x1FCA JUMP JUMPDEST ISZERO DUP12 PUSH2 0x2716 JUMP JUMPDEST POP PUSH2 0x26FC PUSH2 0x2757 PUSH2 0x2538 DUP6 PUSH2 0x252C PUSH2 0x26AD DUP7 PUSH2 0x205F JUMP JUMPDEST ISZERO SWAP1 POP PUSH2 0x26F3 JUMP JUMPDEST SWAP1 SWAP2 SWAP9 SWAP7 SWAP8 SWAP6 PUSH2 0x28FF JUMPI JUMPDEST PUSH1 0x9 SWAP8 SWAP2 JUMPDEST PUSH1 0x80 MLOAD PUSH2 0xFFFF PUSH2 0x2782 PUSH1 0xFF DUP5 AND DUP12 PUSH2 0x1FF2 JUMP JUMPDEST AND LT DUP1 PUSH2 0x28E3 JUMPI JUMPDEST ISZERO PUSH2 0x2821 JUMPI DUP1 PUSH1 0x1 PUSH2 0x27AF PUSH2 0xFFFF PUSH2 0x27A8 PUSH1 0xFF PUSH2 0x27E0 SWAP7 AND DUP14 PUSH2 0x1FF2 JUMP JUMPDEST AND DUP10 PUSH2 0x2008 JUMP JUMPDEST MSTORE PUSH1 0xFF DUP9 AND DUP1 ISZERO SWAP1 PUSH2 0x2803 JUMPI JUMPDEST PUSH2 0x27C5 SWAP1 PUSH2 0x21B5 JUMP JUMPDEST PUSH1 0xFF DUP9 DUP2 AND SWAP1 DUP12 AND DUP2 DUP2 EQ SWAP2 SUB PUSH2 0x27E5 JUMPI JUMPDEST PUSH2 0x2500 SWAP1 PUSH2 0x2200 JUMP JUMPDEST PUSH2 0x276F JUMP JUMPDEST POP PUSH2 0x2500 PUSH2 0x27FB PUSH2 0x2538 PUSH2 0xFFFF PUSH2 0x252C DUP14 PUSH2 0x1FDE JUMP JUMPDEST ISZERO SWAP1 POP PUSH2 0x27D7 JUMP JUMPDEST POP PUSH2 0x27C5 PUSH2 0x2819 PUSH2 0x2538 PUSH2 0xFFFF PUSH2 0x252C DUP14 PUSH2 0x205F JUMP JUMPDEST ISZERO SWAP1 POP PUSH2 0x27BC JUMP JUMPDEST SWAP1 SWAP9 SWAP7 PUSH1 0xFF SWAP3 SWAP7 SWAP9 PUSH1 0xA DUP5 PUSH2 0x2836 DUP6 DUP9 PUSH2 0x204B JUMP JUMPDEST AND LT PUSH2 0x2844 JUMPI JUMPDEST POP POP PUSH2 0x2583 JUMP JUMPDEST PUSH2 0x2893 SWAP2 DUP11 DUP6 AND DUP1 ISZERO SWAP1 PUSH2 0x28BF JUMPI JUMPDEST PUSH2 0x285C SWAP1 PUSH2 0x225C JUMP JUMPDEST DUP5 DUP5 AND SWAP1 PUSH2 0x287C PUSH2 0x2876 PUSH2 0x2538 PUSH2 0xFFFF PUSH2 0x252C DUP7 DUP7 PUSH2 0x1FF2 JUMP JUMPDEST ISZERO PUSH2 0x22CD JUMP JUMPDEST DUP12 DUP7 AND SWAP3 DUP7 AND DUP4 DUP2 EQ SWAP4 SUB PUSH2 0x289A JUMPI JUMPDEST POP POP PUSH2 0x2318 JUMP JUMPDEST CODESIZE DUP1 PUSH2 0x283D JUMP JUMPDEST PUSH2 0x28B7 SWAP3 POP PUSH2 0x252C PUSH2 0x28B2 PUSH2 0x2538 SWAP4 PUSH2 0xFFFF SWAP4 PUSH2 0x1FF2 JUMP JUMPDEST PUSH2 0x1FDE JUMP JUMPDEST ISZERO CODESIZE DUP1 PUSH2 0x288C JUMP JUMPDEST POP PUSH2 0x285C PUSH2 0x28DB PUSH2 0x2538 PUSH2 0xFFFF PUSH2 0x252C PUSH2 0x26FC DUP11 DUP11 AND DUP8 PUSH2 0x1FF2 JUMP JUMPDEST ISZERO SWAP1 POP PUSH2 0x2853 JUMP JUMPDEST POP PUSH2 0x28FA PUSH2 0x2538 PUSH2 0xFFFF PUSH2 0x252C PUSH1 0xFF DUP6 AND DUP13 PUSH2 0x1FF2 JUMP JUMPDEST PUSH2 0x278A JUMP JUMPDEST PUSH1 0xFF DUP7 AND ISZERO DUP1 ISZERO PUSH2 0x296C JUMPI JUMPDEST PUSH2 0x2914 SWAP1 PUSH2 0x2089 JUMP JUMPDEST PUSH2 0x292F PUSH2 0x2929 PUSH2 0x2538 PUSH2 0xFFFF PUSH2 0x252C DUP12 PUSH2 0x2074 JUMP JUMPDEST ISZERO PUSH2 0x20FA JUMP JUMPDEST PUSH1 0xFF DUP7 AND PUSH1 0x9 EQ DUP1 ISZERO PUSH2 0x294B JUMPI JUMPDEST PUSH2 0x2946 SWAP1 PUSH2 0x2145 JUMP JUMPDEST PUSH2 0x276A JUMP JUMPDEST POP PUSH2 0x2946 PUSH2 0x2964 PUSH2 0x2538 PUSH2 0xFFFF PUSH2 0x252C PUSH2 0x26AD DUP13 PUSH2 0x1FDE JUMP JUMPDEST ISZERO SWAP1 POP PUSH2 0x293D JUMP JUMPDEST POP PUSH2 0x2914 PUSH2 0x2985 PUSH2 0x2538 PUSH2 0xFFFF PUSH2 0x252C PUSH2 0x26AD DUP13 PUSH2 0x205F JUMP JUMPDEST ISZERO SWAP1 POP PUSH2 0x290B JUMP JUMPDEST PUSH1 0x1 SWAP2 POP PUSH2 0x2471 JUMP JUMPDEST SWAP1 POP ISZERO CODESIZE PUSH2 0x246B JUMP JUMPDEST DUP5 PUSH1 0x40 MLOAD PUSH3 0x461BCD PUSH1 0xE5 SHL DUP2 MSTORE PUSH1 0x20 PUSH1 0x4 DUP3 ADD MSTORE PUSH1 0x20 PUSH1 0x24 DUP3 ADD MSTORE PUSH32 0x496E76616C6964207368697020706C6163656D656E7420284C2D736861706529 PUSH1 0x44 DUP3 ADD MSTORE REVERT JUMPDEST POP DUP1 PUSH2 0x245F JUMP JUMPDEST SWAP2 POP PUSH2 0x29FD PUSH2 0x2538 PUSH2 0xFFFF PUSH2 0x252C DUP14 PUSH2 0x1FDE JUMP JUMPDEST SWAP2 PUSH2 0x2457 JUMP JUMPDEST SWAP1 POP PUSH2 0x2A17 PUSH2 0x2538 PUSH2 0xFFFF PUSH2 0x252C DUP13 PUSH2 0x1FCA JUMP JUMPDEST SWAP1 PUSH2 0x2441 JUMP JUMPDEST POP SWAP8 POP SWAP5 SWAP4 POP PUSH1 0x1 PUSH1 0xFF SWAP2 PUSH2 0x25C5 JUMP JUMPDEST POP PUSH2 0x2A40 PUSH2 0x2538 DUP3 PUSH1 0x80 MLOAD PUSH1 0xA0 MLOAD PUSH2 0x201C JUMP JUMPDEST ISZERO PUSH2 0x241A JUMP JUMPDEST PUSH1 0x1 SWAP1 SWAP7 ADD PUSH1 0xFF AND SWAP6 SWAP5 SWAP4 POP PUSH2 0x23CB SWAP1 POP JUMP JUMPDEST SWAP2 SWAP5 SWAP3 SWAP4 POP POP PUSH1 0x0 JUMPDEST PUSH1 0xFF DUP2 AND PUSH1 0x5 DUP2 LT ISZERO PUSH2 0x2AE3 JUMPI PUSH2 0x2A7B PUSH1 0xFF SWAP2 DUP5 PUSH2 0x2008 JUMP JUMPDEST MLOAD AND PUSH1 0xFF PUSH2 0x2A88 DUP4 PUSH2 0x1BE0 JUMP JUMPDEST SWAP1 SLOAD SWAP1 PUSH1 0x3 SHL SHR AND SUB PUSH2 0x2AA0 JUMPI PUSH1 0x1 ADD PUSH1 0xFF AND PUSH2 0x2A62 JUMP JUMPDEST DUP4 PUSH1 0x40 MLOAD PUSH3 0x461BCD PUSH1 0xE5 SHL DUP2 MSTORE PUSH1 0x20 PUSH1 0x4 DUP3 ADD MSTORE PUSH1 0x12 PUSH1 0x24 DUP3 ADD MSTORE PUSH32 0x496E76616C6964207368697020636F756E740000000000000000000000000000 PUSH1 0x44 DUP3 ADD MSTORE REVERT JUMPDEST POP POP POP SWAP1 POP PUSH1 0x40 MLOAD PUSH1 0x20 DUP2 ADD SWAP2 DUP3 MSTORE PUSH1 0x40 DUP2 ADD DUP2 PUSH1 0xA0 MLOAD SWAP2 PUSH1 0x0 JUMPDEST PUSH1 0x80 MLOAD DUP2 LT PUSH2 0x2B1B JUMPI POP PUSH2 0x1EAE SWAP3 POP SUB PUSH1 0x1F NOT DUP2 ADD DUP4 MSTORE DUP3 PUSH2 0x1C0E JUMP JUMPDEST SWAP2 POP PUSH1 0x20 DUP1 PUSH1 0x1 SWAP3 PUSH2 0x2B2C DUP7 PUSH2 0x1C5E JUMP JUMPDEST ISZERO ISZERO DUP2 MSTORE ADD SWAP4 ADD SWAP2 ADD SWAP2 DUP4 SWAP2 SWAP3 PUSH2 0x2AFE JUMP JUMPDEST POP PUSH1 0x40 MLOAD PUSH3 0x461BCD PUSH1 0xE5 SHL DUP2 MSTORE PUSH1 0x20 PUSH1 0x4 DUP3 ADD MSTORE PUSH1 0x12 PUSH1 0x24 DUP3 ADD MSTORE PUSH32 0x496E76616C696420626F6172642073697A650000000000000000000000000000 PUSH1 0x44 DUP3 ADD MSTORE REVERT JUMPDEST PUSH1 0x40 ADD DUP1 MLOAD MLOAD MLOAD PUSH1 0x1 PUSH1 0x1 PUSH1 0xA0 SHL SUB SWAP3 DUP4 AND SWAP3 AND DUP3 SUB PUSH2 0x2BA2 JUMPI POP POP PUSH1 0x0 SWAP1 JUMP JUMPDEST MLOAD PUSH1 0x20 ADD MLOAD MLOAD PUSH1 0x1 PUSH1 0x1 PUSH1 0xA0 SHL SUB AND SUB PUSH2 0x2BBB JUMPI PUSH1 0x1 SWAP1 JUMP JUMPDEST PUSH1 0x84 PUSH1 0x40 MLOAD PUSH3 0x461BCD PUSH1 0xE5 SHL DUP2 MSTORE PUSH1 0x20 PUSH1 0x4 DUP3 ADD MSTORE PUSH1 0x21 PUSH1 0x24 DUP3 ADD MSTORE PUSH32 0x596F7520617265206E6F74206120706C6179657220696E207468697320726F6F PUSH1 0x44 DUP3 ADD MSTORE PUSH32 0x6D00000000000000000000000000000000000000000000000000000000000000 PUSH1 0x64 DUP3 ADD MSTORE REVERT JUMPDEST PUSH32 0x0 NUMBER ADD SWAP1 DUP2 NUMBER GT PUSH2 0x82E JUMPI PUSH1 0xF ADD SSTORE JUMP JUMPDEST PUSH1 0x2 PUSH1 0x1 SLOAD EQ PUSH2 0x2C67 JUMPI PUSH1 0x2 PUSH1 0x1 SSTORE JUMP JUMPDEST PUSH32 0x3EE5AEB500000000000000000000000000000000000000000000000000000000 PUSH1 0x0 MSTORE PUSH1 0x4 PUSH1 0x0 REVERT JUMPDEST PUSH1 0x1 PUSH1 0x1 PUSH1 0xA0 SHL SUB PUSH1 0x0 SLOAD AND CALLER SUB PUSH2 0x2CA5 JUMPI JUMP JUMPDEST PUSH32 0x118CDAA700000000000000000000000000000000000000000000000000000000 PUSH1 0x0 MSTORE CALLER PUSH1 0x4 MSTORE PUSH1 0x24 PUSH1 0x0 REVERT JUMPDEST CALLDATALOAD PUSH1 0xFF DUP2 AND DUP2 SUB PUSH2 0x1EA JUMPI SWAP1 JUMP JUMPDEST ISZERO PUSH2 0x2CE8 JUMPI JUMP JUMPDEST PUSH1 0x64 PUSH1 0x40 MLOAD PUSH3 0x461BCD PUSH1 0xE5 SHL DUP2 MSTORE PUSH1 0x20 PUSH1 0x4 DUP3 ADD MSTORE PUSH1 0x10 PUSH1 0x24 DUP3 ADD MSTORE PUSH32 0x496E76616C696420706F736974696F6E00000000000000000000000000000000 PUSH1 0x44 DUP3 ADD MSTORE REVERT JUMPDEST SWAP3 SWAP1 SWAP2 PUSH1 0xA PUSH1 0xFF PUSH2 0x2D3C DUP4 PUSH2 0x2CD3 JUMP JUMPDEST AND LT DUP1 PUSH2 0x2D9F JUMPI JUMPDEST PUSH2 0x2D4D SWAP1 PUSH2 0x2CE1 JUMP JUMPDEST PUSH1 0xFF PUSH2 0x2D66 PUSH1 0x20 DUP3 PUSH2 0x2D5E DUP6 PUSH2 0x2CD3 JUMP JUMPDEST AND SWAP4 ADD PUSH2 0x2CD3 JUMP JUMPDEST AND SWAP1 PUSH1 0x3 DUP4 LT ISZERO PUSH2 0x5E9 JUMPI PUSH1 0x40 MLOAD SWAP4 PUSH1 0x20 DUP6 ADD SWAP6 DUP7 MSTORE PUSH1 0x40 DUP6 ADD MSTORE PUSH1 0x60 DUP5 ADD MSTORE PUSH1 0x80 DUP4 ADD MSTORE PUSH1 0xA0 DUP3 ADD MSTORE PUSH1 0xA0 DUP2 MSTORE PUSH2 0x1EAE PUSH1 0xC0 DUP3 PUSH2 0x1C0E JUMP JUMPDEST POP PUSH2 0x2D4D PUSH1 0xA PUSH1 0xFF PUSH2 0x2DB3 PUSH1 0x20 DUP6 ADD PUSH2 0x2CD3 JUMP JUMPDEST AND LT SWAP1 POP PUSH2 0x2D44 JUMP JUMPDEST SWAP2 SWAP1 DUP2 LT ISZERO PUSH2 0x1BF8 JUMPI PUSH1 0x6 SHL ADD SWAP1 JUMP JUMPDEST SWAP4 SWAP6 SWAP3 SWAP2 SWAP6 SWAP5 SWAP1 SWAP5 PUSH1 0x0 SWAP7 PUSH1 0x0 SWAP7 PUSH1 0x0 SWAP7 DUP5 DUP7 SUB PUSH2 0x30B8 JUMPI PUSH2 0x2DED DUP3 PUSH2 0x1F81 JUMP JUMPDEST SWAP3 PUSH1 0x0 JUMPDEST DUP8 DUP2 LT PUSH2 0x2E02 JUMPI POP POP POP POP POP POP POP POP JUMP JUMPDEST PUSH1 0x1 DUP2 SWAP13 SWAP12 SWAP13 ADD SWAP11 DUP12 DUP3 GT PUSH2 0x82E JUMPI PUSH2 0x2E21 SWAP1 DUP13 PUSH2 0x1124 DUP5 DUP13 DUP8 PUSH2 0x2DBC JUMP JUMPDEST SWAP12 PUSH1 0x0 SWAP12 PUSH2 0x2E30 DUP4 DUP12 DUP7 PUSH2 0x2DBC JUMP JUMPDEST SWAP1 PUSH2 0x2E3C DUP5 DUP12 DUP12 PUSH2 0x201C JUMP JUMPDEST CALLDATALOAD SWAP3 PUSH1 0x3 DUP5 LT ISZERO PUSH2 0x30B4 JUMPI SWAP1 PUSH2 0x2E53 SWAP4 SWAP3 SWAP2 PUSH2 0x2D2C JUMP JUMPDEST SWAP11 PUSH2 0x2E5F DUP3 DUP11 DUP6 PUSH2 0x2DBC JUMP JUMPDEST PUSH2 0x2E68 SWAP1 PUSH2 0x2CD3 JUMP JUMPDEST PUSH1 0xFF AND PUSH2 0x2E74 SWAP1 PUSH2 0x1FB3 JUMP JUMPDEST PUSH2 0x2E7F DUP4 DUP12 DUP7 PUSH2 0x2DBC JUMP JUMPDEST PUSH1 0x20 ADD PUSH2 0x2E8B SWAP1 PUSH2 0x2CD3 JUMP JUMPDEST PUSH1 0xFF AND PUSH2 0x2E97 SWAP2 PUSH2 0x1FF2 JUMP JUMPDEST PUSH2 0xFFFF DUP2 AND PUSH2 0x2EA7 DUP2 DUP9 DUP9 PUSH2 0x201C JUMP JUMPDEST PUSH2 0x2EB0 SWAP1 PUSH2 0x202C JUMP JUMPDEST PUSH2 0x2F45 JUMPI POP POP PUSH2 0x2EC1 DUP3 DUP10 DUP10 PUSH2 0x201C JUMP JUMPDEST CALLDATALOAD SWAP1 PUSH1 0x3 DUP3 LT ISZERO PUSH2 0x11DC JUMPI POP PUSH2 0x2EDB JUMPI PUSH1 0x1 SWAP1 JUMPDEST ADD PUSH2 0x2DF1 JUMP JUMPDEST PUSH1 0x84 PUSH1 0x40 MLOAD PUSH3 0x461BCD PUSH1 0xE5 SHL DUP2 MSTORE PUSH1 0x20 PUSH1 0x4 DUP3 ADD MSTORE PUSH1 0x2D PUSH1 0x24 DUP3 ADD MSTORE PUSH32 0x4D69737365642073686F742063616E6E6F7420626520616E7377657265642061 PUSH1 0x44 DUP3 ADD MSTORE PUSH32 0x7320686974206F722073756E6B00000000000000000000000000000000000000 PUSH1 0x64 DUP3 ADD MSTORE REVERT JUMPDEST PUSH2 0x2F4F DUP2 DUP10 PUSH2 0x2008 JUMP JUMPDEST MLOAD ISZERO PUSH2 0x3096 JUMPI JUMPDEST SWAP1 PUSH1 0x1 PUSH2 0x2F66 PUSH2 0x2F6F SWAP4 DUP11 PUSH2 0x2008 JUMP JUMPDEST MSTORE DUP8 DUP8 DUP8 PUSH2 0x32E8 JUMP JUMPDEST ISZERO PUSH2 0x3005 JUMPI PUSH2 0x2F7F DUP3 DUP10 DUP10 PUSH2 0x201C JUMP JUMPDEST CALLDATALOAD SWAP1 PUSH1 0x3 DUP3 LT ISZERO PUSH2 0x11DC JUMPI POP PUSH1 0x1 NOT ADD PUSH2 0x2F9B JUMPI PUSH1 0x1 SWAP1 PUSH2 0x2ED5 JUMP JUMPDEST PUSH1 0x84 PUSH1 0x40 MLOAD PUSH3 0x461BCD PUSH1 0xE5 SHL DUP2 MSTORE PUSH1 0x20 PUSH1 0x4 DUP3 ADD MSTORE PUSH1 0x2A PUSH1 0x24 DUP3 ADD MSTORE PUSH32 0x536869702063616E6E6F742062652073756E6B20696620697420686173206E6F PUSH1 0x44 DUP3 ADD MSTORE PUSH32 0x74206265656E2068697400000000000000000000000000000000000000000000 PUSH1 0x64 DUP3 ADD MSTORE REVERT JUMPDEST PUSH2 0x3010 DUP3 DUP10 DUP10 PUSH2 0x201C JUMP JUMPDEST CALLDATALOAD SWAP1 PUSH1 0x3 DUP3 LT ISZERO PUSH2 0x11DC JUMPI POP PUSH1 0x0 NOT ADD PUSH2 0x302C JUMPI PUSH1 0x1 SWAP1 PUSH2 0x2ED5 JUMP JUMPDEST PUSH1 0x84 PUSH1 0x40 MLOAD PUSH3 0x461BCD PUSH1 0xE5 SHL DUP2 MSTORE PUSH1 0x20 PUSH1 0x4 DUP3 ADD MSTORE PUSH1 0x30 PUSH1 0x24 DUP3 ADD MSTORE PUSH32 0x53686970206D7573742062652073756E6B20696620616C6C2069747320706172 PUSH1 0x44 DUP3 ADD MSTORE PUSH32 0x74732068617665206265656E2068697400000000000000000000000000000000 PUSH1 0x64 DUP3 ADD MSTORE REVERT JUMPDEST SWAP12 SWAP1 PUSH1 0x1 PUSH2 0x2F66 PUSH2 0x30A9 PUSH2 0x2F6F SWAP5 PUSH2 0x1EB4 JUMP JUMPDEST SWAP15 SWAP3 SWAP4 POP POP POP PUSH2 0x2F56 JUMP JUMPDEST DUP15 DUP1 REVERT JUMPDEST PUSH1 0x84 PUSH1 0x40 MLOAD PUSH3 0x461BCD PUSH1 0xE5 SHL DUP2 MSTORE PUSH1 0x20 PUSH1 0x4 DUP3 ADD MSTORE PUSH1 0x2B PUSH1 0x24 DUP3 ADD MSTORE PUSH32 0x53686F747320616E6420616E7377657273206D75737420686176652074686520 PUSH1 0x44 DUP3 ADD MSTORE PUSH32 0x73616D65206C656E677468000000000000000000000000000000000000000000 PUSH1 0x64 DUP3 ADD MSTORE REVERT JUMPDEST SWAP2 PUSH1 0xA PUSH1 0xFF PUSH2 0x3130 DUP4 PUSH2 0x2CD3 JUMP JUMPDEST AND LT DUP1 PUSH2 0x317D JUMPI JUMPDEST PUSH2 0x3141 SWAP1 PUSH2 0x2CE1 JUMP JUMPDEST PUSH1 0xFF PUSH2 0x3152 PUSH1 0x20 DUP3 PUSH2 0x2D5E DUP6 PUSH2 0x2CD3 JUMP JUMPDEST AND SWAP1 PUSH1 0x40 MLOAD SWAP3 PUSH1 0x20 DUP5 ADD SWAP5 DUP6 MSTORE PUSH1 0x40 DUP5 ADD MSTORE PUSH1 0x60 DUP4 ADD MSTORE PUSH1 0x80 DUP3 ADD MSTORE PUSH1 0x80 DUP2 MSTORE PUSH2 0x1EAE PUSH1 0xA0 DUP3 PUSH2 0x1C0E JUMP JUMPDEST POP PUSH2 0x3141 PUSH1 0xA PUSH1 0xFF PUSH2 0x3191 PUSH1 0x20 DUP6 ADD PUSH2 0x2CD3 JUMP JUMPDEST AND LT SWAP1 POP PUSH2 0x3138 JUMP JUMPDEST SWAP8 SWAP5 SWAP2 PUSH2 0x31C7 DUP6 DUP6 PUSH1 0x2 SWAP4 PUSH2 0x31C2 DUP7 PUSH1 0xFF DUP16 SWAP9 SWAP15 SWAP12 SWAP9 PUSH1 0xE SWAP12 SWAP15 SWAP12 DUP3 SWAP2 ADD SLOAD AND SWAP2 AND EQ PUSH2 0x1DDA JUMP JUMPDEST PUSH2 0x2389 JUMP JUMPDEST SWAP9 ADD SWAP8 PUSH1 0x1 PUSH2 0x31D6 DUP10 DUP12 PUSH2 0x1E36 JUMP JUMPDEST POP ADD SLOAD SUB PUSH2 0x32A4 JUMPI PUSH2 0x31E7 SWAP6 PUSH2 0x2DCC JUMP JUMPDEST POP SWAP3 SWAP1 PUSH1 0x3 PUSH2 0x31FE PUSH2 0x31F8 DUP6 PUSH2 0x1E25 JUMP JUMPDEST DUP5 PUSH2 0x1E36 JUMP JUMPDEST POP ADD SLOAD SUB PUSH2 0x3260 JUMPI PUSH1 0x4 SWAP2 PUSH2 0x3212 SWAP2 PUSH2 0x1E36 JUMP JUMPDEST POP ADD SLOAD SUB PUSH2 0x321C JUMPI JUMP JUMPDEST PUSH1 0x64 PUSH1 0x40 MLOAD PUSH3 0x461BCD PUSH1 0xE5 SHL DUP2 MSTORE PUSH1 0x20 PUSH1 0x4 DUP3 ADD MSTORE PUSH1 0x1E PUSH1 0x24 DUP3 ADD MSTORE PUSH32 0x416E737765727320646F6E2774206D61746368206D7920616E73776572730000 PUSH1 0x44 DUP3 ADD MSTORE REVERT JUMPDEST PUSH1 0x64 PUSH1 0x40 MLOAD PUSH3 0x461BCD PUSH1 0xE5 SHL DUP2 MSTORE PUSH1 0x20 PUSH1 0x4 DUP3 ADD MSTORE PUSH1 0x1D PUSH1 0x24 DUP3 ADD MSTORE PUSH32 0x53686F747320646F6E2774206D6174636820656E656D792073686F7473000000 PUSH1 0x44 DUP3 ADD MSTORE REVERT JUMPDEST PUSH1 0x64 PUSH1 0x40 MLOAD PUSH3 0x461BCD PUSH1 0xE5 SHL DUP2 MSTORE PUSH1 0x20 PUSH1 0x4 DUP3 ADD MSTORE PUSH1 0x1F PUSH1 0x24 DUP3 ADD MSTORE PUSH32 0x426F61726420636F6D6D69746D656E7420646F6573206E6F74206D6174636800 PUSH1 0x44 DUP3 ADD MSTORE REVERT JUMPDEST SWAP2 SWAP1 PUSH2 0x32F3 DUP5 PUSH2 0x1FCA JUMP JUMPDEST PUSH2 0xFFFF DUP2 DUP2 AND SWAP1 PUSH1 0xA DUP3 MOD AND ISZERO ISZERO DUP1 PUSH2 0x34AF JUMPI JUMPDEST ISZERO PUSH2 0x3334 JUMPI PUSH2 0x3316 SWAP1 DUP5 PUSH2 0x2008 JUMP JUMPDEST MLOAD ISZERO PUSH2 0x332A JUMPI PUSH2 0x3325 SWAP1 PUSH2 0x1EB4 JUMP JUMPDEST PUSH2 0x32F3 JUMP JUMPDEST POP POP POP POP POP PUSH1 0x0 SWAP1 JUMP JUMPDEST POP POP SWAP3 SWAP2 PUSH2 0xFFFF DUP4 AND SWAP4 DUP5 PUSH2 0x3421 JUMPI JUMPDEST PUSH1 0x64 SWAP4 PUSH2 0x3350 DUP2 PUSH2 0x1FDE JUMP JUMPDEST PUSH2 0xFFFF DUP2 AND DUP7 DUP2 LT DUP1 PUSH2 0x340D JUMPI JUMPDEST ISZERO PUSH2 0x338D JUMPI PUSH2 0x336D SWAP1 DUP7 PUSH2 0x2008 JUMP JUMPDEST MLOAD ISZERO PUSH2 0x3381 JUMPI PUSH2 0x337C SWAP1 PUSH2 0x1FDE JUMP JUMPDEST PUSH2 0x3350 JUMP JUMPDEST POP POP POP POP POP POP POP PUSH1 0x0 SWAP1 JUMP JUMPDEST POP POP SWAP2 SWAP5 PUSH1 0xA SWAP2 SWAP5 POP LT ISZERO PUSH2 0x33A6 JUMPI JUMPDEST POP POP POP POP PUSH1 0x1 SWAP1 JUMP JUMPDEST PUSH2 0x33AF SWAP1 PUSH2 0x205F JUMP JUMPDEST PUSH2 0xFFFF DUP2 AND PUSH2 0x33C2 PUSH2 0x2538 DUP3 DUP7 DUP9 PUSH2 0x201C JUMP JUMPDEST ISZERO PUSH2 0x3403 JUMPI PUSH2 0x33D1 DUP2 DUP5 PUSH2 0x2008 JUMP JUMPDEST MLOAD ISZERO PUSH2 0x332A JUMPI PUSH1 0xA GT PUSH2 0x33F5 JUMPI PUSH2 0x2538 PUSH2 0x33ED PUSH2 0x33C2 SWAP3 PUSH2 0x205F JUMP JUMPDEST SWAP2 POP POP PUSH2 0x33AF JUMP JUMPDEST POP POP POP POP JUMPDEST CODESIZE DUP1 DUP1 DUP1 PUSH2 0x339D JUMP JUMPDEST POP POP POP POP POP PUSH2 0x33FA JUMP JUMPDEST POP PUSH2 0x341C PUSH2 0x2538 DUP3 DUP7 DUP9 PUSH2 0x201C JUMP JUMPDEST PUSH2 0x335E JUMP JUMPDEST SWAP4 SWAP3 SWAP2 SWAP1 PUSH2 0x342E DUP4 PUSH2 0x2074 JUMP JUMPDEST PUSH1 0x9 SWAP6 SWAP1 JUMPDEST PUSH2 0xFFFF DUP2 DUP2 AND SWAP1 PUSH1 0xA DUP3 MOD AND DUP9 EQ ISZERO DUP1 PUSH2 0x349B JUMPI JUMPDEST ISZERO PUSH2 0x348E JUMPI PUSH2 0x3457 DUP2 DUP7 PUSH2 0x2008 JUMP JUMPDEST MLOAD ISZERO PUSH2 0x3481 JUMPI ISZERO PUSH2 0x3475 JUMPI PUSH2 0xFFFF AND DUP1 ISZERO PUSH2 0x82E JUMPI PUSH1 0x0 NOT ADD PUSH2 0x3433 JUMP JUMPDEST POP SWAP1 SWAP2 SWAP3 SWAP4 SWAP5 POP PUSH2 0x3344 JUMP JUMPDEST POP POP POP POP POP POP POP POP PUSH1 0x0 SWAP1 JUMP JUMPDEST POP POP SWAP1 SWAP2 SWAP3 SWAP4 SWAP5 POP PUSH2 0x3344 JUMP JUMPDEST POP PUSH2 0x34AA PUSH2 0x2538 DUP3 DUP6 DUP8 PUSH2 0x201C JUMP JUMPDEST PUSH2 0x3448 JUMP JUMPDEST POP PUSH2 0x34BE PUSH2 0x2538 DUP3 DUP6 DUP9 PUSH2 0x201C JUMP JUMPDEST PUSH2 0x3307 JUMP INVALID LOG2 PUSH5 0x6970667358 0x22 SLT KECCAK256 0xF9 0x1F 0xD9 0x21 0xE0 0xB4 CREATE2 BALANCE CREATE2 0xCE 0xC7 SELFBALANCE 0xBB 0xCE CALLDATALOAD DUP12 SMOD GAS 0xBB 0xC BALANCE 0xC3 0xEA CODESIZE DUP13 SWAP10 SWAP7 PUSH13 0x6DA8162064736F6C634300081C STOP CALLER "
        },
        "methodIdentifiers": {
          "BOARD_SIZE()": "dc4a3e95",
          "CONTRACT_SEED()": "6cd6eabf",
          "DEADLINE_BLOCK_TIME()": "0b429432",
          "MAX_SHIP_LENGTH()": "ba848382",
          "SHIP_COUNTS(uint256)": "b9bafb10",
          "TOTAL_SHIP_PARTS()": "a616b069",
          "answerShot(uint256,(uint8,uint8),uint8)": "2ad5e4d6",
          "calculateCommission(uint256)": "ce9b4321",
          "claimDishonest(uint256)": "07ecba71",
          "claimIdle(uint256)": "c599d89b",
          "createRoom(uint256,uint256)": "ab196acd",
          "getRoomInfo(uint256)": "6790d2b5",
          "isSinkHit(bool[],bool[],uint16)": "de830743",
          "joinRoom(uint256,uint256)": "0a1c87a9",
          "owner()": "8da5cb5b",
          "proveHonesty(uint256,uint256,bool[],(uint8,uint8)[],uint8[])": "d38f4663",
          "proveVictory(uint256,uint256,bool[],(uint8,uint8)[],uint8[],(uint8,uint8)[],uint8[])": "75debaad",
          "renounceOwnership()": "715018a6",
          "roomSecretToId(uint256)": "625904c8",
          "rooms(uint256)": "1bae0ac8",
          "shoot(uint256,(uint8,uint8))": "6e209f2c",
          "submitBoard(uint256,uint256,uint256)": "d4d91f10",
          "transferOwnership(address)": "f2fde38b",
          "verifyAnswerCorrectness(bool[],(uint8,uint8)[],uint8[])": "32a608b6",
          "verifyBoard(uint256,bool[])": "00008da0",
          "withdrawFunds(uint256)": "155dd5ee"
        }
      }
    }
  }
}