{
  "contracts/Implementations.sol": {
    "TestContract": {
      "abi": [
        {
          "inputs": [
            {
              "internalType": "address",
              "name": "owner",
              "type": "address"
            },
            {
              "internalType": "uint256",
              "name": "contractSeed",
              "type": "uint256"
            }
          ],
          "stateMutability": "nonpayable",
          "type": "constructor"
        },
        {
          "inputs": [
            {
              "internalType": "address",
              "name": "owner",
              "type": "address"
            }
          ],
          "name": "OwnableInvalidOwner",
          "type": "error"
        },
        {
          "inputs": [
            {
              "internalType": "address",
              "name": "account",
              "type": "address"
            }
          ],
          "name": "OwnableUnauthorizedAccount",
          "type": "error"
        },
        {
          "inputs": [],
          "name": "ReentrancyGuardReentrantCall",
          "type": "error"
        },
        {
          "anonymous": false,
          "inputs": [
            {
              "indexed": false,
              "internalType": "Chainship.RoomId",
              "name": "roomId",
              "type": "uint256"
            },
            {
              "indexed": false,
              "internalType": "address",
              "name": "player",
              "type": "address"
            },
            {
              "indexed": false,
              "internalType": "uint256",
              "name": "boardCommitment",
              "type": "uint256"
            }
          ],
          "name": "BoardSubmitted",
          "type": "event"
        },
        {
          "anonymous": false,
          "inputs": [
            {
              "indexed": false,
              "internalType": "Chainship.RoomId",
              "name": "roomId",
              "type": "uint256"
            },
            {
              "indexed": false,
              "internalType": "address",
              "name": "player1",
              "type": "address"
            },
            {
              "indexed": false,
              "internalType": "uint256",
              "name": "entryFee",
              "type": "uint256"
            },
            {
              "indexed": false,
              "internalType": "uint256",
              "name": "commission",
              "type": "uint256"
            }
          ],
          "name": "CreatedRoom",
          "type": "event"
        },
        {
          "anonymous": false,
          "inputs": [
            {
              "indexed": false,
              "internalType": "Chainship.RoomId",
              "name": "roomId",
              "type": "uint256"
            },
            {
              "indexed": false,
              "internalType": "address",
              "name": "player",
              "type": "address"
            }
          ],
          "name": "DishonestyClaimed",
          "type": "event"
        },
        {
          "anonymous": false,
          "inputs": [
            {
              "indexed": false,
              "internalType": "Chainship.RoomId",
              "name": "roomId",
              "type": "uint256"
            },
            {
              "indexed": false,
              "internalType": "address",
              "name": "startingPlayer",
              "type": "address"
            }
          ],
          "name": "GameStarted",
          "type": "event"
        },
        {
          "anonymous": false,
          "inputs": [
            {
              "indexed": false,
              "internalType": "Chainship.RoomId",
              "name": "roomId",
              "type": "uint256"
            },
            {
              "indexed": false,
              "internalType": "address",
              "name": "player",
              "type": "address"
            },
            {
              "indexed": false,
              "internalType": "bool[]",
              "name": "board",
              "type": "bool[]"
            }
          ],
          "name": "HonestyProven",
          "type": "event"
        },
        {
          "anonymous": false,
          "inputs": [
            {
              "indexed": false,
              "internalType": "Chainship.RoomId",
              "name": "roomId",
              "type": "uint256"
            },
            {
              "indexed": false,
              "internalType": "address",
              "name": "player",
              "type": "address"
            }
          ],
          "name": "IdleClaimed",
          "type": "event"
        },
        {
          "anonymous": false,
          "inputs": [
            {
              "indexed": false,
              "internalType": "Chainship.RoomId",
              "name": "roomId",
              "type": "uint256"
            },
            {
              "indexed": false,
              "internalType": "address",
              "name": "player2",
              "type": "address"
            }
          ],
          "name": "JoinedRoom",
          "type": "event"
        },
        {
          "anonymous": false,
          "inputs": [
            {
              "indexed": true,
              "internalType": "address",
              "name": "previousOwner",
              "type": "address"
            },
            {
              "indexed": true,
              "internalType": "address",
              "name": "newOwner",
              "type": "address"
            }
          ],
          "name": "OwnershipTransferred",
          "type": "event"
        },
        {
          "anonymous": false,
          "inputs": [
            {
              "indexed": false,
              "internalType": "address",
              "name": "player",
              "type": "address"
            },
            {
              "indexed": false,
              "internalType": "uint256",
              "name": "prize",
              "type": "uint256"
            }
          ],
          "name": "PrizeReceived",
          "type": "event"
        },
        {
          "anonymous": false,
          "inputs": [
            {
              "indexed": false,
              "internalType": "Chainship.RoomId",
              "name": "roomId",
              "type": "uint256"
            },
            {
              "indexed": false,
              "internalType": "address",
              "name": "player",
              "type": "address"
            },
            {
              "indexed": false,
              "internalType": "uint256",
              "name": "noShots",
              "type": "uint256"
            },
            {
              "components": [
                {
                  "internalType": "uint8",
                  "name": "x",
                  "type": "uint8"
                },
                {
                  "internalType": "uint8",
                  "name": "y",
                  "type": "uint8"
                }
              ],
              "indexed": false,
              "internalType": "struct Chainship.Position",
              "name": "position",
              "type": "tuple"
            },
            {
              "indexed": false,
              "internalType": "enum Chainship.Answer",
              "name": "answer",
              "type": "uint8"
            },
            {
              "indexed": false,
              "internalType": "uint256",
              "name": "newAnswersCommitment",
              "type": "uint256"
            }
          ],
          "name": "ShotAnswered",
          "type": "event"
        },
        {
          "anonymous": false,
          "inputs": [
            {
              "indexed": false,
              "internalType": "Chainship.RoomId",
              "name": "roomId",
              "type": "uint256"
            },
            {
              "indexed": false,
              "internalType": "address",
              "name": "player",
              "type": "address"
            },
            {
              "indexed": false,
              "internalType": "uint256",
              "name": "noShots",
              "type": "uint256"
            },
            {
              "components": [
                {
                  "internalType": "uint8",
                  "name": "x",
                  "type": "uint8"
                },
                {
                  "internalType": "uint8",
                  "name": "y",
                  "type": "uint8"
                }
              ],
              "indexed": false,
              "internalType": "struct Chainship.Position",
              "name": "position",
              "type": "tuple"
            },
            {
              "indexed": false,
              "internalType": "uint256",
              "name": "newShotsCommitment",
              "type": "uint256"
            }
          ],
          "name": "ShotTaken",
          "type": "event"
        },
        {
          "anonymous": false,
          "inputs": [
            {
              "indexed": false,
              "internalType": "Chainship.RoomId",
              "name": "roomId",
              "type": "uint256"
            },
            {
              "indexed": false,
              "internalType": "address",
              "name": "player",
              "type": "address"
            },
            {
              "indexed": false,
              "internalType": "bool[]",
              "name": "board",
              "type": "bool[]"
            }
          ],
          "name": "VictoryProven",
          "type": "event"
        },
        {
          "inputs": [],
          "name": "BOARD_SIZE",
          "outputs": [
            {
              "internalType": "uint8",
              "name": "",
              "type": "uint8"
            }
          ],
          "stateMutability": "view",
          "type": "function"
        },
        {
          "inputs": [],
          "name": "CONTRACT_SEED",
          "outputs": [
            {
              "internalType": "uint256",
              "name": "",
              "type": "uint256"
            }
          ],
          "stateMutability": "view",
          "type": "function"
        },
        {
          "inputs": [],
          "name": "DEADLINE_BLOCK_TIME",
          "outputs": [
            {
              "internalType": "uint256",
              "name": "",
              "type": "uint256"
            }
          ],
          "stateMutability": "view",
          "type": "function"
        },
        {
          "inputs": [],
          "name": "MAX_SHIP_LENGTH",
          "outputs": [
            {
              "internalType": "uint8",
              "name": "",
              "type": "uint8"
            }
          ],
          "stateMutability": "view",
          "type": "function"
        },
        {
          "inputs": [
            {
              "internalType": "uint256",
              "name": "",
              "type": "uint256"
            }
          ],
          "name": "SHIP_COUNTS",
          "outputs": [
            {
              "internalType": "uint8",
              "name": "",
              "type": "uint8"
            }
          ],
          "stateMutability": "view",
          "type": "function"
        },
        {
          "inputs": [],
          "name": "TOTAL_SHIP_PARTS",
          "outputs": [
            {
              "internalType": "uint16",
              "name": "",
              "type": "uint16"
            }
          ],
          "stateMutability": "view",
          "type": "function"
        },
        {
          "inputs": [
            {
              "internalType": "Chainship.RoomId",
              "name": "roomId",
              "type": "uint256"
            },
            {
              "components": [
                {
                  "internalType": "uint8",
                  "name": "x",
                  "type": "uint8"
                },
                {
                  "internalType": "uint8",
                  "name": "y",
                  "type": "uint8"
                }
              ],
              "internalType": "struct Chainship.Position",
              "name": "answerPosition",
              "type": "tuple"
            },
            {
              "internalType": "enum Chainship.Answer",
              "name": "answer",
              "type": "uint8"
            }
          ],
          "name": "answerAndClaimDishonest",
          "outputs": [],
          "stateMutability": "nonpayable",
          "type": "function"
        },
        {
          "inputs": [
            {
              "internalType": "Chainship.RoomId",
              "name": "roomId",
              "type": "uint256"
            },
            {
              "components": [
                {
                  "internalType": "uint8",
                  "name": "x",
                  "type": "uint8"
                },
                {
                  "internalType": "uint8",
                  "name": "y",
                  "type": "uint8"
                }
              ],
              "internalType": "struct Chainship.Position",
              "name": "answerPosition",
              "type": "tuple"
            },
            {
              "internalType": "enum Chainship.Answer",
              "name": "answer",
              "type": "uint8"
            },
            {
              "internalType": "uint256",
              "name": "boardRandomness",
              "type": "uint256"
            },
            {
              "internalType": "bool[]",
              "name": "board",
              "type": "bool[]"
            },
            {
              "components": [
                {
                  "internalType": "uint8",
                  "name": "x",
                  "type": "uint8"
                },
                {
                  "internalType": "uint8",
                  "name": "y",
                  "type": "uint8"
                }
              ],
              "internalType": "struct Chainship.Position[]",
              "name": "enemyShots",
              "type": "tuple[]"
            },
            {
              "internalType": "enum Chainship.Answer[]",
              "name": "myAnswers",
              "type": "uint8[]"
            },
            {
              "components": [
                {
                  "internalType": "uint8",
                  "name": "x",
                  "type": "uint8"
                },
                {
                  "internalType": "uint8",
                  "name": "y",
                  "type": "uint8"
                }
              ],
              "internalType": "struct Chainship.Position[]",
              "name": "myShots",
              "type": "tuple[]"
            },
            {
              "internalType": "enum Chainship.Answer[]",
              "name": "enemyAnswers",
              "type": "uint8[]"
            }
          ],
          "name": "answerAndClaimVictory",
          "outputs": [],
          "stateMutability": "nonpayable",
          "type": "function"
        },
        {
          "inputs": [
            {
              "internalType": "Chainship.RoomId",
              "name": "roomId",
              "type": "uint256"
            },
            {
              "components": [
                {
                  "internalType": "uint8",
                  "name": "x",
                  "type": "uint8"
                },
                {
                  "internalType": "uint8",
                  "name": "y",
                  "type": "uint8"
                }
              ],
              "internalType": "struct Chainship.Position",
              "name": "answerPosition",
              "type": "tuple"
            },
            {
              "internalType": "enum Chainship.Answer",
              "name": "answer",
              "type": "uint8"
            },
            {
              "components": [
                {
                  "internalType": "uint8",
                  "name": "x",
                  "type": "uint8"
                },
                {
                  "internalType": "uint8",
                  "name": "y",
                  "type": "uint8"
                }
              ],
              "internalType": "struct Chainship.Position",
              "name": "shootPosition",
              "type": "tuple"
            }
          ],
          "name": "answerAndShoot",
          "outputs": [],
          "stateMutability": "nonpayable",
          "type": "function"
        },
        {
          "inputs": [
            {
              "internalType": "Chainship.RoomId",
              "name": "roomId",
              "type": "uint256"
            },
            {
              "components": [
                {
                  "internalType": "uint8",
                  "name": "x",
                  "type": "uint8"
                },
                {
                  "internalType": "uint8",
                  "name": "y",
                  "type": "uint8"
                }
              ],
              "internalType": "struct Chainship.Position",
              "name": "position",
              "type": "tuple"
            },
            {
              "internalType": "enum Chainship.Answer",
              "name": "answer",
              "type": "uint8"
            }
          ],
          "name": "answerShot",
          "outputs": [],
          "stateMutability": "nonpayable",
          "type": "function"
        },
        {
          "inputs": [
            {
              "internalType": "uint256",
              "name": "entryFee",
              "type": "uint256"
            }
          ],
          "name": "calculateCommission",
          "outputs": [
            {
              "internalType": "uint256",
              "name": "",
              "type": "uint256"
            }
          ],
          "stateMutability": "pure",
          "type": "function"
        },
        {
          "inputs": [
            {
              "internalType": "Chainship.RoomId",
              "name": "roomId",
              "type": "uint256"
            }
          ],
          "name": "claimDishonest",
          "outputs": [],
          "stateMutability": "nonpayable",
          "type": "function"
        },
        {
          "inputs": [
            {
              "internalType": "Chainship.RoomId",
              "name": "roomId",
              "type": "uint256"
            }
          ],
          "name": "claimIdle",
          "outputs": [],
          "stateMutability": "nonpayable",
          "type": "function"
        },
        {
          "inputs": [
            {
              "internalType": "Chainship.RoomId",
              "name": "roomId",
              "type": "uint256"
            },
            {
              "internalType": "uint256",
              "name": "randomnessCommitment",
              "type": "uint256"
            }
          ],
          "name": "createRoom",
          "outputs": [],
          "stateMutability": "payable",
          "type": "function"
        },
        {
          "inputs": [
            {
              "internalType": "Chainship.RoomId",
              "name": "roomId",
              "type": "uint256"
            }
          ],
          "name": "getRoomInfo",
          "outputs": [
            {
              "internalType": "enum Chainship.RoomStatus",
              "name": "",
              "type": "uint8"
            },
            {
              "internalType": "uint256",
              "name": "",
              "type": "uint256"
            },
            {
              "internalType": "address",
              "name": "",
              "type": "address"
            }
          ],
          "stateMutability": "view",
          "type": "function"
        },
        {
          "inputs": [
            {
              "internalType": "uint256",
              "name": "roomSecret",
              "type": "uint256"
            },
            {
              "internalType": "uint256",
              "name": "randomnessCommitment",
              "type": "uint256"
            }
          ],
          "name": "joinRoom",
          "outputs": [],
          "stateMutability": "payable",
          "type": "function"
        },
        {
          "inputs": [],
          "name": "owner",
          "outputs": [
            {
              "internalType": "address",
              "name": "",
              "type": "address"
            }
          ],
          "stateMutability": "view",
          "type": "function"
        },
        {
          "inputs": [
            {
              "internalType": "Chainship.RoomId",
              "name": "roomId",
              "type": "uint256"
            },
            {
              "internalType": "uint256",
              "name": "boardRandomness",
              "type": "uint256"
            },
            {
              "internalType": "bool[]",
              "name": "board",
              "type": "bool[]"
            },
            {
              "components": [
                {
                  "internalType": "uint8",
                  "name": "x",
                  "type": "uint8"
                },
                {
                  "internalType": "uint8",
                  "name": "y",
                  "type": "uint8"
                }
              ],
              "internalType": "struct Chainship.Position[]",
              "name": "enemyShots",
              "type": "tuple[]"
            },
            {
              "internalType": "enum Chainship.Answer[]",
              "name": "myAnswers",
              "type": "uint8[]"
            }
          ],
          "name": "proveHonesty",
          "outputs": [],
          "stateMutability": "nonpayable",
          "type": "function"
        },
        {
          "inputs": [
            {
              "internalType": "Chainship.RoomId",
              "name": "roomId",
              "type": "uint256"
            },
            {
              "internalType": "uint256",
              "name": "boardRandomness",
              "type": "uint256"
            },
            {
              "internalType": "bool[]",
              "name": "board",
              "type": "bool[]"
            },
            {
              "components": [
                {
                  "internalType": "uint8",
                  "name": "x",
                  "type": "uint8"
                },
                {
                  "internalType": "uint8",
                  "name": "y",
                  "type": "uint8"
                }
              ],
              "internalType": "struct Chainship.Position[]",
              "name": "enemyShots",
              "type": "tuple[]"
            },
            {
              "internalType": "enum Chainship.Answer[]",
              "name": "myAnswers",
              "type": "uint8[]"
            },
            {
              "components": [
                {
                  "internalType": "uint8",
                  "name": "x",
                  "type": "uint8"
                },
                {
                  "internalType": "uint8",
                  "name": "y",
                  "type": "uint8"
                }
              ],
              "internalType": "struct Chainship.Position[]",
              "name": "myShots",
              "type": "tuple[]"
            },
            {
              "internalType": "enum Chainship.Answer[]",
              "name": "enemyAnswers",
              "type": "uint8[]"
            }
          ],
          "name": "proveVictory",
          "outputs": [],
          "stateMutability": "nonpayable",
          "type": "function"
        },
        {
          "inputs": [],
          "name": "renounceOwnership",
          "outputs": [],
          "stateMutability": "nonpayable",
          "type": "function"
        },
        {
          "inputs": [
            {
              "internalType": "uint256",
              "name": "roomSecret",
              "type": "uint256"
            }
          ],
          "name": "roomSecretToId",
          "outputs": [
            {
              "internalType": "Chainship.RoomId",
              "name": "",
              "type": "uint256"
            }
          ],
          "stateMutability": "view",
          "type": "function"
        },
        {
          "inputs": [
            {
              "internalType": "Chainship.RoomId",
              "name": "",
              "type": "uint256"
            }
          ],
          "name": "rooms",
          "outputs": [
            {
              "internalType": "enum Chainship.RoomStatus",
              "name": "status",
              "type": "uint8"
            },
            {
              "internalType": "uint256",
              "name": "entryFee",
              "type": "uint256"
            },
            {
              "internalType": "uint8",
              "name": "whoseTurn",
              "type": "uint8"
            },
            {
              "internalType": "uint256",
              "name": "answerDeadline",
              "type": "uint256"
            }
          ],
          "stateMutability": "view",
          "type": "function"
        },
        {
          "inputs": [
            {
              "internalType": "Chainship.RoomId",
              "name": "roomId",
              "type": "uint256"
            },
            {
              "components": [
                {
                  "internalType": "uint8",
                  "name": "x",
                  "type": "uint8"
                },
                {
                  "internalType": "uint8",
                  "name": "y",
                  "type": "uint8"
                }
              ],
              "internalType": "struct Chainship.Position",
              "name": "position",
              "type": "tuple"
            }
          ],
          "name": "shoot",
          "outputs": [],
          "stateMutability": "nonpayable",
          "type": "function"
        },
        {
          "inputs": [
            {
              "internalType": "Chainship.RoomId",
              "name": "roomId",
              "type": "uint256"
            },
            {
              "internalType": "uint256",
              "name": "boardCommitment",
              "type": "uint256"
            },
            {
              "internalType": "uint256",
              "name": "randomnessDecommitment",
              "type": "uint256"
            }
          ],
          "name": "submitBoard",
          "outputs": [],
          "stateMutability": "nonpayable",
          "type": "function"
        },
        {
          "inputs": [
            {
              "internalType": "address",
              "name": "newOwner",
              "type": "address"
            }
          ],
          "name": "transferOwnership",
          "outputs": [],
          "stateMutability": "nonpayable",
          "type": "function"
        },
        {
          "inputs": [
            {
              "internalType": "uint256",
              "name": "amount",
              "type": "uint256"
            }
          ],
          "name": "withdrawFunds",
          "outputs": [],
          "stateMutability": "nonpayable",
          "type": "function"
        },
        {
          "inputs": [],
          "name": "x",
          "outputs": [
            {
              "internalType": "uint256",
              "name": "",
              "type": "uint256"
            }
          ],
          "stateMutability": "view",
          "type": "function"
        }
      ],
      "evm": {
        "bytecode": {
          "linkReferences": {},
          "object": "60c06040523461017e57604051601f61382e38819003918201601f19168301916001600160401b0383118484101761015257808492604094855283398101031261017e5780516001600160a01b038116919082900361017e576020015190801561016857600080546001600160a01b03198116831782556001600160a01b0316907f8be0079c531659141344cd1fd0a4f28419497f9722a3daafe3b4186f6b6457e09080a36001805560405160a081016001600160401b0381118282101761015257604052600081526001602082015260026040820152600160608201526001608082015260009060005b6005811061012e575050600255608052600a60a0526040516136aa9081610184823960805181818161118a0152611bbe015260a0518181816113ca015261210e0152f35b9091602060019160ff8551169060ff8560031b92831b921b191617930191016100ea565b634e487b7160e01b600052604160045260246000fd5b631e4fbdf760e01b600052600060045260246000fd5b600080fdfe610140604052600436101561001357600080fd5b60003560e01c806307ecba71146115b15780630a1c87a9146113ed5780630b429432146113b25780630c55699c14611394578063155dd5ee146112f75780631bae0ac81461129c5780632ad5e4d614611285578063625904c8146112675780636790d2b5146111ad5780636cd6eabf146111725780636e209f2c14611055578063715018a614610fef57806375debaad14610f235780638da5cb5b14610efc5780638efe14fd14610eda578063a616b06914610ebe578063ab196acd14610d4c578063b3a16b1914610bda578063b9bafb1014610ba0578063ba84838214610b84578063c599d89b14610907578063c841869d14610812578063ce9b4321146107ec578063d38f4663146105a7578063d4d91f1014610219578063dc4a3e95146101fd5763f2fde38b1461014657600080fd5b346101f85760203660031901126101f8576004356001600160a01b0381168091036101f857610173612178565b80156101c9576001600160a01b036000548273ffffffffffffffffffffffffffffffffffffffff19821617600055167f8be0079c531659141344cd1fd0a4f28419497f9722a3daafe3b4186f6b6457e0600080a3005b7f1e4fbdf700000000000000000000000000000000000000000000000000000000600052600060045260246000fd5b600080fd5b346101f85760003660031901126101f8576020604051600a8152f35b346101f85760603660031901126101f857604435600435602435801561053d5781600052600360205260406000209060ff8254166007811015610527576002036104e357608061026883611741565b0151431161049f576102823361027d84611741565b612068565b9360028301946102928187611927565b5060018101908154610435578460059255019081546040516020810190858252602081526102c1604082611709565b519020036103cc576103036102fd6001927f40952b52f743bbd15dd7c9268b98cb4459193027cdb8d6a3d499cb50d7f173f3956060955561188a565b88611927565b500154151592604051908682523360208301526040820152a161032257005b6103a9817ffadb9547847a0c2c31f4c02590545e318d33d7aae99071caecf3fa4ce3cd7dca946103a4600160076001600160a01b03960154600d850154604051906020820192835260408201526040815261037e606082611709565b5190201692600e810160ff851660ff19825416179055600360ff1982541617815561210c565b611927565b50546040805193845291166001600160a01b03166020830152819081015b0390a1005b608460405162461bcd60e51b8152602060048201526024808201527f52616e646f6d6e65737320636f6d6d69746d656e7420646f6573206e6f74206d60448201527f61746368000000000000000000000000000000000000000000000000000000006064820152fd5b608460405162461bcd60e51b815260206004820152602560248201527f596f75206861766520616c7265616479207375626d697474656420796f75722060448201527f626f6172640000000000000000000000000000000000000000000000000000006064820152fd5b606460405162461bcd60e51b815260206004820152601360248201527f446561646c696e652068617320706173736564000000000000000000000000006044820152fd5b606460405162461bcd60e51b815260206004820152601d60248201527f526f6f6d206973206e6f7420696e207468652066756c6c2073746174650000006044820152fd5b634e487b7160e01b600052602160045260246000fd5b608460405162461bcd60e51b815260206004820152602160248201527f426f61726420636f6d6d69746d656e74206d757374206265206e6f6e2d7a657260448201527f6f000000000000000000000000000000000000000000000000000000000000006064820152fd5b346101f85760a03660031901126101f85760043560443567ffffffffffffffff81116101f8576105db903690600401611608565b9160643567ffffffffffffffff81116101f8576105fc903690600401611639565b60849491943567ffffffffffffffff81116101f85761061f903690600401611608565b9184600052600360205260406000209661063c3361027d8a611741565b9060ff895416600781101561052757600503610782576001946001600160a01b03946106a49461068893898c8e61067e60ff600e8301541660ff8b161461183f565b886024359161231b565b875460ff1916600617885561069b61213d565b60028801611927565b505416940154908160011b916001600160ff1b038116810361076c576106c99061204b565b918281039281841161076c5786849160009314610762575b600092839283928392f115610756577fee97096f32eed49908b904623ae7ba7af58c121e15fe6e7f31ac379fb7ca1a9860407f0b2140d601ef56c537167df622738f7062c329fd471b1f729edfa570296a3c8f966103c79482519182526020820152a160018055604051938493339085611c19565b6040513d6000823e3d90fd5b6108fc92506106e1565b634e487b7160e01b600052601160045260246000fd5b608460405162461bcd60e51b815260206004820152602b60248201527f526f6f6d206973206e6f7420696e2074686520646973686f6e6573747920636c60448201527f61696d65642073746174650000000000000000000000000000000000000000006064820152fd5b346101f85760203660031901126101f857602061080a60043561204b565b604051908152f35b346101f8576101403660031901126101f85760043560403660231901126101f85760643560038110156101f85760a43567ffffffffffffffff81116101f85761085f903690600401611608565b60c49291923567ffffffffffffffff81116101f857610882903690600401611639565b60e49291923567ffffffffffffffff81116101f8576108a5903690600401611608565b916101043567ffffffffffffffff81116101f8576108c7903690600401611639565b959094610124359867ffffffffffffffff8a116101f8576109059a6108f36108fc9b3690600401611608565b9b909a82611949565b60843590611c70565b005b346101f85760203660031901126101f8576004358060005260036020526040600020906109373361027d84611741565b6109408161188a565b600f840154431115610b405760ff845416600781101561052757600281149182610b25575b600382149160008315610b17575b8315610b04575b505081610af0575b508115610ae8575b5015610a7e576001600160a01b036109ba600192600660ff198754161786556109b161213d565b60028601611927565b505416920154908160011b916001600160ff1b038116810361076c576109df9061204b565b918281039281841161076c5784849160009314610a74575b600092839283928392f115610756577fee97096f32eed49908b904623ae7ba7af58c121e15fe6e7f31ac379fb7ca1a9860407f294a1cc2e139b7d44dc4130a0e042162f4d48f289fe4e0a40ca50726a9d01ebc946103c79482519182526020820152a1600180556040805191825233602083015290918291820190565b6108fc92506109f7565b608460405162461bcd60e51b815260206004820152602160248201527f4974206973206e6f7420656e656d792773207475726e20746f20726573706f6e60448201527f64000000000000000000000000000000000000000000000000000000000000006064820152fd5b90508461098a565b905060ff80600e8701541691161485610982565b909192506105275760051490868061097a565b506004811492506000610973565b91506001610b368360028801611927565b5001541591610965565b606460405162461bcd60e51b815260206004820152601b60248201527f446561646c696e6520686173206e6f74207061737365642079657400000000006044820152fd5b346101f85760003660031901126101f857602060405160058152f35b346101f85760203660031901126101f85760043560058110156101f85760ff610bca60209261166a565b90549060031b1c16604051908152f35b346101f85760c03660031901126101f85760043560403660231901126101f85760643560038110156101f85760403660831901126101f857610c1c9082611949565b80600052600360205260406000209060ff8254166007811015610527576003610c459114611698565b610c523361027d84611741565b61ffff6001600160a01b03610c80600e860193610c7760ff86541660ff83161461183f565b60028701611927565b50610cdc600282019687549585610c98818916611bf9565b168097871916178955610cb26084600386019889546122a3565b8755600460ff1983541617825560ff610ccd8183541661188a565b1660ff1982541617905561210c565b54169354169054926040519283526020830152604082015260843560ff811681036101f85760ff16606082015260a4359060ff821682036101f8577fb72b4b2c796809161dbc42d5a7e6e0c75042fe6f953c2d35187a16cef28848bf9260ff60c09316608083015260a0820152a1005b60403660031901126101f857600435610d643461204b565b9081341115610e545780600052600360205260406000209060ff825416600781101561052757610e10577fcf1eefef99365c71f66cf7d03c056f6d828c32f1023712660c18ee3cd8585cb492608092600160ff19825416178155346001820155600281016001600160a01b03331673ffffffffffffffffffffffffffffffffffffffff1982541617905560076024359101556040519182523360208301523460408301526060820152a1005b606460405162461bcd60e51b815260206004820152601360248201527f526f6f6d20616c726561647920657869737473000000000000000000000000006044820152fd5b608460405162461bcd60e51b815260206004820152602960248201527f456e74727920666565206d7573742062652067726561746572207468616e206360448201527f6f6d6d697373696f6e00000000000000000000000000000000000000000000006064820152fd5b346101f85760003660031901126101f857602060405160118152f35b346101f857610905610ef7610eee366115da565b90829392611ac2565b61189b565b346101f85760003660031901126101f85760206001600160a01b0360005416604051908152f35b346101f85760e03660031901126101f85760443567ffffffffffffffff81116101f857610f54903690600401611608565b60643567ffffffffffffffff81116101f857610f74903690600401611639565b60849391933567ffffffffffffffff81116101f857610f97903690600401611608565b60a49291923567ffffffffffffffff81116101f857610fba903690600401611639565b93909260c4359767ffffffffffffffff89116101f857610fe1610905993690600401611608565b989097602435600435611c70565b346101f85760003660031901126101f857611008612178565b60006001600160a01b03815473ffffffffffffffffffffffffffffffffffffffff1981168355167f8be0079c531659141344cd1fd0a4f28419497f9722a3daafe3b4186f6b6457e08280a3005b346101f85760603660031901126101f85760043560403660231901126101f85780600052600360205260406000209060ff825416600781101561052757600361109e9114611698565b6110ab3361027d84611741565b61ffff6001600160a01b036110d0600e860193610c7760ff86541660ff83161461183f565b506111026002820196875495856110e8818916611bf9565b168097871916178955610cb26024600386019889546122a3565b54169354169054926040519283526020830152604082015260243560ff811681036101f85760ff1660608201526044359060ff821682036101f8577fb72b4b2c796809161dbc42d5a7e6e0c75042fe6f953c2d35187a16cef28848bf9260ff60c09316608083015260a0820152a1005b346101f85760003660031901126101f85760206040517f00000000000000000000000000000000000000000000000000000000000000008152f35b346101f85760203660031901126101f85760043560005260036020526111d66040600020611741565b805160078110156105275715611223578051600781101561052757816001600160a01b036040602060609501519201515151169061121760405180946115cd565b60208301526040820152f35b606460405162461bcd60e51b815260206004820152601360248201527f526f6f6d20646f6573206e6f74206578697374000000000000000000000000006044820152fd5b346101f85760203660031901126101f857602061080a600435611bb4565b346101f857610905611296366115da565b91611ac2565b346101f85760203660031901126101f85760043560005260036020526080604060002060ff81541690600181015490600f60ff600e83015416910154916112e660405180956115cd565b602084015260408301526060820152f35b346101f85760203660031901126101f85760043561131361213d565b61131b612178565b804710611350576000808080936001600160a01b03825416828215611347575bf1156107565760018055005b506108fc61133b565b606460405162461bcd60e51b815260206004820152601060248201527f4e6f7420656e6f7567682066756e6473000000000000000000000000000000006044820152fd5b346101f85760003660031901126101f8576020600454604051908152f35b346101f85760003660031901126101f85760206040517f00000000000000000000000000000000000000000000000000000000000000008152f35b60403660031901126101f857611404600435611bb4565b806000526003602052604060002060ff81541660078110156105275760010361156d5760018101543403611503576001600160a01b0360028201541633146114bf5760088101805473ffffffffffffffffffffffffffffffffffffffff191633179055602435600d820155805460ff191660021781557f7f3a14b18fc64242e1d87bbda3d879ff601bf57224f7daeaf8bf4658bb84da29916103c7916114a99061210c565b6040805191825233602083015290918291820190565b606460405162461bcd60e51b815260206004820152601d60248201527f596f752063616e6e6f74206a6f696e20796f7572206f776e20726f6f6d0000006044820152fd5b608460405162461bcd60e51b815260206004820152602d60248201527f456e74727920666565206d75737420626520657175616c20746f20746865207260448201527f6f6f6d20656e74727920666565000000000000000000000000000000000000006064820152fd5b606460405162461bcd60e51b815260206004820152602060248201527f526f6f6d206973206e6f7420696e2074686520637265617465642073746174656044820152fd5b346101f85760203660031901126101f85761090560043561189b565b9060078210156105275752565b9060806003198301126101f85760406004359260231901126101f85760249060643560038110156101f85790565b9181601f840112156101f85782359167ffffffffffffffff83116101f8576020808501948460051b0101116101f857565b9181601f840112156101f85782359167ffffffffffffffff83116101f8576020808501948460061b0101116101f857565b90600582101561168257601f8260051c600201921690565b634e487b7160e01b600052603260045260246000fd5b1561169f57565b608460405162461bcd60e51b815260206004820152602160248201527f526f6f6d206973206e6f7420696e207468652073686f6f74696e67207374617460448201527f65000000000000000000000000000000000000000000000000000000000000006064820152fd5b90601f8019910116810190811067ffffffffffffffff82111761172b57604052565b634e487b7160e01b600052604160045260246000fd5b9060405160a0810181811067ffffffffffffffff82111761172b57604052809260ff8154166007811015610527578252600181015460208301526040516040810181811067ffffffffffffffff82111761172b57604052600282016000825b600282106117ca57505050608091600f91604085015260ff600e8201541660608501520154910152565b60405160c0810181811067ffffffffffffffff82111761172b576001926006926020926040526001600160a01b038754168152848701548382015261ffff60028801541660408201526003870154606082015260048701546080820152600587015460a08201528152019301910190916117a0565b1561184657565b606460405162461bcd60e51b815260206004820152601360248201527f4974206973206e6f7420796f7572207475726e000000000000000000000000006044820152fd5b60ff166001039060ff821161076c57565b806000526003602052604060002060ff815416916007831015610527576114a9611922926118ec60037f674b1399cdd04131b1014fb0ad914c308eb69bac11c79cf09e05ce410863ce2e9614611698565b6118f93361027d83611741565b60ff610ccd600e840192611913838554168483161461183f565b6005831986541617855561188a565b0390a1565b906002811015611682576006020190600090565b359060ff821682036101f857565b9081600052600360205260406000209160ff835416600781101561052757600403611a585761197b3361027d85611741565b9261ffff6001600160a01b036119a8600284016119a261199b8983611927565b509861188a565b90611927565b50956119db60048201946119c9886024600289549c019b888d541690612213565b8655805460ff1916600317815561210c565b54169454169054936040519283526020830152604082015260243560ff811681036101f85760ff16606082015260443560ff811681036101f85760ff1660808201526003821015610527577ffd7d6dcab3c23e806913769df4816e3d1fb4edb3917bf3f256cd1365cbeddc079260e09260a083015260c0820152a1565b608460405162461bcd60e51b815260206004820152602260248201527f526f6f6d206973206e6f7420696e2074686520616e73776572696e672073746160448201527f74650000000000000000000000000000000000000000000000000000000000006064820152fd5b91909180600052600360205260406000209260ff845416600781101561052757600403611a585761ffff93846001600160a01b03611b033361027d85611741565b611b3d611b21600286016119a2611b1a8583611927565b509461188a565b50946119c98988600486019860028a5491019d8e541690612213565b541695541690549460405193845260208401526040830152602060ff611b7582606086019483611b6c8261193b565b1686520161193b565b169101526003821015610527577ffd7d6dcab3c23e806913769df4816e3d1fb4edb3917bf3f256cd1365cbeddc079260e09260a083015260c0820152a1565b60405160208101917f00000000000000000000000000000000000000000000000000000000000000008352604082015260408152611bf3606082611709565b51902090565b61ffff1661ffff811461076c5760010190565b359081151582036101f857565b9081526001600160a01b0391909116602082015260606040820181905281018390526080019160005b818110611c4f5750505090565b909192602080600192611c6187611c0c565b15158152019401929101611c42565b94969091959b9792939a9b856000526003602052604060002097611c973361027d8b611741565b9c60ff8a541694600786101561052757898f918992611cbb6003611cc19a14611698565b8d61231b565b6000998a98611cd06064613081565b988a5b818110611f6957505050505060009860005b875161ffff821690811015611d2757611cfe9089613128565b51611d12575b611d0d90611bf9565b611ce5565b99611d1f611d0d91611bf9565b9a9050611d04565b505093979296919550939761ffff6011911603611eff5760028701926003611d4f8486611927565b50015403611ebb576004611d6b611d658461188a565b85611927565b50015403611e5157611d956001600160a01b0391600193600660ff198a54161789556103a461213d565b505416940154908160011b916001600160ff1b038116810361076c57611dba9061204b565b918281039281841161076c5786849160009314611e47575b600092839283928392f115610756577fee97096f32eed49908b904623ae7ba7af58c121e15fe6e7f31ac379fb7ca1a9860407f53fc172dda2ed0176623bbca3c936bb2d85537947a5e23dd077b579ae1bf155c966119229482519182526020820152a160018055604051938493339085611c19565b6108fc9250611dd2565b608460405162461bcd60e51b815260206004820152602160248201527f416e737765727320646f6e2774206d6174636820656e656d7920616e7377657260448201527f73000000000000000000000000000000000000000000000000000000000000006064820152fd5b606460405162461bcd60e51b815260206004820152601a60248201527f53686f747320646f6e2774206d61746368206d792073686f74730000000000006044820152fd5b608460405162461bcd60e51b815260206004820152603760248201527f4e756d626572206f662073686970206869747320646f6573206e6f74206d617460448201527f6368206e756d626572206f6620736869702070617274730000000000000000006064820152fd5b6001819e9c9e019b8c821161076c57611f8e908d611f8884868a6130b3565b916122a3565b9d60009c611f9d8385896130b3565b90611fa98488886130c3565b359260038410156120475790611fc0939291612213565b9b612001611fe260ff611fdc611fd786888c6130b3565b6121ba565b166130d3565b60ff611ffa6020611ff487898d6130b3565b016121ba565b1690613112565b9061200d8387876130c3565b359060038210156120445750600192918d9161202c575b505001611cd3565b839161ffff61203c921690613128565b528b38612024565b80fd5b8f80fd5b6103e890046509184e72a00001806509184e72a0001161076c5790565b604001805151516001600160a01b0392831692168203612089575050600090565b5160200151516001600160a01b0316036120a257600190565b608460405162461bcd60e51b815260206004820152602160248201527f596f7520617265206e6f74206120706c6179657220696e207468697320726f6f60448201527f6d000000000000000000000000000000000000000000000000000000000000006064820152fd5b7f000000000000000000000000000000000000000000000000000000000000000043019081431161076c57600f0155565b60026001541461214e576002600155565b7f3ee5aeb50000000000000000000000000000000000000000000000000000000060005260046000fd5b6001600160a01b0360005416330361218c57565b7f118cdaa7000000000000000000000000000000000000000000000000000000006000523360045260246000fd5b3560ff811681036101f85790565b156121cf57565b606460405162461bcd60e51b815260206004820152601060248201527f496e76616c696420706f736974696f6e000000000000000000000000000000006044820152fd5b929091600a60ff612223836121ba565b161080612286575b612234906121c8565b60ff61224d602082612245856121ba565b1693016121ba565b1690600383101561052757604051936020850195865260408501526060840152608083015260a082015260a08152611bf360c082611709565b50612234600a60ff61229a602085016121ba565b1610905061222b565b91600a60ff6122b1836121ba565b1610806122fe575b6122c2906121c8565b60ff6122d3602082612245856121ba565b1690604051926020840194855260408401526060830152608082015260808152611bf360a082611709565b506122c2600a60ff612312602085016121ba565b161090506122b9565b9195989493909297969760805260c05261234060ff600e8301541660ff84161461183f565b606460a05260c0516063190161300e576040519661235f60c089611709565b6005885260a03660208a013761237660c051613081565b986000610100525b600a60ff61010051161015612aa857969492909593916000610120525b600a60ff61012051161015612a8e576123c860ff61012051166123c360ff61010051166130d3565b613112565b60e05261ffff60e051166123dc818c613128565b5115801590612a75575b612a68576123f66001918c613128565b52600a60ff61240761012051613149565b16109687612a4c575b600a60ff61242061010051613149565b16109788612a30575b888180612a29575b6129e3571590816129da575b506129d1575b6001971561277a5760ff61010051166126db575b600998975b8b60c05161ffff61247a60ff61247186613054565b1660e051613112565b1610806126be575b1561254d579060016124a96124e69361ffff6124a260ff61247187613054565b1690613128565b526101205160ff1680159061252a575b6124c29061320a565b6101205160ff908116908c1681811491036124eb575b6124e1906133dd565b61335b565b61245c565b506124e161252261251d61ffff61251161250660e0516130ea565b60ff611ffa88613054565b1660c0516080516130c3565b61313c565b1590506124d8565b506124c261254561251d61ffff61251161250660e051613184565b1590506124b9565b5060ff91939597999892949698600a8361256a846101005161315b565b1610612612575b505b16600581116125cc576000190160ff811161076c5760ff6125ad6125a68261259f818f96168096613128565b511661335b565b928c613128565b911690525b60ff6001610120510116610120529694929095939161239b565b60405162461bcd60e51b815260206004820152601760248201527f53686970206c656e67746820697320746f6f206c6f6e67000000000000000000604482015260a05190fd5b610120518316801590612694575b61262990613255565b61264861264261251d61ffff6125118761247188613054565b15613310565b610120518316908316818114910361266a575b61266490613428565b38612571565b5061266461268c61251d61ffff6125116126878761247188613054565b6130ea565b15905061265b565b506126296126b661251d61ffff6125116126b18861247189613054565b613184565b159050612620565b506126d661251d61ffff61251160ff61247187613054565b612482565b60ff6101205116158015612757575b6126f390613199565b61271061270a61251d61ffff61251160e05161316f565b156132c5565b6101205160ff16600914801561272f575b61272a9061336c565b612457565b5061272a61274f61251d61ffff61251161274a60e0516130ea565b61316f565b159050612721565b506126f361277261251d61ffff6125116126b160e05161316f565b1590506126ea565b60ff6101205116612937575b600998975b8b60c05161ffff6127a160ff851660e051613112565b161080612919575b15612847579060016127ca6128029361ffff6124a260ff861660e051613112565b526101005160ff16801590612827575b6127e3906132c5565b6101005160ff908116908c168181149103612807575b6124e190613310565b61278b565b506124e161281f61251d61ffff61251160e0516130fe565b1590506127f9565b506127e361283f61251d61ffff61251160e05161316f565b1590506127da565b5060ff91939597999892949698600a83612864846101205161315b565b1610612871575b50612573565b610100516128c7919084168015906128f3575b61288d9061336c565b8383166128ae6128a861251d61ffff6125118560e051613112565b156133dd565b61010051851691851682811492036128cd575b50613428565b3861286b565b6128ec915061ffff6125116128e761251d9360e051613112565b6130fe565b15386128c1565b5061288d61291161251d61ffff61251161274a89891660e051613112565b159050612884565b5061293261251d61ffff61251160ff861660e051613112565b6127a9565b60ff61010051161580156129ae575b61294f90613199565b61296c61296661251d61ffff61251160e051613184565b1561320a565b6101005160ff16600914801561298b575b61298690613255565b612786565b506129866129a661251d61ffff6125116126b160e0516130fe565b15905061297d565b5061294f6129c961251d61ffff6125116126b160e05161316f565b159050612946565b60019750612443565b9050153861243d565b60405162461bcd60e51b815260206004820152602060248201527f496e76616c6964207368697020706c6163656d656e7420284c2d736861706529604482015260a05190fd5b5080612431565b9750612a4661251d61ffff61251160e0516130fe565b97612429565b9650612a6261251d61ffff61251160e0516130ea565b96612410565b50919395909294966125b2565b50612a8861251d8260c0516080516130c3565b156123e6565b9193959092949660ff60016101005101166101005261237e565b9091929394959796985060005b60ff81166005811015612b3957612ace60ff918a613128565b511660ff612adb8361166a565b90549060031b1c1603612af35760010160ff16612ab5565b60405162461bcd60e51b815260206004820152601260248201527f496e76616c6964207368697020636f756e740000000000000000000000000000604482015260a05190fd5b5050929550929596909396604051602081019182526040810160805160005b60c0518110612fef57505090612b7a816002949303601f198101835282611709565b5190209401936001612b8c8787611927565b50015403612fa9576000926000968790838503612f3e57612bae60c051613081565b90895b868110612c7d57505050505050506003612bd3612bcd8561188a565b84611927565b50015403612c3757600491612be791611927565b50015403612bf157565b60405162461bcd60e51b815260206004820152601e60248201527f416e737765727320646f6e2774206d61746368206d7920616e73776572730000604482015260a05190fd5b60405162461bcd60e51b815260206004820152601d60248201527f53686f747320646f6e2774206d6174636820656e656d792073686f7473000000604482015260a05190fd5b600181019a978b821161076c57612c9a908c611f88848b876130b3565b9760009b612ca9838a866130b3565b90612cb5848a8a6130c3565b35926003841015612f3a5790612ccc939291612213565b9a612cd88289856130b3565b612ce1906121ba565b60ff16612ced906130d3565b612cf8838a866130b3565b602001612d04906121ba565b60ff16612d1091613112565b61ffff811660c0518160805191612d26926130c3565b612d2f9061313c565b612dc5575050612d408288886130c3565b359060038210156120445750612d5a576001905b01612bb1565b608460405162461bcd60e51b815260206004820152602d60248201527f4d69737365642073686f742063616e6e6f7420626520616e737765726564206160448201527f7320686974206f722073756e6b0000000000000000000000000000000000000060a051820152fd5b612dcf8187613128565b5115612f1c575b906001612de6612df39388613128565b528560c051608051613499565b15612e8a57612e038288886130c3565b35906003821015612044575060011901612e1f57600190612d54565b608460405162461bcd60e51b815260206004820152602a60248201527f536869702063616e6e6f742062652073756e6b20696620697420686173206e6f60448201527f74206265656e206869740000000000000000000000000000000000000000000060a051820152fd5b612e958288886130c3565b35906003821015612044575060001901612eb157600190612d54565b608460405162461bcd60e51b815260206004820152603060248201527f53686970206d7573742062652073756e6b20696620616c6c206974732070617260448201527f74732068617665206265656e206869740000000000000000000000000000000060a051820152fd5b95906001612de6612f2f612df394611bf9565b989293505050612dd6565b8e80fd5b608460405162461bcd60e51b815260206004820152602b60248201527f53686f747320616e6420616e7377657273206d7573742068617665207468652060448201527f73616d65206c656e67746800000000000000000000000000000000000000000060a051820152fd5b60405162461bcd60e51b815260206004820152601f60248201527f426f61726420636f6d6d69746d656e7420646f6573206e6f74206d6174636800604482015260a05190fd5b909160208060019261300086611c0c565b151581520193019101612b58565b60405162461bcd60e51b815260206004820152601260248201527f496e76616c696420626f6172642073697a650000000000000000000000000000604482015260a05190fd5b60ff600a9116029060ff821691820361076c57565b67ffffffffffffffff811161172b5760051b60200190565b9061308b82613069565b6130986040519182611709565b82815280926130a9601f1991613069565b0190602036910137565b91908110156116825760061b0190565b91908110156116825760051b0190565b61ffff600a9116029061ffff821691820361076c57565b61ffff60019116019061ffff821161076c57565b61ffff600a9116019061ffff821161076c57565b9061ffff8091169116019061ffff821161076c57565b80518210156116825760209160051b010190565b3580151581036101f85790565b60ff60019116019060ff821161076c57565b9060ff8091169116019060ff821161076c57565b61ffff6009199116019061ffff821161076c57565b61ffff6000199116019061ffff821161076c57565b156131a057565b608460405162461bcd60e51b815260206004820152602160248201527f496e76616c6964207368697020706c6163656d656e742028746f702d6c65667460448201527f29000000000000000000000000000000000000000000000000000000000000006064820152fd5b1561321157565b606460405162461bcd60e51b815260206004820152601d60248201527f496e76616c6964207368697020706c6163656d656e7420286c656674290000006044820152fd5b1561325c57565b608460405162461bcd60e51b8152602060048201526024808201527f496e76616c6964207368697020706c6163656d656e742028626f74746f6d2d6c60448201527f65667429000000000000000000000000000000000000000000000000000000006064820152fd5b156132cc57565b606460405162461bcd60e51b815260206004820152601c60248201527f496e76616c6964207368697020706c6163656d656e742028746f7029000000006044820152fd5b1561331757565b606460405162461bcd60e51b815260206004820152601f60248201527f496e76616c6964207368697020706c6163656d656e742028626f74746f6d29006044820152fd5b60ff1660ff811461076c5760010190565b1561337357565b608460405162461bcd60e51b815260206004820152602260248201527f496e76616c6964207368697020706c6163656d656e742028746f702d7269676860448201527f74290000000000000000000000000000000000000000000000000000000000006064820152fd5b156133e457565b606460405162461bcd60e51b815260206004820152601e60248201527f496e76616c6964207368697020706c6163656d656e74202872696768742900006044820152fd5b1561342f57565b608460405162461bcd60e51b815260206004820152602560248201527f496e76616c6964207368697020706c6163656d656e742028626f74746f6d2d7260448201527f69676874290000000000000000000000000000000000000000000000000000006064820152fd5b91906134a4846130ea565b61ffff81811690600a820616151580613660575b156134e5576134c79084613128565b51156134db576134d690611bf9565b6134a4565b5050505050600090565b5050929161ffff831693846135d2575b606493613501816130fe565b61ffff8116868110806135be575b1561353e5761351e9086613128565b51156135325761352d906130fe565b613501565b50505050505050600090565b50509194600a9194501015613557575b50505050600190565b6135609061316f565b61ffff811661357361251d8286886130c3565b156135b4576135828184613128565b51156134db57600a116135a65761251d61359e6135739261316f565b915050613560565b505050505b3880808061354e565b50505050506135ab565b506135cd61251d8286886130c3565b61350f565b939291906135df83613184565b600995905b61ffff81811690600a8206168814158061364c575b1561363f576136088186613128565b511561363257156136265761ffff16801561076c57600019016135e4565b509091929394506134f5565b5050505050505050600090565b50509091929394506134f5565b5061365b61251d8285876130c3565b6135f9565b5061366f61251d8285886130c3565b6134b856fea2646970667358221220a6b5007a0eba486014fa16da7e4e7bf09dff5d902a5d03354f7bf298ff17b26664736f6c634300081c0033",
          "opcodes": "PUSH1 0xC0 PUSH1 0x40 MSTORE CALLVALUE PUSH2 0x17E JUMPI PUSH1 0x40 MLOAD PUSH1 0x1F PUSH2 0x382E CODESIZE DUP2 SWAP1 SUB SWAP2 DUP3 ADD PUSH1 0x1F NOT AND DUP4 ADD SWAP2 PUSH1 0x1 PUSH1 0x1 PUSH1 0x40 SHL SUB DUP4 GT DUP5 DUP5 LT OR PUSH2 0x152 JUMPI DUP1 DUP5 SWAP3 PUSH1 0x40 SWAP5 DUP6 MSTORE DUP4 CODECOPY DUP2 ADD SUB SLT PUSH2 0x17E JUMPI DUP1 MLOAD PUSH1 0x1 PUSH1 0x1 PUSH1 0xA0 SHL SUB DUP2 AND SWAP2 SWAP1 DUP3 SWAP1 SUB PUSH2 0x17E JUMPI PUSH1 0x20 ADD MLOAD SWAP1 DUP1 ISZERO PUSH2 0x168 JUMPI PUSH1 0x0 DUP1 SLOAD PUSH1 0x1 PUSH1 0x1 PUSH1 0xA0 SHL SUB NOT DUP2 AND DUP4 OR DUP3 SSTORE PUSH1 0x1 PUSH1 0x1 PUSH1 0xA0 SHL SUB AND SWAP1 PUSH32 0x8BE0079C531659141344CD1FD0A4F28419497F9722A3DAAFE3B4186F6B6457E0 SWAP1 DUP1 LOG3 PUSH1 0x1 DUP1 SSTORE PUSH1 0x40 MLOAD PUSH1 0xA0 DUP2 ADD PUSH1 0x1 PUSH1 0x1 PUSH1 0x40 SHL SUB DUP2 GT DUP3 DUP3 LT OR PUSH2 0x152 JUMPI PUSH1 0x40 MSTORE PUSH1 0x0 DUP2 MSTORE PUSH1 0x1 PUSH1 0x20 DUP3 ADD MSTORE PUSH1 0x2 PUSH1 0x40 DUP3 ADD MSTORE PUSH1 0x1 PUSH1 0x60 DUP3 ADD MSTORE PUSH1 0x1 PUSH1 0x80 DUP3 ADD MSTORE PUSH1 0x0 SWAP1 PUSH1 0x0 JUMPDEST PUSH1 0x5 DUP2 LT PUSH2 0x12E JUMPI POP POP PUSH1 0x2 SSTORE PUSH1 0x80 MSTORE PUSH1 0xA PUSH1 0xA0 MSTORE PUSH1 0x40 MLOAD PUSH2 0x36AA SWAP1 DUP2 PUSH2 0x184 DUP3 CODECOPY PUSH1 0x80 MLOAD DUP2 DUP2 DUP2 PUSH2 0x118A ADD MSTORE PUSH2 0x1BBE ADD MSTORE PUSH1 0xA0 MLOAD DUP2 DUP2 DUP2 PUSH2 0x13CA ADD MSTORE PUSH2 0x210E ADD MSTORE RETURN JUMPDEST SWAP1 SWAP2 PUSH1 0x20 PUSH1 0x1 SWAP2 PUSH1 0xFF DUP6 MLOAD AND SWAP1 PUSH1 0xFF DUP6 PUSH1 0x3 SHL SWAP3 DUP4 SHL SWAP3 SHL NOT AND OR SWAP4 ADD SWAP2 ADD PUSH2 0xEA JUMP JUMPDEST PUSH4 0x4E487B71 PUSH1 0xE0 SHL PUSH1 0x0 MSTORE PUSH1 0x41 PUSH1 0x4 MSTORE PUSH1 0x24 PUSH1 0x0 REVERT JUMPDEST PUSH4 0x1E4FBDF7 PUSH1 0xE0 SHL PUSH1 0x0 MSTORE PUSH1 0x0 PUSH1 0x4 MSTORE PUSH1 0x24 PUSH1 0x0 REVERT JUMPDEST PUSH1 0x0 DUP1 REVERT INVALID PUSH2 0x140 PUSH1 0x40 MSTORE PUSH1 0x4 CALLDATASIZE LT ISZERO PUSH2 0x13 JUMPI PUSH1 0x0 DUP1 REVERT JUMPDEST PUSH1 0x0 CALLDATALOAD PUSH1 0xE0 SHR DUP1 PUSH4 0x7ECBA71 EQ PUSH2 0x15B1 JUMPI DUP1 PUSH4 0xA1C87A9 EQ PUSH2 0x13ED JUMPI DUP1 PUSH4 0xB429432 EQ PUSH2 0x13B2 JUMPI DUP1 PUSH4 0xC55699C EQ PUSH2 0x1394 JUMPI DUP1 PUSH4 0x155DD5EE EQ PUSH2 0x12F7 JUMPI DUP1 PUSH4 0x1BAE0AC8 EQ PUSH2 0x129C JUMPI DUP1 PUSH4 0x2AD5E4D6 EQ PUSH2 0x1285 JUMPI DUP1 PUSH4 0x625904C8 EQ PUSH2 0x1267 JUMPI DUP1 PUSH4 0x6790D2B5 EQ PUSH2 0x11AD JUMPI DUP1 PUSH4 0x6CD6EABF EQ PUSH2 0x1172 JUMPI DUP1 PUSH4 0x6E209F2C EQ PUSH2 0x1055 JUMPI DUP1 PUSH4 0x715018A6 EQ PUSH2 0xFEF JUMPI DUP1 PUSH4 0x75DEBAAD EQ PUSH2 0xF23 JUMPI DUP1 PUSH4 0x8DA5CB5B EQ PUSH2 0xEFC JUMPI DUP1 PUSH4 0x8EFE14FD EQ PUSH2 0xEDA JUMPI DUP1 PUSH4 0xA616B069 EQ PUSH2 0xEBE JUMPI DUP1 PUSH4 0xAB196ACD EQ PUSH2 0xD4C JUMPI DUP1 PUSH4 0xB3A16B19 EQ PUSH2 0xBDA JUMPI DUP1 PUSH4 0xB9BAFB10 EQ PUSH2 0xBA0 JUMPI DUP1 PUSH4 0xBA848382 EQ PUSH2 0xB84 JUMPI DUP1 PUSH4 0xC599D89B EQ PUSH2 0x907 JUMPI DUP1 PUSH4 0xC841869D EQ PUSH2 0x812 JUMPI DUP1 PUSH4 0xCE9B4321 EQ PUSH2 0x7EC JUMPI DUP1 PUSH4 0xD38F4663 EQ PUSH2 0x5A7 JUMPI DUP1 PUSH4 0xD4D91F10 EQ PUSH2 0x219 JUMPI DUP1 PUSH4 0xDC4A3E95 EQ PUSH2 0x1FD JUMPI PUSH4 0xF2FDE38B EQ PUSH2 0x146 JUMPI PUSH1 0x0 DUP1 REVERT JUMPDEST CALLVALUE PUSH2 0x1F8 JUMPI PUSH1 0x20 CALLDATASIZE PUSH1 0x3 NOT ADD SLT PUSH2 0x1F8 JUMPI PUSH1 0x4 CALLDATALOAD PUSH1 0x1 PUSH1 0x1 PUSH1 0xA0 SHL SUB DUP2 AND DUP1 SWAP2 SUB PUSH2 0x1F8 JUMPI PUSH2 0x173 PUSH2 0x2178 JUMP JUMPDEST DUP1 ISZERO PUSH2 0x1C9 JUMPI PUSH1 0x1 PUSH1 0x1 PUSH1 0xA0 SHL SUB PUSH1 0x0 SLOAD DUP3 PUSH20 0xFFFFFFFFFFFFFFFFFFFFFFFFFFFFFFFFFFFFFFFF NOT DUP3 AND OR PUSH1 0x0 SSTORE AND PUSH32 0x8BE0079C531659141344CD1FD0A4F28419497F9722A3DAAFE3B4186F6B6457E0 PUSH1 0x0 DUP1 LOG3 STOP JUMPDEST PUSH32 0x1E4FBDF700000000000000000000000000000000000000000000000000000000 PUSH1 0x0 MSTORE PUSH1 0x0 PUSH1 0x4 MSTORE PUSH1 0x24 PUSH1 0x0 REVERT JUMPDEST PUSH1 0x0 DUP1 REVERT JUMPDEST CALLVALUE PUSH2 0x1F8 JUMPI PUSH1 0x0 CALLDATASIZE PUSH1 0x3 NOT ADD SLT PUSH2 0x1F8 JUMPI PUSH1 0x20 PUSH1 0x40 MLOAD PUSH1 0xA DUP2 MSTORE RETURN JUMPDEST CALLVALUE PUSH2 0x1F8 JUMPI PUSH1 0x60 CALLDATASIZE PUSH1 0x3 NOT ADD SLT PUSH2 0x1F8 JUMPI PUSH1 0x44 CALLDATALOAD PUSH1 0x4 CALLDATALOAD PUSH1 0x24 CALLDATALOAD DUP1 ISZERO PUSH2 0x53D JUMPI DUP2 PUSH1 0x0 MSTORE PUSH1 0x3 PUSH1 0x20 MSTORE PUSH1 0x40 PUSH1 0x0 KECCAK256 SWAP1 PUSH1 0xFF DUP3 SLOAD AND PUSH1 0x7 DUP2 LT ISZERO PUSH2 0x527 JUMPI PUSH1 0x2 SUB PUSH2 0x4E3 JUMPI PUSH1 0x80 PUSH2 0x268 DUP4 PUSH2 0x1741 JUMP JUMPDEST ADD MLOAD NUMBER GT PUSH2 0x49F JUMPI PUSH2 0x282 CALLER PUSH2 0x27D DUP5 PUSH2 0x1741 JUMP JUMPDEST PUSH2 0x2068 JUMP JUMPDEST SWAP4 PUSH1 0x2 DUP4 ADD SWAP5 PUSH2 0x292 DUP2 DUP8 PUSH2 0x1927 JUMP JUMPDEST POP PUSH1 0x1 DUP2 ADD SWAP1 DUP2 SLOAD PUSH2 0x435 JUMPI DUP5 PUSH1 0x5 SWAP3 SSTORE ADD SWAP1 DUP2 SLOAD PUSH1 0x40 MLOAD PUSH1 0x20 DUP2 ADD SWAP1 DUP6 DUP3 MSTORE PUSH1 0x20 DUP2 MSTORE PUSH2 0x2C1 PUSH1 0x40 DUP3 PUSH2 0x1709 JUMP JUMPDEST MLOAD SWAP1 KECCAK256 SUB PUSH2 0x3CC JUMPI PUSH2 0x303 PUSH2 0x2FD PUSH1 0x1 SWAP3 PUSH32 0x40952B52F743BBD15DD7C9268B98CB4459193027CDB8D6A3D499CB50D7F173F3 SWAP6 PUSH1 0x60 SWAP6 SSTORE PUSH2 0x188A JUMP JUMPDEST DUP9 PUSH2 0x1927 JUMP JUMPDEST POP ADD SLOAD ISZERO ISZERO SWAP3 PUSH1 0x40 MLOAD SWAP1 DUP7 DUP3 MSTORE CALLER PUSH1 0x20 DUP4 ADD MSTORE PUSH1 0x40 DUP3 ADD MSTORE LOG1 PUSH2 0x322 JUMPI STOP JUMPDEST PUSH2 0x3A9 DUP2 PUSH32 0xFADB9547847A0C2C31F4C02590545E318D33D7AAE99071CAECF3FA4CE3CD7DCA SWAP5 PUSH2 0x3A4 PUSH1 0x1 PUSH1 0x7 PUSH1 0x1 PUSH1 0x1 PUSH1 0xA0 SHL SUB SWAP7 ADD SLOAD PUSH1 0xD DUP6 ADD SLOAD PUSH1 0x40 MLOAD SWAP1 PUSH1 0x20 DUP3 ADD SWAP3 DUP4 MSTORE PUSH1 0x40 DUP3 ADD MSTORE PUSH1 0x40 DUP2 MSTORE PUSH2 0x37E PUSH1 0x60 DUP3 PUSH2 0x1709 JUMP JUMPDEST MLOAD SWAP1 KECCAK256 AND SWAP3 PUSH1 0xE DUP2 ADD PUSH1 0xFF DUP6 AND PUSH1 0xFF NOT DUP3 SLOAD AND OR SWAP1 SSTORE PUSH1 0x3 PUSH1 0xFF NOT DUP3 SLOAD AND OR DUP2 SSTORE PUSH2 0x210C JUMP JUMPDEST PUSH2 0x1927 JUMP JUMPDEST POP SLOAD PUSH1 0x40 DUP1 MLOAD SWAP4 DUP5 MSTORE SWAP2 AND PUSH1 0x1 PUSH1 0x1 PUSH1 0xA0 SHL SUB AND PUSH1 0x20 DUP4 ADD MSTORE DUP2 SWAP1 DUP2 ADD JUMPDEST SUB SWAP1 LOG1 STOP JUMPDEST PUSH1 0x84 PUSH1 0x40 MLOAD PUSH3 0x461BCD PUSH1 0xE5 SHL DUP2 MSTORE PUSH1 0x20 PUSH1 0x4 DUP3 ADD MSTORE PUSH1 0x24 DUP1 DUP3 ADD MSTORE PUSH32 0x52616E646F6D6E65737320636F6D6D69746D656E7420646F6573206E6F74206D PUSH1 0x44 DUP3 ADD MSTORE PUSH32 0x6174636800000000000000000000000000000000000000000000000000000000 PUSH1 0x64 DUP3 ADD MSTORE REVERT JUMPDEST PUSH1 0x84 PUSH1 0x40 MLOAD PUSH3 0x461BCD PUSH1 0xE5 SHL DUP2 MSTORE PUSH1 0x20 PUSH1 0x4 DUP3 ADD MSTORE PUSH1 0x25 PUSH1 0x24 DUP3 ADD MSTORE PUSH32 0x596F75206861766520616C7265616479207375626D697474656420796F757220 PUSH1 0x44 DUP3 ADD MSTORE PUSH32 0x626F617264000000000000000000000000000000000000000000000000000000 PUSH1 0x64 DUP3 ADD MSTORE REVERT JUMPDEST PUSH1 0x64 PUSH1 0x40 MLOAD PUSH3 0x461BCD PUSH1 0xE5 SHL DUP2 MSTORE PUSH1 0x20 PUSH1 0x4 DUP3 ADD MSTORE PUSH1 0x13 PUSH1 0x24 DUP3 ADD MSTORE PUSH32 0x446561646C696E65206861732070617373656400000000000000000000000000 PUSH1 0x44 DUP3 ADD MSTORE REVERT JUMPDEST PUSH1 0x64 PUSH1 0x40 MLOAD PUSH3 0x461BCD PUSH1 0xE5 SHL DUP2 MSTORE PUSH1 0x20 PUSH1 0x4 DUP3 ADD MSTORE PUSH1 0x1D PUSH1 0x24 DUP3 ADD MSTORE PUSH32 0x526F6F6D206973206E6F7420696E207468652066756C6C207374617465000000 PUSH1 0x44 DUP3 ADD MSTORE REVERT JUMPDEST PUSH4 0x4E487B71 PUSH1 0xE0 SHL PUSH1 0x0 MSTORE PUSH1 0x21 PUSH1 0x4 MSTORE PUSH1 0x24 PUSH1 0x0 REVERT JUMPDEST PUSH1 0x84 PUSH1 0x40 MLOAD PUSH3 0x461BCD PUSH1 0xE5 SHL DUP2 MSTORE PUSH1 0x20 PUSH1 0x4 DUP3 ADD MSTORE PUSH1 0x21 PUSH1 0x24 DUP3 ADD MSTORE PUSH32 0x426F61726420636F6D6D69746D656E74206D757374206265206E6F6E2D7A6572 PUSH1 0x44 DUP3 ADD MSTORE PUSH32 0x6F00000000000000000000000000000000000000000000000000000000000000 PUSH1 0x64 DUP3 ADD MSTORE REVERT JUMPDEST CALLVALUE PUSH2 0x1F8 JUMPI PUSH1 0xA0 CALLDATASIZE PUSH1 0x3 NOT ADD SLT PUSH2 0x1F8 JUMPI PUSH1 0x4 CALLDATALOAD PUSH1 0x44 CALLDATALOAD PUSH8 0xFFFFFFFFFFFFFFFF DUP2 GT PUSH2 0x1F8 JUMPI PUSH2 0x5DB SWAP1 CALLDATASIZE SWAP1 PUSH1 0x4 ADD PUSH2 0x1608 JUMP JUMPDEST SWAP2 PUSH1 0x64 CALLDATALOAD PUSH8 0xFFFFFFFFFFFFFFFF DUP2 GT PUSH2 0x1F8 JUMPI PUSH2 0x5FC SWAP1 CALLDATASIZE SWAP1 PUSH1 0x4 ADD PUSH2 0x1639 JUMP JUMPDEST PUSH1 0x84 SWAP5 SWAP2 SWAP5 CALLDATALOAD PUSH8 0xFFFFFFFFFFFFFFFF DUP2 GT PUSH2 0x1F8 JUMPI PUSH2 0x61F SWAP1 CALLDATASIZE SWAP1 PUSH1 0x4 ADD PUSH2 0x1608 JUMP JUMPDEST SWAP2 DUP5 PUSH1 0x0 MSTORE PUSH1 0x3 PUSH1 0x20 MSTORE PUSH1 0x40 PUSH1 0x0 KECCAK256 SWAP7 PUSH2 0x63C CALLER PUSH2 0x27D DUP11 PUSH2 0x1741 JUMP JUMPDEST SWAP1 PUSH1 0xFF DUP10 SLOAD AND PUSH1 0x7 DUP2 LT ISZERO PUSH2 0x527 JUMPI PUSH1 0x5 SUB PUSH2 0x782 JUMPI PUSH1 0x1 SWAP5 PUSH1 0x1 PUSH1 0x1 PUSH1 0xA0 SHL SUB SWAP5 PUSH2 0x6A4 SWAP5 PUSH2 0x688 SWAP4 DUP10 DUP13 DUP15 PUSH2 0x67E PUSH1 0xFF PUSH1 0xE DUP4 ADD SLOAD AND PUSH1 0xFF DUP12 AND EQ PUSH2 0x183F JUMP JUMPDEST DUP9 PUSH1 0x24 CALLDATALOAD SWAP2 PUSH2 0x231B JUMP JUMPDEST DUP8 SLOAD PUSH1 0xFF NOT AND PUSH1 0x6 OR DUP9 SSTORE PUSH2 0x69B PUSH2 0x213D JUMP JUMPDEST PUSH1 0x2 DUP9 ADD PUSH2 0x1927 JUMP JUMPDEST POP SLOAD AND SWAP5 ADD SLOAD SWAP1 DUP2 PUSH1 0x1 SHL SWAP2 PUSH1 0x1 PUSH1 0x1 PUSH1 0xFF SHL SUB DUP2 AND DUP2 SUB PUSH2 0x76C JUMPI PUSH2 0x6C9 SWAP1 PUSH2 0x204B JUMP JUMPDEST SWAP2 DUP3 DUP2 SUB SWAP3 DUP2 DUP5 GT PUSH2 0x76C JUMPI DUP7 DUP5 SWAP2 PUSH1 0x0 SWAP4 EQ PUSH2 0x762 JUMPI JUMPDEST PUSH1 0x0 SWAP3 DUP4 SWAP3 DUP4 SWAP3 DUP4 SWAP3 CALL ISZERO PUSH2 0x756 JUMPI PUSH32 0xEE97096F32EED49908B904623AE7BA7AF58C121E15FE6E7F31AC379FB7CA1A98 PUSH1 0x40 PUSH32 0xB2140D601EF56C537167DF622738F7062C329FD471B1F729EDFA570296A3C8F SWAP7 PUSH2 0x3C7 SWAP5 DUP3 MLOAD SWAP2 DUP3 MSTORE PUSH1 0x20 DUP3 ADD MSTORE LOG1 PUSH1 0x1 DUP1 SSTORE PUSH1 0x40 MLOAD SWAP4 DUP5 SWAP4 CALLER SWAP1 DUP6 PUSH2 0x1C19 JUMP JUMPDEST PUSH1 0x40 MLOAD RETURNDATASIZE PUSH1 0x0 DUP3 RETURNDATACOPY RETURNDATASIZE SWAP1 REVERT JUMPDEST PUSH2 0x8FC SWAP3 POP PUSH2 0x6E1 JUMP JUMPDEST PUSH4 0x4E487B71 PUSH1 0xE0 SHL PUSH1 0x0 MSTORE PUSH1 0x11 PUSH1 0x4 MSTORE PUSH1 0x24 PUSH1 0x0 REVERT JUMPDEST PUSH1 0x84 PUSH1 0x40 MLOAD PUSH3 0x461BCD PUSH1 0xE5 SHL DUP2 MSTORE PUSH1 0x20 PUSH1 0x4 DUP3 ADD MSTORE PUSH1 0x2B PUSH1 0x24 DUP3 ADD MSTORE PUSH32 0x526F6F6D206973206E6F7420696E2074686520646973686F6E6573747920636C PUSH1 0x44 DUP3 ADD MSTORE PUSH32 0x61696D6564207374617465000000000000000000000000000000000000000000 PUSH1 0x64 DUP3 ADD MSTORE REVERT JUMPDEST CALLVALUE PUSH2 0x1F8 JUMPI PUSH1 0x20 CALLDATASIZE PUSH1 0x3 NOT ADD SLT PUSH2 0x1F8 JUMPI PUSH1 0x20 PUSH2 0x80A PUSH1 0x4 CALLDATALOAD PUSH2 0x204B JUMP JUMPDEST PUSH1 0x40 MLOAD SWAP1 DUP2 MSTORE RETURN JUMPDEST CALLVALUE PUSH2 0x1F8 JUMPI PUSH2 0x140 CALLDATASIZE PUSH1 0x3 NOT ADD SLT PUSH2 0x1F8 JUMPI PUSH1 0x4 CALLDATALOAD PUSH1 0x40 CALLDATASIZE PUSH1 0x23 NOT ADD SLT PUSH2 0x1F8 JUMPI PUSH1 0x64 CALLDATALOAD PUSH1 0x3 DUP2 LT ISZERO PUSH2 0x1F8 JUMPI PUSH1 0xA4 CALLDATALOAD PUSH8 0xFFFFFFFFFFFFFFFF DUP2 GT PUSH2 0x1F8 JUMPI PUSH2 0x85F SWAP1 CALLDATASIZE SWAP1 PUSH1 0x4 ADD PUSH2 0x1608 JUMP JUMPDEST PUSH1 0xC4 SWAP3 SWAP2 SWAP3 CALLDATALOAD PUSH8 0xFFFFFFFFFFFFFFFF DUP2 GT PUSH2 0x1F8 JUMPI PUSH2 0x882 SWAP1 CALLDATASIZE SWAP1 PUSH1 0x4 ADD PUSH2 0x1639 JUMP JUMPDEST PUSH1 0xE4 SWAP3 SWAP2 SWAP3 CALLDATALOAD PUSH8 0xFFFFFFFFFFFFFFFF DUP2 GT PUSH2 0x1F8 JUMPI PUSH2 0x8A5 SWAP1 CALLDATASIZE SWAP1 PUSH1 0x4 ADD PUSH2 0x1608 JUMP JUMPDEST SWAP2 PUSH2 0x104 CALLDATALOAD PUSH8 0xFFFFFFFFFFFFFFFF DUP2 GT PUSH2 0x1F8 JUMPI PUSH2 0x8C7 SWAP1 CALLDATASIZE SWAP1 PUSH1 0x4 ADD PUSH2 0x1639 JUMP JUMPDEST SWAP6 SWAP1 SWAP5 PUSH2 0x124 CALLDATALOAD SWAP9 PUSH8 0xFFFFFFFFFFFFFFFF DUP11 GT PUSH2 0x1F8 JUMPI PUSH2 0x905 SWAP11 PUSH2 0x8F3 PUSH2 0x8FC SWAP12 CALLDATASIZE SWAP1 PUSH1 0x4 ADD PUSH2 0x1608 JUMP JUMPDEST SWAP12 SWAP1 SWAP11 DUP3 PUSH2 0x1949 JUMP JUMPDEST PUSH1 0x84 CALLDATALOAD SWAP1 PUSH2 0x1C70 JUMP JUMPDEST STOP JUMPDEST CALLVALUE PUSH2 0x1F8 JUMPI PUSH1 0x20 CALLDATASIZE PUSH1 0x3 NOT ADD SLT PUSH2 0x1F8 JUMPI PUSH1 0x4 CALLDATALOAD DUP1 PUSH1 0x0 MSTORE PUSH1 0x3 PUSH1 0x20 MSTORE PUSH1 0x40 PUSH1 0x0 KECCAK256 SWAP1 PUSH2 0x937 CALLER PUSH2 0x27D DUP5 PUSH2 0x1741 JUMP JUMPDEST PUSH2 0x940 DUP2 PUSH2 0x188A JUMP JUMPDEST PUSH1 0xF DUP5 ADD SLOAD NUMBER GT ISZERO PUSH2 0xB40 JUMPI PUSH1 0xFF DUP5 SLOAD AND PUSH1 0x7 DUP2 LT ISZERO PUSH2 0x527 JUMPI PUSH1 0x2 DUP2 EQ SWAP2 DUP3 PUSH2 0xB25 JUMPI JUMPDEST PUSH1 0x3 DUP3 EQ SWAP2 PUSH1 0x0 DUP4 ISZERO PUSH2 0xB17 JUMPI JUMPDEST DUP4 ISZERO PUSH2 0xB04 JUMPI JUMPDEST POP POP DUP2 PUSH2 0xAF0 JUMPI JUMPDEST POP DUP2 ISZERO PUSH2 0xAE8 JUMPI JUMPDEST POP ISZERO PUSH2 0xA7E JUMPI PUSH1 0x1 PUSH1 0x1 PUSH1 0xA0 SHL SUB PUSH2 0x9BA PUSH1 0x1 SWAP3 PUSH1 0x6 PUSH1 0xFF NOT DUP8 SLOAD AND OR DUP7 SSTORE PUSH2 0x9B1 PUSH2 0x213D JUMP JUMPDEST PUSH1 0x2 DUP7 ADD PUSH2 0x1927 JUMP JUMPDEST POP SLOAD AND SWAP3 ADD SLOAD SWAP1 DUP2 PUSH1 0x1 SHL SWAP2 PUSH1 0x1 PUSH1 0x1 PUSH1 0xFF SHL SUB DUP2 AND DUP2 SUB PUSH2 0x76C JUMPI PUSH2 0x9DF SWAP1 PUSH2 0x204B JUMP JUMPDEST SWAP2 DUP3 DUP2 SUB SWAP3 DUP2 DUP5 GT PUSH2 0x76C JUMPI DUP5 DUP5 SWAP2 PUSH1 0x0 SWAP4 EQ PUSH2 0xA74 JUMPI JUMPDEST PUSH1 0x0 SWAP3 DUP4 SWAP3 DUP4 SWAP3 DUP4 SWAP3 CALL ISZERO PUSH2 0x756 JUMPI PUSH32 0xEE97096F32EED49908B904623AE7BA7AF58C121E15FE6E7F31AC379FB7CA1A98 PUSH1 0x40 PUSH32 0x294A1CC2E139B7D44DC4130A0E042162F4D48F289FE4E0A40CA50726A9D01EBC SWAP5 PUSH2 0x3C7 SWAP5 DUP3 MLOAD SWAP2 DUP3 MSTORE PUSH1 0x20 DUP3 ADD MSTORE LOG1 PUSH1 0x1 DUP1 SSTORE PUSH1 0x40 DUP1 MLOAD SWAP2 DUP3 MSTORE CALLER PUSH1 0x20 DUP4 ADD MSTORE SWAP1 SWAP2 DUP3 SWAP2 DUP3 ADD SWAP1 JUMP JUMPDEST PUSH2 0x8FC SWAP3 POP PUSH2 0x9F7 JUMP JUMPDEST PUSH1 0x84 PUSH1 0x40 MLOAD PUSH3 0x461BCD PUSH1 0xE5 SHL DUP2 MSTORE PUSH1 0x20 PUSH1 0x4 DUP3 ADD MSTORE PUSH1 0x21 PUSH1 0x24 DUP3 ADD MSTORE PUSH32 0x4974206973206E6F7420656E656D792773207475726E20746F20726573706F6E PUSH1 0x44 DUP3 ADD MSTORE PUSH32 0x6400000000000000000000000000000000000000000000000000000000000000 PUSH1 0x64 DUP3 ADD MSTORE REVERT JUMPDEST SWAP1 POP DUP5 PUSH2 0x98A JUMP JUMPDEST SWAP1 POP PUSH1 0xFF DUP1 PUSH1 0xE DUP8 ADD SLOAD AND SWAP2 AND EQ DUP6 PUSH2 0x982 JUMP JUMPDEST SWAP1 SWAP2 SWAP3 POP PUSH2 0x527 JUMPI PUSH1 0x5 EQ SWAP1 DUP7 DUP1 PUSH2 0x97A JUMP JUMPDEST POP PUSH1 0x4 DUP2 EQ SWAP3 POP PUSH1 0x0 PUSH2 0x973 JUMP JUMPDEST SWAP2 POP PUSH1 0x1 PUSH2 0xB36 DUP4 PUSH1 0x2 DUP9 ADD PUSH2 0x1927 JUMP JUMPDEST POP ADD SLOAD ISZERO SWAP2 PUSH2 0x965 JUMP JUMPDEST PUSH1 0x64 PUSH1 0x40 MLOAD PUSH3 0x461BCD PUSH1 0xE5 SHL DUP2 MSTORE PUSH1 0x20 PUSH1 0x4 DUP3 ADD MSTORE PUSH1 0x1B PUSH1 0x24 DUP3 ADD MSTORE PUSH32 0x446561646C696E6520686173206E6F7420706173736564207965740000000000 PUSH1 0x44 DUP3 ADD MSTORE REVERT JUMPDEST CALLVALUE PUSH2 0x1F8 JUMPI PUSH1 0x0 CALLDATASIZE PUSH1 0x3 NOT ADD SLT PUSH2 0x1F8 JUMPI PUSH1 0x20 PUSH1 0x40 MLOAD PUSH1 0x5 DUP2 MSTORE RETURN JUMPDEST CALLVALUE PUSH2 0x1F8 JUMPI PUSH1 0x20 CALLDATASIZE PUSH1 0x3 NOT ADD SLT PUSH2 0x1F8 JUMPI PUSH1 0x4 CALLDATALOAD PUSH1 0x5 DUP2 LT ISZERO PUSH2 0x1F8 JUMPI PUSH1 0xFF PUSH2 0xBCA PUSH1 0x20 SWAP3 PUSH2 0x166A JUMP JUMPDEST SWAP1 SLOAD SWAP1 PUSH1 0x3 SHL SHR AND PUSH1 0x40 MLOAD SWAP1 DUP2 MSTORE RETURN JUMPDEST CALLVALUE PUSH2 0x1F8 JUMPI PUSH1 0xC0 CALLDATASIZE PUSH1 0x3 NOT ADD SLT PUSH2 0x1F8 JUMPI PUSH1 0x4 CALLDATALOAD PUSH1 0x40 CALLDATASIZE PUSH1 0x23 NOT ADD SLT PUSH2 0x1F8 JUMPI PUSH1 0x64 CALLDATALOAD PUSH1 0x3 DUP2 LT ISZERO PUSH2 0x1F8 JUMPI PUSH1 0x40 CALLDATASIZE PUSH1 0x83 NOT ADD SLT PUSH2 0x1F8 JUMPI PUSH2 0xC1C SWAP1 DUP3 PUSH2 0x1949 JUMP JUMPDEST DUP1 PUSH1 0x0 MSTORE PUSH1 0x3 PUSH1 0x20 MSTORE PUSH1 0x40 PUSH1 0x0 KECCAK256 SWAP1 PUSH1 0xFF DUP3 SLOAD AND PUSH1 0x7 DUP2 LT ISZERO PUSH2 0x527 JUMPI PUSH1 0x3 PUSH2 0xC45 SWAP2 EQ PUSH2 0x1698 JUMP JUMPDEST PUSH2 0xC52 CALLER PUSH2 0x27D DUP5 PUSH2 0x1741 JUMP JUMPDEST PUSH2 0xFFFF PUSH1 0x1 PUSH1 0x1 PUSH1 0xA0 SHL SUB PUSH2 0xC80 PUSH1 0xE DUP7 ADD SWAP4 PUSH2 0xC77 PUSH1 0xFF DUP7 SLOAD AND PUSH1 0xFF DUP4 AND EQ PUSH2 0x183F JUMP JUMPDEST PUSH1 0x2 DUP8 ADD PUSH2 0x1927 JUMP JUMPDEST POP PUSH2 0xCDC PUSH1 0x2 DUP3 ADD SWAP7 DUP8 SLOAD SWAP6 DUP6 PUSH2 0xC98 DUP2 DUP10 AND PUSH2 0x1BF9 JUMP JUMPDEST AND DUP1 SWAP8 DUP8 NOT AND OR DUP10 SSTORE PUSH2 0xCB2 PUSH1 0x84 PUSH1 0x3 DUP7 ADD SWAP9 DUP10 SLOAD PUSH2 0x22A3 JUMP JUMPDEST DUP8 SSTORE PUSH1 0x4 PUSH1 0xFF NOT DUP4 SLOAD AND OR DUP3 SSTORE PUSH1 0xFF PUSH2 0xCCD DUP2 DUP4 SLOAD AND PUSH2 0x188A JUMP JUMPDEST AND PUSH1 0xFF NOT DUP3 SLOAD AND OR SWAP1 SSTORE PUSH2 0x210C JUMP JUMPDEST SLOAD AND SWAP4 SLOAD AND SWAP1 SLOAD SWAP3 PUSH1 0x40 MLOAD SWAP3 DUP4 MSTORE PUSH1 0x20 DUP4 ADD MSTORE PUSH1 0x40 DUP3 ADD MSTORE PUSH1 0x84 CALLDATALOAD PUSH1 0xFF DUP2 AND DUP2 SUB PUSH2 0x1F8 JUMPI PUSH1 0xFF AND PUSH1 0x60 DUP3 ADD MSTORE PUSH1 0xA4 CALLDATALOAD SWAP1 PUSH1 0xFF DUP3 AND DUP3 SUB PUSH2 0x1F8 JUMPI PUSH32 0xB72B4B2C796809161DBC42D5A7E6E0C75042FE6F953C2D35187A16CEF28848BF SWAP3 PUSH1 0xFF PUSH1 0xC0 SWAP4 AND PUSH1 0x80 DUP4 ADD MSTORE PUSH1 0xA0 DUP3 ADD MSTORE LOG1 STOP JUMPDEST PUSH1 0x40 CALLDATASIZE PUSH1 0x3 NOT ADD SLT PUSH2 0x1F8 JUMPI PUSH1 0x4 CALLDATALOAD PUSH2 0xD64 CALLVALUE PUSH2 0x204B JUMP JUMPDEST SWAP1 DUP2 CALLVALUE GT ISZERO PUSH2 0xE54 JUMPI DUP1 PUSH1 0x0 MSTORE PUSH1 0x3 PUSH1 0x20 MSTORE PUSH1 0x40 PUSH1 0x0 KECCAK256 SWAP1 PUSH1 0xFF DUP3 SLOAD AND PUSH1 0x7 DUP2 LT ISZERO PUSH2 0x527 JUMPI PUSH2 0xE10 JUMPI PUSH32 0xCF1EEFEF99365C71F66CF7D03C056F6D828C32F1023712660C18EE3CD8585CB4 SWAP3 PUSH1 0x80 SWAP3 PUSH1 0x1 PUSH1 0xFF NOT DUP3 SLOAD AND OR DUP2 SSTORE CALLVALUE PUSH1 0x1 DUP3 ADD SSTORE PUSH1 0x2 DUP2 ADD PUSH1 0x1 PUSH1 0x1 PUSH1 0xA0 SHL SUB CALLER AND PUSH20 0xFFFFFFFFFFFFFFFFFFFFFFFFFFFFFFFFFFFFFFFF NOT DUP3 SLOAD AND OR SWAP1 SSTORE PUSH1 0x7 PUSH1 0x24 CALLDATALOAD SWAP2 ADD SSTORE PUSH1 0x40 MLOAD SWAP2 DUP3 MSTORE CALLER PUSH1 0x20 DUP4 ADD MSTORE CALLVALUE PUSH1 0x40 DUP4 ADD MSTORE PUSH1 0x60 DUP3 ADD MSTORE LOG1 STOP JUMPDEST PUSH1 0x64 PUSH1 0x40 MLOAD PUSH3 0x461BCD PUSH1 0xE5 SHL DUP2 MSTORE PUSH1 0x20 PUSH1 0x4 DUP3 ADD MSTORE PUSH1 0x13 PUSH1 0x24 DUP3 ADD MSTORE PUSH32 0x526F6F6D20616C72656164792065786973747300000000000000000000000000 PUSH1 0x44 DUP3 ADD MSTORE REVERT JUMPDEST PUSH1 0x84 PUSH1 0x40 MLOAD PUSH3 0x461BCD PUSH1 0xE5 SHL DUP2 MSTORE PUSH1 0x20 PUSH1 0x4 DUP3 ADD MSTORE PUSH1 0x29 PUSH1 0x24 DUP3 ADD MSTORE PUSH32 0x456E74727920666565206D7573742062652067726561746572207468616E2063 PUSH1 0x44 DUP3 ADD MSTORE PUSH32 0x6F6D6D697373696F6E0000000000000000000000000000000000000000000000 PUSH1 0x64 DUP3 ADD MSTORE REVERT JUMPDEST CALLVALUE PUSH2 0x1F8 JUMPI PUSH1 0x0 CALLDATASIZE PUSH1 0x3 NOT ADD SLT PUSH2 0x1F8 JUMPI PUSH1 0x20 PUSH1 0x40 MLOAD PUSH1 0x11 DUP2 MSTORE RETURN JUMPDEST CALLVALUE PUSH2 0x1F8 JUMPI PUSH2 0x905 PUSH2 0xEF7 PUSH2 0xEEE CALLDATASIZE PUSH2 0x15DA JUMP JUMPDEST SWAP1 DUP3 SWAP4 SWAP3 PUSH2 0x1AC2 JUMP JUMPDEST PUSH2 0x189B JUMP JUMPDEST CALLVALUE PUSH2 0x1F8 JUMPI PUSH1 0x0 CALLDATASIZE PUSH1 0x3 NOT ADD SLT PUSH2 0x1F8 JUMPI PUSH1 0x20 PUSH1 0x1 PUSH1 0x1 PUSH1 0xA0 SHL SUB PUSH1 0x0 SLOAD AND PUSH1 0x40 MLOAD SWAP1 DUP2 MSTORE RETURN JUMPDEST CALLVALUE PUSH2 0x1F8 JUMPI PUSH1 0xE0 CALLDATASIZE PUSH1 0x3 NOT ADD SLT PUSH2 0x1F8 JUMPI PUSH1 0x44 CALLDATALOAD PUSH8 0xFFFFFFFFFFFFFFFF DUP2 GT PUSH2 0x1F8 JUMPI PUSH2 0xF54 SWAP1 CALLDATASIZE SWAP1 PUSH1 0x4 ADD PUSH2 0x1608 JUMP JUMPDEST PUSH1 0x64 CALLDATALOAD PUSH8 0xFFFFFFFFFFFFFFFF DUP2 GT PUSH2 0x1F8 JUMPI PUSH2 0xF74 SWAP1 CALLDATASIZE SWAP1 PUSH1 0x4 ADD PUSH2 0x1639 JUMP JUMPDEST PUSH1 0x84 SWAP4 SWAP2 SWAP4 CALLDATALOAD PUSH8 0xFFFFFFFFFFFFFFFF DUP2 GT PUSH2 0x1F8 JUMPI PUSH2 0xF97 SWAP1 CALLDATASIZE SWAP1 PUSH1 0x4 ADD PUSH2 0x1608 JUMP JUMPDEST PUSH1 0xA4 SWAP3 SWAP2 SWAP3 CALLDATALOAD PUSH8 0xFFFFFFFFFFFFFFFF DUP2 GT PUSH2 0x1F8 JUMPI PUSH2 0xFBA SWAP1 CALLDATASIZE SWAP1 PUSH1 0x4 ADD PUSH2 0x1639 JUMP JUMPDEST SWAP4 SWAP1 SWAP3 PUSH1 0xC4 CALLDATALOAD SWAP8 PUSH8 0xFFFFFFFFFFFFFFFF DUP10 GT PUSH2 0x1F8 JUMPI PUSH2 0xFE1 PUSH2 0x905 SWAP10 CALLDATASIZE SWAP1 PUSH1 0x4 ADD PUSH2 0x1608 JUMP JUMPDEST SWAP9 SWAP1 SWAP8 PUSH1 0x24 CALLDATALOAD PUSH1 0x4 CALLDATALOAD PUSH2 0x1C70 JUMP JUMPDEST CALLVALUE PUSH2 0x1F8 JUMPI PUSH1 0x0 CALLDATASIZE PUSH1 0x3 NOT ADD SLT PUSH2 0x1F8 JUMPI PUSH2 0x1008 PUSH2 0x2178 JUMP JUMPDEST PUSH1 0x0 PUSH1 0x1 PUSH1 0x1 PUSH1 0xA0 SHL SUB DUP2 SLOAD PUSH20 0xFFFFFFFFFFFFFFFFFFFFFFFFFFFFFFFFFFFFFFFF NOT DUP2 AND DUP4 SSTORE AND PUSH32 0x8BE0079C531659141344CD1FD0A4F28419497F9722A3DAAFE3B4186F6B6457E0 DUP3 DUP1 LOG3 STOP JUMPDEST CALLVALUE PUSH2 0x1F8 JUMPI PUSH1 0x60 CALLDATASIZE PUSH1 0x3 NOT ADD SLT PUSH2 0x1F8 JUMPI PUSH1 0x4 CALLDATALOAD PUSH1 0x40 CALLDATASIZE PUSH1 0x23 NOT ADD SLT PUSH2 0x1F8 JUMPI DUP1 PUSH1 0x0 MSTORE PUSH1 0x3 PUSH1 0x20 MSTORE PUSH1 0x40 PUSH1 0x0 KECCAK256 SWAP1 PUSH1 0xFF DUP3 SLOAD AND PUSH1 0x7 DUP2 LT ISZERO PUSH2 0x527 JUMPI PUSH1 0x3 PUSH2 0x109E SWAP2 EQ PUSH2 0x1698 JUMP JUMPDEST PUSH2 0x10AB CALLER PUSH2 0x27D DUP5 PUSH2 0x1741 JUMP JUMPDEST PUSH2 0xFFFF PUSH1 0x1 PUSH1 0x1 PUSH1 0xA0 SHL SUB PUSH2 0x10D0 PUSH1 0xE DUP7 ADD SWAP4 PUSH2 0xC77 PUSH1 0xFF DUP7 SLOAD AND PUSH1 0xFF DUP4 AND EQ PUSH2 0x183F JUMP JUMPDEST POP PUSH2 0x1102 PUSH1 0x2 DUP3 ADD SWAP7 DUP8 SLOAD SWAP6 DUP6 PUSH2 0x10E8 DUP2 DUP10 AND PUSH2 0x1BF9 JUMP JUMPDEST AND DUP1 SWAP8 DUP8 NOT AND OR DUP10 SSTORE PUSH2 0xCB2 PUSH1 0x24 PUSH1 0x3 DUP7 ADD SWAP9 DUP10 SLOAD PUSH2 0x22A3 JUMP JUMPDEST SLOAD AND SWAP4 SLOAD AND SWAP1 SLOAD SWAP3 PUSH1 0x40 MLOAD SWAP3 DUP4 MSTORE PUSH1 0x20 DUP4 ADD MSTORE PUSH1 0x40 DUP3 ADD MSTORE PUSH1 0x24 CALLDATALOAD PUSH1 0xFF DUP2 AND DUP2 SUB PUSH2 0x1F8 JUMPI PUSH1 0xFF AND PUSH1 0x60 DUP3 ADD MSTORE PUSH1 0x44 CALLDATALOAD SWAP1 PUSH1 0xFF DUP3 AND DUP3 SUB PUSH2 0x1F8 JUMPI PUSH32 0xB72B4B2C796809161DBC42D5A7E6E0C75042FE6F953C2D35187A16CEF28848BF SWAP3 PUSH1 0xFF PUSH1 0xC0 SWAP4 AND PUSH1 0x80 DUP4 ADD MSTORE PUSH1 0xA0 DUP3 ADD MSTORE LOG1 STOP JUMPDEST CALLVALUE PUSH2 0x1F8 JUMPI PUSH1 0x0 CALLDATASIZE PUSH1 0x3 NOT ADD SLT PUSH2 0x1F8 JUMPI PUSH1 0x20 PUSH1 0x40 MLOAD PUSH32 0x0 DUP2 MSTORE RETURN JUMPDEST CALLVALUE PUSH2 0x1F8 JUMPI PUSH1 0x20 CALLDATASIZE PUSH1 0x3 NOT ADD SLT PUSH2 0x1F8 JUMPI PUSH1 0x4 CALLDATALOAD PUSH1 0x0 MSTORE PUSH1 0x3 PUSH1 0x20 MSTORE PUSH2 0x11D6 PUSH1 0x40 PUSH1 0x0 KECCAK256 PUSH2 0x1741 JUMP JUMPDEST DUP1 MLOAD PUSH1 0x7 DUP2 LT ISZERO PUSH2 0x527 JUMPI ISZERO PUSH2 0x1223 JUMPI DUP1 MLOAD PUSH1 0x7 DUP2 LT ISZERO PUSH2 0x527 JUMPI DUP2 PUSH1 0x1 PUSH1 0x1 PUSH1 0xA0 SHL SUB PUSH1 0x40 PUSH1 0x20 PUSH1 0x60 SWAP6 ADD MLOAD SWAP3 ADD MLOAD MLOAD MLOAD AND SWAP1 PUSH2 0x1217 PUSH1 0x40 MLOAD DUP1 SWAP5 PUSH2 0x15CD JUMP JUMPDEST PUSH1 0x20 DUP4 ADD MSTORE PUSH1 0x40 DUP3 ADD MSTORE RETURN JUMPDEST PUSH1 0x64 PUSH1 0x40 MLOAD PUSH3 0x461BCD PUSH1 0xE5 SHL DUP2 MSTORE PUSH1 0x20 PUSH1 0x4 DUP3 ADD MSTORE PUSH1 0x13 PUSH1 0x24 DUP3 ADD MSTORE PUSH32 0x526F6F6D20646F6573206E6F7420657869737400000000000000000000000000 PUSH1 0x44 DUP3 ADD MSTORE REVERT JUMPDEST CALLVALUE PUSH2 0x1F8 JUMPI PUSH1 0x20 CALLDATASIZE PUSH1 0x3 NOT ADD SLT PUSH2 0x1F8 JUMPI PUSH1 0x20 PUSH2 0x80A PUSH1 0x4 CALLDATALOAD PUSH2 0x1BB4 JUMP JUMPDEST CALLVALUE PUSH2 0x1F8 JUMPI PUSH2 0x905 PUSH2 0x1296 CALLDATASIZE PUSH2 0x15DA JUMP JUMPDEST SWAP2 PUSH2 0x1AC2 JUMP JUMPDEST CALLVALUE PUSH2 0x1F8 JUMPI PUSH1 0x20 CALLDATASIZE PUSH1 0x3 NOT ADD SLT PUSH2 0x1F8 JUMPI PUSH1 0x4 CALLDATALOAD PUSH1 0x0 MSTORE PUSH1 0x3 PUSH1 0x20 MSTORE PUSH1 0x80 PUSH1 0x40 PUSH1 0x0 KECCAK256 PUSH1 0xFF DUP2 SLOAD AND SWAP1 PUSH1 0x1 DUP2 ADD SLOAD SWAP1 PUSH1 0xF PUSH1 0xFF PUSH1 0xE DUP4 ADD SLOAD AND SWAP2 ADD SLOAD SWAP2 PUSH2 0x12E6 PUSH1 0x40 MLOAD DUP1 SWAP6 PUSH2 0x15CD JUMP JUMPDEST PUSH1 0x20 DUP5 ADD MSTORE PUSH1 0x40 DUP4 ADD MSTORE PUSH1 0x60 DUP3 ADD MSTORE RETURN JUMPDEST CALLVALUE PUSH2 0x1F8 JUMPI PUSH1 0x20 CALLDATASIZE PUSH1 0x3 NOT ADD SLT PUSH2 0x1F8 JUMPI PUSH1 0x4 CALLDATALOAD PUSH2 0x1313 PUSH2 0x213D JUMP JUMPDEST PUSH2 0x131B PUSH2 0x2178 JUMP JUMPDEST DUP1 SELFBALANCE LT PUSH2 0x1350 JUMPI PUSH1 0x0 DUP1 DUP1 DUP1 SWAP4 PUSH1 0x1 PUSH1 0x1 PUSH1 0xA0 SHL SUB DUP3 SLOAD AND DUP3 DUP3 ISZERO PUSH2 0x1347 JUMPI JUMPDEST CALL ISZERO PUSH2 0x756 JUMPI PUSH1 0x1 DUP1 SSTORE STOP JUMPDEST POP PUSH2 0x8FC PUSH2 0x133B JUMP JUMPDEST PUSH1 0x64 PUSH1 0x40 MLOAD PUSH3 0x461BCD PUSH1 0xE5 SHL DUP2 MSTORE PUSH1 0x20 PUSH1 0x4 DUP3 ADD MSTORE PUSH1 0x10 PUSH1 0x24 DUP3 ADD MSTORE PUSH32 0x4E6F7420656E6F7567682066756E647300000000000000000000000000000000 PUSH1 0x44 DUP3 ADD MSTORE REVERT JUMPDEST CALLVALUE PUSH2 0x1F8 JUMPI PUSH1 0x0 CALLDATASIZE PUSH1 0x3 NOT ADD SLT PUSH2 0x1F8 JUMPI PUSH1 0x20 PUSH1 0x4 SLOAD PUSH1 0x40 MLOAD SWAP1 DUP2 MSTORE RETURN JUMPDEST CALLVALUE PUSH2 0x1F8 JUMPI PUSH1 0x0 CALLDATASIZE PUSH1 0x3 NOT ADD SLT PUSH2 0x1F8 JUMPI PUSH1 0x20 PUSH1 0x40 MLOAD PUSH32 0x0 DUP2 MSTORE RETURN JUMPDEST PUSH1 0x40 CALLDATASIZE PUSH1 0x3 NOT ADD SLT PUSH2 0x1F8 JUMPI PUSH2 0x1404 PUSH1 0x4 CALLDATALOAD PUSH2 0x1BB4 JUMP JUMPDEST DUP1 PUSH1 0x0 MSTORE PUSH1 0x3 PUSH1 0x20 MSTORE PUSH1 0x40 PUSH1 0x0 KECCAK256 PUSH1 0xFF DUP2 SLOAD AND PUSH1 0x7 DUP2 LT ISZERO PUSH2 0x527 JUMPI PUSH1 0x1 SUB PUSH2 0x156D JUMPI PUSH1 0x1 DUP2 ADD SLOAD CALLVALUE SUB PUSH2 0x1503 JUMPI PUSH1 0x1 PUSH1 0x1 PUSH1 0xA0 SHL SUB PUSH1 0x2 DUP3 ADD SLOAD AND CALLER EQ PUSH2 0x14BF JUMPI PUSH1 0x8 DUP2 ADD DUP1 SLOAD PUSH20 0xFFFFFFFFFFFFFFFFFFFFFFFFFFFFFFFFFFFFFFFF NOT AND CALLER OR SWAP1 SSTORE PUSH1 0x24 CALLDATALOAD PUSH1 0xD DUP3 ADD SSTORE DUP1 SLOAD PUSH1 0xFF NOT AND PUSH1 0x2 OR DUP2 SSTORE PUSH32 0x7F3A14B18FC64242E1D87BBDA3D879FF601BF57224F7DAEAF8BF4658BB84DA29 SWAP2 PUSH2 0x3C7 SWAP2 PUSH2 0x14A9 SWAP1 PUSH2 0x210C JUMP JUMPDEST PUSH1 0x40 DUP1 MLOAD SWAP2 DUP3 MSTORE CALLER PUSH1 0x20 DUP4 ADD MSTORE SWAP1 SWAP2 DUP3 SWAP2 DUP3 ADD SWAP1 JUMP JUMPDEST PUSH1 0x64 PUSH1 0x40 MLOAD PUSH3 0x461BCD PUSH1 0xE5 SHL DUP2 MSTORE PUSH1 0x20 PUSH1 0x4 DUP3 ADD MSTORE PUSH1 0x1D PUSH1 0x24 DUP3 ADD MSTORE PUSH32 0x596F752063616E6E6F74206A6F696E20796F7572206F776E20726F6F6D000000 PUSH1 0x44 DUP3 ADD MSTORE REVERT JUMPDEST PUSH1 0x84 PUSH1 0x40 MLOAD PUSH3 0x461BCD PUSH1 0xE5 SHL DUP2 MSTORE PUSH1 0x20 PUSH1 0x4 DUP3 ADD MSTORE PUSH1 0x2D PUSH1 0x24 DUP3 ADD MSTORE PUSH32 0x456E74727920666565206D75737420626520657175616C20746F207468652072 PUSH1 0x44 DUP3 ADD MSTORE PUSH32 0x6F6F6D20656E7472792066656500000000000000000000000000000000000000 PUSH1 0x64 DUP3 ADD MSTORE REVERT JUMPDEST PUSH1 0x64 PUSH1 0x40 MLOAD PUSH3 0x461BCD PUSH1 0xE5 SHL DUP2 MSTORE PUSH1 0x20 PUSH1 0x4 DUP3 ADD MSTORE PUSH1 0x20 PUSH1 0x24 DUP3 ADD MSTORE PUSH32 0x526F6F6D206973206E6F7420696E207468652063726561746564207374617465 PUSH1 0x44 DUP3 ADD MSTORE REVERT JUMPDEST CALLVALUE PUSH2 0x1F8 JUMPI PUSH1 0x20 CALLDATASIZE PUSH1 0x3 NOT ADD SLT PUSH2 0x1F8 JUMPI PUSH2 0x905 PUSH1 0x4 CALLDATALOAD PUSH2 0x189B JUMP JUMPDEST SWAP1 PUSH1 0x7 DUP3 LT ISZERO PUSH2 0x527 JUMPI MSTORE JUMP JUMPDEST SWAP1 PUSH1 0x80 PUSH1 0x3 NOT DUP4 ADD SLT PUSH2 0x1F8 JUMPI PUSH1 0x40 PUSH1 0x4 CALLDATALOAD SWAP3 PUSH1 0x23 NOT ADD SLT PUSH2 0x1F8 JUMPI PUSH1 0x24 SWAP1 PUSH1 0x64 CALLDATALOAD PUSH1 0x3 DUP2 LT ISZERO PUSH2 0x1F8 JUMPI SWAP1 JUMP JUMPDEST SWAP2 DUP2 PUSH1 0x1F DUP5 ADD SLT ISZERO PUSH2 0x1F8 JUMPI DUP3 CALLDATALOAD SWAP2 PUSH8 0xFFFFFFFFFFFFFFFF DUP4 GT PUSH2 0x1F8 JUMPI PUSH1 0x20 DUP1 DUP6 ADD SWAP5 DUP5 PUSH1 0x5 SHL ADD ADD GT PUSH2 0x1F8 JUMPI JUMP JUMPDEST SWAP2 DUP2 PUSH1 0x1F DUP5 ADD SLT ISZERO PUSH2 0x1F8 JUMPI DUP3 CALLDATALOAD SWAP2 PUSH8 0xFFFFFFFFFFFFFFFF DUP4 GT PUSH2 0x1F8 JUMPI PUSH1 0x20 DUP1 DUP6 ADD SWAP5 DUP5 PUSH1 0x6 SHL ADD ADD GT PUSH2 0x1F8 JUMPI JUMP JUMPDEST SWAP1 PUSH1 0x5 DUP3 LT ISZERO PUSH2 0x1682 JUMPI PUSH1 0x1F DUP3 PUSH1 0x5 SHR PUSH1 0x2 ADD SWAP3 AND SWAP1 JUMP JUMPDEST PUSH4 0x4E487B71 PUSH1 0xE0 SHL PUSH1 0x0 MSTORE PUSH1 0x32 PUSH1 0x4 MSTORE PUSH1 0x24 PUSH1 0x0 REVERT JUMPDEST ISZERO PUSH2 0x169F JUMPI JUMP JUMPDEST PUSH1 0x84 PUSH1 0x40 MLOAD PUSH3 0x461BCD PUSH1 0xE5 SHL DUP2 MSTORE PUSH1 0x20 PUSH1 0x4 DUP3 ADD MSTORE PUSH1 0x21 PUSH1 0x24 DUP3 ADD MSTORE PUSH32 0x526F6F6D206973206E6F7420696E207468652073686F6F74696E672073746174 PUSH1 0x44 DUP3 ADD MSTORE PUSH32 0x6500000000000000000000000000000000000000000000000000000000000000 PUSH1 0x64 DUP3 ADD MSTORE REVERT JUMPDEST SWAP1 PUSH1 0x1F DUP1 NOT SWAP2 ADD AND DUP2 ADD SWAP1 DUP2 LT PUSH8 0xFFFFFFFFFFFFFFFF DUP3 GT OR PUSH2 0x172B JUMPI PUSH1 0x40 MSTORE JUMP JUMPDEST PUSH4 0x4E487B71 PUSH1 0xE0 SHL PUSH1 0x0 MSTORE PUSH1 0x41 PUSH1 0x4 MSTORE PUSH1 0x24 PUSH1 0x0 REVERT JUMPDEST SWAP1 PUSH1 0x40 MLOAD PUSH1 0xA0 DUP2 ADD DUP2 DUP2 LT PUSH8 0xFFFFFFFFFFFFFFFF DUP3 GT OR PUSH2 0x172B JUMPI PUSH1 0x40 MSTORE DUP1 SWAP3 PUSH1 0xFF DUP2 SLOAD AND PUSH1 0x7 DUP2 LT ISZERO PUSH2 0x527 JUMPI DUP3 MSTORE PUSH1 0x1 DUP2 ADD SLOAD PUSH1 0x20 DUP4 ADD MSTORE PUSH1 0x40 MLOAD PUSH1 0x40 DUP2 ADD DUP2 DUP2 LT PUSH8 0xFFFFFFFFFFFFFFFF DUP3 GT OR PUSH2 0x172B JUMPI PUSH1 0x40 MSTORE PUSH1 0x2 DUP3 ADD PUSH1 0x0 DUP3 JUMPDEST PUSH1 0x2 DUP3 LT PUSH2 0x17CA JUMPI POP POP POP PUSH1 0x80 SWAP2 PUSH1 0xF SWAP2 PUSH1 0x40 DUP6 ADD MSTORE PUSH1 0xFF PUSH1 0xE DUP3 ADD SLOAD AND PUSH1 0x60 DUP6 ADD MSTORE ADD SLOAD SWAP2 ADD MSTORE JUMP JUMPDEST PUSH1 0x40 MLOAD PUSH1 0xC0 DUP2 ADD DUP2 DUP2 LT PUSH8 0xFFFFFFFFFFFFFFFF DUP3 GT OR PUSH2 0x172B JUMPI PUSH1 0x1 SWAP3 PUSH1 0x6 SWAP3 PUSH1 0x20 SWAP3 PUSH1 0x40 MSTORE PUSH1 0x1 PUSH1 0x1 PUSH1 0xA0 SHL SUB DUP8 SLOAD AND DUP2 MSTORE DUP5 DUP8 ADD SLOAD DUP4 DUP3 ADD MSTORE PUSH2 0xFFFF PUSH1 0x2 DUP9 ADD SLOAD AND PUSH1 0x40 DUP3 ADD MSTORE PUSH1 0x3 DUP8 ADD SLOAD PUSH1 0x60 DUP3 ADD MSTORE PUSH1 0x4 DUP8 ADD SLOAD PUSH1 0x80 DUP3 ADD MSTORE PUSH1 0x5 DUP8 ADD SLOAD PUSH1 0xA0 DUP3 ADD MSTORE DUP2 MSTORE ADD SWAP4 ADD SWAP2 ADD SWAP1 SWAP2 PUSH2 0x17A0 JUMP JUMPDEST ISZERO PUSH2 0x1846 JUMPI JUMP JUMPDEST PUSH1 0x64 PUSH1 0x40 MLOAD PUSH3 0x461BCD PUSH1 0xE5 SHL DUP2 MSTORE PUSH1 0x20 PUSH1 0x4 DUP3 ADD MSTORE PUSH1 0x13 PUSH1 0x24 DUP3 ADD MSTORE PUSH32 0x4974206973206E6F7420796F7572207475726E00000000000000000000000000 PUSH1 0x44 DUP3 ADD MSTORE REVERT JUMPDEST PUSH1 0xFF AND PUSH1 0x1 SUB SWAP1 PUSH1 0xFF DUP3 GT PUSH2 0x76C JUMPI JUMP JUMPDEST DUP1 PUSH1 0x0 MSTORE PUSH1 0x3 PUSH1 0x20 MSTORE PUSH1 0x40 PUSH1 0x0 KECCAK256 PUSH1 0xFF DUP2 SLOAD AND SWAP2 PUSH1 0x7 DUP4 LT ISZERO PUSH2 0x527 JUMPI PUSH2 0x14A9 PUSH2 0x1922 SWAP3 PUSH2 0x18EC PUSH1 0x3 PUSH32 0x674B1399CDD04131B1014FB0AD914C308EB69BAC11C79CF09E05CE410863CE2E SWAP7 EQ PUSH2 0x1698 JUMP JUMPDEST PUSH2 0x18F9 CALLER PUSH2 0x27D DUP4 PUSH2 0x1741 JUMP JUMPDEST PUSH1 0xFF PUSH2 0xCCD PUSH1 0xE DUP5 ADD SWAP3 PUSH2 0x1913 DUP4 DUP6 SLOAD AND DUP5 DUP4 AND EQ PUSH2 0x183F JUMP JUMPDEST PUSH1 0x5 DUP4 NOT DUP7 SLOAD AND OR DUP6 SSTORE PUSH2 0x188A JUMP JUMPDEST SUB SWAP1 LOG1 JUMP JUMPDEST SWAP1 PUSH1 0x2 DUP2 LT ISZERO PUSH2 0x1682 JUMPI PUSH1 0x6 MUL ADD SWAP1 PUSH1 0x0 SWAP1 JUMP JUMPDEST CALLDATALOAD SWAP1 PUSH1 0xFF DUP3 AND DUP3 SUB PUSH2 0x1F8 JUMPI JUMP JUMPDEST SWAP1 DUP2 PUSH1 0x0 MSTORE PUSH1 0x3 PUSH1 0x20 MSTORE PUSH1 0x40 PUSH1 0x0 KECCAK256 SWAP2 PUSH1 0xFF DUP4 SLOAD AND PUSH1 0x7 DUP2 LT ISZERO PUSH2 0x527 JUMPI PUSH1 0x4 SUB PUSH2 0x1A58 JUMPI PUSH2 0x197B CALLER PUSH2 0x27D DUP6 PUSH2 0x1741 JUMP JUMPDEST SWAP3 PUSH2 0xFFFF PUSH1 0x1 PUSH1 0x1 PUSH1 0xA0 SHL SUB PUSH2 0x19A8 PUSH1 0x2 DUP5 ADD PUSH2 0x19A2 PUSH2 0x199B DUP10 DUP4 PUSH2 0x1927 JUMP JUMPDEST POP SWAP9 PUSH2 0x188A JUMP JUMPDEST SWAP1 PUSH2 0x1927 JUMP JUMPDEST POP SWAP6 PUSH2 0x19DB PUSH1 0x4 DUP3 ADD SWAP5 PUSH2 0x19C9 DUP9 PUSH1 0x24 PUSH1 0x2 DUP10 SLOAD SWAP13 ADD SWAP12 DUP9 DUP14 SLOAD AND SWAP1 PUSH2 0x2213 JUMP JUMPDEST DUP7 SSTORE DUP1 SLOAD PUSH1 0xFF NOT AND PUSH1 0x3 OR DUP2 SSTORE PUSH2 0x210C JUMP JUMPDEST SLOAD AND SWAP5 SLOAD AND SWAP1 SLOAD SWAP4 PUSH1 0x40 MLOAD SWAP3 DUP4 MSTORE PUSH1 0x20 DUP4 ADD MSTORE PUSH1 0x40 DUP3 ADD MSTORE PUSH1 0x24 CALLDATALOAD PUSH1 0xFF DUP2 AND DUP2 SUB PUSH2 0x1F8 JUMPI PUSH1 0xFF AND PUSH1 0x60 DUP3 ADD MSTORE PUSH1 0x44 CALLDATALOAD PUSH1 0xFF DUP2 AND DUP2 SUB PUSH2 0x1F8 JUMPI PUSH1 0xFF AND PUSH1 0x80 DUP3 ADD MSTORE PUSH1 0x3 DUP3 LT ISZERO PUSH2 0x527 JUMPI PUSH32 0xFD7D6DCAB3C23E806913769DF4816E3D1FB4EDB3917BF3F256CD1365CBEDDC07 SWAP3 PUSH1 0xE0 SWAP3 PUSH1 0xA0 DUP4 ADD MSTORE PUSH1 0xC0 DUP3 ADD MSTORE LOG1 JUMP JUMPDEST PUSH1 0x84 PUSH1 0x40 MLOAD PUSH3 0x461BCD PUSH1 0xE5 SHL DUP2 MSTORE PUSH1 0x20 PUSH1 0x4 DUP3 ADD MSTORE PUSH1 0x22 PUSH1 0x24 DUP3 ADD MSTORE PUSH32 0x526F6F6D206973206E6F7420696E2074686520616E73776572696E6720737461 PUSH1 0x44 DUP3 ADD MSTORE PUSH32 0x7465000000000000000000000000000000000000000000000000000000000000 PUSH1 0x64 DUP3 ADD MSTORE REVERT JUMPDEST SWAP2 SWAP1 SWAP2 DUP1 PUSH1 0x0 MSTORE PUSH1 0x3 PUSH1 0x20 MSTORE PUSH1 0x40 PUSH1 0x0 KECCAK256 SWAP3 PUSH1 0xFF DUP5 SLOAD AND PUSH1 0x7 DUP2 LT ISZERO PUSH2 0x527 JUMPI PUSH1 0x4 SUB PUSH2 0x1A58 JUMPI PUSH2 0xFFFF SWAP4 DUP5 PUSH1 0x1 PUSH1 0x1 PUSH1 0xA0 SHL SUB PUSH2 0x1B03 CALLER PUSH2 0x27D DUP6 PUSH2 0x1741 JUMP JUMPDEST PUSH2 0x1B3D PUSH2 0x1B21 PUSH1 0x2 DUP7 ADD PUSH2 0x19A2 PUSH2 0x1B1A DUP6 DUP4 PUSH2 0x1927 JUMP JUMPDEST POP SWAP5 PUSH2 0x188A JUMP JUMPDEST POP SWAP5 PUSH2 0x19C9 DUP10 DUP9 PUSH1 0x4 DUP7 ADD SWAP9 PUSH1 0x2 DUP11 SLOAD SWAP2 ADD SWAP14 DUP15 SLOAD AND SWAP1 PUSH2 0x2213 JUMP JUMPDEST SLOAD AND SWAP6 SLOAD AND SWAP1 SLOAD SWAP5 PUSH1 0x40 MLOAD SWAP4 DUP5 MSTORE PUSH1 0x20 DUP5 ADD MSTORE PUSH1 0x40 DUP4 ADD MSTORE PUSH1 0x20 PUSH1 0xFF PUSH2 0x1B75 DUP3 PUSH1 0x60 DUP7 ADD SWAP5 DUP4 PUSH2 0x1B6C DUP3 PUSH2 0x193B JUMP JUMPDEST AND DUP7 MSTORE ADD PUSH2 0x193B JUMP JUMPDEST AND SWAP2 ADD MSTORE PUSH1 0x3 DUP3 LT ISZERO PUSH2 0x527 JUMPI PUSH32 0xFD7D6DCAB3C23E806913769DF4816E3D1FB4EDB3917BF3F256CD1365CBEDDC07 SWAP3 PUSH1 0xE0 SWAP3 PUSH1 0xA0 DUP4 ADD MSTORE PUSH1 0xC0 DUP3 ADD MSTORE LOG1 JUMP JUMPDEST PUSH1 0x40 MLOAD PUSH1 0x20 DUP2 ADD SWAP2 PUSH32 0x0 DUP4 MSTORE PUSH1 0x40 DUP3 ADD MSTORE PUSH1 0x40 DUP2 MSTORE PUSH2 0x1BF3 PUSH1 0x60 DUP3 PUSH2 0x1709 JUMP JUMPDEST MLOAD SWAP1 KECCAK256 SWAP1 JUMP JUMPDEST PUSH2 0xFFFF AND PUSH2 0xFFFF DUP2 EQ PUSH2 0x76C JUMPI PUSH1 0x1 ADD SWAP1 JUMP JUMPDEST CALLDATALOAD SWAP1 DUP2 ISZERO ISZERO DUP3 SUB PUSH2 0x1F8 JUMPI JUMP JUMPDEST SWAP1 DUP2 MSTORE PUSH1 0x1 PUSH1 0x1 PUSH1 0xA0 SHL SUB SWAP2 SWAP1 SWAP2 AND PUSH1 0x20 DUP3 ADD MSTORE PUSH1 0x60 PUSH1 0x40 DUP3 ADD DUP2 SWAP1 MSTORE DUP2 ADD DUP4 SWAP1 MSTORE PUSH1 0x80 ADD SWAP2 PUSH1 0x0 JUMPDEST DUP2 DUP2 LT PUSH2 0x1C4F JUMPI POP POP POP SWAP1 JUMP JUMPDEST SWAP1 SWAP2 SWAP3 PUSH1 0x20 DUP1 PUSH1 0x1 SWAP3 PUSH2 0x1C61 DUP8 PUSH2 0x1C0C JUMP JUMPDEST ISZERO ISZERO DUP2 MSTORE ADD SWAP5 ADD SWAP3 SWAP2 ADD PUSH2 0x1C42 JUMP JUMPDEST SWAP5 SWAP7 SWAP1 SWAP2 SWAP6 SWAP12 SWAP8 SWAP3 SWAP4 SWAP11 SWAP12 DUP6 PUSH1 0x0 MSTORE PUSH1 0x3 PUSH1 0x20 MSTORE PUSH1 0x40 PUSH1 0x0 KECCAK256 SWAP8 PUSH2 0x1C97 CALLER PUSH2 0x27D DUP12 PUSH2 0x1741 JUMP JUMPDEST SWAP13 PUSH1 0xFF DUP11 SLOAD AND SWAP5 PUSH1 0x7 DUP7 LT ISZERO PUSH2 0x527 JUMPI DUP10 DUP16 SWAP2 DUP10 SWAP3 PUSH2 0x1CBB PUSH1 0x3 PUSH2 0x1CC1 SWAP11 EQ PUSH2 0x1698 JUMP JUMPDEST DUP14 PUSH2 0x231B JUMP JUMPDEST PUSH1 0x0 SWAP10 DUP11 SWAP9 PUSH2 0x1CD0 PUSH1 0x64 PUSH2 0x3081 JUMP JUMPDEST SWAP9 DUP11 JUMPDEST DUP2 DUP2 LT PUSH2 0x1F69 JUMPI POP POP POP POP POP PUSH1 0x0 SWAP9 PUSH1 0x0 JUMPDEST DUP8 MLOAD PUSH2 0xFFFF DUP3 AND SWAP1 DUP2 LT ISZERO PUSH2 0x1D27 JUMPI PUSH2 0x1CFE SWAP1 DUP10 PUSH2 0x3128 JUMP JUMPDEST MLOAD PUSH2 0x1D12 JUMPI JUMPDEST PUSH2 0x1D0D SWAP1 PUSH2 0x1BF9 JUMP JUMPDEST PUSH2 0x1CE5 JUMP JUMPDEST SWAP10 PUSH2 0x1D1F PUSH2 0x1D0D SWAP2 PUSH2 0x1BF9 JUMP JUMPDEST SWAP11 SWAP1 POP PUSH2 0x1D04 JUMP JUMPDEST POP POP SWAP4 SWAP8 SWAP3 SWAP7 SWAP2 SWAP6 POP SWAP4 SWAP8 PUSH2 0xFFFF PUSH1 0x11 SWAP2 AND SUB PUSH2 0x1EFF JUMPI PUSH1 0x2 DUP8 ADD SWAP3 PUSH1 0x3 PUSH2 0x1D4F DUP5 DUP7 PUSH2 0x1927 JUMP JUMPDEST POP ADD SLOAD SUB PUSH2 0x1EBB JUMPI PUSH1 0x4 PUSH2 0x1D6B PUSH2 0x1D65 DUP5 PUSH2 0x188A JUMP JUMPDEST DUP6 PUSH2 0x1927 JUMP JUMPDEST POP ADD SLOAD SUB PUSH2 0x1E51 JUMPI PUSH2 0x1D95 PUSH1 0x1 PUSH1 0x1 PUSH1 0xA0 SHL SUB SWAP2 PUSH1 0x1 SWAP4 PUSH1 0x6 PUSH1 0xFF NOT DUP11 SLOAD AND OR DUP10 SSTORE PUSH2 0x3A4 PUSH2 0x213D JUMP JUMPDEST POP SLOAD AND SWAP5 ADD SLOAD SWAP1 DUP2 PUSH1 0x1 SHL SWAP2 PUSH1 0x1 PUSH1 0x1 PUSH1 0xFF SHL SUB DUP2 AND DUP2 SUB PUSH2 0x76C JUMPI PUSH2 0x1DBA SWAP1 PUSH2 0x204B JUMP JUMPDEST SWAP2 DUP3 DUP2 SUB SWAP3 DUP2 DUP5 GT PUSH2 0x76C JUMPI DUP7 DUP5 SWAP2 PUSH1 0x0 SWAP4 EQ PUSH2 0x1E47 JUMPI JUMPDEST PUSH1 0x0 SWAP3 DUP4 SWAP3 DUP4 SWAP3 DUP4 SWAP3 CALL ISZERO PUSH2 0x756 JUMPI PUSH32 0xEE97096F32EED49908B904623AE7BA7AF58C121E15FE6E7F31AC379FB7CA1A98 PUSH1 0x40 PUSH32 0x53FC172DDA2ED0176623BBCA3C936BB2D85537947A5E23DD077B579AE1BF155C SWAP7 PUSH2 0x1922 SWAP5 DUP3 MLOAD SWAP2 DUP3 MSTORE PUSH1 0x20 DUP3 ADD MSTORE LOG1 PUSH1 0x1 DUP1 SSTORE PUSH1 0x40 MLOAD SWAP4 DUP5 SWAP4 CALLER SWAP1 DUP6 PUSH2 0x1C19 JUMP JUMPDEST PUSH2 0x8FC SWAP3 POP PUSH2 0x1DD2 JUMP JUMPDEST PUSH1 0x84 PUSH1 0x40 MLOAD PUSH3 0x461BCD PUSH1 0xE5 SHL DUP2 MSTORE PUSH1 0x20 PUSH1 0x4 DUP3 ADD MSTORE PUSH1 0x21 PUSH1 0x24 DUP3 ADD MSTORE PUSH32 0x416E737765727320646F6E2774206D6174636820656E656D7920616E73776572 PUSH1 0x44 DUP3 ADD MSTORE PUSH32 0x7300000000000000000000000000000000000000000000000000000000000000 PUSH1 0x64 DUP3 ADD MSTORE REVERT JUMPDEST PUSH1 0x64 PUSH1 0x40 MLOAD PUSH3 0x461BCD PUSH1 0xE5 SHL DUP2 MSTORE PUSH1 0x20 PUSH1 0x4 DUP3 ADD MSTORE PUSH1 0x1A PUSH1 0x24 DUP3 ADD MSTORE PUSH32 0x53686F747320646F6E2774206D61746368206D792073686F7473000000000000 PUSH1 0x44 DUP3 ADD MSTORE REVERT JUMPDEST PUSH1 0x84 PUSH1 0x40 MLOAD PUSH3 0x461BCD PUSH1 0xE5 SHL DUP2 MSTORE PUSH1 0x20 PUSH1 0x4 DUP3 ADD MSTORE PUSH1 0x37 PUSH1 0x24 DUP3 ADD MSTORE PUSH32 0x4E756D626572206F662073686970206869747320646F6573206E6F74206D6174 PUSH1 0x44 DUP3 ADD MSTORE PUSH32 0x6368206E756D626572206F662073686970207061727473000000000000000000 PUSH1 0x64 DUP3 ADD MSTORE REVERT JUMPDEST PUSH1 0x1 DUP2 SWAP15 SWAP13 SWAP15 ADD SWAP12 DUP13 DUP3 GT PUSH2 0x76C JUMPI PUSH2 0x1F8E SWAP1 DUP14 PUSH2 0x1F88 DUP5 DUP7 DUP11 PUSH2 0x30B3 JUMP JUMPDEST SWAP2 PUSH2 0x22A3 JUMP JUMPDEST SWAP14 PUSH1 0x0 SWAP13 PUSH2 0x1F9D DUP4 DUP6 DUP10 PUSH2 0x30B3 JUMP JUMPDEST SWAP1 PUSH2 0x1FA9 DUP5 DUP9 DUP9 PUSH2 0x30C3 JUMP JUMPDEST CALLDATALOAD SWAP3 PUSH1 0x3 DUP5 LT ISZERO PUSH2 0x2047 JUMPI SWAP1 PUSH2 0x1FC0 SWAP4 SWAP3 SWAP2 PUSH2 0x2213 JUMP JUMPDEST SWAP12 PUSH2 0x2001 PUSH2 0x1FE2 PUSH1 0xFF PUSH2 0x1FDC PUSH2 0x1FD7 DUP7 DUP9 DUP13 PUSH2 0x30B3 JUMP JUMPDEST PUSH2 0x21BA JUMP JUMPDEST AND PUSH2 0x30D3 JUMP JUMPDEST PUSH1 0xFF PUSH2 0x1FFA PUSH1 0x20 PUSH2 0x1FF4 DUP8 DUP10 DUP14 PUSH2 0x30B3 JUMP JUMPDEST ADD PUSH2 0x21BA JUMP JUMPDEST AND SWAP1 PUSH2 0x3112 JUMP JUMPDEST SWAP1 PUSH2 0x200D DUP4 DUP8 DUP8 PUSH2 0x30C3 JUMP JUMPDEST CALLDATALOAD SWAP1 PUSH1 0x3 DUP3 LT ISZERO PUSH2 0x2044 JUMPI POP PUSH1 0x1 SWAP3 SWAP2 DUP14 SWAP2 PUSH2 0x202C JUMPI JUMPDEST POP POP ADD PUSH2 0x1CD3 JUMP JUMPDEST DUP4 SWAP2 PUSH2 0xFFFF PUSH2 0x203C SWAP3 AND SWAP1 PUSH2 0x3128 JUMP JUMPDEST MSTORE DUP12 CODESIZE PUSH2 0x2024 JUMP JUMPDEST DUP1 REVERT JUMPDEST DUP16 DUP1 REVERT JUMPDEST PUSH2 0x3E8 SWAP1 DIV PUSH6 0x9184E72A000 ADD DUP1 PUSH6 0x9184E72A000 GT PUSH2 0x76C JUMPI SWAP1 JUMP JUMPDEST PUSH1 0x40 ADD DUP1 MLOAD MLOAD MLOAD PUSH1 0x1 PUSH1 0x1 PUSH1 0xA0 SHL SUB SWAP3 DUP4 AND SWAP3 AND DUP3 SUB PUSH2 0x2089 JUMPI POP POP PUSH1 0x0 SWAP1 JUMP JUMPDEST MLOAD PUSH1 0x20 ADD MLOAD MLOAD PUSH1 0x1 PUSH1 0x1 PUSH1 0xA0 SHL SUB AND SUB PUSH2 0x20A2 JUMPI PUSH1 0x1 SWAP1 JUMP JUMPDEST PUSH1 0x84 PUSH1 0x40 MLOAD PUSH3 0x461BCD PUSH1 0xE5 SHL DUP2 MSTORE PUSH1 0x20 PUSH1 0x4 DUP3 ADD MSTORE PUSH1 0x21 PUSH1 0x24 DUP3 ADD MSTORE PUSH32 0x596F7520617265206E6F74206120706C6179657220696E207468697320726F6F PUSH1 0x44 DUP3 ADD MSTORE PUSH32 0x6D00000000000000000000000000000000000000000000000000000000000000 PUSH1 0x64 DUP3 ADD MSTORE REVERT JUMPDEST PUSH32 0x0 NUMBER ADD SWAP1 DUP2 NUMBER GT PUSH2 0x76C JUMPI PUSH1 0xF ADD SSTORE JUMP JUMPDEST PUSH1 0x2 PUSH1 0x1 SLOAD EQ PUSH2 0x214E JUMPI PUSH1 0x2 PUSH1 0x1 SSTORE JUMP JUMPDEST PUSH32 0x3EE5AEB500000000000000000000000000000000000000000000000000000000 PUSH1 0x0 MSTORE PUSH1 0x4 PUSH1 0x0 REVERT JUMPDEST PUSH1 0x1 PUSH1 0x1 PUSH1 0xA0 SHL SUB PUSH1 0x0 SLOAD AND CALLER SUB PUSH2 0x218C JUMPI JUMP JUMPDEST PUSH32 0x118CDAA700000000000000000000000000000000000000000000000000000000 PUSH1 0x0 MSTORE CALLER PUSH1 0x4 MSTORE PUSH1 0x24 PUSH1 0x0 REVERT JUMPDEST CALLDATALOAD PUSH1 0xFF DUP2 AND DUP2 SUB PUSH2 0x1F8 JUMPI SWAP1 JUMP JUMPDEST ISZERO PUSH2 0x21CF JUMPI JUMP JUMPDEST PUSH1 0x64 PUSH1 0x40 MLOAD PUSH3 0x461BCD PUSH1 0xE5 SHL DUP2 MSTORE PUSH1 0x20 PUSH1 0x4 DUP3 ADD MSTORE PUSH1 0x10 PUSH1 0x24 DUP3 ADD MSTORE PUSH32 0x496E76616C696420706F736974696F6E00000000000000000000000000000000 PUSH1 0x44 DUP3 ADD MSTORE REVERT JUMPDEST SWAP3 SWAP1 SWAP2 PUSH1 0xA PUSH1 0xFF PUSH2 0x2223 DUP4 PUSH2 0x21BA JUMP JUMPDEST AND LT DUP1 PUSH2 0x2286 JUMPI JUMPDEST PUSH2 0x2234 SWAP1 PUSH2 0x21C8 JUMP JUMPDEST PUSH1 0xFF PUSH2 0x224D PUSH1 0x20 DUP3 PUSH2 0x2245 DUP6 PUSH2 0x21BA JUMP JUMPDEST AND SWAP4 ADD PUSH2 0x21BA JUMP JUMPDEST AND SWAP1 PUSH1 0x3 DUP4 LT ISZERO PUSH2 0x527 JUMPI PUSH1 0x40 MLOAD SWAP4 PUSH1 0x20 DUP6 ADD SWAP6 DUP7 MSTORE PUSH1 0x40 DUP6 ADD MSTORE PUSH1 0x60 DUP5 ADD MSTORE PUSH1 0x80 DUP4 ADD MSTORE PUSH1 0xA0 DUP3 ADD MSTORE PUSH1 0xA0 DUP2 MSTORE PUSH2 0x1BF3 PUSH1 0xC0 DUP3 PUSH2 0x1709 JUMP JUMPDEST POP PUSH2 0x2234 PUSH1 0xA PUSH1 0xFF PUSH2 0x229A PUSH1 0x20 DUP6 ADD PUSH2 0x21BA JUMP JUMPDEST AND LT SWAP1 POP PUSH2 0x222B JUMP JUMPDEST SWAP2 PUSH1 0xA PUSH1 0xFF PUSH2 0x22B1 DUP4 PUSH2 0x21BA JUMP JUMPDEST AND LT DUP1 PUSH2 0x22FE JUMPI JUMPDEST PUSH2 0x22C2 SWAP1 PUSH2 0x21C8 JUMP JUMPDEST PUSH1 0xFF PUSH2 0x22D3 PUSH1 0x20 DUP3 PUSH2 0x2245 DUP6 PUSH2 0x21BA JUMP JUMPDEST AND SWAP1 PUSH1 0x40 MLOAD SWAP3 PUSH1 0x20 DUP5 ADD SWAP5 DUP6 MSTORE PUSH1 0x40 DUP5 ADD MSTORE PUSH1 0x60 DUP4 ADD MSTORE PUSH1 0x80 DUP3 ADD MSTORE PUSH1 0x80 DUP2 MSTORE PUSH2 0x1BF3 PUSH1 0xA0 DUP3 PUSH2 0x1709 JUMP JUMPDEST POP PUSH2 0x22C2 PUSH1 0xA PUSH1 0xFF PUSH2 0x2312 PUSH1 0x20 DUP6 ADD PUSH2 0x21BA JUMP JUMPDEST AND LT SWAP1 POP PUSH2 0x22B9 JUMP JUMPDEST SWAP2 SWAP6 SWAP9 SWAP5 SWAP4 SWAP1 SWAP3 SWAP8 SWAP7 SWAP8 PUSH1 0x80 MSTORE PUSH1 0xC0 MSTORE PUSH2 0x2340 PUSH1 0xFF PUSH1 0xE DUP4 ADD SLOAD AND PUSH1 0xFF DUP5 AND EQ PUSH2 0x183F JUMP JUMPDEST PUSH1 0x64 PUSH1 0xA0 MSTORE PUSH1 0xC0 MLOAD PUSH1 0x63 NOT ADD PUSH2 0x300E JUMPI PUSH1 0x40 MLOAD SWAP7 PUSH2 0x235F PUSH1 0xC0 DUP10 PUSH2 0x1709 JUMP JUMPDEST PUSH1 0x5 DUP9 MSTORE PUSH1 0xA0 CALLDATASIZE PUSH1 0x20 DUP11 ADD CALLDATACOPY PUSH2 0x2376 PUSH1 0xC0 MLOAD PUSH2 0x3081 JUMP JUMPDEST SWAP9 PUSH1 0x0 PUSH2 0x100 MSTORE JUMPDEST PUSH1 0xA PUSH1 0xFF PUSH2 0x100 MLOAD AND LT ISZERO PUSH2 0x2AA8 JUMPI SWAP7 SWAP5 SWAP3 SWAP1 SWAP6 SWAP4 SWAP2 PUSH1 0x0 PUSH2 0x120 MSTORE JUMPDEST PUSH1 0xA PUSH1 0xFF PUSH2 0x120 MLOAD AND LT ISZERO PUSH2 0x2A8E JUMPI PUSH2 0x23C8 PUSH1 0xFF PUSH2 0x120 MLOAD AND PUSH2 0x23C3 PUSH1 0xFF PUSH2 0x100 MLOAD AND PUSH2 0x30D3 JUMP JUMPDEST PUSH2 0x3112 JUMP JUMPDEST PUSH1 0xE0 MSTORE PUSH2 0xFFFF PUSH1 0xE0 MLOAD AND PUSH2 0x23DC DUP2 DUP13 PUSH2 0x3128 JUMP JUMPDEST MLOAD ISZERO DUP1 ISZERO SWAP1 PUSH2 0x2A75 JUMPI JUMPDEST PUSH2 0x2A68 JUMPI PUSH2 0x23F6 PUSH1 0x1 SWAP2 DUP13 PUSH2 0x3128 JUMP JUMPDEST MSTORE PUSH1 0xA PUSH1 0xFF PUSH2 0x2407 PUSH2 0x120 MLOAD PUSH2 0x3149 JUMP JUMPDEST AND LT SWAP7 DUP8 PUSH2 0x2A4C JUMPI JUMPDEST PUSH1 0xA PUSH1 0xFF PUSH2 0x2420 PUSH2 0x100 MLOAD PUSH2 0x3149 JUMP JUMPDEST AND LT SWAP8 DUP9 PUSH2 0x2A30 JUMPI JUMPDEST DUP9 DUP2 DUP1 PUSH2 0x2A29 JUMPI JUMPDEST PUSH2 0x29E3 JUMPI ISZERO SWAP1 DUP2 PUSH2 0x29DA JUMPI JUMPDEST POP PUSH2 0x29D1 JUMPI JUMPDEST PUSH1 0x1 SWAP8 ISZERO PUSH2 0x277A JUMPI PUSH1 0xFF PUSH2 0x100 MLOAD AND PUSH2 0x26DB JUMPI JUMPDEST PUSH1 0x9 SWAP9 SWAP8 JUMPDEST DUP12 PUSH1 0xC0 MLOAD PUSH2 0xFFFF PUSH2 0x247A PUSH1 0xFF PUSH2 0x2471 DUP7 PUSH2 0x3054 JUMP JUMPDEST AND PUSH1 0xE0 MLOAD PUSH2 0x3112 JUMP JUMPDEST AND LT DUP1 PUSH2 0x26BE JUMPI JUMPDEST ISZERO PUSH2 0x254D JUMPI SWAP1 PUSH1 0x1 PUSH2 0x24A9 PUSH2 0x24E6 SWAP4 PUSH2 0xFFFF PUSH2 0x24A2 PUSH1 0xFF PUSH2 0x2471 DUP8 PUSH2 0x3054 JUMP JUMPDEST AND SWAP1 PUSH2 0x3128 JUMP JUMPDEST MSTORE PUSH2 0x120 MLOAD PUSH1 0xFF AND DUP1 ISZERO SWAP1 PUSH2 0x252A JUMPI JUMPDEST PUSH2 0x24C2 SWAP1 PUSH2 0x320A JUMP JUMPDEST PUSH2 0x120 MLOAD PUSH1 0xFF SWAP1 DUP2 AND SWAP1 DUP13 AND DUP2 DUP2 EQ SWAP2 SUB PUSH2 0x24EB JUMPI JUMPDEST PUSH2 0x24E1 SWAP1 PUSH2 0x33DD JUMP JUMPDEST PUSH2 0x335B JUMP JUMPDEST PUSH2 0x245C JUMP JUMPDEST POP PUSH2 0x24E1 PUSH2 0x2522 PUSH2 0x251D PUSH2 0xFFFF PUSH2 0x2511 PUSH2 0x2506 PUSH1 0xE0 MLOAD PUSH2 0x30EA JUMP JUMPDEST PUSH1 0xFF PUSH2 0x1FFA DUP9 PUSH2 0x3054 JUMP JUMPDEST AND PUSH1 0xC0 MLOAD PUSH1 0x80 MLOAD PUSH2 0x30C3 JUMP JUMPDEST PUSH2 0x313C JUMP JUMPDEST ISZERO SWAP1 POP PUSH2 0x24D8 JUMP JUMPDEST POP PUSH2 0x24C2 PUSH2 0x2545 PUSH2 0x251D PUSH2 0xFFFF PUSH2 0x2511 PUSH2 0x2506 PUSH1 0xE0 MLOAD PUSH2 0x3184 JUMP JUMPDEST ISZERO SWAP1 POP PUSH2 0x24B9 JUMP JUMPDEST POP PUSH1 0xFF SWAP2 SWAP4 SWAP6 SWAP8 SWAP10 SWAP9 SWAP3 SWAP5 SWAP7 SWAP9 PUSH1 0xA DUP4 PUSH2 0x256A DUP5 PUSH2 0x100 MLOAD PUSH2 0x315B JUMP JUMPDEST AND LT PUSH2 0x2612 JUMPI JUMPDEST POP JUMPDEST AND PUSH1 0x5 DUP2 GT PUSH2 0x25CC JUMPI PUSH1 0x0 NOT ADD PUSH1 0xFF DUP2 GT PUSH2 0x76C JUMPI PUSH1 0xFF PUSH2 0x25AD PUSH2 0x25A6 DUP3 PUSH2 0x259F DUP2 DUP16 SWAP7 AND DUP1 SWAP7 PUSH2 0x3128 JUMP JUMPDEST MLOAD AND PUSH2 0x335B JUMP JUMPDEST SWAP3 DUP13 PUSH2 0x3128 JUMP JUMPDEST SWAP2 AND SWAP1 MSTORE JUMPDEST PUSH1 0xFF PUSH1 0x1 PUSH2 0x120 MLOAD ADD AND PUSH2 0x120 MSTORE SWAP7 SWAP5 SWAP3 SWAP1 SWAP6 SWAP4 SWAP2 PUSH2 0x239B JUMP JUMPDEST PUSH1 0x40 MLOAD PUSH3 0x461BCD PUSH1 0xE5 SHL DUP2 MSTORE PUSH1 0x20 PUSH1 0x4 DUP3 ADD MSTORE PUSH1 0x17 PUSH1 0x24 DUP3 ADD MSTORE PUSH32 0x53686970206C656E67746820697320746F6F206C6F6E67000000000000000000 PUSH1 0x44 DUP3 ADD MSTORE PUSH1 0xA0 MLOAD SWAP1 REVERT JUMPDEST PUSH2 0x120 MLOAD DUP4 AND DUP1 ISZERO SWAP1 PUSH2 0x2694 JUMPI JUMPDEST PUSH2 0x2629 SWAP1 PUSH2 0x3255 JUMP JUMPDEST PUSH2 0x2648 PUSH2 0x2642 PUSH2 0x251D PUSH2 0xFFFF PUSH2 0x2511 DUP8 PUSH2 0x2471 DUP9 PUSH2 0x3054 JUMP JUMPDEST ISZERO PUSH2 0x3310 JUMP JUMPDEST PUSH2 0x120 MLOAD DUP4 AND SWAP1 DUP4 AND DUP2 DUP2 EQ SWAP2 SUB PUSH2 0x266A JUMPI JUMPDEST PUSH2 0x2664 SWAP1 PUSH2 0x3428 JUMP JUMPDEST CODESIZE PUSH2 0x2571 JUMP JUMPDEST POP PUSH2 0x2664 PUSH2 0x268C PUSH2 0x251D PUSH2 0xFFFF PUSH2 0x2511 PUSH2 0x2687 DUP8 PUSH2 0x2471 DUP9 PUSH2 0x3054 JUMP JUMPDEST PUSH2 0x30EA JUMP JUMPDEST ISZERO SWAP1 POP PUSH2 0x265B JUMP JUMPDEST POP PUSH2 0x2629 PUSH2 0x26B6 PUSH2 0x251D PUSH2 0xFFFF PUSH2 0x2511 PUSH2 0x26B1 DUP9 PUSH2 0x2471 DUP10 PUSH2 0x3054 JUMP JUMPDEST PUSH2 0x3184 JUMP JUMPDEST ISZERO SWAP1 POP PUSH2 0x2620 JUMP JUMPDEST POP PUSH2 0x26D6 PUSH2 0x251D PUSH2 0xFFFF PUSH2 0x2511 PUSH1 0xFF PUSH2 0x2471 DUP8 PUSH2 0x3054 JUMP JUMPDEST PUSH2 0x2482 JUMP JUMPDEST PUSH1 0xFF PUSH2 0x120 MLOAD AND ISZERO DUP1 ISZERO PUSH2 0x2757 JUMPI JUMPDEST PUSH2 0x26F3 SWAP1 PUSH2 0x3199 JUMP JUMPDEST PUSH2 0x2710 PUSH2 0x270A PUSH2 0x251D PUSH2 0xFFFF PUSH2 0x2511 PUSH1 0xE0 MLOAD PUSH2 0x316F JUMP JUMPDEST ISZERO PUSH2 0x32C5 JUMP JUMPDEST PUSH2 0x120 MLOAD PUSH1 0xFF AND PUSH1 0x9 EQ DUP1 ISZERO PUSH2 0x272F JUMPI JUMPDEST PUSH2 0x272A SWAP1 PUSH2 0x336C JUMP JUMPDEST PUSH2 0x2457 JUMP JUMPDEST POP PUSH2 0x272A PUSH2 0x274F PUSH2 0x251D PUSH2 0xFFFF PUSH2 0x2511 PUSH2 0x274A PUSH1 0xE0 MLOAD PUSH2 0x30EA JUMP JUMPDEST PUSH2 0x316F JUMP JUMPDEST ISZERO SWAP1 POP PUSH2 0x2721 JUMP JUMPDEST POP PUSH2 0x26F3 PUSH2 0x2772 PUSH2 0x251D PUSH2 0xFFFF PUSH2 0x2511 PUSH2 0x26B1 PUSH1 0xE0 MLOAD PUSH2 0x316F JUMP JUMPDEST ISZERO SWAP1 POP PUSH2 0x26EA JUMP JUMPDEST PUSH1 0xFF PUSH2 0x120 MLOAD AND PUSH2 0x2937 JUMPI JUMPDEST PUSH1 0x9 SWAP9 SWAP8 JUMPDEST DUP12 PUSH1 0xC0 MLOAD PUSH2 0xFFFF PUSH2 0x27A1 PUSH1 0xFF DUP6 AND PUSH1 0xE0 MLOAD PUSH2 0x3112 JUMP JUMPDEST AND LT DUP1 PUSH2 0x2919 JUMPI JUMPDEST ISZERO PUSH2 0x2847 JUMPI SWAP1 PUSH1 0x1 PUSH2 0x27CA PUSH2 0x2802 SWAP4 PUSH2 0xFFFF PUSH2 0x24A2 PUSH1 0xFF DUP7 AND PUSH1 0xE0 MLOAD PUSH2 0x3112 JUMP JUMPDEST MSTORE PUSH2 0x100 MLOAD PUSH1 0xFF AND DUP1 ISZERO SWAP1 PUSH2 0x2827 JUMPI JUMPDEST PUSH2 0x27E3 SWAP1 PUSH2 0x32C5 JUMP JUMPDEST PUSH2 0x100 MLOAD PUSH1 0xFF SWAP1 DUP2 AND SWAP1 DUP13 AND DUP2 DUP2 EQ SWAP2 SUB PUSH2 0x2807 JUMPI JUMPDEST PUSH2 0x24E1 SWAP1 PUSH2 0x3310 JUMP JUMPDEST PUSH2 0x278B JUMP JUMPDEST POP PUSH2 0x24E1 PUSH2 0x281F PUSH2 0x251D PUSH2 0xFFFF PUSH2 0x2511 PUSH1 0xE0 MLOAD PUSH2 0x30FE JUMP JUMPDEST ISZERO SWAP1 POP PUSH2 0x27F9 JUMP JUMPDEST POP PUSH2 0x27E3 PUSH2 0x283F PUSH2 0x251D PUSH2 0xFFFF PUSH2 0x2511 PUSH1 0xE0 MLOAD PUSH2 0x316F JUMP JUMPDEST ISZERO SWAP1 POP PUSH2 0x27DA JUMP JUMPDEST POP PUSH1 0xFF SWAP2 SWAP4 SWAP6 SWAP8 SWAP10 SWAP9 SWAP3 SWAP5 SWAP7 SWAP9 PUSH1 0xA DUP4 PUSH2 0x2864 DUP5 PUSH2 0x120 MLOAD PUSH2 0x315B JUMP JUMPDEST AND LT PUSH2 0x2871 JUMPI JUMPDEST POP PUSH2 0x2573 JUMP JUMPDEST PUSH2 0x100 MLOAD PUSH2 0x28C7 SWAP2 SWAP1 DUP5 AND DUP1 ISZERO SWAP1 PUSH2 0x28F3 JUMPI JUMPDEST PUSH2 0x288D SWAP1 PUSH2 0x336C JUMP JUMPDEST DUP4 DUP4 AND PUSH2 0x28AE PUSH2 0x28A8 PUSH2 0x251D PUSH2 0xFFFF PUSH2 0x2511 DUP6 PUSH1 0xE0 MLOAD PUSH2 0x3112 JUMP JUMPDEST ISZERO PUSH2 0x33DD JUMP JUMPDEST PUSH2 0x100 MLOAD DUP6 AND SWAP2 DUP6 AND DUP3 DUP2 EQ SWAP3 SUB PUSH2 0x28CD JUMPI JUMPDEST POP PUSH2 0x3428 JUMP JUMPDEST CODESIZE PUSH2 0x286B JUMP JUMPDEST PUSH2 0x28EC SWAP2 POP PUSH2 0xFFFF PUSH2 0x2511 PUSH2 0x28E7 PUSH2 0x251D SWAP4 PUSH1 0xE0 MLOAD PUSH2 0x3112 JUMP JUMPDEST PUSH2 0x30FE JUMP JUMPDEST ISZERO CODESIZE PUSH2 0x28C1 JUMP JUMPDEST POP PUSH2 0x288D PUSH2 0x2911 PUSH2 0x251D PUSH2 0xFFFF PUSH2 0x2511 PUSH2 0x274A DUP10 DUP10 AND PUSH1 0xE0 MLOAD PUSH2 0x3112 JUMP JUMPDEST ISZERO SWAP1 POP PUSH2 0x2884 JUMP JUMPDEST POP PUSH2 0x2932 PUSH2 0x251D PUSH2 0xFFFF PUSH2 0x2511 PUSH1 0xFF DUP7 AND PUSH1 0xE0 MLOAD PUSH2 0x3112 JUMP JUMPDEST PUSH2 0x27A9 JUMP JUMPDEST PUSH1 0xFF PUSH2 0x100 MLOAD AND ISZERO DUP1 ISZERO PUSH2 0x29AE JUMPI JUMPDEST PUSH2 0x294F SWAP1 PUSH2 0x3199 JUMP JUMPDEST PUSH2 0x296C PUSH2 0x2966 PUSH2 0x251D PUSH2 0xFFFF PUSH2 0x2511 PUSH1 0xE0 MLOAD PUSH2 0x3184 JUMP JUMPDEST ISZERO PUSH2 0x320A JUMP JUMPDEST PUSH2 0x100 MLOAD PUSH1 0xFF AND PUSH1 0x9 EQ DUP1 ISZERO PUSH2 0x298B JUMPI JUMPDEST PUSH2 0x2986 SWAP1 PUSH2 0x3255 JUMP JUMPDEST PUSH2 0x2786 JUMP JUMPDEST POP PUSH2 0x2986 PUSH2 0x29A6 PUSH2 0x251D PUSH2 0xFFFF PUSH2 0x2511 PUSH2 0x26B1 PUSH1 0xE0 MLOAD PUSH2 0x30FE JUMP JUMPDEST ISZERO SWAP1 POP PUSH2 0x297D JUMP JUMPDEST POP PUSH2 0x294F PUSH2 0x29C9 PUSH2 0x251D PUSH2 0xFFFF PUSH2 0x2511 PUSH2 0x26B1 PUSH1 0xE0 MLOAD PUSH2 0x316F JUMP JUMPDEST ISZERO SWAP1 POP PUSH2 0x2946 JUMP JUMPDEST PUSH1 0x1 SWAP8 POP PUSH2 0x2443 JUMP JUMPDEST SWAP1 POP ISZERO CODESIZE PUSH2 0x243D JUMP JUMPDEST PUSH1 0x40 MLOAD PUSH3 0x461BCD PUSH1 0xE5 SHL DUP2 MSTORE PUSH1 0x20 PUSH1 0x4 DUP3 ADD MSTORE PUSH1 0x20 PUSH1 0x24 DUP3 ADD MSTORE PUSH32 0x496E76616C6964207368697020706C6163656D656E7420284C2D736861706529 PUSH1 0x44 DUP3 ADD MSTORE PUSH1 0xA0 MLOAD SWAP1 REVERT JUMPDEST POP DUP1 PUSH2 0x2431 JUMP JUMPDEST SWAP8 POP PUSH2 0x2A46 PUSH2 0x251D PUSH2 0xFFFF PUSH2 0x2511 PUSH1 0xE0 MLOAD PUSH2 0x30FE JUMP JUMPDEST SWAP8 PUSH2 0x2429 JUMP JUMPDEST SWAP7 POP PUSH2 0x2A62 PUSH2 0x251D PUSH2 0xFFFF PUSH2 0x2511 PUSH1 0xE0 MLOAD PUSH2 0x30EA JUMP JUMPDEST SWAP7 PUSH2 0x2410 JUMP JUMPDEST POP SWAP2 SWAP4 SWAP6 SWAP1 SWAP3 SWAP5 SWAP7 PUSH2 0x25B2 JUMP JUMPDEST POP PUSH2 0x2A88 PUSH2 0x251D DUP3 PUSH1 0xC0 MLOAD PUSH1 0x80 MLOAD PUSH2 0x30C3 JUMP JUMPDEST ISZERO PUSH2 0x23E6 JUMP JUMPDEST SWAP2 SWAP4 SWAP6 SWAP1 SWAP3 SWAP5 SWAP7 PUSH1 0xFF PUSH1 0x1 PUSH2 0x100 MLOAD ADD AND PUSH2 0x100 MSTORE PUSH2 0x237E JUMP JUMPDEST SWAP1 SWAP2 SWAP3 SWAP4 SWAP5 SWAP6 SWAP8 SWAP7 SWAP9 POP PUSH1 0x0 JUMPDEST PUSH1 0xFF DUP2 AND PUSH1 0x5 DUP2 LT ISZERO PUSH2 0x2B39 JUMPI PUSH2 0x2ACE PUSH1 0xFF SWAP2 DUP11 PUSH2 0x3128 JUMP JUMPDEST MLOAD AND PUSH1 0xFF PUSH2 0x2ADB DUP4 PUSH2 0x166A JUMP JUMPDEST SWAP1 SLOAD SWAP1 PUSH1 0x3 SHL SHR AND SUB PUSH2 0x2AF3 JUMPI PUSH1 0x1 ADD PUSH1 0xFF AND PUSH2 0x2AB5 JUMP JUMPDEST PUSH1 0x40 MLOAD PUSH3 0x461BCD PUSH1 0xE5 SHL DUP2 MSTORE PUSH1 0x20 PUSH1 0x4 DUP3 ADD MSTORE PUSH1 0x12 PUSH1 0x24 DUP3 ADD MSTORE PUSH32 0x496E76616C6964207368697020636F756E740000000000000000000000000000 PUSH1 0x44 DUP3 ADD MSTORE PUSH1 0xA0 MLOAD SWAP1 REVERT JUMPDEST POP POP SWAP3 SWAP6 POP SWAP3 SWAP6 SWAP7 SWAP1 SWAP4 SWAP7 PUSH1 0x40 MLOAD PUSH1 0x20 DUP2 ADD SWAP2 DUP3 MSTORE PUSH1 0x40 DUP2 ADD PUSH1 0x80 MLOAD PUSH1 0x0 JUMPDEST PUSH1 0xC0 MLOAD DUP2 LT PUSH2 0x2FEF JUMPI POP POP SWAP1 PUSH2 0x2B7A DUP2 PUSH1 0x2 SWAP5 SWAP4 SUB PUSH1 0x1F NOT DUP2 ADD DUP4 MSTORE DUP3 PUSH2 0x1709 JUMP JUMPDEST MLOAD SWAP1 KECCAK256 SWAP5 ADD SWAP4 PUSH1 0x1 PUSH2 0x2B8C DUP8 DUP8 PUSH2 0x1927 JUMP JUMPDEST POP ADD SLOAD SUB PUSH2 0x2FA9 JUMPI PUSH1 0x0 SWAP3 PUSH1 0x0 SWAP7 DUP8 SWAP1 DUP4 DUP6 SUB PUSH2 0x2F3E JUMPI PUSH2 0x2BAE PUSH1 0xC0 MLOAD PUSH2 0x3081 JUMP JUMPDEST SWAP1 DUP10 JUMPDEST DUP7 DUP2 LT PUSH2 0x2C7D JUMPI POP POP POP POP POP POP POP PUSH1 0x3 PUSH2 0x2BD3 PUSH2 0x2BCD DUP6 PUSH2 0x188A JUMP JUMPDEST DUP5 PUSH2 0x1927 JUMP JUMPDEST POP ADD SLOAD SUB PUSH2 0x2C37 JUMPI PUSH1 0x4 SWAP2 PUSH2 0x2BE7 SWAP2 PUSH2 0x1927 JUMP JUMPDEST POP ADD SLOAD SUB PUSH2 0x2BF1 JUMPI JUMP JUMPDEST PUSH1 0x40 MLOAD PUSH3 0x461BCD PUSH1 0xE5 SHL DUP2 MSTORE PUSH1 0x20 PUSH1 0x4 DUP3 ADD MSTORE PUSH1 0x1E PUSH1 0x24 DUP3 ADD MSTORE PUSH32 0x416E737765727320646F6E2774206D61746368206D7920616E73776572730000 PUSH1 0x44 DUP3 ADD MSTORE PUSH1 0xA0 MLOAD SWAP1 REVERT JUMPDEST PUSH1 0x40 MLOAD PUSH3 0x461BCD PUSH1 0xE5 SHL DUP2 MSTORE PUSH1 0x20 PUSH1 0x4 DUP3 ADD MSTORE PUSH1 0x1D PUSH1 0x24 DUP3 ADD MSTORE PUSH32 0x53686F747320646F6E2774206D6174636820656E656D792073686F7473000000 PUSH1 0x44 DUP3 ADD MSTORE PUSH1 0xA0 MLOAD SWAP1 REVERT JUMPDEST PUSH1 0x1 DUP2 ADD SWAP11 SWAP8 DUP12 DUP3 GT PUSH2 0x76C JUMPI PUSH2 0x2C9A SWAP1 DUP13 PUSH2 0x1F88 DUP5 DUP12 DUP8 PUSH2 0x30B3 JUMP JUMPDEST SWAP8 PUSH1 0x0 SWAP12 PUSH2 0x2CA9 DUP4 DUP11 DUP7 PUSH2 0x30B3 JUMP JUMPDEST SWAP1 PUSH2 0x2CB5 DUP5 DUP11 DUP11 PUSH2 0x30C3 JUMP JUMPDEST CALLDATALOAD SWAP3 PUSH1 0x3 DUP5 LT ISZERO PUSH2 0x2F3A JUMPI SWAP1 PUSH2 0x2CCC SWAP4 SWAP3 SWAP2 PUSH2 0x2213 JUMP JUMPDEST SWAP11 PUSH2 0x2CD8 DUP3 DUP10 DUP6 PUSH2 0x30B3 JUMP JUMPDEST PUSH2 0x2CE1 SWAP1 PUSH2 0x21BA JUMP JUMPDEST PUSH1 0xFF AND PUSH2 0x2CED SWAP1 PUSH2 0x30D3 JUMP JUMPDEST PUSH2 0x2CF8 DUP4 DUP11 DUP7 PUSH2 0x30B3 JUMP JUMPDEST PUSH1 0x20 ADD PUSH2 0x2D04 SWAP1 PUSH2 0x21BA JUMP JUMPDEST PUSH1 0xFF AND PUSH2 0x2D10 SWAP2 PUSH2 0x3112 JUMP JUMPDEST PUSH2 0xFFFF DUP2 AND PUSH1 0xC0 MLOAD DUP2 PUSH1 0x80 MLOAD SWAP2 PUSH2 0x2D26 SWAP3 PUSH2 0x30C3 JUMP JUMPDEST PUSH2 0x2D2F SWAP1 PUSH2 0x313C JUMP JUMPDEST PUSH2 0x2DC5 JUMPI POP POP PUSH2 0x2D40 DUP3 DUP9 DUP9 PUSH2 0x30C3 JUMP JUMPDEST CALLDATALOAD SWAP1 PUSH1 0x3 DUP3 LT ISZERO PUSH2 0x2044 JUMPI POP PUSH2 0x2D5A JUMPI PUSH1 0x1 SWAP1 JUMPDEST ADD PUSH2 0x2BB1 JUMP JUMPDEST PUSH1 0x84 PUSH1 0x40 MLOAD PUSH3 0x461BCD PUSH1 0xE5 SHL DUP2 MSTORE PUSH1 0x20 PUSH1 0x4 DUP3 ADD MSTORE PUSH1 0x2D PUSH1 0x24 DUP3 ADD MSTORE PUSH32 0x4D69737365642073686F742063616E6E6F7420626520616E7377657265642061 PUSH1 0x44 DUP3 ADD MSTORE PUSH32 0x7320686974206F722073756E6B00000000000000000000000000000000000000 PUSH1 0xA0 MLOAD DUP3 ADD MSTORE REVERT JUMPDEST PUSH2 0x2DCF DUP2 DUP8 PUSH2 0x3128 JUMP JUMPDEST MLOAD ISZERO PUSH2 0x2F1C JUMPI JUMPDEST SWAP1 PUSH1 0x1 PUSH2 0x2DE6 PUSH2 0x2DF3 SWAP4 DUP9 PUSH2 0x3128 JUMP JUMPDEST MSTORE DUP6 PUSH1 0xC0 MLOAD PUSH1 0x80 MLOAD PUSH2 0x3499 JUMP JUMPDEST ISZERO PUSH2 0x2E8A JUMPI PUSH2 0x2E03 DUP3 DUP9 DUP9 PUSH2 0x30C3 JUMP JUMPDEST CALLDATALOAD SWAP1 PUSH1 0x3 DUP3 LT ISZERO PUSH2 0x2044 JUMPI POP PUSH1 0x1 NOT ADD PUSH2 0x2E1F JUMPI PUSH1 0x1 SWAP1 PUSH2 0x2D54 JUMP JUMPDEST PUSH1 0x84 PUSH1 0x40 MLOAD PUSH3 0x461BCD PUSH1 0xE5 SHL DUP2 MSTORE PUSH1 0x20 PUSH1 0x4 DUP3 ADD MSTORE PUSH1 0x2A PUSH1 0x24 DUP3 ADD MSTORE PUSH32 0x536869702063616E6E6F742062652073756E6B20696620697420686173206E6F PUSH1 0x44 DUP3 ADD MSTORE PUSH32 0x74206265656E2068697400000000000000000000000000000000000000000000 PUSH1 0xA0 MLOAD DUP3 ADD MSTORE REVERT JUMPDEST PUSH2 0x2E95 DUP3 DUP9 DUP9 PUSH2 0x30C3 JUMP JUMPDEST CALLDATALOAD SWAP1 PUSH1 0x3 DUP3 LT ISZERO PUSH2 0x2044 JUMPI POP PUSH1 0x0 NOT ADD PUSH2 0x2EB1 JUMPI PUSH1 0x1 SWAP1 PUSH2 0x2D54 JUMP JUMPDEST PUSH1 0x84 PUSH1 0x40 MLOAD PUSH3 0x461BCD PUSH1 0xE5 SHL DUP2 MSTORE PUSH1 0x20 PUSH1 0x4 DUP3 ADD MSTORE PUSH1 0x30 PUSH1 0x24 DUP3 ADD MSTORE PUSH32 0x53686970206D7573742062652073756E6B20696620616C6C2069747320706172 PUSH1 0x44 DUP3 ADD MSTORE PUSH32 0x74732068617665206265656E2068697400000000000000000000000000000000 PUSH1 0xA0 MLOAD DUP3 ADD MSTORE REVERT JUMPDEST SWAP6 SWAP1 PUSH1 0x1 PUSH2 0x2DE6 PUSH2 0x2F2F PUSH2 0x2DF3 SWAP5 PUSH2 0x1BF9 JUMP JUMPDEST SWAP9 SWAP3 SWAP4 POP POP POP PUSH2 0x2DD6 JUMP JUMPDEST DUP15 DUP1 REVERT JUMPDEST PUSH1 0x84 PUSH1 0x40 MLOAD PUSH3 0x461BCD PUSH1 0xE5 SHL DUP2 MSTORE PUSH1 0x20 PUSH1 0x4 DUP3 ADD MSTORE PUSH1 0x2B PUSH1 0x24 DUP3 ADD MSTORE PUSH32 0x53686F747320616E6420616E7377657273206D75737420686176652074686520 PUSH1 0x44 DUP3 ADD MSTORE PUSH32 0x73616D65206C656E677468000000000000000000000000000000000000000000 PUSH1 0xA0 MLOAD DUP3 ADD MSTORE REVERT JUMPDEST PUSH1 0x40 MLOAD PUSH3 0x461BCD PUSH1 0xE5 SHL DUP2 MSTORE PUSH1 0x20 PUSH1 0x4 DUP3 ADD MSTORE PUSH1 0x1F PUSH1 0x24 DUP3 ADD MSTORE PUSH32 0x426F61726420636F6D6D69746D656E7420646F6573206E6F74206D6174636800 PUSH1 0x44 DUP3 ADD MSTORE PUSH1 0xA0 MLOAD SWAP1 REVERT JUMPDEST SWAP1 SWAP2 PUSH1 0x20 DUP1 PUSH1 0x1 SWAP3 PUSH2 0x3000 DUP7 PUSH2 0x1C0C JUMP JUMPDEST ISZERO ISZERO DUP2 MSTORE ADD SWAP4 ADD SWAP2 ADD PUSH2 0x2B58 JUMP JUMPDEST PUSH1 0x40 MLOAD PUSH3 0x461BCD PUSH1 0xE5 SHL DUP2 MSTORE PUSH1 0x20 PUSH1 0x4 DUP3 ADD MSTORE PUSH1 0x12 PUSH1 0x24 DUP3 ADD MSTORE PUSH32 0x496E76616C696420626F6172642073697A650000000000000000000000000000 PUSH1 0x44 DUP3 ADD MSTORE PUSH1 0xA0 MLOAD SWAP1 REVERT JUMPDEST PUSH1 0xFF PUSH1 0xA SWAP2 AND MUL SWAP1 PUSH1 0xFF DUP3 AND SWAP2 DUP3 SUB PUSH2 0x76C JUMPI JUMP JUMPDEST PUSH8 0xFFFFFFFFFFFFFFFF DUP2 GT PUSH2 0x172B JUMPI PUSH1 0x5 SHL PUSH1 0x20 ADD SWAP1 JUMP JUMPDEST SWAP1 PUSH2 0x308B DUP3 PUSH2 0x3069 JUMP JUMPDEST PUSH2 0x3098 PUSH1 0x40 MLOAD SWAP2 DUP3 PUSH2 0x1709 JUMP JUMPDEST DUP3 DUP2 MSTORE DUP1 SWAP3 PUSH2 0x30A9 PUSH1 0x1F NOT SWAP2 PUSH2 0x3069 JUMP JUMPDEST ADD SWAP1 PUSH1 0x20 CALLDATASIZE SWAP2 ADD CALLDATACOPY JUMP JUMPDEST SWAP2 SWAP1 DUP2 LT ISZERO PUSH2 0x1682 JUMPI PUSH1 0x6 SHL ADD SWAP1 JUMP JUMPDEST SWAP2 SWAP1 DUP2 LT ISZERO PUSH2 0x1682 JUMPI PUSH1 0x5 SHL ADD SWAP1 JUMP JUMPDEST PUSH2 0xFFFF PUSH1 0xA SWAP2 AND MUL SWAP1 PUSH2 0xFFFF DUP3 AND SWAP2 DUP3 SUB PUSH2 0x76C JUMPI JUMP JUMPDEST PUSH2 0xFFFF PUSH1 0x1 SWAP2 AND ADD SWAP1 PUSH2 0xFFFF DUP3 GT PUSH2 0x76C JUMPI JUMP JUMPDEST PUSH2 0xFFFF PUSH1 0xA SWAP2 AND ADD SWAP1 PUSH2 0xFFFF DUP3 GT PUSH2 0x76C JUMPI JUMP JUMPDEST SWAP1 PUSH2 0xFFFF DUP1 SWAP2 AND SWAP2 AND ADD SWAP1 PUSH2 0xFFFF DUP3 GT PUSH2 0x76C JUMPI JUMP JUMPDEST DUP1 MLOAD DUP3 LT ISZERO PUSH2 0x1682 JUMPI PUSH1 0x20 SWAP2 PUSH1 0x5 SHL ADD ADD SWAP1 JUMP JUMPDEST CALLDATALOAD DUP1 ISZERO ISZERO DUP2 SUB PUSH2 0x1F8 JUMPI SWAP1 JUMP JUMPDEST PUSH1 0xFF PUSH1 0x1 SWAP2 AND ADD SWAP1 PUSH1 0xFF DUP3 GT PUSH2 0x76C JUMPI JUMP JUMPDEST SWAP1 PUSH1 0xFF DUP1 SWAP2 AND SWAP2 AND ADD SWAP1 PUSH1 0xFF DUP3 GT PUSH2 0x76C JUMPI JUMP JUMPDEST PUSH2 0xFFFF PUSH1 0x9 NOT SWAP2 AND ADD SWAP1 PUSH2 0xFFFF DUP3 GT PUSH2 0x76C JUMPI JUMP JUMPDEST PUSH2 0xFFFF PUSH1 0x0 NOT SWAP2 AND ADD SWAP1 PUSH2 0xFFFF DUP3 GT PUSH2 0x76C JUMPI JUMP JUMPDEST ISZERO PUSH2 0x31A0 JUMPI JUMP JUMPDEST PUSH1 0x84 PUSH1 0x40 MLOAD PUSH3 0x461BCD PUSH1 0xE5 SHL DUP2 MSTORE PUSH1 0x20 PUSH1 0x4 DUP3 ADD MSTORE PUSH1 0x21 PUSH1 0x24 DUP3 ADD MSTORE PUSH32 0x496E76616C6964207368697020706C6163656D656E742028746F702D6C656674 PUSH1 0x44 DUP3 ADD MSTORE PUSH32 0x2900000000000000000000000000000000000000000000000000000000000000 PUSH1 0x64 DUP3 ADD MSTORE REVERT JUMPDEST ISZERO PUSH2 0x3211 JUMPI JUMP JUMPDEST PUSH1 0x64 PUSH1 0x40 MLOAD PUSH3 0x461BCD PUSH1 0xE5 SHL DUP2 MSTORE PUSH1 0x20 PUSH1 0x4 DUP3 ADD MSTORE PUSH1 0x1D PUSH1 0x24 DUP3 ADD MSTORE PUSH32 0x496E76616C6964207368697020706C6163656D656E7420286C65667429000000 PUSH1 0x44 DUP3 ADD MSTORE REVERT JUMPDEST ISZERO PUSH2 0x325C JUMPI JUMP JUMPDEST PUSH1 0x84 PUSH1 0x40 MLOAD PUSH3 0x461BCD PUSH1 0xE5 SHL DUP2 MSTORE PUSH1 0x20 PUSH1 0x4 DUP3 ADD MSTORE PUSH1 0x24 DUP1 DUP3 ADD MSTORE PUSH32 0x496E76616C6964207368697020706C6163656D656E742028626F74746F6D2D6C PUSH1 0x44 DUP3 ADD MSTORE PUSH32 0x6566742900000000000000000000000000000000000000000000000000000000 PUSH1 0x64 DUP3 ADD MSTORE REVERT JUMPDEST ISZERO PUSH2 0x32CC JUMPI JUMP JUMPDEST PUSH1 0x64 PUSH1 0x40 MLOAD PUSH3 0x461BCD PUSH1 0xE5 SHL DUP2 MSTORE PUSH1 0x20 PUSH1 0x4 DUP3 ADD MSTORE PUSH1 0x1C PUSH1 0x24 DUP3 ADD MSTORE PUSH32 0x496E76616C6964207368697020706C6163656D656E742028746F702900000000 PUSH1 0x44 DUP3 ADD MSTORE REVERT JUMPDEST ISZERO PUSH2 0x3317 JUMPI JUMP JUMPDEST PUSH1 0x64 PUSH1 0x40 MLOAD PUSH3 0x461BCD PUSH1 0xE5 SHL DUP2 MSTORE PUSH1 0x20 PUSH1 0x4 DUP3 ADD MSTORE PUSH1 0x1F PUSH1 0x24 DUP3 ADD MSTORE PUSH32 0x496E76616C6964207368697020706C6163656D656E742028626F74746F6D2900 PUSH1 0x44 DUP3 ADD MSTORE REVERT JUMPDEST PUSH1 0xFF AND PUSH1 0xFF DUP2 EQ PUSH2 0x76C JUMPI PUSH1 0x1 ADD SWAP1 JUMP JUMPDEST ISZERO PUSH2 0x3373 JUMPI JUMP JUMPDEST PUSH1 0x84 PUSH1 0x40 MLOAD PUSH3 0x461BCD PUSH1 0xE5 SHL DUP2 MSTORE PUSH1 0x20 PUSH1 0x4 DUP3 ADD MSTORE PUSH1 0x22 PUSH1 0x24 DUP3 ADD MSTORE PUSH32 0x496E76616C6964207368697020706C6163656D656E742028746F702D72696768 PUSH1 0x44 DUP3 ADD MSTORE PUSH32 0x7429000000000000000000000000000000000000000000000000000000000000 PUSH1 0x64 DUP3 ADD MSTORE REVERT JUMPDEST ISZERO PUSH2 0x33E4 JUMPI JUMP JUMPDEST PUSH1 0x64 PUSH1 0x40 MLOAD PUSH3 0x461BCD PUSH1 0xE5 SHL DUP2 MSTORE PUSH1 0x20 PUSH1 0x4 DUP3 ADD MSTORE PUSH1 0x1E PUSH1 0x24 DUP3 ADD MSTORE PUSH32 0x496E76616C6964207368697020706C6163656D656E7420287269676874290000 PUSH1 0x44 DUP3 ADD MSTORE REVERT JUMPDEST ISZERO PUSH2 0x342F JUMPI JUMP JUMPDEST PUSH1 0x84 PUSH1 0x40 MLOAD PUSH3 0x461BCD PUSH1 0xE5 SHL DUP2 MSTORE PUSH1 0x20 PUSH1 0x4 DUP3 ADD MSTORE PUSH1 0x25 PUSH1 0x24 DUP3 ADD MSTORE PUSH32 0x496E76616C6964207368697020706C6163656D656E742028626F74746F6D2D72 PUSH1 0x44 DUP3 ADD MSTORE PUSH32 0x6967687429000000000000000000000000000000000000000000000000000000 PUSH1 0x64 DUP3 ADD MSTORE REVERT JUMPDEST SWAP2 SWAP1 PUSH2 0x34A4 DUP5 PUSH2 0x30EA JUMP JUMPDEST PUSH2 0xFFFF DUP2 DUP2 AND SWAP1 PUSH1 0xA DUP3 MOD AND ISZERO ISZERO DUP1 PUSH2 0x3660 JUMPI JUMPDEST ISZERO PUSH2 0x34E5 JUMPI PUSH2 0x34C7 SWAP1 DUP5 PUSH2 0x3128 JUMP JUMPDEST MLOAD ISZERO PUSH2 0x34DB JUMPI PUSH2 0x34D6 SWAP1 PUSH2 0x1BF9 JUMP JUMPDEST PUSH2 0x34A4 JUMP JUMPDEST POP POP POP POP POP PUSH1 0x0 SWAP1 JUMP JUMPDEST POP POP SWAP3 SWAP2 PUSH2 0xFFFF DUP4 AND SWAP4 DUP5 PUSH2 0x35D2 JUMPI JUMPDEST PUSH1 0x64 SWAP4 PUSH2 0x3501 DUP2 PUSH2 0x30FE JUMP JUMPDEST PUSH2 0xFFFF DUP2 AND DUP7 DUP2 LT DUP1 PUSH2 0x35BE JUMPI JUMPDEST ISZERO PUSH2 0x353E JUMPI PUSH2 0x351E SWAP1 DUP7 PUSH2 0x3128 JUMP JUMPDEST MLOAD ISZERO PUSH2 0x3532 JUMPI PUSH2 0x352D SWAP1 PUSH2 0x30FE JUMP JUMPDEST PUSH2 0x3501 JUMP JUMPDEST POP POP POP POP POP POP POP PUSH1 0x0 SWAP1 JUMP JUMPDEST POP POP SWAP2 SWAP5 PUSH1 0xA SWAP2 SWAP5 POP LT ISZERO PUSH2 0x3557 JUMPI JUMPDEST POP POP POP POP PUSH1 0x1 SWAP1 JUMP JUMPDEST PUSH2 0x3560 SWAP1 PUSH2 0x316F JUMP JUMPDEST PUSH2 0xFFFF DUP2 AND PUSH2 0x3573 PUSH2 0x251D DUP3 DUP7 DUP9 PUSH2 0x30C3 JUMP JUMPDEST ISZERO PUSH2 0x35B4 JUMPI PUSH2 0x3582 DUP2 DUP5 PUSH2 0x3128 JUMP JUMPDEST MLOAD ISZERO PUSH2 0x34DB JUMPI PUSH1 0xA GT PUSH2 0x35A6 JUMPI PUSH2 0x251D PUSH2 0x359E PUSH2 0x3573 SWAP3 PUSH2 0x316F JUMP JUMPDEST SWAP2 POP POP PUSH2 0x3560 JUMP JUMPDEST POP POP POP POP JUMPDEST CODESIZE DUP1 DUP1 DUP1 PUSH2 0x354E JUMP JUMPDEST POP POP POP POP POP PUSH2 0x35AB JUMP JUMPDEST POP PUSH2 0x35CD PUSH2 0x251D DUP3 DUP7 DUP9 PUSH2 0x30C3 JUMP JUMPDEST PUSH2 0x350F JUMP JUMPDEST SWAP4 SWAP3 SWAP2 SWAP1 PUSH2 0x35DF DUP4 PUSH2 0x3184 JUMP JUMPDEST PUSH1 0x9 SWAP6 SWAP1 JUMPDEST PUSH2 0xFFFF DUP2 DUP2 AND SWAP1 PUSH1 0xA DUP3 MOD AND DUP9 EQ ISZERO DUP1 PUSH2 0x364C JUMPI JUMPDEST ISZERO PUSH2 0x363F JUMPI PUSH2 0x3608 DUP2 DUP7 PUSH2 0x3128 JUMP JUMPDEST MLOAD ISZERO PUSH2 0x3632 JUMPI ISZERO PUSH2 0x3626 JUMPI PUSH2 0xFFFF AND DUP1 ISZERO PUSH2 0x76C JUMPI PUSH1 0x0 NOT ADD PUSH2 0x35E4 JUMP JUMPDEST POP SWAP1 SWAP2 SWAP3 SWAP4 SWAP5 POP PUSH2 0x34F5 JUMP JUMPDEST POP POP POP POP POP POP POP POP PUSH1 0x0 SWAP1 JUMP JUMPDEST POP POP SWAP1 SWAP2 SWAP3 SWAP4 SWAP5 POP PUSH2 0x34F5 JUMP JUMPDEST POP PUSH2 0x365B PUSH2 0x251D DUP3 DUP6 DUP8 PUSH2 0x30C3 JUMP JUMPDEST PUSH2 0x35F9 JUMP JUMPDEST POP PUSH2 0x366F PUSH2 0x251D DUP3 DUP6 DUP9 PUSH2 0x30C3 JUMP JUMPDEST PUSH2 0x34B8 JUMP INVALID LOG2 PUSH5 0x6970667358 0x22 SLT KECCAK256 0xA6 0xB5 STOP PUSH27 0xEBA486014FA16DA7E4E7BF09DFF5D902A5D03354F7BF298FF17B2 PUSH7 0x64736F6C634300 ADDMOD SHR STOP CALLER "
        },
        "methodIdentifiers": {
          "BOARD_SIZE()": "dc4a3e95",
          "CONTRACT_SEED()": "6cd6eabf",
          "DEADLINE_BLOCK_TIME()": "0b429432",
          "MAX_SHIP_LENGTH()": "ba848382",
          "SHIP_COUNTS(uint256)": "b9bafb10",
          "TOTAL_SHIP_PARTS()": "a616b069",
          "answerAndClaimDishonest(uint256,(uint8,uint8),uint8)": "8efe14fd",
          "answerAndClaimVictory(uint256,(uint8,uint8),uint8,uint256,bool[],(uint8,uint8)[],uint8[],(uint8,uint8)[],uint8[])": "c841869d",
          "answerAndShoot(uint256,(uint8,uint8),uint8,(uint8,uint8))": "b3a16b19",
          "answerShot(uint256,(uint8,uint8),uint8)": "2ad5e4d6",
          "calculateCommission(uint256)": "ce9b4321",
          "claimDishonest(uint256)": "07ecba71",
          "claimIdle(uint256)": "c599d89b",
          "createRoom(uint256,uint256)": "ab196acd",
          "getRoomInfo(uint256)": "6790d2b5",
          "joinRoom(uint256,uint256)": "0a1c87a9",
          "owner()": "8da5cb5b",
          "proveHonesty(uint256,uint256,bool[],(uint8,uint8)[],uint8[])": "d38f4663",
          "proveVictory(uint256,uint256,bool[],(uint8,uint8)[],uint8[],(uint8,uint8)[],uint8[])": "75debaad",
          "renounceOwnership()": "715018a6",
          "roomSecretToId(uint256)": "625904c8",
          "rooms(uint256)": "1bae0ac8",
          "shoot(uint256,(uint8,uint8))": "6e209f2c",
          "submitBoard(uint256,uint256,uint256)": "d4d91f10",
          "transferOwnership(address)": "f2fde38b",
          "withdrawFunds(uint256)": "155dd5ee",
          "x()": "0c55699c"
        }
      }
    }
  }
}