{
  "_format": "hh-sol-artifact-1",
  "contractName": "ChainshipNoFee",
  "sourceName": "contracts/Implementations.sol",
  "abi": [
    {
      "inputs": [
        {
          "internalType": "uint256",
          "name": "contractSeed",
          "type": "uint256"
        }
      ],
      "stateMutability": "nonpayable",
      "type": "constructor"
    },
    {
      "inputs": [
        {
          "internalType": "address",
          "name": "owner",
          "type": "address"
        }
      ],
      "name": "OwnableInvalidOwner",
      "type": "error"
    },
    {
      "inputs": [
        {
          "internalType": "address",
          "name": "account",
          "type": "address"
        }
      ],
      "name": "OwnableUnauthorizedAccount",
      "type": "error"
    },
    {
      "inputs": [],
      "name": "ReentrancyGuardReentrantCall",
      "type": "error"
    },
    {
      "anonymous": false,
      "inputs": [
        {
          "indexed": false,
          "internalType": "Chainship.RoomId",
          "name": "roomId",
          "type": "uint256"
        },
        {
          "indexed": false,
          "internalType": "address",
          "name": "player",
          "type": "address"
        },
        {
          "indexed": false,
          "internalType": "uint256",
          "name": "boardCommitment",
          "type": "uint256"
        }
      ],
      "name": "BoardSubmitted",
      "type": "event"
    },
    {
      "anonymous": false,
      "inputs": [
        {
          "indexed": false,
          "internalType": "Chainship.RoomId",
          "name": "roomId",
          "type": "uint256"
        },
        {
          "indexed": false,
          "internalType": "address",
          "name": "player1",
          "type": "address"
        },
        {
          "indexed": false,
          "internalType": "uint256",
          "name": "entryFee",
          "type": "uint256"
        },
        {
          "indexed": false,
          "internalType": "uint256",
          "name": "commission",
          "type": "uint256"
        }
      ],
      "name": "CreatedRoom",
      "type": "event"
    },
    {
      "anonymous": false,
      "inputs": [
        {
          "indexed": false,
          "internalType": "Chainship.RoomId",
          "name": "roomId",
          "type": "uint256"
        },
        {
          "indexed": false,
          "internalType": "address",
          "name": "player",
          "type": "address"
        }
      ],
      "name": "DishonestyClaimed",
      "type": "event"
    },
    {
      "anonymous": false,
      "inputs": [
        {
          "indexed": false,
          "internalType": "Chainship.RoomId",
          "name": "roomId",
          "type": "uint256"
        },
        {
          "indexed": false,
          "internalType": "address",
          "name": "startingPlayer",
          "type": "address"
        }
      ],
      "name": "GameStarted",
      "type": "event"
    },
    {
      "anonymous": false,
      "inputs": [
        {
          "indexed": false,
          "internalType": "Chainship.RoomId",
          "name": "roomId",
          "type": "uint256"
        },
        {
          "indexed": false,
          "internalType": "address",
          "name": "player",
          "type": "address"
        },
        {
          "indexed": false,
          "internalType": "bool[]",
          "name": "board",
          "type": "bool[]"
        }
      ],
      "name": "HonestyProven",
      "type": "event"
    },
    {
      "anonymous": false,
      "inputs": [
        {
          "indexed": false,
          "internalType": "Chainship.RoomId",
          "name": "roomId",
          "type": "uint256"
        },
        {
          "indexed": false,
          "internalType": "address",
          "name": "player",
          "type": "address"
        }
      ],
      "name": "IdleClaimed",
      "type": "event"
    },
    {
      "anonymous": false,
      "inputs": [
        {
          "indexed": false,
          "internalType": "Chainship.RoomId",
          "name": "roomId",
          "type": "uint256"
        },
        {
          "indexed": false,
          "internalType": "address",
          "name": "player2",
          "type": "address"
        }
      ],
      "name": "JoinedRoom",
      "type": "event"
    },
    {
      "anonymous": false,
      "inputs": [
        {
          "indexed": true,
          "internalType": "address",
          "name": "previousOwner",
          "type": "address"
        },
        {
          "indexed": true,
          "internalType": "address",
          "name": "newOwner",
          "type": "address"
        }
      ],
      "name": "OwnershipTransferred",
      "type": "event"
    },
    {
      "anonymous": false,
      "inputs": [
        {
          "indexed": false,
          "internalType": "address",
          "name": "player",
          "type": "address"
        },
        {
          "indexed": false,
          "internalType": "uint256",
          "name": "prize",
          "type": "uint256"
        }
      ],
      "name": "PrizeReceived",
      "type": "event"
    },
    {
      "anonymous": false,
      "inputs": [
        {
          "indexed": false,
          "internalType": "Chainship.RoomId",
          "name": "roomId",
          "type": "uint256"
        },
        {
          "indexed": false,
          "internalType": "address",
          "name": "player",
          "type": "address"
        },
        {
          "indexed": false,
          "internalType": "uint256",
          "name": "noShots",
          "type": "uint256"
        },
        {
          "components": [
            {
              "internalType": "uint8",
              "name": "x",
              "type": "uint8"
            },
            {
              "internalType": "uint8",
              "name": "y",
              "type": "uint8"
            }
          ],
          "indexed": false,
          "internalType": "struct Chainship.Position",
          "name": "position",
          "type": "tuple"
        },
        {
          "indexed": false,
          "internalType": "enum Chainship.Answer",
          "name": "answer",
          "type": "uint8"
        },
        {
          "indexed": false,
          "internalType": "uint256",
          "name": "newAnswersCommitment",
          "type": "uint256"
        }
      ],
      "name": "ShotAnswered",
      "type": "event"
    },
    {
      "anonymous": false,
      "inputs": [
        {
          "indexed": false,
          "internalType": "Chainship.RoomId",
          "name": "roomId",
          "type": "uint256"
        },
        {
          "indexed": false,
          "internalType": "address",
          "name": "player",
          "type": "address"
        },
        {
          "indexed": false,
          "internalType": "uint256",
          "name": "noShots",
          "type": "uint256"
        },
        {
          "components": [
            {
              "internalType": "uint8",
              "name": "x",
              "type": "uint8"
            },
            {
              "internalType": "uint8",
              "name": "y",
              "type": "uint8"
            }
          ],
          "indexed": false,
          "internalType": "struct Chainship.Position",
          "name": "position",
          "type": "tuple"
        },
        {
          "indexed": false,
          "internalType": "uint256",
          "name": "newShotsCommitment",
          "type": "uint256"
        }
      ],
      "name": "ShotTaken",
      "type": "event"
    },
    {
      "anonymous": false,
      "inputs": [
        {
          "indexed": false,
          "internalType": "Chainship.RoomId",
          "name": "roomId",
          "type": "uint256"
        },
        {
          "indexed": false,
          "internalType": "address",
          "name": "player",
          "type": "address"
        },
        {
          "indexed": false,
          "internalType": "bool[]",
          "name": "board",
          "type": "bool[]"
        }
      ],
      "name": "VictoryProven",
      "type": "event"
    },
    {
      "inputs": [],
      "name": "BOARD_SIZE",
      "outputs": [
        {
          "internalType": "uint8",
          "name": "",
          "type": "uint8"
        }
      ],
      "stateMutability": "view",
      "type": "function"
    },
    {
      "inputs": [],
      "name": "CONTRACT_SEED",
      "outputs": [
        {
          "internalType": "uint256",
          "name": "",
          "type": "uint256"
        }
      ],
      "stateMutability": "view",
      "type": "function"
    },
    {
      "inputs": [],
      "name": "DEADLINE_BLOCK_TIME",
      "outputs": [
        {
          "internalType": "uint256",
          "name": "",
          "type": "uint256"
        }
      ],
      "stateMutability": "view",
      "type": "function"
    },
    {
      "inputs": [],
      "name": "MAX_SHIP_LENGTH",
      "outputs": [
        {
          "internalType": "uint8",
          "name": "",
          "type": "uint8"
        }
      ],
      "stateMutability": "view",
      "type": "function"
    },
    {
      "inputs": [
        {
          "internalType": "uint256",
          "name": "",
          "type": "uint256"
        }
      ],
      "name": "SHIP_COUNTS",
      "outputs": [
        {
          "internalType": "uint8",
          "name": "",
          "type": "uint8"
        }
      ],
      "stateMutability": "view",
      "type": "function"
    },
    {
      "inputs": [],
      "name": "TOTAL_SHIP_PARTS",
      "outputs": [
        {
          "internalType": "uint16",
          "name": "",
          "type": "uint16"
        }
      ],
      "stateMutability": "view",
      "type": "function"
    },
    {
      "inputs": [
        {
          "internalType": "Chainship.RoomId",
          "name": "roomId",
          "type": "uint256"
        },
        {
          "components": [
            {
              "internalType": "uint8",
              "name": "x",
              "type": "uint8"
            },
            {
              "internalType": "uint8",
              "name": "y",
              "type": "uint8"
            }
          ],
          "internalType": "struct Chainship.Position",
          "name": "answerPosition",
          "type": "tuple"
        },
        {
          "internalType": "enum Chainship.Answer",
          "name": "answer",
          "type": "uint8"
        }
      ],
      "name": "answerAndClaimDishonest",
      "outputs": [],
      "stateMutability": "nonpayable",
      "type": "function"
    },
    {
      "inputs": [
        {
          "internalType": "Chainship.RoomId",
          "name": "roomId",
          "type": "uint256"
        },
        {
          "components": [
            {
              "internalType": "uint8",
              "name": "x",
              "type": "uint8"
            },
            {
              "internalType": "uint8",
              "name": "y",
              "type": "uint8"
            }
          ],
          "internalType": "struct Chainship.Position",
          "name": "answerPosition",
          "type": "tuple"
        },
        {
          "internalType": "enum Chainship.Answer",
          "name": "answer",
          "type": "uint8"
        },
        {
          "internalType": "uint256",
          "name": "boardRandomness",
          "type": "uint256"
        },
        {
          "internalType": "bool[]",
          "name": "board",
          "type": "bool[]"
        },
        {
          "components": [
            {
              "internalType": "uint8",
              "name": "x",
              "type": "uint8"
            },
            {
              "internalType": "uint8",
              "name": "y",
              "type": "uint8"
            }
          ],
          "internalType": "struct Chainship.Position[]",
          "name": "enemyShots",
          "type": "tuple[]"
        },
        {
          "internalType": "enum Chainship.Answer[]",
          "name": "myAnswers",
          "type": "uint8[]"
        },
        {
          "components": [
            {
              "internalType": "uint8",
              "name": "x",
              "type": "uint8"
            },
            {
              "internalType": "uint8",
              "name": "y",
              "type": "uint8"
            }
          ],
          "internalType": "struct Chainship.Position[]",
          "name": "myShots",
          "type": "tuple[]"
        },
        {
          "internalType": "enum Chainship.Answer[]",
          "name": "enemyAnswers",
          "type": "uint8[]"
        }
      ],
      "name": "answerAndClaimVictory",
      "outputs": [],
      "stateMutability": "nonpayable",
      "type": "function"
    },
    {
      "inputs": [
        {
          "internalType": "Chainship.RoomId",
          "name": "roomId",
          "type": "uint256"
        },
        {
          "components": [
            {
              "internalType": "uint8",
              "name": "x",
              "type": "uint8"
            },
            {
              "internalType": "uint8",
              "name": "y",
              "type": "uint8"
            }
          ],
          "internalType": "struct Chainship.Position",
          "name": "answerPosition",
          "type": "tuple"
        },
        {
          "internalType": "enum Chainship.Answer",
          "name": "answer",
          "type": "uint8"
        },
        {
          "components": [
            {
              "internalType": "uint8",
              "name": "x",
              "type": "uint8"
            },
            {
              "internalType": "uint8",
              "name": "y",
              "type": "uint8"
            }
          ],
          "internalType": "struct Chainship.Position",
          "name": "shootPosition",
          "type": "tuple"
        }
      ],
      "name": "answerAndShoot",
      "outputs": [],
      "stateMutability": "nonpayable",
      "type": "function"
    },
    {
      "inputs": [
        {
          "internalType": "Chainship.RoomId",
          "name": "roomId",
          "type": "uint256"
        },
        {
          "components": [
            {
              "internalType": "uint8",
              "name": "x",
              "type": "uint8"
            },
            {
              "internalType": "uint8",
              "name": "y",
              "type": "uint8"
            }
          ],
          "internalType": "struct Chainship.Position",
          "name": "position",
          "type": "tuple"
        },
        {
          "internalType": "enum Chainship.Answer",
          "name": "answer",
          "type": "uint8"
        }
      ],
      "name": "answerShot",
      "outputs": [],
      "stateMutability": "nonpayable",
      "type": "function"
    },
    {
      "inputs": [
        {
          "internalType": "uint256",
          "name": "entryFee",
          "type": "uint256"
        }
      ],
      "name": "calculateCommission",
      "outputs": [
        {
          "internalType": "uint256",
          "name": "",
          "type": "uint256"
        }
      ],
      "stateMutability": "pure",
      "type": "function"
    },
    {
      "inputs": [
        {
          "internalType": "Chainship.RoomId",
          "name": "roomId",
          "type": "uint256"
        }
      ],
      "name": "claimDishonest",
      "outputs": [],
      "stateMutability": "nonpayable",
      "type": "function"
    },
    {
      "inputs": [
        {
          "internalType": "Chainship.RoomId",
          "name": "roomId",
          "type": "uint256"
        }
      ],
      "name": "claimIdle",
      "outputs": [],
      "stateMutability": "nonpayable",
      "type": "function"
    },
    {
      "inputs": [
        {
          "internalType": "Chainship.RoomId",
          "name": "roomId",
          "type": "uint256"
        },
        {
          "internalType": "uint256",
          "name": "randomnessCommitment",
          "type": "uint256"
        }
      ],
      "name": "createRoom",
      "outputs": [],
      "stateMutability": "payable",
      "type": "function"
    },
    {
      "inputs": [
        {
          "internalType": "Chainship.RoomId",
          "name": "roomId",
          "type": "uint256"
        }
      ],
      "name": "getRoomInfo",
      "outputs": [
        {
          "internalType": "enum Chainship.RoomStatus",
          "name": "",
          "type": "uint8"
        },
        {
          "internalType": "uint256",
          "name": "",
          "type": "uint256"
        },
        {
          "internalType": "address",
          "name": "",
          "type": "address"
        }
      ],
      "stateMutability": "view",
      "type": "function"
    },
    {
      "inputs": [
        {
          "internalType": "uint256",
          "name": "roomSecret",
          "type": "uint256"
        },
        {
          "internalType": "uint256",
          "name": "randomnessCommitment",
          "type": "uint256"
        }
      ],
      "name": "joinRoom",
      "outputs": [],
      "stateMutability": "payable",
      "type": "function"
    },
    {
      "inputs": [],
      "name": "owner",
      "outputs": [
        {
          "internalType": "address",
          "name": "",
          "type": "address"
        }
      ],
      "stateMutability": "view",
      "type": "function"
    },
    {
      "inputs": [
        {
          "internalType": "Chainship.RoomId",
          "name": "roomId",
          "type": "uint256"
        },
        {
          "internalType": "uint256",
          "name": "boardRandomness",
          "type": "uint256"
        },
        {
          "internalType": "bool[]",
          "name": "board",
          "type": "bool[]"
        },
        {
          "components": [
            {
              "internalType": "uint8",
              "name": "x",
              "type": "uint8"
            },
            {
              "internalType": "uint8",
              "name": "y",
              "type": "uint8"
            }
          ],
          "internalType": "struct Chainship.Position[]",
          "name": "enemyShots",
          "type": "tuple[]"
        },
        {
          "internalType": "enum Chainship.Answer[]",
          "name": "myAnswers",
          "type": "uint8[]"
        }
      ],
      "name": "proveHonesty",
      "outputs": [],
      "stateMutability": "nonpayable",
      "type": "function"
    },
    {
      "inputs": [
        {
          "internalType": "Chainship.RoomId",
          "name": "roomId",
          "type": "uint256"
        },
        {
          "internalType": "uint256",
          "name": "boardRandomness",
          "type": "uint256"
        },
        {
          "internalType": "bool[]",
          "name": "board",
          "type": "bool[]"
        },
        {
          "components": [
            {
              "internalType": "uint8",
              "name": "x",
              "type": "uint8"
            },
            {
              "internalType": "uint8",
              "name": "y",
              "type": "uint8"
            }
          ],
          "internalType": "struct Chainship.Position[]",
          "name": "enemyShots",
          "type": "tuple[]"
        },
        {
          "internalType": "enum Chainship.Answer[]",
          "name": "myAnswers",
          "type": "uint8[]"
        },
        {
          "components": [
            {
              "internalType": "uint8",
              "name": "x",
              "type": "uint8"
            },
            {
              "internalType": "uint8",
              "name": "y",
              "type": "uint8"
            }
          ],
          "internalType": "struct Chainship.Position[]",
          "name": "myShots",
          "type": "tuple[]"
        },
        {
          "internalType": "enum Chainship.Answer[]",
          "name": "enemyAnswers",
          "type": "uint8[]"
        }
      ],
      "name": "proveVictory",
      "outputs": [],
      "stateMutability": "nonpayable",
      "type": "function"
    },
    {
      "inputs": [],
      "name": "renounceOwnership",
      "outputs": [],
      "stateMutability": "nonpayable",
      "type": "function"
    },
    {
      "inputs": [
        {
          "internalType": "uint256",
          "name": "roomSecret",
          "type": "uint256"
        }
      ],
      "name": "roomSecretToId",
      "outputs": [
        {
          "internalType": "Chainship.RoomId",
          "name": "",
          "type": "uint256"
        }
      ],
      "stateMutability": "view",
      "type": "function"
    },
    {
      "inputs": [
        {
          "internalType": "Chainship.RoomId",
          "name": "",
          "type": "uint256"
        }
      ],
      "name": "rooms",
      "outputs": [
        {
          "internalType": "enum Chainship.RoomStatus",
          "name": "status",
          "type": "uint8"
        },
        {
          "internalType": "uint256",
          "name": "entryFee",
          "type": "uint256"
        },
        {
          "internalType": "uint8",
          "name": "whoseTurn",
          "type": "uint8"
        },
        {
          "internalType": "uint256",
          "name": "answerDeadline",
          "type": "uint256"
        }
      ],
      "stateMutability": "view",
      "type": "function"
    },
    {
      "inputs": [
        {
          "internalType": "Chainship.RoomId",
          "name": "roomId",
          "type": "uint256"
        },
        {
          "components": [
            {
              "internalType": "uint8",
              "name": "x",
              "type": "uint8"
            },
            {
              "internalType": "uint8",
              "name": "y",
              "type": "uint8"
            }
          ],
          "internalType": "struct Chainship.Position",
          "name": "position",
          "type": "tuple"
        }
      ],
      "name": "shoot",
      "outputs": [],
      "stateMutability": "nonpayable",
      "type": "function"
    },
    {
      "inputs": [
        {
          "internalType": "Chainship.RoomId",
          "name": "roomId",
          "type": "uint256"
        },
        {
          "internalType": "uint256",
          "name": "boardCommitment",
          "type": "uint256"
        },
        {
          "internalType": "uint256",
          "name": "randomnessDecommitment",
          "type": "uint256"
        }
      ],
      "name": "submitBoard",
      "outputs": [],
      "stateMutability": "nonpayable",
      "type": "function"
    },
    {
      "inputs": [
        {
          "internalType": "address",
          "name": "newOwner",
          "type": "address"
        }
      ],
      "name": "transferOwnership",
      "outputs": [],
      "stateMutability": "nonpayable",
      "type": "function"
    },
    {
      "inputs": [
        {
          "internalType": "uint256",
          "name": "amount",
          "type": "uint256"
        }
      ],
      "name": "withdrawFunds",
      "outputs": [],
      "stateMutability": "nonpayable",
      "type": "function"
    }
  ],
  "bytecode": "0x60c06040523461016a57604051601f61382238819003918201601f19168301916001600160401b0383118484101761013e5780849260209460405283398101031261016a575130156101545760008054306001600160a01b0319821681178355916001600160a01b03909116907f8be0079c531659141344cd1fd0a4f28419497f9722a3daafe3b4186f6b6457e09080a36001805560405160a081016001600160401b0381118282101761013e57604052600081526001602082015260026040820152600160608201526001608082015260009060005b6005811061011a575050600255608052603260a0526040516136b29081610170823960805181818161117f0152611b95015260a0518181816113a101526121160152f35b9091602060019160ff8551169060ff8560031b92831b921b191617930191016100d6565b634e487b7160e01b600052604160045260246000fd5b631e4fbdf760e01b600052600060045260246000fd5b600080fdfe610140604052600436101561001357600080fd5b60003560e01c806307ecba71146115885780630a1c87a9146113c45780630b42943214611389578063155dd5ee146112ec5780631bae0ac8146112915780632ad5e4d61461127a578063625904c81461125c5780636790d2b5146111a25780636cd6eabf146111675780636e209f2c1461104a578063715018a614610fe457806375debaad14610f185780638da5cb5b14610ef15780638efe14fd14610ecf578063a616b06914610eb3578063ab196acd14610d41578063b3a16b1914610bcf578063b9bafb1014610b95578063ba84838214610b79578063c599d89b146108fc578063c841869d14610807578063ce9b4321146107e1578063d38f46631461059c578063d4d91f101461020e578063dc4a3e95146101f25763f2fde38b1461013b57600080fd5b346101ed5760203660031901126101ed576004356001600160a01b0381168091036101ed57610168612180565b80156101be576001600160a01b036000548273ffffffffffffffffffffffffffffffffffffffff19821617600055167f8be0079c531659141344cd1fd0a4f28419497f9722a3daafe3b4186f6b6457e0600080a3005b7f1e4fbdf700000000000000000000000000000000000000000000000000000000600052600060045260246000fd5b600080fd5b346101ed5760003660031901126101ed576020604051600a8152f35b346101ed5760603660031901126101ed5760443560043560243580156105325781600052600360205260406000209060ff825416600781101561051c576002036104d857608061025d83611718565b01514311610494576102773361027284611718565b612070565b93600283019461028781876118fe565b506001810190815461042a578460059255019081546040516020810190858252602081526102b66040826116e0565b519020036103c1576102f86102f26001927f40952b52f743bbd15dd7c9268b98cb4459193027cdb8d6a3d499cb50d7f173f39560609555611861565b886118fe565b500154151592604051908682523360208301526040820152a161031757005b61039e817ffadb9547847a0c2c31f4c02590545e318d33d7aae99071caecf3fa4ce3cd7dca94610399600160076001600160a01b03960154600d85015460405190602082019283526040820152604081526103736060826116e0565b5190201692600e810160ff851660ff19825416179055600360ff19825416178155612114565b6118fe565b50546040805193845291166001600160a01b03166020830152819081015b0390a1005b608460405162461bcd60e51b8152602060048201526024808201527f52616e646f6d6e65737320636f6d6d69746d656e7420646f6573206e6f74206d60448201527f61746368000000000000000000000000000000000000000000000000000000006064820152fd5b608460405162461bcd60e51b815260206004820152602560248201527f596f75206861766520616c7265616479207375626d697474656420796f75722060448201527f626f6172640000000000000000000000000000000000000000000000000000006064820152fd5b606460405162461bcd60e51b815260206004820152601360248201527f446561646c696e652068617320706173736564000000000000000000000000006044820152fd5b606460405162461bcd60e51b815260206004820152601d60248201527f526f6f6d206973206e6f7420696e207468652066756c6c2073746174650000006044820152fd5b634e487b7160e01b600052602160045260246000fd5b608460405162461bcd60e51b815260206004820152602160248201527f426f61726420636f6d6d69746d656e74206d757374206265206e6f6e2d7a657260448201527f6f000000000000000000000000000000000000000000000000000000000000006064820152fd5b346101ed5760a03660031901126101ed5760043560443567ffffffffffffffff81116101ed576105d09036906004016115df565b9160643567ffffffffffffffff81116101ed576105f1903690600401611610565b60849491943567ffffffffffffffff81116101ed576106149036906004016115df565b91846000526003602052604060002096610631336102728a611718565b9060ff895416600781101561051c57600503610777576001946001600160a01b03946106999461067d93898c8e61067360ff600e8301541660ff8b1614611816565b8860243591612323565b875460ff19166006178855610690612145565b600288016118fe565b505416940154908160011b916001600160ff1b0381168103610761576106be90612022565b91828103928184116107615786849160009314610757575b600092839283928392f11561074b577fee97096f32eed49908b904623ae7ba7af58c121e15fe6e7f31ac379fb7ca1a9860407f0b2140d601ef56c537167df622738f7062c329fd471b1f729edfa570296a3c8f966103bc9482519182526020820152a160018055604051938493339085611bf0565b6040513d6000823e3d90fd5b6108fc92506106d6565b634e487b7160e01b600052601160045260246000fd5b608460405162461bcd60e51b815260206004820152602b60248201527f526f6f6d206973206e6f7420696e2074686520646973686f6e6573747920636c60448201527f61696d65642073746174650000000000000000000000000000000000000000006064820152fd5b346101ed5760203660031901126101ed5760206107ff600435612022565b604051908152f35b346101ed576101403660031901126101ed5760043560403660231901126101ed5760643560038110156101ed5760a43567ffffffffffffffff81116101ed576108549036906004016115df565b60c49291923567ffffffffffffffff81116101ed57610877903690600401611610565b60e49291923567ffffffffffffffff81116101ed5761089a9036906004016115df565b916101043567ffffffffffffffff81116101ed576108bc903690600401611610565b959094610124359867ffffffffffffffff8a116101ed576108fa9a6108e86108f19b36906004016115df565b9b909a82611920565b60843590611c47565b005b346101ed5760203660031901126101ed5760043580600052600360205260406000209061092c3361027284611718565b61093581611861565b600f840154431115610b355760ff845416600781101561051c57600281149182610b1a575b600382149160008315610b0c575b8315610af9575b505081610ae5575b508115610add575b5015610a73576001600160a01b036109af600192600660ff198754161786556109a6612145565b600286016118fe565b505416920154908160011b916001600160ff1b0381168103610761576109d490612022565b91828103928184116107615784849160009314610a69575b600092839283928392f11561074b577fee97096f32eed49908b904623ae7ba7af58c121e15fe6e7f31ac379fb7ca1a9860407f294a1cc2e139b7d44dc4130a0e042162f4d48f289fe4e0a40ca50726a9d01ebc946103bc9482519182526020820152a1600180556040805191825233602083015290918291820190565b6108fc92506109ec565b608460405162461bcd60e51b815260206004820152602160248201527f4974206973206e6f7420656e656d792773207475726e20746f20726573706f6e60448201527f64000000000000000000000000000000000000000000000000000000000000006064820152fd5b90508461097f565b905060ff80600e8701541691161485610977565b9091925061051c5760051490868061096f565b506004811492506000610968565b91506001610b2b83600288016118fe565b500154159161095a565b606460405162461bcd60e51b815260206004820152601b60248201527f446561646c696e6520686173206e6f74207061737365642079657400000000006044820152fd5b346101ed5760003660031901126101ed57602060405160058152f35b346101ed5760203660031901126101ed5760043560058110156101ed5760ff610bbf602092611641565b90549060031b1c16604051908152f35b346101ed5760c03660031901126101ed5760043560403660231901126101ed5760643560038110156101ed5760403660831901126101ed57610c119082611920565b80600052600360205260406000209060ff825416600781101561051c576003610c3a911461166f565b610c473361027284611718565b61ffff6001600160a01b03610c75600e860193610c6c60ff86541660ff831614611816565b600287016118fe565b50610cd1600282019687549585610c8d818916611bd0565b168097871916178955610ca76084600386019889546122ab565b8755600460ff1983541617825560ff610cc281835416611861565b1660ff19825416179055612114565b54169354169054926040519283526020830152604082015260843560ff811681036101ed5760ff16606082015260a4359060ff821682036101ed577fb72b4b2c796809161dbc42d5a7e6e0c75042fe6f953c2d35187a16cef28848bf9260ff60c09316608083015260a0820152a1005b60403660031901126101ed57600435610d5934612022565b9081341115610e495780600052600360205260406000209060ff825416600781101561051c57610e05577fcf1eefef99365c71f66cf7d03c056f6d828c32f1023712660c18ee3cd8585cb492608092600160ff19825416178155346001820155600281016001600160a01b03331673ffffffffffffffffffffffffffffffffffffffff1982541617905560076024359101556040519182523360208301523460408301526060820152a1005b606460405162461bcd60e51b815260206004820152601360248201527f526f6f6d20616c726561647920657869737473000000000000000000000000006044820152fd5b608460405162461bcd60e51b815260206004820152602960248201527f456e74727920666565206d7573742062652067726561746572207468616e206360448201527f6f6d6d697373696f6e00000000000000000000000000000000000000000000006064820152fd5b346101ed5760003660031901126101ed57602060405160118152f35b346101ed576108fa610eec610ee3366115b1565b90829392611a99565b611872565b346101ed5760003660031901126101ed5760206001600160a01b0360005416604051908152f35b346101ed5760e03660031901126101ed5760443567ffffffffffffffff81116101ed57610f499036906004016115df565b60643567ffffffffffffffff81116101ed57610f69903690600401611610565b60849391933567ffffffffffffffff81116101ed57610f8c9036906004016115df565b60a49291923567ffffffffffffffff81116101ed57610faf903690600401611610565b93909260c4359767ffffffffffffffff89116101ed57610fd66108fa9936906004016115df565b989097602435600435611c47565b346101ed5760003660031901126101ed57610ffd612180565b60006001600160a01b03815473ffffffffffffffffffffffffffffffffffffffff1981168355167f8be0079c531659141344cd1fd0a4f28419497f9722a3daafe3b4186f6b6457e08280a3005b346101ed5760603660031901126101ed5760043560403660231901126101ed5780600052600360205260406000209060ff825416600781101561051c576003611093911461166f565b6110a03361027284611718565b61ffff6001600160a01b036110c5600e860193610c6c60ff86541660ff831614611816565b506110f76002820196875495856110dd818916611bd0565b168097871916178955610ca76024600386019889546122ab565b54169354169054926040519283526020830152604082015260243560ff811681036101ed5760ff1660608201526044359060ff821682036101ed577fb72b4b2c796809161dbc42d5a7e6e0c75042fe6f953c2d35187a16cef28848bf9260ff60c09316608083015260a0820152a1005b346101ed5760003660031901126101ed5760206040517f00000000000000000000000000000000000000000000000000000000000000008152f35b346101ed5760203660031901126101ed5760043560005260036020526111cb6040600020611718565b8051600781101561051c5715611218578051600781101561051c57816001600160a01b036040602060609501519201515151169061120c60405180946115a4565b60208301526040820152f35b606460405162461bcd60e51b815260206004820152601360248201527f526f6f6d20646f6573206e6f74206578697374000000000000000000000000006044820152fd5b346101ed5760203660031901126101ed5760206107ff600435611b8b565b346101ed576108fa61128b366115b1565b91611a99565b346101ed5760203660031901126101ed5760043560005260036020526080604060002060ff81541690600181015490600f60ff600e83015416910154916112db60405180956115a4565b602084015260408301526060820152f35b346101ed5760203660031901126101ed57600435611308612145565b611310612180565b804710611345576000808080936001600160a01b0382541682821561133c575bf11561074b5760018055005b506108fc611330565b606460405162461bcd60e51b815260206004820152601060248201527f4e6f7420656e6f7567682066756e6473000000000000000000000000000000006044820152fd5b346101ed5760003660031901126101ed5760206040517f00000000000000000000000000000000000000000000000000000000000000008152f35b60403660031901126101ed576113db600435611b8b565b806000526003602052604060002060ff815416600781101561051c5760010361154457600181015434036114da576001600160a01b0360028201541633146114965760088101805473ffffffffffffffffffffffffffffffffffffffff191633179055602435600d820155805460ff191660021781557f7f3a14b18fc64242e1d87bbda3d879ff601bf57224f7daeaf8bf4658bb84da29916103bc9161148090612114565b6040805191825233602083015290918291820190565b606460405162461bcd60e51b815260206004820152601d60248201527f596f752063616e6e6f74206a6f696e20796f7572206f776e20726f6f6d0000006044820152fd5b608460405162461bcd60e51b815260206004820152602d60248201527f456e74727920666565206d75737420626520657175616c20746f20746865207260448201527f6f6f6d20656e74727920666565000000000000000000000000000000000000006064820152fd5b606460405162461bcd60e51b815260206004820152602060248201527f526f6f6d206973206e6f7420696e2074686520637265617465642073746174656044820152fd5b346101ed5760203660031901126101ed576108fa600435611872565b90600782101561051c5752565b9060806003198301126101ed5760406004359260231901126101ed5760249060643560038110156101ed5790565b9181601f840112156101ed5782359167ffffffffffffffff83116101ed576020808501948460051b0101116101ed57565b9181601f840112156101ed5782359167ffffffffffffffff83116101ed576020808501948460061b0101116101ed57565b90600582101561165957601f8260051c600201921690565b634e487b7160e01b600052603260045260246000fd5b1561167657565b608460405162461bcd60e51b815260206004820152602160248201527f526f6f6d206973206e6f7420696e207468652073686f6f74696e67207374617460448201527f65000000000000000000000000000000000000000000000000000000000000006064820152fd5b90601f8019910116810190811067ffffffffffffffff82111761170257604052565b634e487b7160e01b600052604160045260246000fd5b9060405160a0810181811067ffffffffffffffff82111761170257604052809260ff815416600781101561051c578252600181015460208301526040516040810181811067ffffffffffffffff82111761170257604052600282016000825b600282106117a157505050608091600f91604085015260ff600e8201541660608501520154910152565b60405160c0810181811067ffffffffffffffff821117611702576001926006926020926040526001600160a01b038754168152848701548382015261ffff60028801541660408201526003870154606082015260048701546080820152600587015460a0820152815201930191019091611777565b1561181d57565b606460405162461bcd60e51b815260206004820152601360248201527f4974206973206e6f7420796f7572207475726e000000000000000000000000006044820152fd5b60ff166001039060ff821161076157565b806000526003602052604060002060ff81541691600783101561051c576114806118f9926118c360037f674b1399cdd04131b1014fb0ad914c308eb69bac11c79cf09e05ce410863ce2e961461166f565b6118d03361027283611718565b60ff610cc2600e8401926118ea8385541684831614611816565b60058319865416178555611861565b0390a1565b906002811015611659576006020190600090565b359060ff821682036101ed57565b9081600052600360205260406000209160ff835416600781101561051c57600403611a2f576119523361027285611718565b9261ffff6001600160a01b0361197f6002840161197961197289836118fe565b5098611861565b906118fe565b50956119b260048201946119a0886024600289549c019b888d54169061221b565b8655805460ff19166003178155612114565b54169454169054936040519283526020830152604082015260243560ff811681036101ed5760ff16606082015260443560ff811681036101ed5760ff166080820152600382101561051c577ffd7d6dcab3c23e806913769df4816e3d1fb4edb3917bf3f256cd1365cbeddc079260e09260a083015260c0820152a1565b608460405162461bcd60e51b815260206004820152602260248201527f526f6f6d206973206e6f7420696e2074686520616e73776572696e672073746160448201527f74650000000000000000000000000000000000000000000000000000000000006064820152fd5b91909180600052600360205260406000209260ff845416600781101561051c57600403611a2f5761ffff93846001600160a01b03611ada3361027285611718565b611b14611af860028601611979611af185836118fe565b5094611861565b50946119a08988600486019860028a5491019d8e54169061221b565b541695541690549460405193845260208401526040830152602060ff611b4c82606086019483611b4382611912565b16865201611912565b16910152600382101561051c577ffd7d6dcab3c23e806913769df4816e3d1fb4edb3917bf3f256cd1365cbeddc079260e09260a083015260c0820152a1565b60405160208101917f00000000000000000000000000000000000000000000000000000000000000008352604082015260408152611bca6060826116e0565b51902090565b61ffff1661ffff81146107615760010190565b359081151582036101ed57565b9081526001600160a01b0391909116602082015260606040820181905281018390526080019160005b818110611c265750505090565b909192602080600192611c3887611be3565b15158152019401929101611c19565b94969091959b9792939a9b856000526003602052604060002097611c6e336102728b611718565b9c60ff8a541694600786101561051c57898f918992611c926003611c989a1461166f565b8d612323565b6000998a98611ca76064613089565b988a5b818110611f4057505050505060009860005b875161ffff821690811015611cfe57611cd59089613130565b51611ce9575b611ce490611bd0565b611cbc565b99611cf6611ce491611bd0565b9a9050611cdb565b505093979296919550939761ffff6011911603611ed65760028701926003611d2684866118fe565b50015403611e92576004611d42611d3c84611861565b856118fe565b50015403611e2857611d6c6001600160a01b0391600193600660ff198a5416178955610399612145565b505416940154908160011b916001600160ff1b038116810361076157611d9190612022565b91828103928184116107615786849160009314611e1e575b600092839283928392f11561074b577fee97096f32eed49908b904623ae7ba7af58c121e15fe6e7f31ac379fb7ca1a9860407f53fc172dda2ed0176623bbca3c936bb2d85537947a5e23dd077b579ae1bf155c966118f99482519182526020820152a160018055604051938493339085611bf0565b6108fc9250611da9565b608460405162461bcd60e51b815260206004820152602160248201527f416e737765727320646f6e2774206d6174636820656e656d7920616e7377657260448201527f73000000000000000000000000000000000000000000000000000000000000006064820152fd5b606460405162461bcd60e51b815260206004820152601a60248201527f53686f747320646f6e2774206d61746368206d792073686f74730000000000006044820152fd5b608460405162461bcd60e51b815260206004820152603760248201527f4e756d626572206f662073686970206869747320646f6573206e6f74206d617460448201527f6368206e756d626572206f6620736869702070617274730000000000000000006064820152fd5b6001819e9c9e019b8c821161076157611f65908d611f5f84868a6130bb565b916122ab565b9d60009c611f748385896130bb565b90611f808488886130cb565b3592600384101561201e5790611f9793929161221b565b9b611fd8611fb960ff611fb3611fae86888c6130bb565b6121c2565b166130db565b60ff611fd16020611fcb87898d6130bb565b016121c2565b169061311a565b90611fe48387876130cb565b3590600382101561201b5750600192918d91612003575b505001611caa565b839161ffff612013921690613130565b528b38611ffb565b80fd5b8f80fd5b1561202c57600090565b606460405162461bcd60e51b815260206004820152602060248201527f456e74727920666565206d7573742062652067726561746572207468616e20306044820152fd5b604001805151516001600160a01b0392831692168203612091575050600090565b5160200151516001600160a01b0316036120aa57600190565b608460405162461bcd60e51b815260206004820152602160248201527f596f7520617265206e6f74206120706c6179657220696e207468697320726f6f60448201527f6d000000000000000000000000000000000000000000000000000000000000006064820152fd5b7f000000000000000000000000000000000000000000000000000000000000000043019081431161076157600f0155565b600260015414612156576002600155565b7f3ee5aeb50000000000000000000000000000000000000000000000000000000060005260046000fd5b6001600160a01b0360005416330361219457565b7f118cdaa7000000000000000000000000000000000000000000000000000000006000523360045260246000fd5b3560ff811681036101ed5790565b156121d757565b606460405162461bcd60e51b815260206004820152601060248201527f496e76616c696420706f736974696f6e000000000000000000000000000000006044820152fd5b929091600a60ff61222b836121c2565b16108061228e575b61223c906121d0565b60ff61225560208261224d856121c2565b1693016121c2565b1690600383101561051c57604051936020850195865260408501526060840152608083015260a082015260a08152611bca60c0826116e0565b5061223c600a60ff6122a2602085016121c2565b16109050612233565b91600a60ff6122b9836121c2565b161080612306575b6122ca906121d0565b60ff6122db60208261224d856121c2565b1690604051926020840194855260408401526060830152608082015260808152611bca60a0826116e0565b506122ca600a60ff61231a602085016121c2565b161090506122c1565b9195989493909297969760805260c05261234860ff600e8301541660ff841614611816565b606460a05260c05160631901613016576040519661236760c0896116e0565b6005885260a03660208a013761237e60c051613089565b986000610100525b600a60ff61010051161015612ab057969492909593916000610120525b600a60ff61012051161015612a96576123d060ff61012051166123cb60ff61010051166130db565b61311a565b60e05261ffff60e051166123e4818c613130565b5115801590612a7d575b612a70576123fe6001918c613130565b52600a60ff61240f61012051613151565b16109687612a54575b600a60ff61242861010051613151565b16109788612a38575b888180612a31575b6129eb571590816129e2575b506129d9575b600197156127825760ff61010051166126e3575b600998975b8b60c05161ffff61248260ff6124798661305c565b1660e05161311a565b1610806126c6575b15612555579060016124b16124ee9361ffff6124aa60ff6124798761305c565b1690613130565b526101205160ff16801590612532575b6124ca90613212565b6101205160ff908116908c1681811491036124f3575b6124e9906133e5565b613363565b612464565b506124e961252a61252561ffff61251961250e60e0516130f2565b60ff611fd18861305c565b1660c0516080516130cb565b613144565b1590506124e0565b506124ca61254d61252561ffff61251961250e60e05161318c565b1590506124c1565b5060ff91939597999892949698600a836125728461010051613163565b161061261a575b505b16600581116125d4576000190160ff81116107615760ff6125b56125ae826125a7818f96168096613130565b5116613363565b928c613130565b911690525b60ff600161012051011661012052969492909593916123a3565b60405162461bcd60e51b815260206004820152601760248201527f53686970206c656e67746820697320746f6f206c6f6e67000000000000000000604482015260a05190fd5b61012051831680159061269c575b6126319061325d565b61265061264a61252561ffff612519876124798861305c565b15613318565b6101205183169083168181149103612672575b61266c90613430565b38612579565b5061266c61269461252561ffff61251961268f876124798861305c565b6130f2565b159050612663565b506126316126be61252561ffff6125196126b9886124798961305c565b61318c565b159050612628565b506126de61252561ffff61251960ff6124798761305c565b61248a565b60ff610120511615801561275f575b6126fb906131a1565b61271861271261252561ffff61251960e051613177565b156132cd565b6101205160ff166009148015612737575b61273290613374565b61245f565b5061273261275761252561ffff61251961275260e0516130f2565b613177565b159050612729565b506126fb61277a61252561ffff6125196126b960e051613177565b1590506126f2565b60ff610120511661293f575b600998975b8b60c05161ffff6127a960ff851660e05161311a565b161080612921575b1561284f579060016127d261280a9361ffff6124aa60ff861660e05161311a565b526101005160ff1680159061282f575b6127eb906132cd565b6101005160ff908116908c16818114910361280f575b6124e990613318565b612793565b506124e961282761252561ffff61251960e051613106565b159050612801565b506127eb61284761252561ffff61251960e051613177565b1590506127e2565b5060ff91939597999892949698600a8361286c8461012051613163565b1610612879575b5061257b565b610100516128cf919084168015906128fb575b61289590613374565b8383166128b66128b061252561ffff6125198560e05161311a565b156133e5565b61010051851691851682811492036128d5575b50613430565b38612873565b6128f4915061ffff6125196128ef6125259360e05161311a565b613106565b15386128c9565b5061289561291961252561ffff61251961275289891660e05161311a565b15905061288c565b5061293a61252561ffff61251960ff861660e05161311a565b6127b1565b60ff61010051161580156129b6575b612957906131a1565b61297461296e61252561ffff61251960e05161318c565b15613212565b6101005160ff166009148015612993575b61298e9061325d565b61278e565b5061298e6129ae61252561ffff6125196126b960e051613106565b159050612985565b506129576129d161252561ffff6125196126b960e051613177565b15905061294e565b6001975061244b565b90501538612445565b60405162461bcd60e51b815260206004820152602060248201527f496e76616c6964207368697020706c6163656d656e7420284c2d736861706529604482015260a05190fd5b5080612439565b9750612a4e61252561ffff61251960e051613106565b97612431565b9650612a6a61252561ffff61251960e0516130f2565b96612418565b50919395909294966125ba565b50612a906125258260c0516080516130cb565b156123ee565b9193959092949660ff600161010051011661010052612386565b9091929394959796985060005b60ff81166005811015612b4157612ad660ff918a613130565b511660ff612ae383611641565b90549060031b1c1603612afb5760010160ff16612abd565b60405162461bcd60e51b815260206004820152601260248201527f496e76616c6964207368697020636f756e740000000000000000000000000000604482015260a05190fd5b5050929550929596909396604051602081019182526040810160805160005b60c0518110612ff757505090612b82816002949303601f1981018352826116e0565b5190209401936001612b9487876118fe565b50015403612fb1576000926000968790838503612f4657612bb660c051613089565b90895b868110612c8557505050505050506003612bdb612bd585611861565b846118fe565b50015403612c3f57600491612bef916118fe565b50015403612bf957565b60405162461bcd60e51b815260206004820152601e60248201527f416e737765727320646f6e2774206d61746368206d7920616e73776572730000604482015260a05190fd5b60405162461bcd60e51b815260206004820152601d60248201527f53686f747320646f6e2774206d6174636820656e656d792073686f7473000000604482015260a05190fd5b600181019a978b821161076157612ca2908c611f5f848b876130bb565b9760009b612cb1838a866130bb565b90612cbd848a8a6130cb565b35926003841015612f425790612cd493929161221b565b9a612ce08289856130bb565b612ce9906121c2565b60ff16612cf5906130db565b612d00838a866130bb565b602001612d0c906121c2565b60ff16612d189161311a565b61ffff811660c0518160805191612d2e926130cb565b612d3790613144565b612dcd575050612d488288886130cb565b3590600382101561201b5750612d62576001905b01612bb9565b608460405162461bcd60e51b815260206004820152602d60248201527f4d69737365642073686f742063616e6e6f7420626520616e737765726564206160448201527f7320686974206f722073756e6b0000000000000000000000000000000000000060a051820152fd5b612dd78187613130565b5115612f24575b906001612dee612dfb9388613130565b528560c0516080516134a1565b15612e9257612e0b8288886130cb565b3590600382101561201b575060011901612e2757600190612d5c565b608460405162461bcd60e51b815260206004820152602a60248201527f536869702063616e6e6f742062652073756e6b20696620697420686173206e6f60448201527f74206265656e206869740000000000000000000000000000000000000000000060a051820152fd5b612e9d8288886130cb565b3590600382101561201b575060001901612eb957600190612d5c565b608460405162461bcd60e51b815260206004820152603060248201527f53686970206d7573742062652073756e6b20696620616c6c206974732070617260448201527f74732068617665206265656e206869740000000000000000000000000000000060a051820152fd5b95906001612dee612f37612dfb94611bd0565b989293505050612dde565b8e80fd5b608460405162461bcd60e51b815260206004820152602b60248201527f53686f747320616e6420616e7377657273206d7573742068617665207468652060448201527f73616d65206c656e67746800000000000000000000000000000000000000000060a051820152fd5b60405162461bcd60e51b815260206004820152601f60248201527f426f61726420636f6d6d69746d656e7420646f6573206e6f74206d6174636800604482015260a05190fd5b909160208060019261300886611be3565b151581520193019101612b60565b60405162461bcd60e51b815260206004820152601260248201527f496e76616c696420626f6172642073697a650000000000000000000000000000604482015260a05190fd5b60ff600a9116029060ff821691820361076157565b67ffffffffffffffff81116117025760051b60200190565b9061309382613071565b6130a060405191826116e0565b82815280926130b1601f1991613071565b0190602036910137565b91908110156116595760061b0190565b91908110156116595760051b0190565b61ffff600a9116029061ffff821691820361076157565b61ffff60019116019061ffff821161076157565b61ffff600a9116019061ffff821161076157565b9061ffff8091169116019061ffff821161076157565b80518210156116595760209160051b010190565b3580151581036101ed5790565b60ff60019116019060ff821161076157565b9060ff8091169116019060ff821161076157565b61ffff6009199116019061ffff821161076157565b61ffff6000199116019061ffff821161076157565b156131a857565b608460405162461bcd60e51b815260206004820152602160248201527f496e76616c6964207368697020706c6163656d656e742028746f702d6c65667460448201527f29000000000000000000000000000000000000000000000000000000000000006064820152fd5b1561321957565b606460405162461bcd60e51b815260206004820152601d60248201527f496e76616c6964207368697020706c6163656d656e7420286c656674290000006044820152fd5b1561326457565b608460405162461bcd60e51b8152602060048201526024808201527f496e76616c6964207368697020706c6163656d656e742028626f74746f6d2d6c60448201527f65667429000000000000000000000000000000000000000000000000000000006064820152fd5b156132d457565b606460405162461bcd60e51b815260206004820152601c60248201527f496e76616c6964207368697020706c6163656d656e742028746f7029000000006044820152fd5b1561331f57565b606460405162461bcd60e51b815260206004820152601f60248201527f496e76616c6964207368697020706c6163656d656e742028626f74746f6d29006044820152fd5b60ff1660ff81146107615760010190565b1561337b57565b608460405162461bcd60e51b815260206004820152602260248201527f496e76616c6964207368697020706c6163656d656e742028746f702d7269676860448201527f74290000000000000000000000000000000000000000000000000000000000006064820152fd5b156133ec57565b606460405162461bcd60e51b815260206004820152601e60248201527f496e76616c6964207368697020706c6163656d656e74202872696768742900006044820152fd5b1561343757565b608460405162461bcd60e51b815260206004820152602560248201527f496e76616c6964207368697020706c6163656d656e742028626f74746f6d2d7260448201527f69676874290000000000000000000000000000000000000000000000000000006064820152fd5b91906134ac846130f2565b61ffff81811690600a820616151580613668575b156134ed576134cf9084613130565b51156134e3576134de90611bd0565b6134ac565b5050505050600090565b5050929161ffff831693846135da575b60649361350981613106565b61ffff8116868110806135c6575b15613546576135269086613130565b511561353a5761353590613106565b613509565b50505050505050600090565b50509194600a919450101561355f575b50505050600190565b61356890613177565b61ffff811661357b6125258286886130cb565b156135bc5761358a8184613130565b51156134e357600a116135ae576125256135a661357b92613177565b915050613568565b505050505b38808080613556565b50505050506135b3565b506135d56125258286886130cb565b613517565b939291906135e78361318c565b600995905b61ffff81811690600a82061688141580613654575b15613647576136108186613130565b511561363a571561362e5761ffff16801561076157600019016135ec565b509091929394506134fd565b5050505050505050600090565b50509091929394506134fd565b506136636125258285876130cb565b613601565b506136776125258285886130cb565b6134c056fea2646970667358221220fc6f6e1108d7225245d362c302ed0114198a3341d886c431899b164d87b55c7e64736f6c634300081c0033",
  "linkReferences": {},
  "deployedLinkReferences": {}
}