{
  "_format": "hh-sol-artifact-1",
  "contractName": "ChainshipImplementation",
  "sourceName": "contracts/Chainship.sol",
  "abi": [
    {
      "inputs": [
        {
          "internalType": "uint256",
          "name": "contractSeed",
          "type": "uint256"
        }
      ],
      "stateMutability": "nonpayable",
      "type": "constructor"
    },
    {
      "anonymous": false,
      "inputs": [
        {
          "indexed": false,
          "internalType": "Chainship.RoomId",
          "name": "roomId",
          "type": "uint256"
        },
        {
          "indexed": false,
          "internalType": "address",
          "name": "player",
          "type": "address"
        },
        {
          "indexed": false,
          "internalType": "uint256",
          "name": "boardCommitment",
          "type": "uint256"
        }
      ],
      "name": "BoardSubmitted",
      "type": "event"
    },
    {
      "anonymous": false,
      "inputs": [
        {
          "indexed": false,
          "internalType": "Chainship.RoomId",
          "name": "roomId",
          "type": "uint256"
        },
        {
          "indexed": false,
          "internalType": "address",
          "name": "player1",
          "type": "address"
        },
        {
          "indexed": false,
          "internalType": "uint256",
          "name": "entryFee",
          "type": "uint256"
        },
        {
          "indexed": false,
          "internalType": "uint256",
          "name": "commission",
          "type": "uint256"
        }
      ],
      "name": "CreatedRoom",
      "type": "event"
    },
    {
      "anonymous": false,
      "inputs": [
        {
          "indexed": false,
          "internalType": "Chainship.RoomId",
          "name": "roomId",
          "type": "uint256"
        },
        {
          "indexed": false,
          "internalType": "address",
          "name": "player",
          "type": "address"
        }
      ],
      "name": "DishonestyClaimed",
      "type": "event"
    },
    {
      "anonymous": false,
      "inputs": [
        {
          "indexed": false,
          "internalType": "Chainship.RoomId",
          "name": "roomId",
          "type": "uint256"
        },
        {
          "indexed": false,
          "internalType": "address",
          "name": "startingPlayer",
          "type": "address"
        }
      ],
      "name": "GameStarted",
      "type": "event"
    },
    {
      "anonymous": false,
      "inputs": [
        {
          "indexed": false,
          "internalType": "Chainship.RoomId",
          "name": "roomId",
          "type": "uint256"
        },
        {
          "indexed": false,
          "internalType": "address",
          "name": "player",
          "type": "address"
        },
        {
          "indexed": false,
          "internalType": "bool[]",
          "name": "board",
          "type": "bool[]"
        }
      ],
      "name": "HonestyProven",
      "type": "event"
    },
    {
      "anonymous": false,
      "inputs": [
        {
          "indexed": false,
          "internalType": "Chainship.RoomId",
          "name": "roomId",
          "type": "uint256"
        },
        {
          "indexed": false,
          "internalType": "address",
          "name": "player",
          "type": "address"
        }
      ],
      "name": "IdleClaimed",
      "type": "event"
    },
    {
      "anonymous": false,
      "inputs": [
        {
          "indexed": false,
          "internalType": "Chainship.RoomId",
          "name": "roomId",
          "type": "uint256"
        },
        {
          "indexed": false,
          "internalType": "address",
          "name": "player2",
          "type": "address"
        }
      ],
      "name": "JoinedRoom",
      "type": "event"
    },
    {
      "anonymous": false,
      "inputs": [
        {
          "indexed": false,
          "internalType": "address",
          "name": "player",
          "type": "address"
        },
        {
          "indexed": false,
          "internalType": "uint256",
          "name": "prize",
          "type": "uint256"
        }
      ],
      "name": "PrizeReceived",
      "type": "event"
    },
    {
      "anonymous": false,
      "inputs": [
        {
          "indexed": false,
          "internalType": "Chainship.RoomId",
          "name": "roomId",
          "type": "uint256"
        },
        {
          "indexed": false,
          "internalType": "address",
          "name": "player",
          "type": "address"
        },
        {
          "indexed": false,
          "internalType": "uint256",
          "name": "noShots",
          "type": "uint256"
        },
        {
          "components": [
            {
              "internalType": "uint8",
              "name": "x",
              "type": "uint8"
            },
            {
              "internalType": "uint8",
              "name": "y",
              "type": "uint8"
            }
          ],
          "indexed": false,
          "internalType": "struct Chainship.Position",
          "name": "position",
          "type": "tuple"
        },
        {
          "indexed": false,
          "internalType": "enum Chainship.Answer",
          "name": "answer",
          "type": "uint8"
        },
        {
          "indexed": false,
          "internalType": "uint256",
          "name": "newAnswersCommitment",
          "type": "uint256"
        }
      ],
      "name": "ShotAnswered",
      "type": "event"
    },
    {
      "anonymous": false,
      "inputs": [
        {
          "indexed": false,
          "internalType": "Chainship.RoomId",
          "name": "roomId",
          "type": "uint256"
        },
        {
          "indexed": false,
          "internalType": "address",
          "name": "player",
          "type": "address"
        },
        {
          "indexed": false,
          "internalType": "uint256",
          "name": "noShots",
          "type": "uint256"
        },
        {
          "components": [
            {
              "internalType": "uint8",
              "name": "x",
              "type": "uint8"
            },
            {
              "internalType": "uint8",
              "name": "y",
              "type": "uint8"
            }
          ],
          "indexed": false,
          "internalType": "struct Chainship.Position",
          "name": "position",
          "type": "tuple"
        },
        {
          "indexed": false,
          "internalType": "uint256",
          "name": "newShotsCommitment",
          "type": "uint256"
        }
      ],
      "name": "ShotTaken",
      "type": "event"
    },
    {
      "anonymous": false,
      "inputs": [
        {
          "indexed": false,
          "internalType": "Chainship.RoomId",
          "name": "roomId",
          "type": "uint256"
        },
        {
          "indexed": false,
          "internalType": "address",
          "name": "player",
          "type": "address"
        },
        {
          "indexed": false,
          "internalType": "bool[]",
          "name": "board",
          "type": "bool[]"
        }
      ],
      "name": "VictoryProven",
      "type": "event"
    },
    {
      "inputs": [],
      "name": "BOARD_SIZE",
      "outputs": [
        {
          "internalType": "uint8",
          "name": "",
          "type": "uint8"
        }
      ],
      "stateMutability": "view",
      "type": "function"
    },
    {
      "inputs": [],
      "name": "CONTRACT_SEED",
      "outputs": [
        {
          "internalType": "uint256",
          "name": "",
          "type": "uint256"
        }
      ],
      "stateMutability": "view",
      "type": "function"
    },
    {
      "inputs": [],
      "name": "DEADLINE_BLOCK_TIME",
      "outputs": [
        {
          "internalType": "uint256",
          "name": "",
          "type": "uint256"
        }
      ],
      "stateMutability": "view",
      "type": "function"
    },
    {
      "inputs": [],
      "name": "MAX_SHIP_LENGTH",
      "outputs": [
        {
          "internalType": "uint8",
          "name": "",
          "type": "uint8"
        }
      ],
      "stateMutability": "view",
      "type": "function"
    },
    {
      "inputs": [
        {
          "internalType": "uint256",
          "name": "",
          "type": "uint256"
        }
      ],
      "name": "SHIP_COUNTS",
      "outputs": [
        {
          "internalType": "uint8",
          "name": "",
          "type": "uint8"
        }
      ],
      "stateMutability": "view",
      "type": "function"
    },
    {
      "inputs": [],
      "name": "TOTAL_SHIP_PARTS",
      "outputs": [
        {
          "internalType": "uint16",
          "name": "",
          "type": "uint16"
        }
      ],
      "stateMutability": "view",
      "type": "function"
    },
    {
      "inputs": [
        {
          "internalType": "Chainship.RoomId",
          "name": "roomId",
          "type": "uint256"
        },
        {
          "components": [
            {
              "internalType": "uint8",
              "name": "x",
              "type": "uint8"
            },
            {
              "internalType": "uint8",
              "name": "y",
              "type": "uint8"
            }
          ],
          "internalType": "struct Chainship.Position",
          "name": "answerPosition",
          "type": "tuple"
        },
        {
          "internalType": "enum Chainship.Answer",
          "name": "answer",
          "type": "uint8"
        }
      ],
      "name": "answerAndClaimDishonest",
      "outputs": [],
      "stateMutability": "nonpayable",
      "type": "function"
    },
    {
      "inputs": [
        {
          "internalType": "Chainship.RoomId",
          "name": "roomId",
          "type": "uint256"
        },
        {
          "components": [
            {
              "internalType": "uint8",
              "name": "x",
              "type": "uint8"
            },
            {
              "internalType": "uint8",
              "name": "y",
              "type": "uint8"
            }
          ],
          "internalType": "struct Chainship.Position",
          "name": "answerPosition",
          "type": "tuple"
        },
        {
          "internalType": "enum Chainship.Answer",
          "name": "answer",
          "type": "uint8"
        },
        {
          "internalType": "uint256",
          "name": "boardRandomness",
          "type": "uint256"
        },
        {
          "internalType": "bool[]",
          "name": "board",
          "type": "bool[]"
        },
        {
          "components": [
            {
              "internalType": "uint8",
              "name": "x",
              "type": "uint8"
            },
            {
              "internalType": "uint8",
              "name": "y",
              "type": "uint8"
            }
          ],
          "internalType": "struct Chainship.Position[]",
          "name": "enemyShots",
          "type": "tuple[]"
        },
        {
          "internalType": "enum Chainship.Answer[]",
          "name": "myAnswers",
          "type": "uint8[]"
        },
        {
          "components": [
            {
              "internalType": "uint8",
              "name": "x",
              "type": "uint8"
            },
            {
              "internalType": "uint8",
              "name": "y",
              "type": "uint8"
            }
          ],
          "internalType": "struct Chainship.Position[]",
          "name": "myShots",
          "type": "tuple[]"
        },
        {
          "internalType": "enum Chainship.Answer[]",
          "name": "enemyAnswers",
          "type": "uint8[]"
        }
      ],
      "name": "answerAndClaimVictory",
      "outputs": [],
      "stateMutability": "nonpayable",
      "type": "function"
    },
    {
      "inputs": [
        {
          "internalType": "Chainship.RoomId",
          "name": "roomId",
          "type": "uint256"
        },
        {
          "components": [
            {
              "internalType": "uint8",
              "name": "x",
              "type": "uint8"
            },
            {
              "internalType": "uint8",
              "name": "y",
              "type": "uint8"
            }
          ],
          "internalType": "struct Chainship.Position",
          "name": "answerPosition",
          "type": "tuple"
        },
        {
          "internalType": "enum Chainship.Answer",
          "name": "answer",
          "type": "uint8"
        },
        {
          "components": [
            {
              "internalType": "uint8",
              "name": "x",
              "type": "uint8"
            },
            {
              "internalType": "uint8",
              "name": "y",
              "type": "uint8"
            }
          ],
          "internalType": "struct Chainship.Position",
          "name": "shootPosition",
          "type": "tuple"
        }
      ],
      "name": "answerAndShoot",
      "outputs": [],
      "stateMutability": "nonpayable",
      "type": "function"
    },
    {
      "inputs": [
        {
          "internalType": "Chainship.RoomId",
          "name": "roomId",
          "type": "uint256"
        },
        {
          "components": [
            {
              "internalType": "uint8",
              "name": "x",
              "type": "uint8"
            },
            {
              "internalType": "uint8",
              "name": "y",
              "type": "uint8"
            }
          ],
          "internalType": "struct Chainship.Position",
          "name": "position",
          "type": "tuple"
        },
        {
          "internalType": "enum Chainship.Answer",
          "name": "answer",
          "type": "uint8"
        }
      ],
      "name": "answerShot",
      "outputs": [],
      "stateMutability": "nonpayable",
      "type": "function"
    },
    {
      "inputs": [
        {
          "internalType": "uint256",
          "name": "entryFee",
          "type": "uint256"
        }
      ],
      "name": "calculateCommission",
      "outputs": [
        {
          "internalType": "uint256",
          "name": "",
          "type": "uint256"
        }
      ],
      "stateMutability": "pure",
      "type": "function"
    },
    {
      "inputs": [
        {
          "internalType": "Chainship.RoomId",
          "name": "roomId",
          "type": "uint256"
        }
      ],
      "name": "claimDishonest",
      "outputs": [],
      "stateMutability": "nonpayable",
      "type": "function"
    },
    {
      "inputs": [
        {
          "internalType": "Chainship.RoomId",
          "name": "roomId",
          "type": "uint256"
        }
      ],
      "name": "claimIdle",
      "outputs": [],
      "stateMutability": "nonpayable",
      "type": "function"
    },
    {
      "inputs": [
        {
          "internalType": "Chainship.RoomId",
          "name": "roomId",
          "type": "uint256"
        },
        {
          "internalType": "uint256",
          "name": "randomnessCommitment",
          "type": "uint256"
        }
      ],
      "name": "createRoom",
      "outputs": [],
      "stateMutability": "payable",
      "type": "function"
    },
    {
      "inputs": [
        {
          "internalType": "Chainship.RoomId",
          "name": "roomId",
          "type": "uint256"
        }
      ],
      "name": "getRoomInfo",
      "outputs": [
        {
          "internalType": "enum Chainship.RoomStatus",
          "name": "",
          "type": "uint8"
        },
        {
          "internalType": "uint256",
          "name": "",
          "type": "uint256"
        },
        {
          "internalType": "address",
          "name": "",
          "type": "address"
        }
      ],
      "stateMutability": "view",
      "type": "function"
    },
    {
      "inputs": [
        {
          "internalType": "uint256",
          "name": "roomSecret",
          "type": "uint256"
        },
        {
          "internalType": "uint256",
          "name": "randomnessCommitment",
          "type": "uint256"
        }
      ],
      "name": "joinRoom",
      "outputs": [],
      "stateMutability": "payable",
      "type": "function"
    },
    {
      "inputs": [
        {
          "internalType": "Chainship.RoomId",
          "name": "roomId",
          "type": "uint256"
        },
        {
          "internalType": "uint256",
          "name": "boardRandomness",
          "type": "uint256"
        },
        {
          "internalType": "bool[]",
          "name": "board",
          "type": "bool[]"
        },
        {
          "components": [
            {
              "internalType": "uint8",
              "name": "x",
              "type": "uint8"
            },
            {
              "internalType": "uint8",
              "name": "y",
              "type": "uint8"
            }
          ],
          "internalType": "struct Chainship.Position[]",
          "name": "enemyShots",
          "type": "tuple[]"
        },
        {
          "internalType": "enum Chainship.Answer[]",
          "name": "myAnswers",
          "type": "uint8[]"
        }
      ],
      "name": "proveHonesty",
      "outputs": [],
      "stateMutability": "nonpayable",
      "type": "function"
    },
    {
      "inputs": [
        {
          "internalType": "Chainship.RoomId",
          "name": "roomId",
          "type": "uint256"
        },
        {
          "internalType": "uint256",
          "name": "boardRandomness",
          "type": "uint256"
        },
        {
          "internalType": "bool[]",
          "name": "board",
          "type": "bool[]"
        },
        {
          "components": [
            {
              "internalType": "uint8",
              "name": "x",
              "type": "uint8"
            },
            {
              "internalType": "uint8",
              "name": "y",
              "type": "uint8"
            }
          ],
          "internalType": "struct Chainship.Position[]",
          "name": "enemyShots",
          "type": "tuple[]"
        },
        {
          "internalType": "enum Chainship.Answer[]",
          "name": "myAnswers",
          "type": "uint8[]"
        },
        {
          "components": [
            {
              "internalType": "uint8",
              "name": "x",
              "type": "uint8"
            },
            {
              "internalType": "uint8",
              "name": "y",
              "type": "uint8"
            }
          ],
          "internalType": "struct Chainship.Position[]",
          "name": "myShots",
          "type": "tuple[]"
        },
        {
          "internalType": "enum Chainship.Answer[]",
          "name": "enemyAnswers",
          "type": "uint8[]"
        }
      ],
      "name": "proveVictory",
      "outputs": [],
      "stateMutability": "nonpayable",
      "type": "function"
    },
    {
      "inputs": [
        {
          "internalType": "uint256",
          "name": "roomSecret",
          "type": "uint256"
        }
      ],
      "name": "roomSecretToId",
      "outputs": [
        {
          "internalType": "Chainship.RoomId",
          "name": "",
          "type": "uint256"
        }
      ],
      "stateMutability": "view",
      "type": "function"
    },
    {
      "inputs": [
        {
          "internalType": "Chainship.RoomId",
          "name": "",
          "type": "uint256"
        }
      ],
      "name": "rooms",
      "outputs": [
        {
          "internalType": "enum Chainship.RoomStatus",
          "name": "status",
          "type": "uint8"
        },
        {
          "internalType": "uint256",
          "name": "entryFee",
          "type": "uint256"
        },
        {
          "internalType": "uint8",
          "name": "whoseTurn",
          "type": "uint8"
        },
        {
          "internalType": "uint256",
          "name": "answerDeadline",
          "type": "uint256"
        }
      ],
      "stateMutability": "view",
      "type": "function"
    },
    {
      "inputs": [
        {
          "internalType": "Chainship.RoomId",
          "name": "roomId",
          "type": "uint256"
        },
        {
          "components": [
            {
              "internalType": "uint8",
              "name": "x",
              "type": "uint8"
            },
            {
              "internalType": "uint8",
              "name": "y",
              "type": "uint8"
            }
          ],
          "internalType": "struct Chainship.Position",
          "name": "position",
          "type": "tuple"
        }
      ],
      "name": "shoot",
      "outputs": [],
      "stateMutability": "nonpayable",
      "type": "function"
    },
    {
      "inputs": [
        {
          "internalType": "Chainship.RoomId",
          "name": "roomId",
          "type": "uint256"
        },
        {
          "internalType": "uint256",
          "name": "boardCommitment",
          "type": "uint256"
        },
        {
          "internalType": "uint256",
          "name": "randomnessDecommitment",
          "type": "uint256"
        }
      ],
      "name": "submitBoard",
      "outputs": [],
      "stateMutability": "nonpayable",
      "type": "function"
    }
  ],
  "bytecode": "0x60c06040523461010557604051601f6133bd38819003918201601f19168301916001600160401b038311848410176100ef57808492602094604052833981010312610105575160405160a081016001600160401b038111828210176100ef57604052600081526001602082015260026040820152600160608201526001608082015260009060005b600581106100cb575050600055608052603260a0526040516132b2908161010b8239608051818181610eb20152611828015260a0518181816110370152611ccf0152f35b9091602060019160ff8551169060ff8560031b92831b921b19161793019101610087565b634e487b7160e01b600052604160045260246000fd5b600080fdfe610140604052600436101561001357600080fd5b60003560e01c806307ecba71146112085780630a1c87a91461105a5780630b4294321461101f5780631bae0ac814610fc45780632ad5e4d614610fad578063625904c814610f8f5780636790d2b514610ed55780636cd6eabf14610e9a5780636e209f2c14610d7d57806375debaad14610cb15780638efe14fd14610c8f578063a616b06914610c73578063ab196acd14610b01578063b3a16b191461098f578063b9bafb1014610955578063ba84838214610939578063c599d89b1461075a578063c841869d14610665578063ce9b43211461063f578063d38f4663146104be578063d4d91f10146101305763dc4a3e951461010f57600080fd5b3461012b57600036600319011261012b576020604051600a8152f35b600080fd5b3461012b57606036600319011261012b5760443560043560243580156104545781600052600160205260406000209060ff825416600781101561043e576002036103fa57608061017f83611395565b015143116103b6576101993361019484611395565b611c29565b9360028301946101a98187611591565b506001810190815461034c578460059255019081546040516020810190858252602081526101d860408261135d565b519020036102e35761021a6102146001927f40952b52f743bbd15dd7c9268b98cb4459193027cdb8d6a3d499cb50d7f173f395606095556114de565b88611591565b500154151592604051908682523360208301526040820152a161023957005b6102c0817ffadb9547847a0c2c31f4c02590545e318d33d7aae99071caecf3fa4ce3cd7dca946102bb600160076001600160a01b03960154600d850154604051906020820192835260408201526040815261029560608261135d565b5190201692600e810160ff851660ff19825416179055600360ff19825416178155611ccd565b611591565b50546040805193845291166001600160a01b03166020830152819081015b0390a1005b608460405162461bcd60e51b8152602060048201526024808201527f52616e646f6d6e65737320636f6d6d69746d656e7420646f6573206e6f74206d60448201527f61746368000000000000000000000000000000000000000000000000000000006064820152fd5b608460405162461bcd60e51b815260206004820152602560248201527f596f75206861766520616c7265616479207375626d697474656420796f75722060448201527f626f6172640000000000000000000000000000000000000000000000000000006064820152fd5b606460405162461bcd60e51b815260206004820152601360248201527f446561646c696e652068617320706173736564000000000000000000000000006044820152fd5b606460405162461bcd60e51b815260206004820152601d60248201527f526f6f6d206973206e6f7420696e207468652066756c6c2073746174650000006044820152fd5b634e487b7160e01b600052602160045260246000fd5b608460405162461bcd60e51b815260206004820152602160248201527f426f61726420636f6d6d69746d656e74206d757374206265206e6f6e2d7a657260448201527f6f000000000000000000000000000000000000000000000000000000000000006064820152fd5b3461012b5760a036600319011261012b5760043560443567ffffffffffffffff811161012b576104f290369060040161125f565b9160643567ffffffffffffffff811161012b57610513903690600401611290565b9360843567ffffffffffffffff811161012b5761053490369060040161125f565b95909284600052600160205260406000206105523361019483611395565b9160ff825416600781101561043e576005036105d5577f0b2140d601ef56c537167df622738f7062c329fd471b1f729edfa570296a3c8f986102de966105c7956105b7936105ab60ff600e8801541660ff891614611493565b888c6024358989611e5f565b805460ff19166006178155612c80565b604051938493339085611883565b608460405162461bcd60e51b815260206004820152602b60248201527f526f6f6d206973206e6f7420696e2074686520646973686f6e6573747920636c60448201527f61696d65642073746174650000000000000000000000000000000000000000006064820152fd5b3461012b57602036600319011261012b57602061065d600435611c0c565b604051908152f35b3461012b5761014036600319011261012b57600435604036602319011261012b57606435600381101561012b5760a43567ffffffffffffffff811161012b576106b290369060040161125f565b60c49291923567ffffffffffffffff811161012b576106d5903690600401611290565b60e49291923567ffffffffffffffff811161012b576106f890369060040161125f565b916101043567ffffffffffffffff811161012b5761071a903690600401611290565b959094610124359867ffffffffffffffff8a1161012b576107589a61074661074f9b369060040161125f565b9b909a826115b3565b608435906118da565b005b3461012b57602036600319011261012b5760043580600052600160205260406000209061078a3361019484611395565b90610794826114de565b600f8401544311156108f55760ff845416600781101561043e576002811491826108da575b6003821491600083156108cc575b83156108b9575b5050816108a5575b50811561089d575b50156108335761081d6102de927f294a1cc2e139b7d44dc4130a0e042162f4d48f289fe4e0a40ca50726a9d01ebc94600660ff19825416178155612c80565b6040805191825233602083015290918291820190565b608460405162461bcd60e51b815260206004820152602160248201527f4974206973206e6f7420656e656d792773207475726e20746f20726573706f6e60448201527f64000000000000000000000000000000000000000000000000000000000000006064820152fd5b9050846107de565b905060ff80600e87015416911614856107d6565b9091925061043e576005149086806107ce565b5060048114925060006107c7565b915060016108eb8360028801611591565b50015415916107b9565b606460405162461bcd60e51b815260206004820152601b60248201527f446561646c696e6520686173206e6f74207061737365642079657400000000006044820152fd5b3461012b57600036600319011261012b57602060405160058152f35b3461012b57602036600319011261012b57600435600581101561012b5760ff61097f6020926112c1565b90549060031b1c16604051908152f35b3461012b5760c036600319011261012b57600435604036602319011261012b57606435600381101561012b57604036608319011261012b576109d190826115b3565b80600052600160205260406000209060ff825416600781101561043e5760036109fa91146112ec565b610a073361019484611395565b61ffff6001600160a01b03610a35600e860193610a2c60ff86541660ff831614611493565b60028701611591565b50610a91600282019687549585610a4d818916611863565b168097871916178955610a67608460038601988954611de7565b8755600460ff1983541617825560ff610a82818354166114de565b1660ff19825416179055611ccd565b54169354169054926040519283526020830152604082015260843560ff8116810361012b5760ff16606082015260a4359060ff8216820361012b577fb72b4b2c796809161dbc42d5a7e6e0c75042fe6f953c2d35187a16cef28848bf9260ff60c09316608083015260a0820152a1005b604036600319011261012b57600435610b1934611c0c565b9081341115610c095780600052600160205260406000209060ff825416600781101561043e57610bc5577fcf1eefef99365c71f66cf7d03c056f6d828c32f1023712660c18ee3cd8585cb492608092600160ff19825416178155346001820155600281016001600160a01b03331673ffffffffffffffffffffffffffffffffffffffff1982541617905560076024359101556040519182523360208301523460408301526060820152a1005b606460405162461bcd60e51b815260206004820152601360248201527f526f6f6d20616c726561647920657869737473000000000000000000000000006044820152fd5b608460405162461bcd60e51b815260206004820152602960248201527f456e74727920666565206d7573742062652067726561746572207468616e206360448201527f6f6d6d697373696f6e00000000000000000000000000000000000000000000006064820152fd5b3461012b57600036600319011261012b57602060405160118152f35b3461012b57610758610cac610ca336611231565b9082939261172c565b611505565b3461012b5760e036600319011261012b5760443567ffffffffffffffff811161012b57610ce290369060040161125f565b60643567ffffffffffffffff811161012b57610d02903690600401611290565b60849391933567ffffffffffffffff811161012b57610d2590369060040161125f565b60a49291923567ffffffffffffffff811161012b57610d48903690600401611290565b93909260c4359767ffffffffffffffff891161012b57610d6f61075899369060040161125f565b9890976024356004356118da565b3461012b57606036600319011261012b57600435604036602319011261012b5780600052600160205260406000209060ff825416600781101561043e576003610dc691146112ec565b610dd33361019484611395565b61ffff6001600160a01b03610df8600e860193610a2c60ff86541660ff831614611493565b50610e2a600282019687549585610e10818916611863565b168097871916178955610a67602460038601988954611de7565b54169354169054926040519283526020830152604082015260243560ff8116810361012b5760ff1660608201526044359060ff8216820361012b577fb72b4b2c796809161dbc42d5a7e6e0c75042fe6f953c2d35187a16cef28848bf9260ff60c09316608083015260a0820152a1005b3461012b57600036600319011261012b5760206040517f00000000000000000000000000000000000000000000000000000000000000008152f35b3461012b57602036600319011261012b576004356000526001602052610efe6040600020611395565b8051600781101561043e5715610f4b578051600781101561043e57816001600160a01b0360406020606095015192015151511690610f3f6040518094611224565b60208301526040820152f35b606460405162461bcd60e51b815260206004820152601360248201527f526f6f6d20646f6573206e6f74206578697374000000000000000000000000006044820152fd5b3461012b57602036600319011261012b57602061065d60043561181e565b3461012b57610758610fbe36611231565b9161172c565b3461012b57602036600319011261012b5760043560005260016020526080604060002060ff81541690600181015490600f60ff600e830154169101549161100e6040518095611224565b602084015260408301526060820152f35b3461012b57600036600319011261012b5760206040517f00000000000000000000000000000000000000000000000000000000000000008152f35b604036600319011261012b5761107160043561181e565b806000526001602052604060002060ff815416600781101561043e576001036111c4576001810154340361115a576001600160a01b0360028201541633146111165760088101805473ffffffffffffffffffffffffffffffffffffffff191633179055602435600d820155805460ff191660021781557f7f3a14b18fc64242e1d87bbda3d879ff601bf57224f7daeaf8bf4658bb84da29916102de9161081d90611ccd565b606460405162461bcd60e51b815260206004820152601d60248201527f596f752063616e6e6f74206a6f696e20796f7572206f776e20726f6f6d0000006044820152fd5b608460405162461bcd60e51b815260206004820152602d60248201527f456e74727920666565206d75737420626520657175616c20746f20746865207260448201527f6f6f6d20656e74727920666565000000000000000000000000000000000000006064820152fd5b606460405162461bcd60e51b815260206004820152602060248201527f526f6f6d206973206e6f7420696e2074686520637265617465642073746174656044820152fd5b3461012b57602036600319011261012b57610758600435611505565b90600782101561043e5752565b90608060031983011261012b57604060043592602319011261012b57602490606435600381101561012b5790565b9181601f8401121561012b5782359167ffffffffffffffff831161012b576020808501948460051b01011161012b57565b9181601f8401121561012b5782359167ffffffffffffffff831161012b576020808501948460061b01011161012b57565b9060058210156112d657601f8260051c921690565b634e487b7160e01b600052603260045260246000fd5b156112f357565b608460405162461bcd60e51b815260206004820152602160248201527f526f6f6d206973206e6f7420696e207468652073686f6f74696e67207374617460448201527f65000000000000000000000000000000000000000000000000000000000000006064820152fd5b90601f8019910116810190811067ffffffffffffffff82111761137f57604052565b634e487b7160e01b600052604160045260246000fd5b9060405160a0810181811067ffffffffffffffff82111761137f57604052809260ff815416600781101561043e578252600181015460208301526040516040810181811067ffffffffffffffff82111761137f57604052600282016000825b6002821061141e57505050608091600f91604085015260ff600e8201541660608501520154910152565b60405160c0810181811067ffffffffffffffff82111761137f576001926006926020926040526001600160a01b038754168152848701548382015261ffff60028801541660408201526003870154606082015260048701546080820152600587015460a08201528152019301910190916113f4565b1561149a57565b606460405162461bcd60e51b815260206004820152601360248201527f4974206973206e6f7420796f7572207475726e000000000000000000000000006044820152fd5b60ff166001039060ff82116114ef57565b634e487b7160e01b600052601160045260246000fd5b806000526001602052604060002060ff81541691600783101561043e5761081d61158c9261155660037f674b1399cdd04131b1014fb0ad914c308eb69bac11c79cf09e05ce410863ce2e96146112ec565b6115633361019483611395565b60ff610a82600e84019261157d8385541684831614611493565b600583198654161785556114de565b0390a1565b9060028110156112d6576006020190600090565b359060ff8216820361012b57565b9081600052600160205260406000209160ff835416600781101561043e576004036116c2576115e53361019485611395565b9261ffff6001600160a01b036116126002840161160c6116058983611591565b50986114de565b90611591565b50956116456004820194611633886024600289549c019b888d541690611d57565b8655805460ff19166003178155611ccd565b54169454169054936040519283526020830152604082015260243560ff8116810361012b5760ff16606082015260443560ff8116810361012b5760ff166080820152600382101561043e577ffd7d6dcab3c23e806913769df4816e3d1fb4edb3917bf3f256cd1365cbeddc079260e09260a083015260c0820152a1565b608460405162461bcd60e51b815260206004820152602260248201527f526f6f6d206973206e6f7420696e2074686520616e73776572696e672073746160448201527f74650000000000000000000000000000000000000000000000000000000000006064820152fd5b91909180600052600160205260406000209260ff845416600781101561043e576004036116c25761ffff93846001600160a01b0361176d3361019485611395565b6117a761178b6002860161160c6117848583611591565b50946114de565b50946116338988600486019860028a5491019d8e541690611d57565b541695541690549460405193845260208401526040830152602060ff6117df826060860194836117d6826115a5565b168652016115a5565b16910152600382101561043e577ffd7d6dcab3c23e806913769df4816e3d1fb4edb3917bf3f256cd1365cbeddc079260e09260a083015260c0820152a1565b60405160208101917f0000000000000000000000000000000000000000000000000000000000000000835260408201526040815261185d60608261135d565b51902090565b61ffff1661ffff81146114ef5760010190565b3590811515820361012b57565b9081526001600160a01b0391909116602082015260606040820181905281018390526080019160005b8181106118b95750505090565b9091926020806001926118cb87611876565b151581520194019291016118ac565b94969091959b97929b9a999a856000526001602052604060002097611902336101948b611395565b9560ff8a541694600786101561043e578f908a90611925600361192c99146112ec565b898d611e5f565b60009889989061193c6064612bc5565b988b5b818110611b2b57505050505060009860005b875161ffff8216908110156119935761196a9089612c6c565b5161197e575b61197990611863565b611951565b9961198b61197991611863565b9a9050611970565b505093979296919550939761ffff6011911603611ac157600287019060036119bb8684611591565b50015403611a7d576119d260049161160c866114de565b50015403611a13576105c761158c927f53fc172dda2ed0176623bbca3c936bb2d85537947a5e23dd077b579ae1bf155c96600660ff19825416178155612c80565b608460405162461bcd60e51b815260206004820152602160248201527f416e737765727320646f6e2774206d6174636820656e656d7920616e7377657260448201527f73000000000000000000000000000000000000000000000000000000000000006064820152fd5b606460405162461bcd60e51b815260206004820152601a60248201527f53686f747320646f6e2774206d61746368206d792073686f74730000000000006044820152fd5b608460405162461bcd60e51b815260206004820152603760248201527f4e756d626572206f662073686970206869747320646f6573206e6f74206d617460448201527f6368206e756d626572206f6620736869702070617274730000000000000000006064820152fd5b600181019c9b8d82116114ef57611b4e908e611b4884868a612bf7565b91611de7565b9b60009d611b5d838589612bf7565b90611b69848888612c07565b35926003841015611c075790611b80939291611d57565b9c611bc1611ba260ff611b9c611b9786888c612bf7565b611cfe565b16612c17565b60ff611bba6020611bb487898d612bf7565b01611cfe565b1690612c56565b90611bcd838787612c07565b35906003821015611c045750600192918d91611bec575b50500161193f565b839161ffff611bfc921690612c6c565b528b38611be4565b80fd5b508f80fd5b6103e890046509184e72a00001806509184e72a000116114ef5790565b604001805151516001600160a01b0392831692168203611c4a575050600090565b5160200151516001600160a01b031603611c6357600190565b608460405162461bcd60e51b815260206004820152602160248201527f596f7520617265206e6f74206120706c6179657220696e207468697320726f6f60448201527f6d000000000000000000000000000000000000000000000000000000000000006064820152fd5b7f00000000000000000000000000000000000000000000000000000000000000004301908143116114ef57600f0155565b3560ff8116810361012b5790565b15611d1357565b606460405162461bcd60e51b815260206004820152601060248201527f496e76616c696420706f736974696f6e000000000000000000000000000000006044820152fd5b929091600a60ff611d6783611cfe565b161080611dca575b611d7890611d0c565b60ff611d91602082611d8985611cfe565b169301611cfe565b1690600383101561043e57604051936020850195865260408501526060840152608083015260a082015260a0815261185d60c08261135d565b50611d78600a60ff611dde60208501611cfe565b16109050611d6f565b91600a60ff611df583611cfe565b161080611e42575b611e0690611d0c565b60ff611e17602082611d8985611cfe565b169060405192602084019485526040840152606083015260808201526080815261185d60a08261135d565b50611e06600a60ff611e5660208501611cfe565b16109050611dfd565b9195989493909297969760805260c052611e8460ff600e8301541660ff841614611493565b606460a05260c05160631901612b525760405196611ea360c08961135d565b6005885260a03660208a0137611eba60c051612bc5565b986000610100525b600a60ff610100511610156125ec57969492909593916000610120525b600a60ff610120511610156125d257611f0c60ff6101205116611f0760ff6101005116612c17565b612c56565b60e05261ffff60e05116611f20818c612c6c565b51158015906125b9575b6125ac57611f3a6001918c612c6c565b52600a60ff611f4b61012051612d51565b16109687612590575b600a60ff611f6461010051612d51565b16109788612574575b88818061256d575b6125275715908161251e575b50612515575b600197156122be5760ff610100511661221f575b600998975b8b60c05161ffff611fbe60ff611fb586612b98565b1660e051612c56565b161080612202575b1561209157906001611fed61202a9361ffff611fe660ff611fb587612b98565b1690612c6c565b526101205160ff1680159061206e575b61200690612e12565b6101205160ff908116908c16818114910361202f575b61202590612fe5565b612f63565b611fa0565b5061202561206661206161ffff61205561204a60e051612c2e565b60ff611bba88612b98565b1660c051608051612c07565b612d44565b15905061201c565b5061200661208961206161ffff61205561204a60e051612d8c565b159050611ffd565b5060ff91939597999892949698600a836120ae8461010051612d63565b1610612156575b505b1660058111612110576000190160ff81116114ef5760ff6120f16120ea826120e3818f96168096612c6c565b5116612f63565b928c612c6c565b911690525b60ff60016101205101166101205296949290959391611edf565b60405162461bcd60e51b815260206004820152601760248201527f53686970206c656e67746820697320746f6f206c6f6e67000000000000000000604482015260a05190fd5b6101205183168015906121d8575b61216d90612e5d565b61218c61218661206161ffff61205587611fb588612b98565b15612f18565b61012051831690831681811491036121ae575b6121a890613030565b386120b5565b506121a86121d061206161ffff6120556121cb87611fb588612b98565b612c2e565b15905061219f565b5061216d6121fa61206161ffff6120556121f588611fb589612b98565b612d8c565b159050612164565b5061221a61206161ffff61205560ff611fb587612b98565b611fc6565b60ff610120511615801561229b575b61223790612da1565b61225461224e61206161ffff61205560e051612d77565b15612ecd565b6101205160ff166009148015612273575b61226e90612f74565b611f9b565b5061226e61229361206161ffff61205561228e60e051612c2e565b612d77565b159050612265565b506122376122b661206161ffff6120556121f560e051612d77565b15905061222e565b60ff610120511661247b575b600998975b8b60c05161ffff6122e560ff851660e051612c56565b16108061245d575b1561238b5790600161230e6123469361ffff611fe660ff861660e051612c56565b526101005160ff1680159061236b575b61232790612ecd565b6101005160ff908116908c16818114910361234b575b61202590612f18565b6122cf565b5061202561236361206161ffff61205560e051612c42565b15905061233d565b5061232761238361206161ffff61205560e051612d77565b15905061231e565b5060ff91939597999892949698600a836123a88461012051612d63565b16106123b5575b506120b7565b6101005161240b91908416801590612437575b6123d190612f74565b8383166123f26123ec61206161ffff6120558560e051612c56565b15612fe5565b6101005185169185168281149203612411575b50613030565b386123af565b612430915061ffff61205561242b6120619360e051612c56565b612c42565b1538612405565b506123d161245561206161ffff61205561228e89891660e051612c56565b1590506123c8565b5061247661206161ffff61205560ff861660e051612c56565b6122ed565b60ff61010051161580156124f2575b61249390612da1565b6124b06124aa61206161ffff61205560e051612d8c565b15612e12565b6101005160ff1660091480156124cf575b6124ca90612e5d565b6122ca565b506124ca6124ea61206161ffff6120556121f560e051612c42565b1590506124c1565b5061249361250d61206161ffff6120556121f560e051612d77565b15905061248a565b60019750611f87565b90501538611f81565b60405162461bcd60e51b815260206004820152602060248201527f496e76616c6964207368697020706c6163656d656e7420284c2d736861706529604482015260a05190fd5b5080611f75565b975061258a61206161ffff61205560e051612c42565b97611f6d565b96506125a661206161ffff61205560e051612c2e565b96611f54565b50919395909294966120f6565b506125cc6120618260c051608051612c07565b15611f2a565b9193959092949660ff600161010051011661010052611ec2565b9091929394959796985060005b60ff8116600581101561267d5761261260ff918a612c6c565b511660ff61261f836112c1565b90549060031b1c16036126375760010160ff166125f9565b60405162461bcd60e51b815260206004820152601260248201527f496e76616c6964207368697020636f756e740000000000000000000000000000604482015260a05190fd5b5050929550929596909396604051602081019182526040810160805160005b60c0518110612b33575050906126be816002949303601f19810183528261135d565b51902094019360016126d08787611591565b50015403612aed576000926000968790838503612a82576126f260c051612bc5565b90895b8681106127c157505050505050506003612717612711856114de565b84611591565b5001540361277b5760049161272b91611591565b5001540361273557565b60405162461bcd60e51b815260206004820152601e60248201527f416e737765727320646f6e2774206d61746368206d7920616e73776572730000604482015260a05190fd5b60405162461bcd60e51b815260206004820152601d60248201527f53686f747320646f6e2774206d6174636820656e656d792073686f7473000000604482015260a05190fd5b600181019a978b82116114ef576127de908c611b48848b87612bf7565b9760009b6127ed838a86612bf7565b906127f9848a8a612c07565b35926003841015612a7e5790612810939291611d57565b9a61281c828985612bf7565b61282590611cfe565b60ff1661283190612c17565b61283c838a86612bf7565b60200161284890611cfe565b60ff1661285491612c56565b61ffff811660c051816080519161286a92612c07565b61287390612d44565b612909575050612884828888612c07565b35906003821015611c04575061289e576001905b016126f5565b608460405162461bcd60e51b815260206004820152602d60248201527f4d69737365642073686f742063616e6e6f7420626520616e737765726564206160448201527f7320686974206f722073756e6b0000000000000000000000000000000000000060a051820152fd5b6129138187612c6c565b5115612a60575b90600161292a6129379388612c6c565b528560c0516080516130a1565b156129ce57612947828888612c07565b35906003821015611c0457506001190161296357600190612898565b608460405162461bcd60e51b815260206004820152602a60248201527f536869702063616e6e6f742062652073756e6b20696620697420686173206e6f60448201527f74206265656e206869740000000000000000000000000000000000000000000060a051820152fd5b6129d9828888612c07565b35906003821015611c045750600019016129f557600190612898565b608460405162461bcd60e51b815260206004820152603060248201527f53686970206d7573742062652073756e6b20696620616c6c206974732070617260448201527f74732068617665206265656e206869740000000000000000000000000000000060a051820152fd5b9590600161292a612a7361293794611863565b98929350505061291a565b8e80fd5b608460405162461bcd60e51b815260206004820152602b60248201527f53686f747320616e6420616e7377657273206d7573742068617665207468652060448201527f73616d65206c656e67746800000000000000000000000000000000000000000060a051820152fd5b60405162461bcd60e51b815260206004820152601f60248201527f426f61726420636f6d6d69746d656e7420646f6573206e6f74206d6174636800604482015260a05190fd5b9091602080600192612b4486611876565b15158152019301910161269c565b60405162461bcd60e51b815260206004820152601260248201527f496e76616c696420626f6172642073697a650000000000000000000000000000604482015260a05190fd5b60ff600a9116029060ff82169182036114ef57565b67ffffffffffffffff811161137f5760051b60200190565b90612bcf82612bad565b612bdc604051918261135d565b8281528092612bed601f1991612bad565b0190602036910137565b91908110156112d65760061b0190565b91908110156112d65760051b0190565b61ffff600a9116029061ffff82169182036114ef57565b61ffff60019116019061ffff82116114ef57565b61ffff600a9116019061ffff82116114ef57565b9061ffff8091169116019061ffff82116114ef57565b80518210156112d65760209160051b010190565b906001600160a01b03612c9860019260028501611591565b5054169101548060011b907f7fffffffffffffffffffffffffffffffffffffffffffffffffffffffffffffff811681036114ef57612cd590611c0c565b90818103918183116114ef5783839160009314612d3a575b600092839283928392f115612d2e577fee97096f32eed49908b904623ae7ba7af58c121e15fe6e7f31ac379fb7ca1a989160409182519182526020820152a1565b6040513d6000823e3d90fd5b6108fc9250612ced565b35801515810361012b5790565b60ff60019116019060ff82116114ef57565b9060ff8091169116019060ff82116114ef57565b61ffff6009199116019061ffff82116114ef57565b61ffff6000199116019061ffff82116114ef57565b15612da857565b608460405162461bcd60e51b815260206004820152602160248201527f496e76616c6964207368697020706c6163656d656e742028746f702d6c65667460448201527f29000000000000000000000000000000000000000000000000000000000000006064820152fd5b15612e1957565b606460405162461bcd60e51b815260206004820152601d60248201527f496e76616c6964207368697020706c6163656d656e7420286c656674290000006044820152fd5b15612e6457565b608460405162461bcd60e51b8152602060048201526024808201527f496e76616c6964207368697020706c6163656d656e742028626f74746f6d2d6c60448201527f65667429000000000000000000000000000000000000000000000000000000006064820152fd5b15612ed457565b606460405162461bcd60e51b815260206004820152601c60248201527f496e76616c6964207368697020706c6163656d656e742028746f7029000000006044820152fd5b15612f1f57565b606460405162461bcd60e51b815260206004820152601f60248201527f496e76616c6964207368697020706c6163656d656e742028626f74746f6d29006044820152fd5b60ff1660ff81146114ef5760010190565b15612f7b57565b608460405162461bcd60e51b815260206004820152602260248201527f496e76616c6964207368697020706c6163656d656e742028746f702d7269676860448201527f74290000000000000000000000000000000000000000000000000000000000006064820152fd5b15612fec57565b606460405162461bcd60e51b815260206004820152601e60248201527f496e76616c6964207368697020706c6163656d656e74202872696768742900006044820152fd5b1561303757565b608460405162461bcd60e51b815260206004820152602560248201527f496e76616c6964207368697020706c6163656d656e742028626f74746f6d2d7260448201527f69676874290000000000000000000000000000000000000000000000000000006064820152fd5b91906130ac84612c2e565b61ffff81811690600a820616151580613268575b156130ed576130cf9084612c6c565b51156130e3576130de90611863565b6130ac565b5050505050600090565b5050929161ffff831693846131da575b60649361310981612c42565b61ffff8116868110806131c6575b15613146576131269086612c6c565b511561313a5761313590612c42565b613109565b50505050505050600090565b50509194600a919450101561315f575b50505050600190565b61316890612d77565b61ffff811661317b612061828688612c07565b156131bc5761318a8184612c6c565b51156130e357600a116131ae576120616131a661317b92612d77565b915050613168565b505050505b38808080613156565b50505050506131b3565b506131d5612061828688612c07565b613117565b939291906131e783612d8c565b600995905b61ffff81811690600a82061688141580613254575b15613247576132108186612c6c565b511561323a571561322e5761ffff1680156114ef57600019016131ec565b509091929394506130fd565b5050505050505050600090565b50509091929394506130fd565b50613263612061828587612c07565b613201565b50613277612061828588612c07565b6130c056fea26469706673582212201eded8529bfbeb954da85540461ea0c8394e3d9bc04a3ab6d8ae7bb2768591f464736f6c634300081c0033",
  "linkReferences": {},
  "deployedLinkReferences": {}
}